:020000040000FA
:100000000C9462000C9423060C94FC050C948A005A
:100010000C948A000C948A000C948A000C948A0038
:100020000C948A000C948A000C948A000C948A0028
:100030000C948A000C948A000C948A000C948A0018
:100040000C94B2050C948A000C9470060C944A0629
:100050000C948A000C948A000C948A000C948A00F8
:100060000C94A2060C948A000000000024002700D3
:100070002A0000000000250028002B0000000000DE
:1000800023002600290004040404040404040202DA
:100090000202020203030303030301020408102007
:1000A0004080010204081020010204081020000012
:1000B0000008000201000003040700000000000027
:1000C0000000C10711241FBECFEFD8E0DEBFCDBFB7
:1000D00012E0A0E0B1E0E8E9F6E102C005900D927F
:1000E000A230B107D9F723E0A2E0B2E001C01D922F
:1000F000A336B207E1F710E0C2E6D0E004C02197D2
:10010000FE010E94350BC136D107C9F70E94FA07DC
:100110000C944A0B0C940000833081F028F4813059
:1001200099F08230A9F008958730A9F08830C9F09D
:100130008430B1F4809180008F7D03C08091800075
:100140008F7780938000089584B58F7784BD08955C
:1001500084B58F7DFBCF8091B0008F778093B00006
:1001600008958091B0008F7DF9CFCF93DF93E1EBBD
:10017000F0E08491EDE9F0E0D491E9E8F0E0C49199
:10018000CC23A1F081110E948C00EC2FF0E0EE0F47
:10019000FF1FE458FF4FA591B491EC91ED2381E04E
:1001A00090E009F480E0DF91CF91089580E090E045
:1001B000FACF1F93CF93DF93282F30E0F901E25558
:1001C000FF4F8491F901E656FF4FD491F901EA57A8
:1001D000FF4FC491CC23A9F0162F81110E948C00EF
:1001E000EC2FF0E0EE0FFF1FEE58FF4FA591B491FA
:1001F0008FB7F894EC91111108C0D095DE23DC93F1
:100200008FBFDF91CF911F910895DE2BF8CFCF9351
:10021000DF9390E0FC01E656FF4F24918A579F4FF1
:10022000FC0184918823D1F090E0880F991FFC0194
:10023000E859FF4FA591B491FC01EE58FF4FC591CD
:10024000D49161110EC09FB7F8948C91E22FE09584
:100250008E238C932881E223E8839FBFDF91CF9187
:1002600008958FB7F894EC91E22BEC938FBFF6CF03
:100270001F93CF93DF93182FEB0161E00E940701DA
:10028000209739F460E0812FDF91CF911F910C947A
:10029000D900CF3FD10511F461E0F5CFE12FF0E0B7
:1002A000E255FF4FE491E33031F140F4E130B1F039
:1002B000E230E1F0C038D1057CF7E4CFE73029F136
:1002C000E83059F1E430B1F780918000806280938A
:1002D0008000D0938B00C0938A0004C084B58068EE
:1002E00084BDC7BDDF91CF911F91089584B5806211
:1002F00084BDC8BDF7CF8091800080688093800066
:10030000D0938900C0938800EDCF8091B0008068C1
:100310008093B000C093B300E5CF8091B0008062BD
:100320008093B000C093B400DDCF8E508064809382
:100330007C0080917A00806480937A0080917A00BA
:1003400086FDFCCF809178009091790008953FB7A9
:10035000F8948091B6029091B702A091B802B09142
:10036000B90226B5A89B05C02F3F19F00196A11D23
:10037000B11D3FBFBA2FA92F982F8827BC01CD01EF
:10038000620F711D811D911D43E0660F771F881F4D
:10039000991F4A95D1F708958F929F92AF92BF927D
:1003A000CF92DF92EF92FF924B015C010E94A70176
:1003B0006B017C010E94A7016C197D098E099F09C0
:1003C000683E734081059105A8F321E0821A9108E7
:1003D000A108B10888EEC80E83E0D81EE11CF11C0C
:1003E00081149104A104B10429F7FF90EF90DF90EC
:1003F000CF90BF90AF909F908F90089508951092E6
:10040000A5021092A40261E086E00E94D90061E09A
:1004100085E00C94D900E0919C02F0919D02309708
:1004200029F0109297021092960209940895CF93A2
:10043000DF93AC01E0919A02F0919B023097F1F0CA
:1004400090919902809198029817C0F090E0292F1E
:1004500030E02617370754F4D901AE5FBD4F240FA3
:10046000351FE90128812C939F5FF1CF10929902EB
:1004700060939802CB01DF91CF910994DF91CF91E6
:100480000895AF92BF92CF92DF92EF92FF920F93B7
:100490001F93CF93DF936C017B018B01040F151F1A
:1004A000EB015E01AE18BF08C017D10759F0699182
:1004B000D601ED91FC910190F081E02DC6010995E6
:1004C000892B79F7C501DF91CF911F910F91FF9093
:1004D000EF90DF90CF90BF90AF900895FC01538DC7
:1004E000448D252F30E0842F90E0821B930B54170E
:1004F00010F0CF96089501970895FC01918D828D9B
:10050000981761F0A28DAE0FBF2FB11D5D968C9133
:10051000928D9F5F9F73928F90E008958FEF9FEF72
:100520000895FC01918D828D981731F0828DE80F2E
:10053000F11D858D90E008958FEF9FEF0895FC01E8
:10054000918D228D892F90E0805C9F4F821B9109B5
:100550008F73992708958AEB92E00E949F0221E011
:10056000892B09F420E0822F089580E090E0892B08
:1005700029F00E94AB0281110C9400000895FC0147
:10058000A48DA80FB92FB11DA35ABF4F2C91848DF4
:1005900090E001968F739927848FA689B7892C9351
:1005A000A089B1898C91837080648C93938D848DA4
:1005B000981306C00288F389E02D80818F7D8083A7
:1005C0000895EF92FF920F931F93CF93DF93EC0167
:1005D00081E0888F9B8D8C8D98131AC0E889F989EA
:1005E000808185FF15C09FB7F894EE89FF896083ED
:1005F000E889F98980818370806480839FBF81E06E
:1006000090E0DF91CF911F910F91FF90EF900895AF
:10061000F62E0B8D10E00F5F1F4F0F731127E02E8A
:100620008C8D8E110CC00FB607FCFACFE889F989C2
:10063000808185FFF5CFCE010E94BF02F1CFEB8D07
:10064000EC0FFD2FF11DE35AFF4FF0829FB7F89496
:100650000B8FEA89FB8980818062CFCFCF93DF93B4
:10066000EC01888D8823B9F0AA89BB89E889F989CA
:100670008C9185FD03C0808186FD0DC00FB607FCFF
:10068000F7CF8C9185FFF2CF808185FFEDCFCE0132
:100690000E94BF02E9CFDF91CF91089520914802D7
:1006A000260F3327331F21323105ECF420916C02E1
:1006B000FC0190E080E0243069F082E00895A09190
:1006C00048022191AC01485D5D4FA40FB52FB11DCB
:1006D0002C930196861798F380914802680F6093D7
:1006E000480280E0089581E0089510926C0281E054
:1006F00080936E0210926D0261E082E10E94D90047
:1007000061E083E10E94D900E9EBF0E080818E7F17
:10071000808380818D7F808380E28093B80085E430
:100720008093BC0008950895E09199028091980209
:10073000E81730F4F0E0EE5FFD4F808190E008951F
:100740008FEF9FEF089590919902809198022FEF7B
:100750003FEF981748F4E92FF0E0EE5FFD4F20815E
:1007600030E09F5F90939902C901089580919802AB
:1007700090919902891B990B0895CF93DF93CB0138
:10078000EA01642F0E944E03CE01DF91CF910895BC
:10079000CF93DF931F92CDB7DEB7698361E0CE01BF
:1007A00001960E944E0381E090E00F90DF91CF917F
:1007B000089590E080E00895892B69F087E593E043
:1007C0000E94A303803839F48091B002882319F085
:1007D00081E08093AF020895FC0101900020E9F7C9
:1007E0003197AF01481B590BBC018AEB92E00C9486
:1007F00041028F929F92AF92BF920F931F93CF931C
:10080000DF93CDB7DEB7A1970FB6F894DEBF0FBE6A
:10081000CDBF19A2423008F44AE08E010F5D1F4F90
:10082000842E912CB12CA12CA50194010E94040BC3
:10083000E62FB901CA01EA30F4F4E05DD801EE9385
:100840008D01232B242B252B79F790E080E0109746
:1008500019F0CD010E94EC03A1960FB6F894DEBF0B
:100860000FBECDBFDF91CF911F910F91BF90AF9081
:100870009F908F900895E95CE1CFCF93DF93D0E014
:10088000C0E0009719F00E94EC03EC0188E291E0CF
:100890000E94EC038C0F9D1FDF91CF910895CF93A1
:1008A000DF93C091AD02D091AE026C2F87E593E04B
:1008B0000E94C8032B9761F48BE291E00E943D04F3
:1008C00042E050E060EA72E087E593E00E94BD03F9
:1008D0001092AE021092AD02DF91CF910895109266
:1008E000A5021092A4028FE491E00E943D0461E011
:1008F00086E00E94D90061E085E00C94D9000E9456
:100900006F048BE591E00E943D046AEF70E080E0A7
:1009100090E00C94CC01CF92DF92EF92FF92CF93B4
:10092000DF9397FF1BC06B017C016DE28AEB92E0C5
:100930000E94E102EC0166277727CB016C197D0943
:100940008E099F094AE00E94F9038C0F9D1FDF91D9
:10095000CF91FF90EF90DF90CF9008954AE0DF9124
:10096000CF91FF90EF90DF90CF900C94F903CF934D
:100970009091A602981789F1C82F81110AC0809121
:10098000A7029091A802892B21F090E080E00E94BC
:10099000EF04C093A60288E691E00E94EC03609108
:1009A000A60270E090E080E00E948B0488E291E073
:1009B0000E94EC038091A602882349F061E088E060
:1009C0000E94D90061E089E0CF910C94D90060E0E9
:1009D00088E00E94D90060E0F6CFCF910895CF93D0
:1009E000DF93EC01892B19F081E00E94B704D093CA
:1009F000A802C093A7028BE791E00E94EC036091EC
:100A0000A7027091A802072E000C880B990B0E9478
:100A10008B0487E891E00E94EC038091A7029091FB
:100A2000A802892B31F088E791E0DF91CF910C94F7
:100A30003D0484E791E0F9CF1092B0021092AF022A
:100A400080E00E94B7041092A8021092A7028AE0E8
:100A500090E09093AE028093AD020895CF93DF9320
:100A6000682F70E090E080E04AE00E94F903EC011A
:100A700088E291E00E94EC038C0F9D1FDF91CF91E3
:100A8000089581E08CBB8FEF91E0909301018093FA
:100A90000001E9E6F0E080818C7F82608083E89A43
:100AA0006091AB0270E086E00E94380170E060E087
:100AB00085E00C943801CF93DF9385ED8093BC00E3
:100AC0008091240290912502A0912602B0912702E4
:100AD0000796A11DB11D23E0B695A795979587951B
:100AE0002A95D1F72091BC0024FD03C010926C021E
:100AF00036C04091240250912502609126027091E7
:100B00002702452B462B472B69F30097A105B1051A
:100B100041F025E12A95F1F700000197A109B109FB
:100B2000E1CF8091230291E0909322028823B9F0D3
:100B3000C091B800D091BA008091BC008A7B8093AC
:100B4000BC0060E082E10E94D90060E083E10E9485
:100B5000D9000E947503D093BA00C093B800DF910A
:100B6000CF9108951F920F920FB60F9211242F93D9
:100B70003F938F939F93AF93BF938091B2029091D5
:100B8000B302A091B402B091B5023091B10226E057
:100B9000230F2D3758F50296A11DB11D2093B102E8
:100BA0008093B2029093B302A093B402B093B502C3
:100BB0008091B6029091B702A091B802B091B902AB
:100BC0000196A11DB11D8093B6029093B702A09328
:100BD000B802B093B902BF91AF919F918F913F91AD
:100BE0002F910F900FBE0F901F90189529E8230F9B
:100BF0000396A11DB11DD2CF1F920F920FB60F9277
:100C000011242F933F934F935F936F937F938F9311
:100C10009F93AF93BF93EF93FF93E0910201F09105
:100C200003010995FF91EF91BF91AF919F918F9132
:100C30007F916F915F914F913F912F910F900FBED8
:100C40000F901F9018951F920F920FB60F921124BC
:100C50002F933F934F935F936F937F938F939F93C4
:100C6000AF93BF93EF93FF93E0910001F0910101E7
:100C70000995FF91EF91BF91AF919F918F917F91D6
:100C80006F915F914F913F912F910F900FBE0F90F9
:100C90001F9018951F920F920FB60F9211242F9349
:100CA0003F934F935F936F937F938F939F93AF93F4
:100CB000BF93EF93FF938AEB92E00E94BF02FF91F4
:100CC000EF91BF91AF919F918F917F916F915F91C4
:100CD0004F913F912F910F900FBE0F901F9018953D
:100CE0001F920F920FB60F9211242F938F939F9301
:100CF000EF93FF93E091CA02F091CB028081E091E3
:100D0000D002F091D10282FD1BC090818091D3026C
:100D10008F5F8F732091D402821741F0E091D3024C
:100D2000F0E0E654FD4F958F8093D302FF91EF9151
:100D30009F918F912F910F900FBE0F901F9018953C
:100D40008081F4CF1F920F920FB60F9211242F9330
:100D50003F934F935F936F937F938F939F93AF9343
:100D6000BF93EF93FF938091B900887F803609F499
:100D70004AC0F0F5883209F4A7C018F5803109F4AB
:100D80009BC0B8F4882309F4F9C0883009F494C0F2
:100D9000FF91EF91BF91AF919F918F917F916F9153
:100DA0005F914F913F912F910F900FBE0F901F9029
:100DB0001895883109F488C0803251F780936B020E
:100DC00014C0803409F49DC040F48033B9F38833F3
:100DD000F9F680936B0285ECB0C0803509F485C0CC
:100DE000883509F496C0883499F60E945B05D0CF07
:100DF000883909F48CC038F5883729F050F48836E2
:100E000011F0803729F683E080936C0210926A0219
:100E100057C0883809F47BC0803919F0803809F050
:100E2000B7CF80916A02803208F071C0E0916A0207
:100E300081E08E0F80936A028091BB00F0E0E65B58
:100E4000FD4F80833DC0803B39F0E0F4803A09F4E7
:100E500079C0883A09F09CCF84E080936C021092AC
:100E6000490210924802E0919402F091950209958E
:100E70008091480281110FC081E080934802109256
:100E8000280209C0803C09F4A6CF883C09F4A3CF0E
:100E9000883B09F07DCFE091490281E08E0F80937D
:100EA0004902F0E0E85DFD4F80818093BB009091A6
:100EB00049028091480229C0809191028093BB0031
:100EC00085EC8093BC0064CF9091900280918F025A
:100ED000981758F5E091900281E08E0F8093900270
:100EE000F0E0E159FD4F8081E9CFE091900281E08F
:100EF0008E0F809390028091BB00F0E0E159FD4F8E
:100F000080839091900280918F029817C8F285E8B3
:100F1000D8CFE091900281E08E0F80939002809173
:100F2000BB00F0E0E159FD4F808380916E0281119A
:100F30005CCF81E080936D0284EA8093BC001092C4
:100F40006C0226CF85EC8093BC0010926C028091DD
:100F50006A02803230F4E0916A02F0E0E65BFD4F15
:100F6000108260916A0270E0E0919202F091930227
:100F70008AE492E0099510926A020ACF10926B02FD
:100F800034CFEAEBF2E01382128288EE93E0A0E025
:100F9000B0E084839583A683B78328E031E0318372
:100FA000208325EC30E03587248724EC30E0378738
:100FB000268720EC30E0318B208B21EC30E0338B26
:100FC000228B22EC30E0358B248B26EC30E0378B03
:100FD000268B118E128E138E148EE7E5F3E01382AA
:100FE000128284839583A683B7838AE191E09183FB
:100FF00080830895789484B5826084BD84B58160CF
:1010000084BD85B5826085BD85B5816085BD8091D3
:101010006E00816080936E0010928100809181004B
:101020008260809381008091810081608093810043
:10103000809180008160809380008091B100846005
:101040008093B1008091B00081608093B000809166
:101050007A00846080937A0080917A008260809325
:101060007A0080917A008E7F80937A0080917A0056
:10107000806880937A001092C100E091CA02F091DA
:10108000CB0282E08083E091C602F091C702108219
:10109000E091C802F091C90288E080831092D202E8
:1010A000E091CE02F091CF0286E08083E091CC0205
:1010B000F091CD02808180618083E091CC02F0913B
:1010C000CD02808188608083E091CC02F091CD02D6
:1010D000808180688083E091CC02F091CD02808194
:1010E0008F7D808360E08EE00E94070160E08FE0EA
:1010F0000E94070160E080E10E94070160E081E159
:101100000E94070160E084E10E94070161E088E03D
:101110000E94070161E089E00E94070161E08DE023
:101120000E94070161E086E00E94070161E085E01E
:101130000E94070161E087E00E94070160E082E011
:101140000E94070160E083E00E94070170E060E018
:1011500086E00E94380170E060E085E00E9438017E
:101160001092990210929802109297021092960291
:101170000E9475038BE092E0909395028093940215
:1011800087E192E0909393028093920284E58093AA
:10119000BA008CED93E090939B0280939A028FE4C7
:1011A00094E090939D0280939C0288248A9423E08B
:1011B000922EA12CB12C35E0232E312C44244394C3
:1011C000512C89E0682E712C9EEFC92E91E0D92E0A
:1011D0000E94B500682F8DE00E94D9000091A00206
:1011E0001091A10210939F0200939E0284E10E943D
:1011F00095019801281B390BC901181619060CF026
:1012000092C084E10E949501081B190B0230110560
:101210000CF091C08091B0028823B9F08091AF02A8
:10122000882399F08091AD029091AE020A9769F0FF
:101230001092AF020E94B500892B09F09CC08BEB85
:1012400091E00E943D040E941C0581E10E949501ED
:101250009C01A5E6BFEF0E943B0BA50194010E94F3
:10126000E50A21503F4F4F4F5F4F2093AC0280E182
:101270000E9495019C01A5E6BFEF0E943B0BA501D2
:1012800094010E94E50A21503F4F4F4F5F4F20933A
:10129000AB028EE00E9495017C018FE00E949501D7
:1012A0008C016AE070E080E090E00E94CC018091C7
:1012B000A202882309F468C092E0E916F10424F43C
:1012C000023011050CF479C0C7014F9787329105A0
:1012D00008F48DC08A5591098732910508F452C0EF
:1012E0008A5A9109879708F459C02FEDE21623E036
:1012F000F2060CF056C0C8014F978732910508F4EA
:1013000053C08A5591098732910508F450C08A5A12
:101310009109879708F44EC00F3D33E01307A4F1FD
:10132000C5E0D0E031C084E10E949501801B910BA3
:1013300002970CF46FCF84E10E9495019093A10273
:101340008093A00280EA91E00E94EC036091A002E9
:101350007091A102072E000C880B990B0E948B0440
:1013600087EB91E00E943D048BE090E09093AE0209
:101370008093AD024FCF0E9441053092AE02209281
:10138000AD0263CFC3E0D0E082E0E816F10424F4BC
:1013900081E0023011059CF080E011C0C1E0D0E096
:1013A000F3CFC2E0D0E0F0CFC8E0D0E0EDCFC7E0AF
:1013B000D0E0EACFC6E0D0E0E7CFD0E0C0E0809355
:1013C000A2028091A9029091AA028C179D0709F4AC
:1013D00039C0D093AA02C093A9028091B002882399
:1013E00049F0C530D10571F50E941C052BC0C4E041
:1013F000D0E0D2CFFE013197E830F10518F5ED5F6E
:10140000F54F0C94350B0B0A440A520A7C0A4F0A1A
:10141000A60AB70ADB0A2091A7023091A80222305F
:10142000310569F1C901992701962817390749F54E
:101430008091A7029091A802992702969093AE02FC
:101440008093AD028091A4029091A5028130910514
:1014500011F0019639F46091AC0270E08091A30222
:101460000E94380180E090E0892B09F4B1CE0E94FF
:10147000AB02882309F4A5CE0E940000A2CE90E022
:1014800080E00E94EF04D4CF9091A60281E08927EA
:101490000E94B7048091A60290E00696CFCF0E94EA
:1014A0006F04D0CF8091A4029091A502019711F40E
:1014B0000E947F048FEF9FEF9093A5028093A40278
:1014C00086EC91E00E94EC038091AC020E942E0514
:1014D000E898D0920101C092000185E08093A302B8
:1014E00070E060E086E00E9438016091AC0270E03C
:1014F00085E00E943801A6CF8091A4029091A502B8
:10150000892B29F08AED91E00E943D049BCF8EEC5F
:1015100091E00E94EC038091AB020E942E0581E0D5
:101520008CBB8FEF91E0909301018093000180913B
:1015300069008C7F826080936900E89A70E060E0C7
:1015400086E00E9438016091AB02D1CF8091A40265
:101550009091A502892BB1F685EF91E00E94EC03F2
:101560008091AB020E942E050E9441056BCF8091B5
:10157000A4029091A502019611F40E947F0450925A
:10158000A5024092A4028DEE91E00E94EC038091AE
:10159000AC020E942E05E898D0920101C092000191
:1015A00086E08093A3026091AC0270E00E94380153
:1015B00070E060E09DCF81E08093B0027092AE0257
:1015C0006092AD020E94B7043DCF052E97FB1EF43A
:1015D00000940E94FC0A57FD07D00E94040B07FCF0
:1015E00003D04EF40C94FC0A50954095309521950B
:1015F0003F4F4F4F5F4F089590958095709561953F
:101600007F4F8F4F9F4F0895A1E21A2EAA1BBB1B3D
:10161000FD010DC0AA1FBB1FEE1FFF1FA217B307BE
:10162000E407F50720F0A21BB30BE40BF50B661FD4
:10163000771F881F991F1A9469F760957095809598
:1016400090959B01AC01BD01CF010895A29FB0010F
:10165000B39FC001A39F700D811D1124911DB29FE6
:10166000700D811D1124911D0895EE0FFF1F05902F
:10167000F491E02D09940E94260B332312F48A1B67
:101680009B0B0C94450B0E94260BB7FF0895821B01
:10169000930B0895F894FFCFFE01FE0100000000B7
:1016A000E10241026E022E039F027D0291020000C0
:1016B0000000C803BD03D9039303B603A303940337
:1016C0000D0A0052657175657374696E67206E65E9
:1016D00077204578706F737572652054696D652049
:1016E00076616C75652E004D6F746F723A2053747D
:1016F0006F70002842726965666C792E2E2E290063
:101700004C616D70206D6F64653A20006F757400D8
:10171000696E005A6F6F6D206D6F64653A20002E00
:101720002054656C6C696E67205261737069207417
:101730006F207A6F6F6D20004E6577204578706F4F
:10174000737572652053657474696E673A20002062
:1017500020200046696C6D20656E646564004D6FE5
:10176000746F723A203C3C2061742053706565644C
:1017700020004D6F746F72206E6F742073746F70E1
:101780007065642E004D6F746F723A203E3E20618A
:0A17900074205370656564200000AA
:107800000C94343C0C94513C0C94513C0C94513CE1
:107810000C94513C0C94513C0C94513C0C94513CB4
:107820000C94513C0C94513C0C94513C0C94513CA4
:107830000C94513C0C94513C0C94513C0C94513C94
:107840000C94513C0C94513C0C94513C0C94513C84
:107850000C94513C0C94513C0C94513C0C94513C74
:107860000C94513C0C94513C11241FBECFEFD8E036
:10787000DEBFCDBF11E0A0E0B1E0EAE8FFE702C063
:1078800005900D92A230B107D9F712E0A2E0B1E065
:1078900001C01D92AD30B107E1F70E942D3D0C945F
:1078A000C33F0C94003C982F95959595959595958B
:1078B000905D8F708A307CF0282F295A8091C0000B
:1078C00085FFFCCF9093C6008091C00085FFFCCF60
:1078D0002093C6000895282F205DF0CF982F809127
:1078E000C00085FFFCCF9093C6000895EF92FF92F1
:1078F0000F931F93EE24FF2487018091C00087FD22
:1079000017C00894E11CF11C011D111D81E2E8164D
:1079100081EAF80687E0080780E0180770F3E09135
:107920000401F091050109958091C00087FFE9CF1E
:107930008091C6001F910F91FF90EF9008950E94D3
:10794000763C982F8091C00085FFFCCF9093C600B5
:1079500091362CF490330CF09053892F089597555D
:10796000892F08951F930E949F3C182F0E949F3CCF
:107970001295107F810F1F9108951F93182F882350
:1079800021F00E94763C1150E1F71F9108951F935A
:10799000182F0E94763C803249F0809103018F5F5E
:1079A000809303018530C1F01F9108958091C0003C
:1079B00085FFFCCF84E18093C6008091C00085FFE5
:1079C000FCCF1093C6008091C00085FFFCCF80E102
:1079D0008093C6001F910895E0910401F091050184
:1079E00009951F9108950E94763C803241F0809164
:1079F00003018F5F80930301853081F008958091AA
:107A0000C00085FFFCCF84E18093C6008091C00058
:107A100085FFFCCF80E18093C6000895E0910401CA
:107A2000F09105010995089548EC50E08823A1F0F4
:107A30002D9A28EE33E0FA013197F1F721503040CA
:107A4000D1F72D9828EE33E0FA013197F1F7215064
:107A50003040D1F7815061F708953F924F925F9285
:107A60006F927F928F929F92AF92BF92CF92DF924E
:107A7000EF92FF920F931F93CF93DF93000082E06A
:107A80008093C00080E18093C4001092C50088E11B
:107A90008093C10086E08093C2005098589A259A3E
:107AA00081E00E94143D24E1F22E9EE1E92E85E959
:107AB000D82E0FE0C02E10E1B12EAA24A394B1E479
:107AC0009B2EA6E58A2EF2E57F2EE0E26E2E79E46B
:107AD000572E63E5462E50E5352E0E94763C8033C6
:107AE000B1F18133B9F1803409F46FC0813409F404
:107AF00076C0823409F485C0853409F488C08035A5
:107B000031F1823521F1813511F1853509F485C0D6
:107B1000863509F48DC0843609F496C0843709F49B
:107B200003C1853709F472C1863709F466C08091B4
:107B300003018F5F80930301853079F6E0910401A2
:107B4000F091050109950E94763C803351F60E9420
:107B5000F33CC3CF0E94763C803249F78091C0004D
:107B600085FFFCCFF092C6008091C00085FFFCCF5E
:107B70009092C6008091C00085FFFCCF8092C60025
:107B80008091C00085FFFCCF7092C6008091C0003C
:107B900085FFFCCF6092C6008091C00085FFFCCFBE
:107BA0005092C6008091C00085FFFCCF4092C60075
:107BB0008091C00085FFFCCF3092C6008091C0004C
:107BC00085FFFCCFB092C60088CF0E94763C8638F5
:107BD00008F4BDCF0E94763C0E94F33C7ECF0E9409
:107BE000763C803809F49CC0813809F40BC1823896
:107BF00009F430C1883909F48FC080E00E94C73C85
:107C00006CCF84E10E94BD3C0E94F33C66CF85E0CE
:107C10000E94BD3C0E94F33C60CF0E94763C809362
:107C200006010E94763C809307010E94F33C55CFE9
:107C30000E94763C803309F411C183E00E94BD3C70
:107C400080E00E94C73C49CF0E94763C80930902A5
:107C50000E94763C8093080280910C028E7F809374
:107C60000C020E94763C853409F409C18091080217
:107C700090910902892B89F000E010E00E94763C87
:107C8000F801E85FFE4F80830F5F1F4F809108026D
:107C9000909109020817190788F30E94763C8032F8
:107CA00009F045CF80910C0280FFF5C0609106017C
:107CB00070910701660F771F7093070160930601AB
:107CC000A0910802B09109021097C9F0E8E0F1E034
:107CD0009B01AD014E0F5F1FF999FECF32BD21BD53
:107CE000819180BDFA9AF99A2F5F3F4FE417F5070B
:107CF00099F76A0F7B1F70930701609306018091CB
:107D0000C00085FFFCCFF092C6008091C00085FFC7
:107D1000FCCFB092C600E1CE83E00E94C73CDDCE2E
:107D200082E00E94C73CD9CE0E94763C8093090233
:107D30000E94763C80930802809106019091070191
:107D4000880F991F90930701809306010E94763C4B
:107D5000853409F49AC080910C028E7F80930C02C6
:107D60000E94763C803209F0B8CE8091C00085FF39
:107D7000FCCFF092C600A0910802B09109021097C2
:107D8000C1F180910C02082F0170182F1695117007
:107D9000E0910601F0910701AF014F5F5F4FBA011B
:107DA00020E030E00023B1F4112339F49491809164
:107DB000C00085FFFCCF9093C6002F5F3F4FCB01E3
:107DC0000196FA012A173B0780F4BC014F5F5F4F11
:107DD000002351F3F999FECFF2BDE1BDF89A90B5B9
:107DE0008091C00085FFFCCFE6CF709307016093C0
:107DF00006018091C00085FDE5CE8091C00085FF21
:107E0000F8CFE0CE81E00E94C73C67CE0E94763C6E
:107E1000803209F08CCE8091C00085FFFCCFF092BB
:107E2000C6008091C00085FFFCCFE092C600809123
:107E3000C00085FFFCCFD092C6008091C00085FFB6
:107E4000FCCFC092C6008091C00085FFFCCFB092ED
:107E5000C60043CE80E10E94C73C3FCE0E94763CE4
:107E60000E94763C182F0E94763C112309F483C0AF
:107E7000113009F484C08FE00E94C73C2ECE80915F
:107E80000C02816080930C02F1CE80910C02816023
:107E900080930C0265CF809107018823880F880B9F
:107EA0008A2180930B028091060190910701880F2F
:107EB000991F90930701809306018091080280FF2B
:107EC00009C08091080290910902019690930902DD
:107ED00080930802F894F999FECF1127E0910601EA
:107EE000F0910701C8E0D1E0809108029091090269
:107EF000103091F40091570001700130D9F303E084
:107F000000935700E8950091570001700130D9F3B4
:107F100001E100935700E8950990199000915700EE
:107F200001700130D9F301E000935700E8951395F3
:107F3000103498F011270091570001700130D9F3E7
:107F400005E000935700E89500915700017001305B
:107F5000D9F301E100935700E8953296029709F0B2
:107F6000C7CF103011F00296E5CF11248091C000E8
:107F700085FFC5CEC8CE8EE10E94C73CAECD85E957
:0C7F80000E94C73CAACDF894FFCF8000FF
:00000001FF
