:020000040000FA
:100000000C9462000C9477060C9450060C948A00B1
:100010000C948A000C948A000C948A000C948A0038
:100020000C948A000C948A000C948A000C948A0028
:100030000C948A000C948A000C948A000C948A0018
:100040000C9406060C948A000C94C4060C949E062C
:100050000C948A000C948A000C948A000C948A00F8
:100060000C94F6060C948A0000000000240027007F
:100070002A0000000000250028002B0000000000DE
:1000800023002600290004040404040404040202DA
:100090000202020203030303030301020408102007
:1000A0004080010204081020010204081020000012
:1000B0000008000201000003040700000000000027
:1000C0000000150811241FBECFEFD8E0DEBFCDBF62
:1000D00012E0A0E0B1E0E2E6F7E102C005900D9287
:1000E000A233B107D9F723E0A2E3B2E001C01D9229
:1000F000A639B207E1F710E0C2E6D0E004C02197CC
:10010000FE010E949A0BC136D107C9F70E944E0822
:100110000C94AF0B0C940000833081F028F48130F4
:1001200099F08230A9F008958730A9F08830C9F09D
:100130008430B1F4809180008F7D03C08091800075
:100140008F7780938000089584B58F7784BD08955C
:1001500084B58F7DFBCF8091B0008F778093B00006
:1001600008958091B0008F7DF9CFCF93DF93E1EBBD
:10017000F0E08491EDE9F0E0D491E9E8F0E0C49199
:10018000CC23A1F081110E948C00EC2FF0E0EE0F47
:10019000FF1FE458FF4FA591B491EC91ED2381E04E
:1001A00090E009F480E0DF91CF91089580E090E045
:1001B000FACF1F93CF93DF93282F30E0F901E25558
:1001C000FF4F8491F901E656FF4FD491F901EA57A8
:1001D000FF4FC491CC23A9F0162F81110E948C00EF
:1001E000EC2FF0E0EE0FFF1FEE58FF4FA591B491FA
:1001F0008FB7F894EC91111108C0D095DE23DC93F1
:100200008FBFDF91CF911F910895DE2BF8CFCF9351
:10021000DF9390E0FC01E656FF4F24918A579F4FF1
:10022000FC0184918823D1F090E0880F991FFC0194
:10023000E859FF4FA591B491FC01EE58FF4FC591CD
:10024000D49161110EC09FB7F8948C91E22FE09584
:100250008E238C932881E223E8839FBFDF91CF9187
:1002600008958FB7F894EC91E22BEC938FBFF6CF03
:100270001F93CF93DF93182FEB0161E00E940701DA
:10028000209739F460E0812FDF91CF911F910C947A
:10029000D900CF3FD10511F461E0F5CFE12FF0E0B7
:1002A000E255FF4FE491E33031F140F4E130B1F039
:1002B000E230E1F0C038D1057CF7E4CFE73029F136
:1002C000E83059F1E430B1F780918000806280938A
:1002D0008000D0938B00C0938A0004C084B58068EE
:1002E00084BDC7BDDF91CF911F91089584B5806211
:1002F00084BDC8BDF7CF8091800080688093800066
:10030000D0938900C0938800EDCF8091B0008068C1
:100310008093B000C093B300E5CF8091B0008062BD
:100320008093B000C093B400DDCF8E508064809382
:100330007C0080917A00806480937A0080917A00BA
:1003400086FDFCCF809178009091790008953FB7A9
:10035000F8948091E9029091EA02A091EB02B091A9
:10036000EC0226B5A89B05C02F3F19F00196A11DF0
:10037000B11D3FBFBA2FA92F982F8827BC01CD01EF
:10038000620F711D811D911D43E0660F771F881F4D
:10039000991F4A95D1F708958F929F92AF92BF927D
:1003A000CF92DF92EF92FF924B015C010E94A70176
:1003B0006B017C010E94A7016C197D098E099F09C0
:1003C000683E734081059105A8F321E0821A9108E7
:1003D000A108B10888EEC80E83E0D81EE11CF11C0C
:1003E00081149104A104B10429F7FF90EF90DF90EC
:1003F000CF90BF90AF909F908F90089508951092E6
:10040000D8021092D70261E086E00E94D90061E034
:1004100085E00C94D900E091CD02F091CE023097A6
:1004200029F01092C8021092C70209940895CF9340
:10043000DF93AC01E091CB02F091CC023097F1F068
:100440009091CA028091C9029817C0F090E0292FBC
:1004500030E02617370754F4D901AD5CBD4F240FA7
:10046000351FE90128812C939F5FF1CF1092CA02BA
:100470006093C902CB01DF91CF910994DF91CF91B5
:100480000895AF92BF92CF92DF92EF92FF920F93B7
:100490001F93CF93DF936C017B018B01040F151F1A
:1004A000EB015E01AE18BF08C017D10759F0699182
:1004B000D601ED91FC910190F081E02DC6010995E6
:1004C000892B79F7C501DF91CF911F910F91FF9093
:1004D000EF90DF90CF90BF90AF900895FC01538DC7
:1004E000448D252F30E0842F90E0821B930B54170E
:1004F00010F0CF96089501970895FC01918D828D9B
:10050000981761F0A28DAE0FBF2FB11D5D968C9133
:10051000928D9F5F9F73928F90E008958FEF9FEF72
:100520000895FC01918D828D981731F0828DE80F2E
:10053000F11D858D90E008958FEF9FEF0895FC01E8
:10054000918D228D892F90E0805C9F4F821B9109B5
:100550008F73992708958DEE92E00E949F0221E00B
:10056000892B09F420E0822F089580E090E0892B08
:1005700029F00E94AB0281110C9400000895FC0147
:10058000A48DA80FB92FB11DA35ABF4F2C91848DF4
:1005900090E001968F739927848FA689B7892C9351
:1005A000A089B1898C91837080648C93938D848DA4
:1005B000981306C00288F389E02D80818F7D8083A7
:1005C0000895EF92FF920F931F93CF93DF93EC0167
:1005D00081E0888F9B8D8C8D98131AC0E889F989EA
:1005E000808185FF15C09FB7F894EE89FF896083ED
:1005F000E889F98980818370806480839FBF81E06E
:1006000090E0DF91CF911F910F91FF90EF900895AF
:10061000F62E0B8D10E00F5F1F4F0F731127E02E8A
:100620008C8D8E110CC00FB607FCFACFE889F989C2
:10063000808185FFF5CFCE010E94BF02F1CFEB8D07
:10064000EC0FFD2FF11DE35AFF4FF0829FB7F89496
:100650000B8FEA89FB8980818062CFCFCF93DF93B4
:10066000EC01888D8823B9F0AA89BB89E889F989CA
:100670008C9185FD03C0808186FD0DC00FB607FCFF
:10068000F7CF8C9185FFF2CF808185FFEDCFCE0132
:100690000E94BF02E9CFDF91CF91089520917902A6
:1006A000260F3327331F21323105ECF420919D02B0
:1006B000FC0190E080E0243069F082E00895A09190
:1006C00079022191AC01475A5D4FA40FB52FB11D9E
:1006D0002C930196861798F380917902680F6093A6
:1006E000790280E0089581E0089510929D0281E0F2
:1006F00080939F0210929E0261E082E10E94D900E5
:1007000061E083E10E94D900E9EBF0E080818E7F17
:10071000808380818D7F808380E28093B80085E430
:100720008093BC0008950895E091CA028091C902A7
:10073000E81730F4F0E0ED5CFD4F808190E0089523
:100740008FEF9FEF08959091CA028091C9022FEF19
:100750003FEF981748F4E92FF0E0ED5CFD4F208162
:1007600030E09F5F9093CA02C90108958091C90249
:100770009091CA02891B990B0895CF93DF93CB0107
:10078000EA01642F0E944E03CE01DF91CF910895BC
:10079000CF93DF931F92CDB7DEB7698361E0CE01BF
:1007A00001960E944E0381E090E00F90DF91CF917F
:1007B000089590E080E00895FC0101900020E9F7A1
:1007C0003197AF01481B590BBC018DEE92E00C94A0
:1007D00041028F929F92AF92BF920F931F93CF933C
:1007E000DF93CDB7DEB7A1970FB6F894DEBF0FBE8B
:1007F000CDBF19A2423008F44AE08E010F5D1F4FB1
:10080000842E912CB12CA12CA50194010E94690B7E
:10081000E62FB901CA01EA30F4F4E05DD801EE93A5
:100820008D01232B242B252B79F790E080E0109766
:1008300019F0CD010E94DC03A1960FB6F894DEBF3B
:100840000FBECDBFDF91CF911F910F91BF90AF90A1
:100850009F908F900895E95CE1CFCF92DF92EF9265
:10086000FF92CF93DF936B017C016DE28DEE92E0FE
:100870000E94E102EC0166277727CB016C197D0904
:100880008E099F094AE00E94E9038C0F9D1FDF91AA
:10089000CF91FF90EF90DF90CF9008950C94DC0300
:1008A000CF93DF93D0E0C0E0009719F00E94DC0303
:1008B000EC0188E291E00E94DC038C0F9D1FDF9128
:1008C000CF910895CF93DF93C091E002D091E102E0
:1008D0006C2F8AE893E00E94C8032B9761F48BE2A7
:1008E00091E00E94500442E050E062ED72E08AE83C
:1008F00093E00E94BD038091E0029091E1020E9787
:1009000071F442E050E062ED72E08AE893E00E9408
:10091000BD03609132028AE893E00E94C8031092FE
:10092000E1021092E002DF91CF9108951092D80277
:100930001092D7028FE491E00E94500461E086E0BB
:100940000E94D90061E085E00C94D9000E949604D1
:100950008BE591E00E9450046AEF70E080E090E047
:100960000C94CC01CF93DF93682F70E090E080E08F
:100970004AE00E94E903EC0188E291E00E94DC0376
:100980008C0F9D1FDF91CF910895CF93DF93BC0112
:10099000990F880B990B97FF0CC00E942D04EC0156
:1009A00088E291E00E94DC038C0F9D1FDF91CF91C4
:1009B00008954AE00E94E903F2CF892BF1F190916A
:1009C000C9028091CA02981731F08AE893E00E9428
:1009D000A303282FF4CF203841F48091E302882329
:1009E00061F181E08093E2020895213831F50E949F
:1009F000B5008093320284E10E94950184E10E9457
:100A000095019093D3028093D20288E691E00E94F0
:100A10004E04809132020E94B20482E891E00E946A
:100A20004E048091D2029091D3020E94C5048EE0C0
:100A300090E09093E1028093E0020895CF93DF93DA
:100A4000EC01892B19F081E00E945105D093DB0263
:100A5000C093DA0284EA91E00E944E046091DA02C7
:100A60007091DB02072E000C880B990B97FF12C0C8
:100A70000E942D0480EB91E00E944E048091DA02E6
:100A80009091DB02892B51F081EA91E0DF91CF91C7
:100A90000C9450044AE00E94E903ECCF8DE991E008
:100AA000F5CFCF939091D902981759F1C82F8111A2
:100AB0000AC08091DA029091DB02892B21F090E04C
:100AC00080E00E941E05C093D90289EC91E00E944B
:100AD0004E048091D90290E00E94C5048091D90211
:100AE000882349F061E088E00E94D90061E089E054
:100AF000CF910C94D90060E088E00E94D90060E0BA
:100B0000F6CFCF9108951092E3021092E20280E0B6
:100B10000E9451051092DB021092DA028AE090E006
:100B20009093E1028093E002089581E08CBB8FEF07
:100B300091E09093010180930001E9E6F0E080816B
:100B40008C7F82608083E89A6091DE0270E086E0AC
:100B50000E94380170E060E085E00C943801CF938A
:100B6000DF9385ED8093BC008091550290915602F1
:100B7000A0915702B09158020796A11DB11D23E024
:100B8000B695A795979587952A95D1F72091BC00A2
:100B900024FD03C010929D0236C040915502509131
:100BA00056026091570270915802452B462B472BF5
:100BB00069F30097A105B10541F025E12A95F1F708
:100BC00000000197A109B109E1CF8091540291E0A1
:100BD000909353028823B9F0C091B800D091BA0025
:100BE0008091BC008A7B8093BC0060E082E10E941F
:100BF000D90060E083E10E94D9000E947503D09380
:100C0000BA00C093B800DF91CF9108951F920F9260
:100C10000FB60F9211242F933F938F939F93AF930F
:100C2000BF938091E5029091E602A091E702B09116
:100C3000E8023091E40226E0230F2D3758F50296A2
:100C4000A11DB11D2093E4028093E5029093E6027A
:100C5000A093E702B093E8028091E9029091EA0242
:100C6000A091EB02B091EC020196A11DB11D809301
:100C7000E9029093EA02A093EB02B093EC02BF91D9
:100C8000AF919F918F913F912F910F900FBE0F9039
:100C90001F90189529E8230F0396A11DB11DD2CFEF
:100CA0001F920F920FB60F9211242F933F934F93E1
:100CB0005F936F937F938F939F93AF93BF93EF93C4
:100CC000FF93E0910201F09103010995FF91EF91EB
:100CD000BF91AF919F918F917F916F915F914F9154
:100CE0003F912F910F900FBE0F901F9018951F925C
:100CF0000F920FB60F9211242F933F934F935F9350
:100D00006F937F938F939F93AF93BF93EF93FF93D3
:100D1000E0910001F09101010995FF91EF91BF91E0
:100D2000AF919F918F917F916F915F914F913F9183
:100D30002F910F900FBE0F901F9018951F920F923A
:100D40000FB60F9211242F933F934F935F936F939E
:100D50007F938F939F93AF93BF93EF93FF938DEE0A
:100D600092E00E94BF02FF91EF91BF91AF919F91DE
:100D70008F917F916F915F914F913F912F910F9044
:100D80000FBE0F901F9018951F920F920FB60F92E3
:100D900011242F938F939F93EF93FF93E091FD0284
:100DA000F091FE028081E0910303F091040382FD43
:100DB0001BC09081809106038F5F8F732091070382
:100DC000821741F0E0910603F0E0E351FD4F958F6B
:100DD00080930603FF91EF919F918F912F910F9038
:100DE0000FBE0F901F9018958081F4CF1F920F9225
:100DF0000FB60F9211242F933F934F935F936F93EE
:100E00007F938F939F93AF93BF93EF93FF938091C3
:100E1000B900887F803609F44AC0F0F5883209F4B9
:100E2000A7C018F5803109F49BC0B8F4882309F4F1
:100E3000F9C0883009F494C0FF91EF91BF91AF9150
:100E40009F918F917F916F915F914F913F912F91E2
:100E50000F900FBE0F901F901895883109F488C02D
:100E6000803251F780939C0214C0803409F49DC0F5
:100E700040F48033B9F38833F9F680939C0285EC13
:100E8000B0C0803509F485C0883509F496C088342F
:100E900099F60E94AF05D0CF883909F48CC038F597
:100EA000883729F050F4883611F0803729F683E02E
:100EB00080939D0210929B0257C0883809F47BC032
:100EC000803919F0803809F0B7CF80919B028032C9
:100ED00008F071C0E0919B0281E08E0F80939B022D
:100EE0008091BB00F0E0E558FD4F80833DC0803B22
:100EF00039F0E0F4803A09F479C0883A09F09CCFDF
:100F000084E080939D0210927A0210927902E0911F
:100F1000C502F091C60209958091790281110FC036
:100F200081E0809379021092590209C0803C09F453
:100F3000A6CF883C09F4A3CF883B09F07DCFE09190
:100F40007A0281E08E0F80937A02F0E0E75AFD4F3B
:100F500080818093BB0090917A028091790229C0B0
:100F60008091C2028093BB0085EC8093BC0064CF6B
:100F70009091C1028091C002981758F5E091C1028A
:100F800081E08E0F8093C102F0E0E056FD4F80813A
:100F9000E9CFE091C10281E08E0F8093C102809180
:100FA000BB00F0E0E056FD4F80839091C10280913C
:100FB000C0029817C8F285E8D8CFE091C10281E05D
:100FC0008E0F8093C1028091BB00F0E0E056FD4F90
:100FD000808380919F0281115CCF81E080939E028B
:100FE00084EA8093BC0010929D0226CF85EC80930A
:100FF000BC0010929D0280919B02803230F4E091FF
:101000009B02F0E0E558FD4F108260919B0270E07A
:10101000E091C302F091C4028BE792E0099510922F
:101020009B020ACF10929C0234CFEDEEF2E01382C5
:10103000128288EE93E0A0E0B0E084839583A683DB
:10104000B78328E031E03183208325EC30E0358719
:10105000248724EC30E03787268720EC30E0318B82
:10106000208B21EC30E0338B228B22EC30E0358B6F
:10107000248B26EC30E0378B268B118E128E138E4C
:10108000148EEAE8F3E01382128284839583A683A8
:10109000B7838AE191E0918380830895789484B541
:1010A000826084BD84B5816084BD85B5826085BD64
:1010B00085B5816085BD80916E00816080936E00F2
:1010C00010928100809181008260809381008091E4
:1010D0008100816080938100809180008160809395
:1010E00080008091B10084608093B1008091B00055
:1010F00081608093B00080917A00846080937A0050
:1011000080917A00826080937A0080917A008E7F4D
:1011100080937A0080917A00806880937A001092A0
:10112000C100E091FD02F091FE0282E08083E09137
:10113000F902F091FA021082E091FB02F091FC02B8
:1011400088E0808310920503E0910103F09102038F
:1011500086E08083E091FF02F0910003808180614E
:101160008083E091FF02F09100038081886080839A
:10117000E091FF02F0910003808180688083E0911C
:10118000FF02F091000380818F7D808360E08EE01C
:101190000E94070160E08FE00E94070160E080E1AB
:1011A0000E94070160E081E10E94070160E084E1A4
:1011B0000E94070161E088E00E94070161E089E088
:1011C0000E94070161E086E00E94070161E085E07E
:1011D0000E94070161E087E00E94070160E082E071
:1011E0000E94070160E083E00E94070170E060E078
:1011F00086E00E94380170E060E085E00E943801DE
:1012000060E088E00E94D90060E089E00E94D90097
:101210001092CA021092C9021092C8021092C7021C
:101220000E9475038BE092E09093C6028093C50202
:1012300087E192E09093C4028093C30284E5809397
:10124000BA008DED94E09093CC028093CB0282E6BD
:1012500094E09093CE028093CD0288248A9433E068
:10126000932EA12CB12C22242394312C8DE0482ED6
:10127000512C9CE0692E712C2BE0C22ED12C809138
:10128000E3028823B9F08091E202882399F08091EB
:10129000E0029091E1020A9769F01092E2020E9446
:1012A000B500892B09F079C085ED91E00E945004CA
:1012B0000E94830581E10E94950181E10E949501D0
:1012C0009C01A5E6BFEF0E94A00BA50194010E941E
:1012D0004A0B21503F4F4F4F5F4F2093DF0280E179
:1012E0000E94950180E10E9495019C01A5E6BFEF57
:1012F0000E94A00BA50194010E944A0B21503F4F70
:101300004F4F5F4F2093DE028EE00E9495018EE0EA
:101310000E9495017C018FE00E9495018FE00E9460
:1013200095018C016AE070E080E090E00E94CC01C1
:101330008091CF028823E1F192E0E916F10424F4D0
:10134000023011050CF44DC0C7014F97873291054B
:1013500008F461C08A5591098732910538F18A5A9B
:101360009109879778F12FEDE21623E0F2066CF5EC
:10137000C8014F978732910558F18A5591098732F4
:10138000910548F18A5A9109879740F10F3D83E012
:10139000180774F0C5E0D0E00BC00E94950585E009
:1013A00090E09093E1028093E00284CFC3E0D0E02C
:1013B00092E0E916F10424F481E0023011059CF07A
:1013C00080E011C0C1E0D0E0F3CFC2E0D0E0F0CFC8
:1013D000C8E0D0E0EDCFC7E0D0E0EACFC6E0D0E093
:1013E000E7CFD0E0C0E08093CF028091E30220916C
:1013F000DC023091DD022C173D0709F401C1D093C6
:10140000DD02C093DC02882349F0C530D10571F5B7
:101410000E9483052BC0C4E0D0E0D2CFFE013197FB
:10142000E830F10518F5E95EF54F0C949A0B1F0AA8
:10143000580A660A920A630ABC0ACD0AF30A209186
:10144000DA023091DB022230310569F1C9019927B6
:1014500001962817390749F58091DA029091DB024D
:10146000992702969093E1028093E0028091D7023F
:101470009091D8028130910511F0019639F4609174
:10148000DF0270E08091D6020E94380180E090E097
:10149000892B09F4F4CE0E94AB02882309F4E6CE2E
:1014A0000E940000E3CE90E080E00E941E05D4CFB1
:1014B0009091D90281E089270E9451058091D9023B
:1014C00090E00696CFCF0E949604D0CF8091D702AD
:1014D0009091D802019711F40E94A6048FEF9FEF1C
:1014E0009093D8028093D70280EE91E00E944E0440
:1014F0008091DF020E94B204E8988EEF91E0909311
:1015000001018093000185E08093D60270E060E0E5
:1015100086E00E9438016091DF0270E085E00E9461
:101520003801A4CF8091D7029091D802892B29F05D
:1015300084EF91E00E94500499CF88EE91E00E94E0
:101540004E048091DE020E94B20481E08CBB8FEFDA
:1015500091E09093010180930001809169008C7F5C
:10156000826080936900E89A70E060E086E00E9403
:1015700038016091DE02D1CF8091D7029091D802DC
:10158000892BB1F68FE092E00E944E048091DE023A
:101590000E94B2040E94950569CF8091D702909174
:1015A000D802019611F40E94A6043092D80220922B
:1015B000D70287E092E00E944E048091DF020E94F1
:1015C000B204E8988EEF91E09093010180930001BE
:1015D00086E08093D6026091DF0270E00E943801BD
:1015E00070E060E09BCF81E08093E30289E090E0CF
:1015F0009093E1028093E00281E00E94510536CF92
:1016000081112DC00091D2021091D3021093D1020A
:101610000093D00284E10E94950184E10E9495012B
:1016200084E10E949501081B190B17FF03C0119557
:10163000019511090330110594F09093D302809322
:10164000D2028BE192E00E944E048091D2029091EE
:10165000D3020E94C504D092E102C092E002109130
:10166000D5021093D4020E94B50021E0009709F43E
:1016700020E02093D502121709F4F8CE892B29F423
:101680007092E1026092E002F1CE5092E10240924B
:10169000E002ECCE052E97FB1EF400940E94610B35
:1016A00057FD07D00E94690B07FC03D04EF40C9441
:1016B000610B50954095309521953F4F4F4F5F4FAF
:1016C000089590958095709561957F4F8F4F9F4FAE
:1016D0000895A1E21A2EAA1BBB1BFD010DC0AA1F73
:1016E000BB1FEE1FFF1FA217B307E407F50720F08B
:1016F000A21BB30BE40BF50B661F771F881F991F06
:101700001A9469F760957095809590959B01AC014E
:10171000BD01CF010895A29FB001B39FC001A39F57
:10172000700D811D1124911DB29F700D811D11241A
:10173000911D0895EE0FFF1F0590F491E02D09947F
:101740000E948B0B332312F48A1B9B0B0C94AA0B65
:101750000E948B0BB7FF0895821B930B0895F8949A
:10176000FFCFFE01FE0100000000E10241026E0217
:101770002E039F027D02910200000000C803BD03FA
:10178000D9039303B603A30394030D0A00526571B2
:1017900075657374696E67206E6577204578706F24
:1017A000737572652054696D652076616C75652E60
:1017B000004D6F746F723A2053746F70002842723C
:1017C0006965666C792E2E2E290043757272656EDE
:1017D000742046696C6D206C6F6164207374617451
:1017E000653A200043757272656E74204578706F9B
:1017F000737572652053657474696E673A20006F63
:10180000757400696E005A6F6F6D206D6F64653A74
:1018100020002E2054656C6C696E672052617370D5
:101820006920746F207A6F6F6D20004C616D70209D
:101830006D6F64653A200046696C6D20656E646565
:1018400064004D6F746F723A203C3C2061742053E9
:101850007065656420004D6F746F72206E6F742028
:1018600073746F707065642E004D6F746F723A20E0
:101870003E3E20617420537065656420004E65779C
:10188000204578706F737572652053657474696E46
:04189000673A200093
:107800000C94343C0C94513C0C94513C0C94513CE1
:107810000C94513C0C94513C0C94513C0C94513CB4
:107820000C94513C0C94513C0C94513C0C94513CA4
:107830000C94513C0C94513C0C94513C0C94513C94
:107840000C94513C0C94513C0C94513C0C94513C84
:107850000C94513C0C94513C0C94513C0C94513C74
:107860000C94513C0C94513C11241FBECFEFD8E036
:10787000DEBFCDBF11E0A0E0B1E0EAE8FFE702C063
:1078800005900D92A230B107D9F712E0A2E0B1E065
:1078900001C01D92AD30B107E1F70E942D3D0C945F
:1078A000C33F0C94003C982F95959595959595958B
:1078B000905D8F708A307CF0282F295A8091C0000B
:1078C00085FFFCCF9093C6008091C00085FFFCCF60
:1078D0002093C6000895282F205DF0CF982F809127
:1078E000C00085FFFCCF9093C6000895EF92FF92F1
:1078F0000F931F93EE24FF2487018091C00087FD22
:1079000017C00894E11CF11C011D111D81E2E8164D
:1079100081EAF80687E0080780E0180770F3E09135
:107920000401F091050109958091C00087FFE9CF1E
:107930008091C6001F910F91FF90EF9008950E94D3
:10794000763C982F8091C00085FFFCCF9093C600B5
:1079500091362CF490330CF09053892F089597555D
:10796000892F08951F930E949F3C182F0E949F3CCF
:107970001295107F810F1F9108951F93182F882350
:1079800021F00E94763C1150E1F71F9108951F935A
:10799000182F0E94763C803249F0809103018F5F5E
:1079A000809303018530C1F01F9108958091C0003C
:1079B00085FFFCCF84E18093C6008091C00085FFE5
:1079C000FCCF1093C6008091C00085FFFCCF80E102
:1079D0008093C6001F910895E0910401F091050184
:1079E00009951F9108950E94763C803241F0809164
:1079F00003018F5F80930301853081F008958091AA
:107A0000C00085FFFCCF84E18093C6008091C00058
:107A100085FFFCCF80E18093C6000895E0910401CA
:107A2000F09105010995089548EC50E08823A1F0F4
:107A30002D9A28EE33E0FA013197F1F721503040CA
:107A4000D1F72D9828EE33E0FA013197F1F7215064
:107A50003040D1F7815061F708953F924F925F9285
:107A60006F927F928F929F92AF92BF92CF92DF924E
:107A7000EF92FF920F931F93CF93DF93000082E06A
:107A80008093C00080E18093C4001092C50088E11B
:107A90008093C10086E08093C2005098589A259A3E
:107AA00081E00E94143D24E1F22E9EE1E92E85E959
:107AB000D82E0FE0C02E10E1B12EAA24A394B1E479
:107AC0009B2EA6E58A2EF2E57F2EE0E26E2E79E46B
:107AD000572E63E5462E50E5352E0E94763C8033C6
:107AE000B1F18133B9F1803409F46FC0813409F404
:107AF00076C0823409F485C0853409F488C08035A5
:107B000031F1823521F1813511F1853509F485C0D6
:107B1000863509F48DC0843609F496C0843709F49B
:107B200003C1853709F472C1863709F466C08091B4
:107B300003018F5F80930301853079F6E0910401A2
:107B4000F091050109950E94763C803351F60E9420
:107B5000F33CC3CF0E94763C803249F78091C0004D
:107B600085FFFCCFF092C6008091C00085FFFCCF5E
:107B70009092C6008091C00085FFFCCF8092C60025
:107B80008091C00085FFFCCF7092C6008091C0003C
:107B900085FFFCCF6092C6008091C00085FFFCCFBE
:107BA0005092C6008091C00085FFFCCF4092C60075
:107BB0008091C00085FFFCCF3092C6008091C0004C
:107BC00085FFFCCFB092C60088CF0E94763C8638F5
:107BD00008F4BDCF0E94763C0E94F33C7ECF0E9409
:107BE000763C803809F49CC0813809F40BC1823896
:107BF00009F430C1883909F48FC080E00E94C73C85
:107C00006CCF84E10E94BD3C0E94F33C66CF85E0CE
:107C10000E94BD3C0E94F33C60CF0E94763C809362
:107C200006010E94763C809307010E94F33C55CFE9
:107C30000E94763C803309F411C183E00E94BD3C70
:107C400080E00E94C73C49CF0E94763C80930902A5
:107C50000E94763C8093080280910C028E7F809374
:107C60000C020E94763C853409F409C18091080217
:107C700090910902892B89F000E010E00E94763C87
:107C8000F801E85FFE4F80830F5F1F4F809108026D
:107C9000909109020817190788F30E94763C8032F8
:107CA00009F045CF80910C0280FFF5C0609106017C
:107CB00070910701660F771F7093070160930601AB
:107CC000A0910802B09109021097C9F0E8E0F1E034
:107CD0009B01AD014E0F5F1FF999FECF32BD21BD53
:107CE000819180BDFA9AF99A2F5F3F4FE417F5070B
:107CF00099F76A0F7B1F70930701609306018091CB
:107D0000C00085FFFCCFF092C6008091C00085FFC7
:107D1000FCCFB092C600E1CE83E00E94C73CDDCE2E
:107D200082E00E94C73CD9CE0E94763C8093090233
:107D30000E94763C80930802809106019091070191
:107D4000880F991F90930701809306010E94763C4B
:107D5000853409F49AC080910C028E7F80930C02C6
:107D60000E94763C803209F0B8CE8091C00085FF39
:107D7000FCCFF092C600A0910802B09109021097C2
:107D8000C1F180910C02082F0170182F1695117007
:107D9000E0910601F0910701AF014F5F5F4FBA011B
:107DA00020E030E00023B1F4112339F49491809164
:107DB000C00085FFFCCF9093C6002F5F3F4FCB01E3
:107DC0000196FA012A173B0780F4BC014F5F5F4F11
:107DD000002351F3F999FECFF2BDE1BDF89A90B5B9
:107DE0008091C00085FFFCCFE6CF709307016093C0
:107DF00006018091C00085FDE5CE8091C00085FF21
:107E0000F8CFE0CE81E00E94C73C67CE0E94763C6E
:107E1000803209F08CCE8091C00085FFFCCFF092BB
:107E2000C6008091C00085FFFCCFE092C600809123
:107E3000C00085FFFCCFD092C6008091C00085FFB6
:107E4000FCCFC092C6008091C00085FFFCCFB092ED
:107E5000C60043CE80E10E94C73C3FCE0E94763CE4
:107E60000E94763C182F0E94763C112309F483C0AF
:107E7000113009F484C08FE00E94C73C2ECE80915F
:107E80000C02816080930C02F1CE80910C02816023
:107E900080930C0265CF809107018823880F880B9F
:107EA0008A2180930B028091060190910701880F2F
:107EB000991F90930701809306018091080280FF2B
:107EC00009C08091080290910902019690930902DD
:107ED00080930802F894F999FECF1127E0910601EA
:107EE000F0910701C8E0D1E0809108029091090269
:107EF000103091F40091570001700130D9F303E084
:107F000000935700E8950091570001700130D9F3B4
:107F100001E100935700E8950990199000915700EE
:107F200001700130D9F301E000935700E8951395F3
:107F3000103498F011270091570001700130D9F3E7
:107F400005E000935700E89500915700017001305B
:107F5000D9F301E100935700E8953296029709F0B2
:107F6000C7CF103011F00296E5CF11248091C000E8
:107F700085FFC5CEC8CE8EE10E94C73CAECD85E957
:0C7F80000E94C73CAACDF894FFCF8000FF
:00000001FF
