:020000040000FA
:100000000C9462000C942B070C9404070C948A0047
:100010000C948A000C948A000C948A000C948A0038
:100020000C948A000C948A000C948A000C948A0028
:100030000C948A000C948A000C948A000C948A0018
:100040000C94BA060C948A000C9478070C9452070E
:100050000C948A000C948A000C948A000C948A00F8
:100060000C94AA070C948A000000000024002700CA
:100070002A0000000000250028002B0000000000DE
:1000800023002600290004040404040404040202DA
:100090000202020203030303030301020408102007
:1000A0004080010204081020010204081020000012
:1000B0000008000201000003040700000000000027
:1000C0000000D50811241FBECFEFD8E0DEBFCDBFA2
:1000D00013E0A0E0B1E0EAE9FBE102C005900D9277
:1000E000AA33B107D9F724E0AAE3B3E001C01D9217
:1000F000A73BB207E1F710E0C2E6D0E004C02197C9
:10010000FE010E94B60DC136D107C9F70E940E0943
:100110000C94CB0D0C940000833081F028F48130D6
:1001200099F08230A9F008958730A9F08830C9F09D
:100130008430B1F4809180008F7D03C08091800075
:100140008F7780938000089584B58F7784BD08955C
:1001500084B58F7DFBCF8091B0008F778093B00006
:1001600008958091B0008F7DF9CFCF93DF93E1EBBD
:10017000F0E08491EDE9F0E0D491E9E8F0E0C49199
:10018000CC23A1F081110E948C00EC2FF0E0EE0F47
:10019000FF1FE458FF4FA591B491EC91ED2381E04E
:1001A00090E009F480E0DF91CF91089580E090E045
:1001B000FACF1F93CF93DF93282F30E0F901E25558
:1001C000FF4F8491F901E656FF4FD491F901EA57A8
:1001D000FF4FC491CC23A9F0162F81110E948C00EF
:1001E000EC2FF0E0EE0FFF1FEE58FF4FA591B491FA
:1001F0008FB7F894EC91111108C0D095DE23DC93F1
:100200008FBFDF91CF911F910895DE2BF8CFCF9351
:10021000DF9390E0FC01E656FF4F24918A579F4FF1
:10022000FC0184918823D1F090E0880F991FFC0194
:10023000E859FF4FA591B491FC01EE58FF4FC591CD
:10024000D49161110EC09FB7F8948C91E22FE09584
:100250008E238C932881E223E8839FBFDF91CF9187
:1002600008958FB7F894EC91E22BEC938FBFF6CF03
:100270001F93CF93DF93182FEB0161E00E940701DA
:10028000209739F460E0812FDF91CF911F910C947A
:10029000D900CF3FD10511F461E0F5CFE12FF0E0B7
:1002A000E255FF4FE491E33031F140F4E130B1F039
:1002B000E230E1F0C038D1057CF7E4CFE73029F136
:1002C000E83059F1E430B1F780918000806280938A
:1002D0008000D0938B00C0938A0004C084B58068EE
:1002E00084BDC7BDDF91CF911F91089584B5806211
:1002F00084BDC8BDF7CF8091800080688093800066
:10030000D0938900C0938800EDCF8091B0008068C1
:100310008093B000C093B300E5CF8091B0008062BD
:100320008093B000C093B400DDCF8E508064809382
:100330007C0080917A00806480937A0080917A00BA
:1003400086FDFCCF809178009091790008953FB7A9
:10035000F89480910A0490910B04A0910C04B09140
:100360000D0426B5A89B05C02F3F19F00196A11DCD
:10037000B11D3FBFBA2FA92F982F8827BC01CD01EF
:10038000620F711D811D911D43E0660F771F881F4D
:10039000991F4A95D1F708958F929F92AF92BF927D
:1003A000CF92DF92EF92FF924B015C010E94A70176
:1003B0006B017C010E94A7016C197D098E099F09C0
:1003C000683E734081059105A8F321E0821A9108E7
:1003D000A108B10888EEC80E83E0D81EE11CF11C0C
:1003E00081149104A104B10429F7FF90EF90DF90EC
:1003F000CF90BF90AF909F908F9008952FB7F894B3
:10040000609106047091070480910804909109049A
:100410002FBF089508951092E3031092E203109203
:10042000E90361E086E00E94D90061E085E00C9478
:10043000D900E091D603F091D703309729F01092BC
:10044000D1031092D00309940895CF93DF93AC01A8
:10045000E091D403F091D5033097F1F09091D3035C
:100460008091D2039817C0F090E0292F30E0261732
:10047000370754F4D901A45CBC4F240F351FE901A0
:1004800028812C939F5FF1CF1092D3036093D20306
:10049000CB01DF91CF910994DF91CF910895AF9275
:1004A000BF92CF92DF92EF92FF920F931F93CF9361
:1004B000DF936C017B018B01040F151FEB015E01C3
:1004C000AE18BF08C017D10759F06991D601ED9158
:1004D000FC910190F081E02DC6010995892B79F7F7
:1004E000C501DF91CF911F910F91FF90EF90DF90A9
:1004F000CF90BF90AF900895FC01538D448D252F70
:1005000030E0842F90E0821B930B541710F0CF96AD
:10051000089501970895FC01918D828D981761F0DF
:10052000A28DAE0FBF2FB11D5D968C91928D9F5FF6
:100530009F73928F90E008958FEF9FEF0895FC01D5
:10054000918D828D981731F0828DE80FF11D858D88
:1005500090E008958FEF9FEF0895FC01918D228D1B
:10056000892F90E0805C9F4F821B91098F739927A0
:1005700008958EE094E00E94AD0221E0892B09F4F9
:1005800020E0822F089580E090E0892B29F00E94DE
:10059000B90281110C9400000895FC01A48DA80FEC
:1005A000B92FB11DA35ABF4F2C91848D90E00196B5
:1005B0008F739927848FA689B7892C93A089B189D5
:1005C0008C91837080648C93938D848D981306C076
:1005D0000288F389E02D80818F7D80830895EF92DA
:1005E000FF920F931F93CF93DF93EC0181E0888FED
:1005F0009B8D8C8D98131AC0E889F989808185FFBD
:1006000015C09FB7F894EE89FF896083E889F9895E
:1006100080818370806480839FBF81E090E0DF9160
:10062000CF911F910F91FF90EF900895F62E0B8DB3
:1006300010E00F5F1F4F0F731127E02E8C8D8E116E
:100640000CC00FB607FCFACFE889F989808185FFD5
:10065000F5CFCE010E94CD02F1CFEB8DEC0FFD2F37
:10066000F11DE35AFF4FF0829FB7F8940B8FEA8990
:10067000FB8980818062CFCFCF93DF93EC01888D9F
:100680008823B9F0AA89BB89E889F9898C9185FD0D
:1006900003C0808186FD0DC00FB607FCF7CF8C919B
:1006A00085FFF2CF808185FFEDCFCE010E94CD0284
:1006B000E9CFDF91CF91089520918203260F332750
:1006C000331F21323105ECF42091A603FC0190E0A8
:1006D00080E0243069F082E00895A09182032191A6
:1006E000AC014E595C4FA40FB52FB11D2C93019650
:1006F000861798F380918203680F6093820380E0ED
:10070000089581E008951092A60381E08093A803E4
:100710001092A70361E082E10E94D90061E083E1C9
:100720000E94D900E9EBF0E080818E7F8083808198
:100730008D7F808380E28093B80085E48093BC0045
:1007400008950895E091D3038091D203E81730F41F
:10075000F0E0E45CFC4F808190E008958FEF9FEF24
:1007600008959091D3038091D2032FEF3FEF981714
:1007700048F4E92FF0E0E45CFC4F208130E09F5F1B
:100780009093D303C90108958091D2039091D3032C
:10079000891B990B0895CF93DF93CB01EA01642F56
:1007A0000E945C03CE01DF91CF910895CF93DF9338
:1007B0001F92CDB7DEB7698361E0CE0101960E943A
:1007C0005C0381E090E00F90DF91CF91089590E07D
:1007D00080E008950F931F93CF93DF938EE00E94E4
:1007E00095018EE00E9495018C018FE00E94950199
:1007F0008FE00E949501EC016AE070E080E090E0FB
:100800000E94CC0120913A03222369F102301105A4
:100810002CF490E080E0C230D10574F1C8014F970C
:100820008732910508F444C08A55910987329105B1
:1008300050F18A5A9109879748F10F3D83E01807D4
:1008400044F5CE014F978732910530F18A559109D1
:100850008732910520F18A5A9109879718F1CF3D87
:1008600083E0D80714F590E080E0023011051CF415
:1008700021E022970CF020E020933A03DF91CF9102
:100880001F910F91089583E090E0EFCF81E090E019
:10089000ECCF82E090E0E9CF88E090E0E6CF87E01F
:1008A00090E0E3CF86E090E0E0CF85E090E0DDCF20
:1008B00084E090E0E0CFFC0101900020E9F731975F
:1008C000AF01481B590BBC018EE094E00C944F0221
:1008D0008F929F92AF92BF920F931F93CF93DF930C
:1008E000CDB7DEB7A1970FB6F894DEBF0FBECDBF70
:1008F00019A2423008F44AE08E010F5D1F4F842E8A
:10090000912CB12CA12CA50194010E94850DE62FFC
:10091000B901CA01EA30F4F4E05DD801EE938D012B
:10092000232B242B252B79F790E080E0109719F0EA
:10093000CD010E945B04A1960FB6F894DEBF0FBEF6
:10094000CDBFDF91CF911F910F91BF90AF909F903E
:100950008F900895E95CE1CFCF92DF92EF92FF9202
:10096000CF93DF936B017C016DE28EE094E00E94F7
:10097000EF02EC0166277727CB016C197D098E0900
:100980009F094AE00E9468048C0F9D1FDF91CF9160
:10099000FF90EF90DF90CF9008950C945B04CF937D
:1009A000DF93D0E0C0E0009719F00E945B04EC01F7
:1009B0008AE291E00E945B048C0F9D1FDF91CF9132
:1009C00008950F931F93CF93DF93C091F303D091BA
:1009D000F4036C2F8BEA94E00E94D6038091F90314
:1009E0008823A9F00E94FE010091F5031091F603FF
:1009F0002091F7033091F803601B710B820B930B6E
:100A0000693873418105910510F01092F903CB30DC
:100A1000D105E1F48DE291E00E94CF0442E050E084
:100A200068ED73E08BEA94E00E94CB038091F903B8
:100A30008823F1F0C631D105D9F4D093F403C093E3
:100A4000F303DF91CF911F910F910895CE30D1051F
:100A500069F742E050E068ED73E08BEA94E00E94B1
:100A6000CB0360913B038BEA94E00E94D603DECF78
:100A70001092F4031092F303E4CF1092E303109268
:100A8000E2031092E9038EE491E00E94CF0461E05A
:100A900086E00E94D90061E085E00C94D900CF93F4
:100AA000DF93682F70E090E080E04AE00E946804E5
:100AB000EC018AE291E00E945B048C0F9D1FDF91A4
:100AC000CF910895CF93DF93BC01990F880B990BB9
:100AD00097FF0CC00E94AC04EC018AE291E00E94F6
:100AE0005B048C0F9D1FDF91CF9108954AE00E9417
:100AF0006804F2CF892B09F452C09091D2038091FF
:100B0000D303981731F08BEA94E00E94B103282FA9
:100B1000F4CF253149F41092FB031092F4031092A4
:100B2000F3031092F9030895283139F41092FA036F
:100B30001092F4031092F3030895203841F4809149
:100B4000EE03882361F181E08093ED03089521385D
:100B500031F50E94B50080933B0384E10E9495012A
:100B600084E10E9495019093D9038093D80387E68E
:100B700091E00E94CD0480913B030E944F0581E8E3
:100B800091E00E94CD048091D8039091D9030E94F6
:100B900062058EE090E09093F4038093F303089550
:100BA000CF93DF93EC01892B19F081E00E940306BB
:100BB000D093E603C093E50383EA91E00E94CD045D
:100BC0006091E5037091E603072E000C880B990BEA
:100BD00097FF12C00E94AC048FEA91E00E94CD04FE
:100BE0008091E5039091E603892B51F080EA91E032
:100BF000DF91CF910C94CF044AE00E946804ECCFBF
:100C00008CE991E0F5CFCF939091E403981759F1D7
:100C1000C82F81110AC08091E5039091E603892BCA
:100C200021F090E080E00E94D005C093E40388ECBE
:100C300091E00E94CD048091E40390E00E9462055F
:100C40008091E403882349F061E088E00E94D900A4
:100C500061E089E0CF910C94D90060E088E00E94C7
:100C6000D90060E0F6CFCF9108951092EE03109274
:100C7000ED0380E00E9403061092E6031092E50364
:100C80008AE090E09093F4038093F303089581E069
:100C90008093E9038CBB8BE092E0909301018093F9
:100CA0000001E9E6F0E080818C7F82608083E89A31
:100CB0006091E70370E086E00E94380170E060E038
:100CC00085E00C943801CF93DF9385ED8093BC00D1
:100CD00080915E0390915F03A0916003B0916103E6
:100CE0000796A11DB11D23E0B695A7959795879509
:100CF0002A95D1F72091BC0024FD03C01092A603D1
:100D000036C040915E0350915F0360916003709123
:100D10006103452B462B472B69F30097A105B105CD
:100D200041F025E12A95F1F700000197A109B109E9
:100D3000E1CF80915D0391E090935C038823B9F04B
:100D4000C091B800D091BA008091BC008A7B80939A
:100D5000BC0060E082E10E94D90060E083E10E9473
:100D6000D9000E948303D093BA00C093B800DF91EA
:100D7000CF9108951F920F920FB60F9211242F93C7
:100D80003F938F939F93AF93BF938091060490916D
:100D90000704A0910804B09109043091050426E0ED
:100DA000230F2D3758F50296A11DB11D2093050480
:100DB0008093060490930704A0930804B093090459
:100DC00080910A0490910B04A0910C04B0910D0441
:100DD0000196A11DB11D80930A0490930B04A0936A
:100DE0000C04B0930D04BF91AF919F918F913F91EF
:100DF0002F910F900FBE0F901F90189529E8230F89
:100E00000396A11DB11DD2CF1F920F920FB60F9264
:100E100011242F933F934F935F936F937F938F93FF
:100E20009F93AF93BF93EF93FF93E0910201F091F3
:100E300003010995FF91EF91BF91AF919F918F9120
:100E40007F916F915F914F913F912F910F900FBEC6
:100E50000F901F9018951F920F920FB60F921124AA
:100E60002F933F934F935F936F937F938F939F93B2
:100E7000AF93BF93EF93FF93E0910001F0910101D5
:100E80000995FF91EF91BF91AF919F918F917F91C4
:100E90006F915F914F913F912F910F900FBE0F90E7
:100EA0001F9018951F920F920FB60F9211242F9337
:100EB0003F934F935F936F937F938F939F93AF93E2
:100EC000BF93EF93FF938EE094E00E94CD02FF91D9
:100ED000EF91BF91AF919F918F917F916F915F91B2
:100EE0004F913F912F910F900FBE0F901F9018952B
:100EF0001F920F920FB60F9211242F938F939F93EF
:100F0000EF93FF93E0911E04F0911F048081E09124
:100F10002404F091250482FD1BC090818091270458
:100F20008F5F8F7320912804821741F0E09127048E
:100F3000F0E0E25FFB4F958F80932704FF91EF91E4
:100F40009F918F912F910F900FBE0F901F9018952A
:100F50008081F4CF1F920F920FB60F9211242F931E
:100F60003F934F935F936F937F938F939F93AF9331
:100F7000BF93EF93FF938091B900887F803609F487
:100F80004AC0F0F5883209F4A7C018F5803109F499
:100F90009BC0B8F4882309F4F9C0883009F494C0E0
:100FA000FF91EF91BF91AF919F918F917F916F9141
:100FB0005F914F913F912F910F900FBE0F901F9017
:100FC0001895883109F488C0803251F78093A503C1
:100FD00014C0803409F49DC040F48033B9F38833E1
:100FE000F9F68093A50385ECB0C0803509F485C07F
:100FF000883509F496C0883499F60E946306D0CFEC
:10100000883909F48CC038F5883729F050F48836CF
:1010100011F0803729F683E08093A6031092A40391
:1010200057C0883809F47BC0803919F0803809F03E
:10103000B7CF8091A403803208F071C0E091A4037F
:1010400081E08E0F8093A4038091BB00F0E0EC5709
:10105000FC4F80833DC0803B39F0E0F4803A09F4D6
:1010600079C0883A09F09CCF84E08093A60310925F
:10107000830310928203E091CE03F091CF03099590
:101080008091820381110FC081E0809382031092CE
:10109000620309C0803C09F4A6CF883C09F4A3CFC1
:1010A000883B09F07DCFE091830381E08E0F809330
:1010B0008303F0E0EE59FC4F80818093BB00909158
:1010C00083038091820329C08091CB038093BB006E
:1010D00085EC8093BC0064CF9091CA038091C903D2
:1010E000981758F5E091CA0381E08E0F8093CA03E8
:1010F000F0E0E755FC4F8081E9CFE091CA0381E041
:101100008E0F8093CA038091BB00F0E0E755FC4F3F
:1011100080839091CA038091C9039817C8F285E82B
:10112000D8CFE091CA0381E08E0F8093CA038091EB
:10113000BB00F0E0E755FC4F80838091A80381114C
:101140005CCF81E08093A70384EA8093BC00109277
:10115000A60326CF85EC8093BC001092A603809155
:10116000A403803230F4E091A403F0E0EC57FC4F8C
:1011700010826091A40370E0E091CC03F091CD0364
:1011800084E893E009951092A4030ACF1092A50376
:1011900034CF0E943D058AE591E00E94CF046AEFBA
:1011A00070E080E090E00C94CC01EEE0F4E013827B
:1011B000128288EE93E0A0E0B0E084839583A6835A
:1011C000B7832AE031E03183208325EC30E0358796
:1011D000248724EC30E03787268720EC30E0318B01
:1011E000208B21EC30E0338B228B22EC30E0358BEE
:1011F000248B26EC30E0378B268B118E128E138ECB
:10120000148EEBEAF4E01382128284839583A68322
:10121000B7838CE191E0918380830895789484B5BD
:10122000826084BD84B5816084BD85B5826085BDE2
:1012300085B5816085BD80916E00816080936E0070
:101240001092810080918100826080938100809162
:101250008100816080938100809180008160809313
:1012600080008091B10084608093B1008091B000D3
:1012700081608093B00080917A00846080937A00CE
:1012800080917A00826080937A0080917A008E7FCC
:1012900080937A0080917A00806880937A0010921F
:1012A000C100E0911E04F0911F0482E08083E09170
:1012B0001A04F0911B041082E0911C04F0911D04AB
:1012C00088E0808310922604E0912204F0912304A8
:1012D00086E08083E0912004F09121048081806188
:1012E0008083E0912004F0912104808188608083D4
:1012F000E0912004F0912104808180688083E09156
:101300002004F091210480818F7D808360E08EE055
:101310000E94070160E08FE00E94070160E080E129
:101320000E94070160E081E10E94070160E084E122
:101330000E94070161E088E00E94070161E089E006
:101340000E94070161E086E00E94070161E085E0FC
:101350000E94070161E087E00E94070160E082E0EF
:101360000E94070160E083E00E9407010E94B5002F
:1013700021E0892B09F420E02093E0032093DF0390
:101380000E94FE01605E7C4F8F4F9F4F6093000470
:101390007093010480930204909303048EE00E94F2
:1013A00095018EE00E9495018C018FE00E949501CD
:1013B0008FE00E949501EC0184ED91E00E94CD0444
:1013C000C8010E94620582EE91E00E94CD04CE0128
:1013D0000E946205A801495751094732510538F466
:1013E00081E09E01295731092732310508F080E05C
:1013F0009E012F5131094732510520F491E0C2304E
:10140000D1050CF090E02732310508F09CC081E056
:101410008093FB030E94FE016093EF037093F0033F
:101420008093F1039093F20384E190E09093F403AE
:101430008093F30380EF91E00E94CF0470E060E0BE
:1014400086E00E94380170E060E085E00E9438018B
:1014500060E088E00E94D90060E089E00E94D90045
:101460001092D3031092D2031092D1031092D003A2
:101470000E94830389E192E09093CF038093CE038F
:1014800085E292E09093CD038093CC0384E5809332
:10149000BA008AE795E09093D5038093D40381EE58
:1014A00094E09093D7038093D60388248A9483E0B2
:1014B000982EA12CB12CCAE0D2E09DE0292E312C2F
:1014C0002CE0422E512C3BE0632E712C49E0E42E9F
:1014D000F12CCC24C394D12C10910404112309F4D1
:1014E0005EC08091FB03882309F49AC08FE00E94BC
:1014F00095018FE00E9495018C010E94EA03909370
:10150000FF038093FE030F3D13401CF4059709F081
:101510006DC085E392E00E94CF041092FB0381E04E
:101520008093F9030E94FE016093F5037093F60324
:101530008093F7039093F80386E190E09093F4038F
:101540008093F30346C00F3D134064F081E0809325
:10155000FA0387E190E09093F4038093F30384E02F
:1015600092E06ACF992349F089E190E09093F403E7
:101570008093F30384E192E05FCFC538D3401CF43D
:10158000882309F45BCF81E0809304048FE090E02E
:101590009093F4038093F30382E292E04DCF0E9494
:1015A000FE01209100043091010440910204509109
:1015B0000304621773078407950708F0D3C10E94DC
:1015C000EA039093FF038093FE039093FD038093BF
:1015D000FC0380E090E0892B09F47ECF0E94B902E1
:1015E000882309F479CF0E94000076CF0E94FE0183
:1015F0000091EF031091F0032091F1033091F20379
:10160000601B710B820B930B613D7B4F81409105F9
:1016100000F31092FB031092F4031092F303D9CF5E
:101620001123B9F20E94EA039093FF038093FE0313
:101630002091FC033091FD038217930751F29093A0
:10164000FD038093FC038530910599F030F40397F6
:1016500009F0BFCF80E190E071CF8730910531F084
:10166000089709F0B6CF82E190E068CF81E190E081
:1016700065CF83E190E062CF1092EB03ADC10E9491
:10168000470685E090E09093F4038093F303B9C19B
:1016900087EA92E00E94CF04C4C13197E830F10597
:1016A00008F002C2EA5AF44F0C94B60D610B7E0B9F
:1016B000890BB30B5E0BE30BF80B1C0C0E943D0572
:1016C000F3C12091E5033091E6032230310589F022
:1016D000C901992701962817390769F48091E50314
:1016E0009091E603992702969093F4038093F30375
:1016F000DBC190E080E00E94D005F0CF9091E40340
:1017000081E089270E9403068091E40390E0069619
:10171000EBCF8091E2039091E303019711F40E94D3
:10172000C9088FEF9FEF9093E3038093E2038BEB65
:1017300092E00E94CD048091E8030E944F05E89852
:10174000D0930101C093000185E08093E10370E034
:1017500060E086E00E9438016091E80370E085E077
:101760000E943801A1C18091E2039091E303892B8B
:1017700029F58091E903811121C083EC92E00E9458
:10178000CD048091E7030E944F0581E08093E90337
:101790008CBB8BE092E090930101809300018091DB
:1017A00069008C7F826080936900E89A70E060E055
:1017B00086E00E9438016091E703D0CF8FEC92E081
:1017C0000E94CF0471C18091E2039091E303892BC1
:1017D000A9F78091E9038111F1CF8AEE92E00E948E
:1017E000CD048091E7030E944F050E9447065CC12B
:1017F0008091E2039091E303019611F40E94C908DD
:10180000D092E303C092E20382EE92E00E94CD0404
:101810008091E8030E944F05E898D0930101C0939E
:10182000000186E08093E1036091E80370E00E948C
:10183000380170E060E093CF81E08093EE03109276
:10184000EC031092EB031092EA03F092F403E0929F
:10185000F3030E94030628C1211126C184E10E94DE
:10186000950184E10E94950184E10E9495012091F7
:10187000040130910501281B390B37FF03C0319556
:101880002195310928303105B4F09093D903809324
:10189000D803909305018093040186EF92E00E94A3
:1018A000CD048091D8039091D9030E946205709273
:1018B000F4036092F3031091E0031093DF030E949E
:1018C000B50021E0009709F420E02093E003892B84
:1018D00009F03FC0112369F00E94FE016093DB0311
:1018E0007093DC038093DD039093DE0381E08093AB
:1018F000DA038091DA03882309F4D6C00091E20369
:101900001091E3030E94FE012091DB033091DC0380
:101910004091DD035091DE03621B730B840B950B2A
:10192000643F71408105910508F4BEC00130110586
:1019300019F00F3F1F4F31F48DE093E00E94CF0468
:101940000E943D055092F4034092F3031092DA0393
:10195000ABC01092DA031111A7C03092F4032092A9
:10196000F303A2C08091FB038111BBCD8091FA03E8
:101970008111B7CD8091F90381112BCE0E94EA032A
:101980009093FF038093FE038091EE038823C9F1B7
:101990008091ED038823A9F18091F3039091F403E2
:1019A0000A9779F11092ED030E94B500892B09F096
:1019B00063CE8091EC03811114C08091EB038F5FA3
:1019C0008093EB03833008F45ACE89E18093EC03D3
:1019D00080E592E00E94CF048091EC03882309F413
:1019E0004ECE81508093EC03811149CE86E792E080
:1019F0000E94CF040E9435068FE08093EA030E9484
:101A000047068091EA03882361F09091E9039111E0
:101A100008C081508093EA03882309F439CE0E94DC
:101A2000470681E10E94950181E10E9495019C0198
:101A3000A5E6BFEF0E94BC0DA50194010E94660DB2
:101A400021503F4F4F4F5F4F2093E80380E10E94AA
:101A5000950180E10E9495019C01A5E6BFEF0E94DF
:101A6000BC0DA50194010E94660D21503F4F4F4FC0
:101A70005F4F2093E703E091FE03F091FF03209175
:101A8000EE038091FC039091FD03E817F90709F438
:101A9000E3CEF093FD03E093FC03222309F4FDCD94
:101AA000359711F40E9435068091E2039091E3038B
:101AB0008130910519F0019609F08BCD6091E80312
:101AC00070E08091E1030E94380183CD052E97FBE1
:101AD0001EF400940E947D0D57FD07D00E94850DD5
:101AE00007FC03D04EF40C947D0D50954095309535
:101AF00021953F4F4F4F5F4F08959095809570957A
:101B000061957F4F8F4F9F4F0895A1E21A2EAA1B18
:101B1000BB1BFD010DC0AA1FBB1FEE1FFF1FA2179D
:101B2000B307E407F50720F0A21BB30BE40BF50B9A
:101B3000661F771F881F991F1A9469F76095709523
:101B4000809590959B01AC01BD01CF010895A29FA6
:101B5000B001B39FC001A39F700D811D1124911D81
:101B6000B29F700D811D1124911D0895EE0FFF1F6E
:101B70000590F491E02D09940E94A70D332312F4EF
:101B80008A1B9B0B0C94C60D0E94A70DB7FF0895EE
:101B9000821B930B0895F894FFCF0A020A029CFF60
:101BA00000000000EF024F027C023C03AD028B02FA
:101BB0009F0200000000D603CB03E703A103C40388
:101BC000B103A2030D0A0053656E64696E67206E4F
:101BD0006577204578706F737572652054696D65FF
:101BE0002076616C75652E004D6F746F723A2053CC
:101BF000746F70002842726965666C792E2E2E29EA
:101C00000043757272656E742046696C6D206C6F4E
:101C100061642073746174653A2000437572726563
:101C20006E74204578706F73757265205365747497
:101C3000696E673A20006F757400696E005A6F6FA5
:101C40006D206D6F64653A20002E2054656C6C69C0
:101C50006E6720526173706920746F207A6F6F6DA8
:101C600020004C616D70206D6F64653A2000426FFA
:101C70006F74204130204144433A2000426F6F741A
:101C8000204131204144433A200050616972696E1D
:101C900067206D6F64653A20656E746572004C6FE5
:101CA000672064756D703A20656E74657200556EBC
:101CB000706169723A20656E746572005570646176
:101CC0007465206D6F64653A20656E7465720050AE
:101CD000616972696E67206D6F64653A2073746F15
:101CE0007020707265737365640046696C6D206561
:101CF0006E646564202D207363616E6E696E67206B
:101D00003235206578747261206672616D6573008A
:101D10004578747261206672616D657320646F6EC0
:101D200065202D2073746F7070696E672073636116
:101D30006E2C20656A656374696E672066696C6DD8
:101D40000046696C6D20656A65637420636F6D7011
:101D50006C657465004D6F746F723A203C3C206175
:101D60007420537065656420004D6F746F72206E2F
:101D70006F742073746F707065642E004D6F746F94
:101D8000723A203E3E2061742053706565642000E5
:101D90004E6577204578706F737572652053657452
:101DA00074696E673A200046696C6D20656E6465E3
:101DB0006420647572696E6720636F6E74696E75F6
:101DC0006F75732072756E202D2073746F7070693B
:041DD0006E6700003A
:107800000C94343C0C94513C0C94513C0C94513CE1
:107810000C94513C0C94513C0C94513C0C94513CB4
:107820000C94513C0C94513C0C94513C0C94513CA4
:107830000C94513C0C94513C0C94513C0C94513C94
:107840000C94513C0C94513C0C94513C0C94513C84
:107850000C94513C0C94513C0C94513C0C94513C74
:107860000C94513C0C94513C11241FBECFEFD8E036
:10787000DEBFCDBF11E0A0E0B1E0EAE8FFE702C063
:1078800005900D92A230B107D9F712E0A2E0B1E065
:1078900001C01D92AD30B107E1F70E942D3D0C945F
:1078A000C33F0C94003C982F95959595959595958B
:1078B000905D8F708A307CF0282F295A8091C0000B
:1078C00085FFFCCF9093C6008091C00085FFFCCF60
:1078D0002093C6000895282F205DF0CF982F809127
:1078E000C00085FFFCCF9093C6000895EF92FF92F1
:1078F0000F931F93EE24FF2487018091C00087FD22
:1079000017C00894E11CF11C011D111D81E2E8164D
:1079100081EAF80687E0080780E0180770F3E09135
:107920000401F091050109958091C00087FFE9CF1E
:107930008091C6001F910F91FF90EF9008950E94D3
:10794000763C982F8091C00085FFFCCF9093C600B5
:1079500091362CF490330CF09053892F089597555D
:10796000892F08951F930E949F3C182F0E949F3CCF
:107970001295107F810F1F9108951F93182F882350
:1079800021F00E94763C1150E1F71F9108951F935A
:10799000182F0E94763C803249F0809103018F5F5E
:1079A000809303018530C1F01F9108958091C0003C
:1079B00085FFFCCF84E18093C6008091C00085FFE5
:1079C000FCCF1093C6008091C00085FFFCCF80E102
:1079D0008093C6001F910895E0910401F091050184
:1079E00009951F9108950E94763C803241F0809164
:1079F00003018F5F80930301853081F008958091AA
:107A0000C00085FFFCCF84E18093C6008091C00058
:107A100085FFFCCF80E18093C6000895E0910401CA
:107A2000F09105010995089548EC50E08823A1F0F4
:107A30002D9A28EE33E0FA013197F1F721503040CA
:107A4000D1F72D9828EE33E0FA013197F1F7215064
:107A50003040D1F7815061F708953F924F925F9285
:107A60006F927F928F929F92AF92BF92CF92DF924E
:107A7000EF92FF920F931F93CF93DF93000082E06A
:107A80008093C00080E18093C4001092C50088E11B
:107A90008093C10086E08093C2005098589A259A3E
:107AA00081E00E94143D24E1F22E9EE1E92E85E959
:107AB000D82E0FE0C02E10E1B12EAA24A394B1E479
:107AC0009B2EA6E58A2EF2E57F2EE0E26E2E79E46B
:107AD000572E63E5462E50E5352E0E94763C8033C6
:107AE000B1F18133B9F1803409F46FC0813409F404
:107AF00076C0823409F485C0853409F488C08035A5
:107B000031F1823521F1813511F1853509F485C0D6
:107B1000863509F48DC0843609F496C0843709F49B
:107B200003C1853709F472C1863709F466C08091B4
:107B300003018F5F80930301853079F6E0910401A2
:107B4000F091050109950E94763C803351F60E9420
:107B5000F33CC3CF0E94763C803249F78091C0004D
:107B600085FFFCCFF092C6008091C00085FFFCCF5E
:107B70009092C6008091C00085FFFCCF8092C60025
:107B80008091C00085FFFCCF7092C6008091C0003C
:107B900085FFFCCF6092C6008091C00085FFFCCFBE
:107BA0005092C6008091C00085FFFCCF4092C60075
:107BB0008091C00085FFFCCF3092C6008091C0004C
:107BC00085FFFCCFB092C60088CF0E94763C8638F5
:107BD00008F4BDCF0E94763C0E94F33C7ECF0E9409
:107BE000763C803809F49CC0813809F40BC1823896
:107BF00009F430C1883909F48FC080E00E94C73C85
:107C00006CCF84E10E94BD3C0E94F33C66CF85E0CE
:107C10000E94BD3C0E94F33C60CF0E94763C809362
:107C200006010E94763C809307010E94F33C55CFE9
:107C30000E94763C803309F411C183E00E94BD3C70
:107C400080E00E94C73C49CF0E94763C80930902A5
:107C50000E94763C8093080280910C028E7F809374
:107C60000C020E94763C853409F409C18091080217
:107C700090910902892B89F000E010E00E94763C87
:107C8000F801E85FFE4F80830F5F1F4F809108026D
:107C9000909109020817190788F30E94763C8032F8
:107CA00009F045CF80910C0280FFF5C0609106017C
:107CB00070910701660F771F7093070160930601AB
:107CC000A0910802B09109021097C9F0E8E0F1E034
:107CD0009B01AD014E0F5F1FF999FECF32BD21BD53
:107CE000819180BDFA9AF99A2F5F3F4FE417F5070B
:107CF00099F76A0F7B1F70930701609306018091CB
:107D0000C00085FFFCCFF092C6008091C00085FFC7
:107D1000FCCFB092C600E1CE83E00E94C73CDDCE2E
:107D200082E00E94C73CD9CE0E94763C8093090233
:107D30000E94763C80930802809106019091070191
:107D4000880F991F90930701809306010E94763C4B
:107D5000853409F49AC080910C028E7F80930C02C6
:107D60000E94763C803209F0B8CE8091C00085FF39
:107D7000FCCFF092C600A0910802B09109021097C2
:107D8000C1F180910C02082F0170182F1695117007
:107D9000E0910601F0910701AF014F5F5F4FBA011B
:107DA00020E030E00023B1F4112339F49491809164
:107DB000C00085FFFCCF9093C6002F5F3F4FCB01E3
:107DC0000196FA012A173B0780F4BC014F5F5F4F11
:107DD000002351F3F999FECFF2BDE1BDF89A90B5B9
:107DE0008091C00085FFFCCFE6CF709307016093C0
:107DF00006018091C00085FDE5CE8091C00085FF21
:107E0000F8CFE0CE81E00E94C73C67CE0E94763C6E
:107E1000803209F08CCE8091C00085FFFCCFF092BB
:107E2000C6008091C00085FFFCCFE092C600809123
:107E3000C00085FFFCCFD092C6008091C00085FFB6
:107E4000FCCFC092C6008091C00085FFFCCFB092ED
:107E5000C60043CE80E10E94C73C3FCE0E94763CE4
:107E60000E94763C182F0E94763C112309F483C0AF
:107E7000113009F484C08FE00E94C73C2ECE80915F
:107E80000C02816080930C02F1CE80910C02816023
:107E900080930C0265CF809107018823880F880B9F
:107EA0008A2180930B028091060190910701880F2F
:107EB000991F90930701809306018091080280FF2B
:107EC00009C08091080290910902019690930902DD
:107ED00080930802F894F999FECF1127E0910601EA
:107EE000F0910701C8E0D1E0809108029091090269
:107EF000103091F40091570001700130D9F303E084
:107F000000935700E8950091570001700130D9F3B4
:107F100001E100935700E8950990199000915700EE
:107F200001700130D9F301E000935700E8951395F3
:107F3000103498F011270091570001700130D9F3E7
:107F400005E000935700E89500915700017001305B
:107F5000D9F301E100935700E8953296029709F0B2
:107F6000C7CF103011F00296E5CF11248091C000E8
:107F700085FFC5CEC8CE8EE10E94C73CAECD85E957
:0C7F80000E94C73CAACDF894FFCF8000FF
:00000001FF
