:100000000C94B6030C94650C0C943E0C0C94DE031B
:100010000C94DE030C94DE030C94DE030C94DE03DC
:100020000C94DE030C94DE030C94DE030C94DE03CC
:100030000C94DE030C94DE030C94DE030C94DE03BC
:100040000C94F40B0C94DE030C94B20C0C948C0CFA
:100050000C94DE030C94DE030C94DE030C94DE039C
:100060000C94E40C0C94DE034D6F746F723A2053C1
:10007000746F70002842726965666C792E2E2E2985
:10008000004C616D70206D6F64653A2000696E00F0
:100090006F7574002E2054656C6C696E6720526118
:1000A00073706920746F207A6F6F6D20005A6F6FC4
:1000B0006D206D6F64653A200043757272656E74D1
:1000C000204578706F737572652053657474696E1E
:1000D000673A200043757272656E742046696C6DD4
:1000E000206C6F61642073746174653A20005363FF
:1000F000616E2072656A6563746564206279205060
:1001000069004D6F746F722063616C696220736562
:10011000742066726F6D2050693A206D6F746F7233
:100120004D696E44757479203D20004D656E753AB9
:100130002065786974202866726F6D2050692900E7
:100140004D656E753A206261636B20746F206D613E
:10015000696E202866726F6D2050692900576946C4
:1001600069206D656E753A20657869740054617216
:10017000676574206D656E753A2065786974004C0A
:100180006174656E6379206D656E753A2065786976
:100190007400415742206D656E753A206578697428
:1001A0000053656E64696E67206E657720457870D0
:1001B0006F737572652054696D652076616C756525
:1001C0002E005265762E20005265762E204420287F
:1001D000666C6F6174696E67290020574452463D12
:1001E0000020424F52463D002045585452463D00A3
:1001F00020504F52463D00424F4F54204D435553DF
:10020000523D30780043616C69623A2072657375C3
:100210006C742071756575656420666F7220506915
:100220000043616C69623A206E6577206D6F746F70
:10023000724D696E44757479203D200043616C698C
:10024000623A207374616C6C65642061742064751B
:100250007479200043616C69623A206E6F204559C1
:10026000452070756C7365202D2061626F72746516
:1002700064202866696C6D206C6F616465643F2939
:100280000043616C69623A207374617274696E67CD
:10029000206D6F746F7220737765657000556E7096
:1002A0006169723A2065786974206D656E750055D4
:1002B0006E706169723A206261636B20746F206DA9
:1002C000656E7500556E706169723A20636F6E6677
:1002D00069726D00556E706169723A206E6578744E
:1002E00000556E706169723A2070726576004C6FCD
:1002F00067733A206261636B20746F206D656E7561
:1003000000576946693A2065786974206D656E7595
:1003100000576946693A20636F6E6669726D0057CF
:100320006946693A206E65787400576946693A20D3
:100330007072657600576946693A206261636B2086
:10034000746F206D656E75005461726765743A2034
:1003500065786974206D656E7500546172676574A7
:100360003A20636F6E6669726D00546172676574DE
:100370003A206E657874005461726765743A207033
:10038000726576005461726765743A206261636BCE
:1003900020746F206D656E75004C6174656E6379B5
:1003A0003A2065786974206D656E75004C617465DE
:1003B0006E63793A206261636B20746F206D656EA5
:1003C00075004157423A2065786974206D656E75F5
:1003D000004157423A206261636B20746F206D6563
:1003E0006E750050616972696E673A206261636B75
:1003F00020746F206D656E750050616972696E675B
:10040000206D6F64653A2073746F7020707265732D
:10041000736564005570646174653A206578697429
:10042000206D656E75005570646174653A20636F68
:100430006E6669726D005570646174653A206E6510
:100440007874005570646174653A20707265760046
:100450005570646174653A206261636B20746F202B
:100460006D656E75004D656E753A2065786974002E
:100470004D656E753A20656E746572696E672069A8
:1004800074656D20004D656E753A2073656C65630B
:10049000746564206974656D20004D656E753A2041
:1004A00073656C6563746564206974656D200020F4
:1004B000746F20004D656E753A20627574746F6EAE
:1004C000206368616E6765642066726F6D20004E00
:1004D0006577204578706F73757265205365747405
:1004E000696E673A200046696C6D20656E646564CC
:1004F00020647572696E6720636F6E74696E756FC4
:1005000075732072756E202D2073746F7070696E14
:10051000670046696C6D20656E6465642064757261
:10052000696E6720636F6E74696E756F7573207284
:10053000756E202D2073746F7070696E67004D6F3B
:10054000746F723A203E3E2061742053706565647A
:1005500020004D6F746F72206E6F742073746F7013
:100560007065642E003E20617420537065656420C0
:10057000004D6F746F72206E6F742073746F7070A3
:1005800065642E003C206174205370656564200012
:100590004D6F746F723A203C3C206174205370653B
:1005A0006564200053544F503A2069676E6F72693A
:1005B0006E6720286C6F6E672D7072657373207480
:1005C000696D696E67290046696C6D20656A6563AF
:1005D0007420636F6D706C6574650045787472612A
:1005E000206672616D657320646F6E65202D2073C7
:1005F000746F7070696E67207363616E2C20656A1A
:10060000656374696E672066696C6D0046696C6D20
:1006100020656E646564202D207363616E6E696E63
:1006200067203235206578747261206672616D656D
:100630007300206D732028746F6F2073686F72745D
:1006400029004D656E753A2053544F502072656CE9
:10065000656173656420616674657220004D656E26
:10066000753A20656E74657220286C6F6E67207015
:10067000726573732053544F5029004D656E753A5F
:100680002053544F5020627574746F6E20707265E1
:10069000737365642C2074696D696E672E2E2E004D
:1006A0002C207461726765744D6F64653D00546100
:1006B00072676574206D656E753A2072652D656E82
:1006C000746572202866726F6D205069292C206D28
:1006D000656E7553746174653D005461726765742D
:1006E0003A20656E746572696E67206D656E75205F
:1006F0006D6F646520666972737400454550524F92
:100700004D206261636B75703A2077697065640093
:1007100000000000240027002A000000000025003F
:1007200028002B00000000002300260029000404FC
:100730000404040404040202020202020303030389
:100740000303010204081020408001020408102065
:10075000010204081020000000080002010000034C
:1007600004070000000000000000030E11241FBE5B
:10077000CFEFD8E0DEBFCDBF11E0A0E0B1E0E0E315
:10078000F1E302C005900D92AC35B107D9F723E033
:10079000ACE5B1E001C01D92A633B207E1F713E06A
:1007A000C6EBD3E004C02197FE010E947C18C53B34
:1007B000D107C9F70E943C0E0C9496180C940000C7
:1007C000E89888EE93E090930401809303010895E4
:1007D0000895833081F028F4813099F08230A9F0B7
:1007E00008958730A9F08830C9F08430B1F4809141
:1007F00080008F7D03C0809180008F778093800080
:10080000089584B58F7784BD089584B58F7DFBCF1F
:100810008091B0008F778093B00008958091B000F0
:100820008F7DF9CFCF93DF93282F30E0F901EA5A7B
:10083000F84F8491F901EE5BF84FD491F901E25D34
:10084000F84FC491CC23A1F081110E94E903EC2F51
:10085000F0E0EE0FFF1FEC5DF84FA591B491EC9125
:10086000ED2381E090E009F480E0DF91CF910895DD
:1008700080E090E0FACF1F93CF93DF93282F30E0F2
:10088000F901EA5AF84F8491F901EE5BF84FD491DF
:10089000F901E25DF84FC491CC23A9F0162F811124
:1008A0000E94E903EC2FF0E0EE0FFF1FE65EF84F29
:1008B000A591B4918FB7F894EC91111108C0D0951F
:1008C000DE23DC938FBFDF91CF911F910895DE2B44
:1008D000F8CFCF93DF9390E0FC01EE5BF84F2491CB
:1008E000825D984FFC0184918823D1F090E0880FBD
:1008F000991FFC01E05FF84FA591B491FC01E65E01
:10090000F84FC591D49161110EC09FB7F8948C91A6
:10091000E22FE0958E238C932881E223E8839FBF0A
:10092000DF91CF9108958FB7F894EC91E22BEC937F
:100930008FBFF6CF1F93CF93DF93182FEB0161E0AA
:100940000E946904209739F460E0812FDF91CF91F4
:100950001F910C943B04CF3FD10511F461E0F5CF1A
:10096000E12FF0E0EA5AF84FE491E33031F140F43E
:10097000E130B1F0E230E1F0C038D1057CF7E4CFEE
:10098000E73029F1E83059F1E430B1F78091800087
:10099000806280938000D0938B00C0938A0004C053
:1009A00084B5806884BDC7BDDF91CF911F91089544
:1009B00084B5806284BDC8BDF7CF80918000806817
:1009C00080938000D0938900C0938800EDCF809100
:1009D000B00080688093B000C093B300E5CF8091F1
:1009E000B00080628093B000C093B400DDCF8E5021
:1009F000806480937C0080917A00806480937A0088
:100A000080917A0086FDFCCF8091780090917900EA
:100A100008953FB7F8948091890290918A02A0913D
:100A20008B02B0918C0226B5A89B05C02F3F19F010
:100A30000196A11DB11D3FBFBA2FA92F982F88275E
:100A4000BC01CD01620F711D811D911D43E0660F38
:100A5000771F881F991F4A95D1F708958F929F920B
:100A6000AF92BF92CF92DF92EF92FF926B017C0127
:100A70000E9409054B015C01C114D104E104F10499
:100A8000B9F00E940905681979098A099B09683E2D
:100A900073408105910580F321E0C21AD108E10875
:100AA000F10888EE880E83E0981EA11CB11CE4CFEB
:100AB000FF90EF90DF90CF90BF90AF909F908F907E
:100AC0000895109229021092280210921402109296
:100AD000150210921602109217021092270261E07E
:100AE00086E00E943B0461E085E00E943B040E9496
:100AF000E003789480912A02882331F085E090E029
:100B000090932C0280932B020895E091F901F091CB
:100B1000FA01309729F01092F4011092F301099430
:100B20000895CF93DF93AC01E091F701F091F801C4
:100B30003097F1F09091F6018091F5019817C0F08F
:100B400090E0292F30E02617370754F4D901A15A35
:100B5000BE4F240F351FE90128812C939F5FF1CFF1
:100B60001092F6016093F501CB01DF91CF910994CA
:100B7000DF91CF910895AF92BF92CF92DF92EF9223
:100B8000FF920F931F93CF93DF936C017B018B0137
:100B9000040F151FEB015E01AE18BF08C017D10787
:100BA00059F06991D601ED91FC910190F081E02D11
:100BB000C6010995892B79F7C501DF91CF911F9166
:100BC0000F91FF90EF90DF90CF90BF90AF9008957E
:100BD000FC01538D448D252F30E0842F90E0821B43
:100BE000930B541710F0CF96089501970895FC01C8
:100BF000918D828D981761F0A28DAE0FBF2FB11D20
:100C00005D968C91928D9F5F9F73928F90E0089577
:100C10008FEF9FEF0895FC01918D828D981731F031
:100C2000828DE80FF11D858D90E008958FEF9FEF85
:100C30000895FC01918D228D892F90E0805C9F4F5B
:100C4000821B91098F73992708958DE892E00E9485
:100C5000190621E0892B09F420E0822F089580E015
:100C600090E0892B29F00E94250681110C94000048
:100C70000895FC01A48DA80FB92FB11DA35ABF4F31
:100C80002C91848D90E001968F739927848FA6898B
:100C9000B7892C93A089B1898C91837080648C93DF
:100CA000938D848D981306C00288F389E02D80818E
:100CB0008F7D80830895EF92FF920F931F93CF93C0
:100CC000DF93EC0181E0888F9B8D8C8D98131AC087
:100CD000E889F989808185FF15C09FB7F894EE896E
:100CE000FF896083E889F9898081837080648083CB
:100CF0009FBF81E090E0DF91CF911F910F91FF9016
:100D0000EF900895F62E0B8D10E00F5F1F4F0F73BD
:100D10001127E02E8C8D8E110CC00FB607FCFACF78
:100D2000E889F989808185FFF5CFCE010E943906D7
:100D3000F1CFEB8DEC0FFD2FF11DE35AFF4FF08249
:100D40009FB7F8940B8FEA89FB8980818062CFCFAF
:100D50000F931F93CF93DF938C01D0E0C0E0F80195
:100D6000EC0FFD1F6491662341F08DE892E00E9434
:100D70005B06892B11F02196F2CFCE01DF91CF9146
:100D80001F910F910895CF93DF93EC01888D8823F5
:100D9000B9F0AA89BB89E889F9898C9185FD03C0DE
:100DA000808186FD0DC00FB607FCF7CF8C9185FFC3
:100DB000F2CF808185FFEDCFCE010E943906E9CFC9
:100DC000DF91CF9108952091A501260F3327331F7E
:100DD00021323105ECF42091C901FC0190E080E062
:100DE000243069F082E00895A091A5012191AC0121
:100DF0004B575E4FA40FB52FB11D2C93019686174C
:100E000098F38091A501680F6093A50180E0089593
:100E100081E008951092C90181E08093CB01109286
:100E2000CA0161E082E10E943B0461E083E10E942B
:100E30003B04E9EBF0E080818E7F808380818D7FB1
:100E4000808380E28093B80085E48093BC0008959D
:100E50000895E091F6018091F501E81730F4F0E093
:100E6000E15AFE4F808190E008958FEF9FEF089543
:100E70009091F6018091F5012FEF3FEF981748F41C
:100E8000E92FF0E0E15AFE4F208130E09F5F909320
:100E9000F601C90108958091F5019091F601891B31
:100EA000990B0895CF93DF93CB01EA01642F0E9441
:100EB000E306CE01DF91CF910895CF93DF931F9288
:100EC000CDB7DEB7698361E0CE0101960E94E306EB
:100ED00081E090E00F90DF91CF91089590E080E065
:100EE00008950F931F93CF93DF938EE00E94F70432
:100EF0008EE00E94F7048C018FE00E94F7048FE0DF
:100F00000E94F704EC0160E872E080E090E00E944B
:100F10002E0520915C01222369F1023011052CF489
:100F200090E080E0C230D10574F1C8014F9787325C
:100F3000910508F444C08A5591098732910550F112
:100F40008A5A9109879748F10F3D83E0180744F5C5
:100F5000CE014F978732910530F18A55910987323A
:100F6000910520F18A5A9109879718F1CF3D83E0C6
:100F7000D80714F590E080E0023011051CF421E060
:100F800022970CF020E020935C01DF91CF911F911C
:100F90000F91089583E090E0EFCF81E090E0ECCFF7
:100FA00082E090E0E9CF88E090E0E6CF87E090E053
:100FB000E3CF86E090E0E0CF85E090E0DDCF84E015
:100FC00090E0E0CF2FB7F89460918502709186028F
:100FD00080918702909188022FBF26E09695879591
:100FE000779567952A95D1F708958F929F92AF9242
:100FF000BF920F931F93CF93DF93CDB7DEB7A19727
:101000000FB6F894DEBF0FBECDBF19A2423008F470
:101010004AE08E010F5D1F4F842E912CB12CA12C24
:10102000A50194010E943718E62FB901CA01EA30E0
:1010300044F5E05DD801EE938D01232B242B252B65
:1010400079F790E080E0109769F0FD0101900020B1
:10105000E9F73197AF014A1B5B0BBD018DE892E0C8
:101060000E94BB05A1960FB6F894DEBF0FBECDBFA0
:10107000DF91CF911F910F91BF90AF909F908F9074
:101080000895E95CD7CF42E050E068E571E08DE873
:1010900092E00C94BB05CF93DF930E94A806EC016D
:1010A0000E9443088C0F9D1FDF91CF910895CF922E
:1010B000DF92EF92FF920F931F93CF93DF9300D0B5
:1010C00000D01F92CDB7DEB780915E018823F9F082
:1010D000809155028823D9F04091560250E067E58F
:1010E00072E08AE293E00E94520710925E01109231
:1010F00055020F900F900F900F900F90DF91CF91AE
:101100001F910F91FF90EF90DF90CF900895009185
:101110002B0210912C0209831A821B821C82802FC1
:1011200080958D838091FF018823A9F00E94E207BA
:10113000C090FB01D090FC01E090FD01F090FE0119
:101140006C197D098E099F096938734181059105E4
:1011500010F01092FF010A301105F9F481EA91E0D4
:101160000E944B089091090280910A029A838B8316
:1011700045E050E0BE016F5F7F4F8AE293E00E943E
:1011800052078091FF018823E1F005311105C9F470
:1011900010932C0200932B02ACCF0D30110551F4AB
:1011A0009091090280910A029A838B8380915D015C
:1011B0008C83DECF0C331105D9F6809102018A832E
:1011C000D7CF0231110569F480912E0290912F0240
:1011D000892B39F489E290E090932C0280932B02C2
:1011E00088CF10922C0210922B0283CF10922902EA
:1011F00010922802109214021092150210921602F8
:10120000109217021092270288E690E00E944B0885
:1012100061E086E00E943B0461E085E00C943B04C1
:101220000E94F60884E790E00E944B0860E87EE3A5
:1012300080E090E00C942E05CF92DF92EF92FF9227
:10124000CF93DF936C01990FEE08FF08F7FE19C0EA
:101250006DE28DE892E00E945B06EC01662777273D
:10126000CB016C197D098E099F094AE00E94F507A0
:101270008C0F9D1FDF91CF91FF90EF90DF90CF906B
:1012800008954AE0C701B601DF91CF91FF90EF903A
:10129000DF90CF900C94F507CF93DF930E941C0949
:1012A000EC010E9443088C0F9D1FDF91CF910895A0
:1012B000CF93DF932091190230911A022817390732
:1012C00021F1EC01892B19F081E00E948809D0936B
:1012D0001A02C09319028DEA90E00E94A806CE017E
:1012E0000E941C0984E990E00E94A80680911902DE
:1012F00090911A02892B31F08DE890E0DF91CF9127
:101300000C944B0880E990E0F9CFDF91CF910895DC
:10131000CF9390911802981721F1C82F811104C022
:1013200090E080E00E945809C093180281E890E0A4
:101330000E94A8068C2F90E00E944C098091180210
:10134000882349F061E088E00E943B0461E089E085
:10135000CF910C943B0460E088E00E943B0460E085
:10136000F6CFCF91089510922A02109220020E9487
:10137000E0030E94F60880E00E94880910921A0299
:101380001092190289E090E090932C0280932B0236
:101390000895CF93DF93682F70E090E080E04AE0FB
:1013A0000E94F507EC010E9443088C0F9D1FDF91FE
:1013B000CF910895CF92DF92FF920F931F93CF9317
:1013C000DF93CDB7DEB7A0970FB6F894DEBF0FBEA0
:1013D000CDBF181619060CF074C08AE293E00E9483
:1013E0003807182FCE0101966C0100E0F090F5014E
:1013F0008091F601F816A9F0003249F08AE293E0F4
:101400000E9438070F5FF60181936F01EFCF809143
:10141000F601F81609F463C18AE293E00E943807E6
:10142000F6CF1733B9F50230D8F089819A81982721
:10143000892798273EEF300FDE011396E1E3F2E0B3
:1014400020E0231720F44D9141932F5FFACF909322
:101450005302809352023093510281E080935402F0
:1014600089EC810F843008F449C010925E0110921B
:1014700055021431A1F51092080281E090E090939A
:101480002F0280932E0210922C0210922B021092A7
:10149000FF0117C0183309F028C1033090F02981EB
:1014A0003A813227232732278B81813208F080E26C
:1014B00030937902209378028093770281E08093C1
:1014C0007A02A0960FB6F894DEBF0FBECDBFDF91B3
:1014D000CF911F910F91FF90DF90CF90089517311A
:1014E00069F41092000281E090E090932F028093C3
:1014F0002E0210922C0210922B02E3CF133889F4A3
:101500001092030281E090E090932F0280932E02CC
:1015100010922C0210922B0282E991E00E944B085B
:10152000D0CF183879F41092020281E090E09093C5
:101530002F0280932E0210922C0210922B028FE722
:1015400091E0ECCF143879F410922D0281E090E014
:1015500090932F0280932E0210922C0210922B0255
:101560008DE691E0DBCF163879F41092010281E02C
:1015700090E090932F0280932E0210922C021092F2
:101580002B028DE591E0CACF153821F481E08093DC
:10159000300297CF1932C1F580912E0290912F021F
:1015A000029738F181E090E090932F0280932E0211
:1015B000109283021092080210920302109202020B
:1015C00010922D021092000210922C0210922B0207
:1015D00080E491E0A0960FB6F894DEBF0FBECDBFB9
:1015E000DF91CF911F910F91FF90DF90CF900C94DE
:1015F0004B0810922F0210922E0210922C02109281
:101600002B028BE291E0E6CF1B33D1F4002309F4E7
:1016100058CF19811093020182E091E00E94A80640
:10162000812FA0960FB6F894DEBF0FBECDBFDF911D
:10163000CF911F910F91FF90DF90CF900C94C9092B
:10164000173801F580912A02882309F43ACF1092C5
:101650002A0210922002809113020E9488098EEEC5
:1016600090E0B8CF80912A02882309F42ACF81E044
:101670008093200226CF1A3309F0F2CE81E08093C6
:101680005E01EECE103871F3113809F01ACF83E005
:101690000E941204182F80935D0184E10E94F704D8
:1016A00084E10E94F70490930A028093090284ED7A
:1016B00090E00E94A806812F0E94C90989EB90E062
:1016C0000E94A8068091090290910A020E944C098A
:1016D0008DE090E090932C0280932B02F2CE173392
:1016E00009F4A3CE183309F4DACE193321F6109297
:1016F0003102109253021092520281E08093510203
:10170000ADCE81E0809327028CBB81E695E090937B
:10171000040180930301E9E6F0E080818C7F826020
:101720008083E89A60911B0270E086E00E949A0430
:1017300070E060E085E00C949A04CF93DF9385ED30
:101740008093BC008091810190918201A0918301DE
:10175000B09184010796A11DB11D23E0B695A79510
:10176000979587952A95D1F72091BC0024FD03C059
:101770001092C90136C0409181015091820160915F
:10178000830170918401452B462B472B69F3009709
:10179000A105B10541F025E12A95F1F70000019777
:1017A000A109B109E1CF8091800191E090937F017F
:1017B0008823B9F0C091B800D091BA008091BC00E4
:1017C0008A7B8093BC0060E082E10E943B0460E081
:1017D00083E10E943B040E940A07D093BA00C093A1
:1017E000B800DF91CF9108951F920F920FB60F921C
:1017F00011242F933F938F939F93AF93BF93809127
:10180000850290918602A0918702B0918802309162
:10181000840226E0230F2D3758F50296A11DB11D35
:10182000209384028093850290938602A09387027E
:10183000B09388028091890290918A02A0918B02D4
:10184000B0918C020196A11DB11D809389029093E5
:101850008A02A0938B02B0938C02BF91AF919F91AB
:101860008F913F912F910F900FBE0F901F90189561
:1018700029E8230F0396A11DB11DD2CF1F920F920D
:101880000FB60F9211242F933F934F935F936F9353
:101890007F938F939F93AF93BF93EF93FF93E091C9
:1018A0000501F09106010995FF91EF91BF91AF916C
:1018B0009F918F917F916F915F914F913F912F9168
:1018C0000F900FBE0F901F9018951F920F920FB69A
:1018D0000F9211242F933F934F935F936F937F93B6
:1018E0008F939F93AF93BF93EF93FF93E091030187
:1018F000F09104010995FF91EF91BF91AF919F91F4
:101900008F917F916F915F914F913F912F910F90A8
:101910000FBE0F901F9018951F920F920FB60F9247
:1019200011242F933F934F935F936F937F938F93E4
:101930009F93AF93BF93EF93FF938DE892E00E9444
:101940003906FF91EF91BF91AF919F918F917F9158
:101950006F915F914F913F912F910F900FBE0F901C
:101960001F9018951F920F920FB60F9211242F936C
:101970008F939F93EF93FF93E0919D02F0919E02CE
:101980008081E091A302F091A40282FD1BC09081AE
:101990008091A6028F5F8F732091A702821741F07A
:1019A000E091A602F0E0E357FD4F958F8093A602E9
:1019B000FF91EF919F918F912F910F900FBE0F90FC
:1019C0001F9018958081F4CF1F920F920FB60F923F
:1019D00011242F933F934F935F936F937F938F9334
:1019E0009F93AF93BF93EF93FF938091B900887F4C
:1019F000803609F44AC0F0F5883209F4A7C018F51A
:101A0000803109F49BC0B8F4882309F4F9C0883008
:101A100009F494C0FF91EF91BF91AF919F918F9185
:101A20007F916F915F914F913F912F910F900FBEDA
:101A30000F901F901895883109F488C0803251F7B3
:101A40008093C80114C0803409F49DC040F48033F1
:101A5000B9F38833F9F68093C80185ECB0C08035BE
:101A600009F485C0883509F496C0883499F60E9437
:101A70009D0BD0CF883909F48CC038F5883729F010
:101A800050F4883611F0803729F683E08093C9013D
:101A90001092C70157C0883809F47BC0803919F00B
:101AA000803809F0B7CF8091C701803208F071C04B
:101AB000E091C70181E08E0F8093C7018091BB0048
:101AC000F0E0E955FE4F80833DC0803B39F0E0F403
:101AD000803A09F479C0883A09F09CCF84E0809379
:101AE000C9011092A6011092A501E091F101F091B7
:101AF000F20109958091A50181110FC081E08093C9
:101B0000A5011092850109C0803C09F4A6CF883C4C
:101B100009F4A3CF883B09F07DCFE091A60181E0D5
:101B20008E0F8093A601F0E0EB57FE4F80818093EB
:101B3000BB009091A6018091A50129C08091EE0182
:101B40008093BB0085EC8093BC0064CF9091ED0145
:101B50008091EC01981758F5E091ED0181E08E0F2E
:101B60008093ED01F0E0E453FE4F8081E9CFE091F6
:101B7000ED0181E08E0F8093ED018091BB00F0E0DC
:101B8000E453FE4F80839091ED018091EC01981712
:101B9000C8F285E8D8CFE091ED0181E08E0F809307
:101BA000ED018091BB00F0E0E453FE4F8083809113
:101BB000CB0181115CCF81E08093CA0184EA8093DC
:101BC000BC001092C90126CF85EC8093BC00109216
:101BD000C9018091C701803230F4E091C701F0E083
:101BE000E955FE4F10826091C70170E0E091EF016E
:101BF000F091F00187EA91E009951092C7010ACFB0
:101C00001092C80134CFEDE8F2E01382128288EE20
:101C100093E0A0E0B0E084839583A683B78328E3B4
:101C200031E03183208325EC30E03587248724ECB4
:101C300030E03787268720EC30E0318B208B21EC99
:101C400030E0338B228B22EC30E0358B248B26EC7A
:101C500030E0378B268B118E128E138E148EEAE2B3
:101C6000F3E01382128284839583A683B7838AE488
:101C700091E0918380830895CF93DF93CDB7DEB752
:101C800060970FB6F894DEBF0FBECDBF789484B5D1
:101C9000826084BD84B5816084BD85B5826085BD68
:101CA00085B5816085BD80916E00816080936E00F6
:101CB00010928100809181008260809381008091E8
:101CC0008100816080938100809180008160809399
:101CD00080008091B10084608093B1008091B00059
:101CE00081608093B00080917A00846080937A0054
:101CF00080917A00826080937A0080917A008E7F52
:101D000080937A0080917A00806880937A001092A4
:101D1000C100F4B614BE61E089E00E94690460E08D
:101D200089E00E943B04E0919D02F0919E0282E0D6
:101D30008083E0919902F0919A021082E0919B02D7
:101D4000F0919C0288E080831092A502E091A102AC
:101D5000F091A20286E08083E0919F02F091A002C0
:101D6000808180618083E0919F02F091A002808158
:101D700088608083E0919F02F091A002808180685A
:101D80008083E0919F02F091A00280818F7D80830B
:101D900087EF91E00E94A8066F2D70E090E080E050
:101DA00040E10E94F50780EF91E00E94A8068F2D88
:101DB000817090E00E941C0988EE91E00E94A806C4
:101DC000F1FA882780F990E00E941C0981EE91E0E9
:101DD0000E94A806F2FA882780F990E00E941C0968
:101DE0008AED91E00E94A806F3FA882780F990E036
:101DF0000E944C0960E08EE00E94690460E08FE080
:101E00000E94690460E080E10E94690460E081E171
:101E10000E94690460E084E10E94690461E088E056
:101E20000E94690461E086E00E94690461E085E047
:101E30000E94690460E082E00E94690460E083E03F
:101E40000E94690460E085E10E94690483E00E94C9
:101E5000120421E0892B09F420E020931102209341
:101E600010020E94E207605E7C4F8F4F9F4F60938D
:101E70007F0270938002809381029093820285B5E5
:101E8000887F816085BD61E086E00E943B0461E05F
:101E900085E00E943B0460E088E00E943B0460E033
:101EA00089E00E943B041092F6011092F501109215
:101EB000F4011092F3010E940A0785E895E09093DF
:101EC000F2018093F10181E995E09093F001809314
:101ED000EF0184E58093BA008AED99E09093F801D0
:101EE0008093F70187E598E09093FA018093F901D8
:101EF00084E10E94F70485E10E94F7048C017C01D3
:101F00006C0177E0A72EB12C85E10E94F70485E1F2
:101F10000E94F704080F191F8C159D050CF46C0125
:101F2000E816F9060CF47C0121E0A21AB10861F769
:101F300017FF02C0095F1F4F63E0159507956A956B
:101F4000E1F7EC18FD0839E7E316F104CCF188EC71
:101F500091E00E944B0844244A9433E0532E612CB4
:101F6000712C4AE0242E312CEE24E394F12C809144
:101F70008302811153C00E94E20700917F021091F9
:101F800080022091810230918202601771078207DE
:101F9000930708F043C00E94710790937E028093DC
:101FA0007D0290937C0280937B0280E090E0892BFD
:101FB000F1F20E9425068823D1F20E940000D7CFBB
:101FC0008FE0E7E0F1E0DE01119601900D928A9535
:101FD000E1F7E8E1F1E090E080E07C012FEFE21A28
:101FE000F20A219131910217130714F07C0104C009
:101FF000C7018E30910589F782EC91E00E94A80616
:10200000E1E0F0E0EC0FFD1FEE0DFF1D60818DE8BB
:1020100092E00E945B060E9443089DCF80917A0265
:10202000882301F110927A020091780210917902CE
:10203000A090770227E5C22E22E0D22EB12C0255C5
:102040001240AB1451F0C8018C0D9D1D0E94EF177A
:10205000F60181936F01B394F4CFA092560281E010
:102060008093550280915402882389F11092540282
:10207000C0905202D0905302F0915102F88B91E33C
:10208000A92E92E0B92E86010B5F1F4F912C288953
:10209000291581F0F50181905F01C8010E94EF17B9
:1020A000881621F0682DC8010E94F71793940F5FDE
:1020B0001F4FEDCFF889F13051F4CD2841F48091D4
:1020C0003102811104C08BEF96E00E944B08809191
:1020D00030028823C1F180912E0290912F0210923C
:1020E0003002892B41F4F0922F02E0922E028AED09
:1020F00096E00E944B0881E080932D0286E090E0FC
:1021000090932F0280932E0210922C0210922B0299
:102110000E94710790937E0280937D0290937C02CF
:1021200080937B028EEA96E00E94A80686E090E00B
:102130000E941C0980EA96E00E94A80680912D0268
:1021400090E00E944C09C0902E02D0902F02C11442
:10215000D10409F407C40E9471078C0190937E0298
:1021600080937D0221E0C216D10409F074C1C090B1
:102170007B02D0907C028C159D0509F416CF84EB70
:1021800094E00E94A806C6010E941C098FEA94E010
:102190000E94A80680917D0290917E020E944C09C7
:1021A00080917D0290917E0290937C0280937B02CD
:1021B00084309105A1F180F4039709F0F6CE1092D6
:1021C0002F0210922E0289E290E090932C028093CD
:1021D0002B0285E694E039C18630910509F437C0B9
:1021E000079709F0E2CE80E794E00E94A80680916C
:1021F00021020E94C909E0912102EA3008F028C1B9
:10220000F0E0EB5FFE4E0C947C183A114A1160111D
:102210006C117811841190119C112812A5118091D4
:10222000210290E00996B1010E946818182F80934E
:1022300021028AE290E090932C0280932B028AE99B
:1022400094E00E94A806812F0E94C909AECE809119
:10225000210290E00196B1010E946818182F809326
:1022600021028BE290E090932C0280932B0285E870
:1022700094E0E7CF82E090E090932F0280932E02CB
:1022800081E0809383028EE090E090932C02809313
:102290002B028BCE83E090E090932F0280932E024E
:1022A00081E0809308020E94E20760930402709329
:1022B0000502809306029093070283E190E0E5CF48
:1022C00084E090E090932F0280932E0281E080932F
:1022D00003028EE190E0D9CF85E090E090932F0249
:1022E00080932E0281E08093020282E390E0CDCFC2
:1022F00086E090E090932F0280932E0281E08093FD
:102300002D0283E290E0C1CF87E090E090932F020E
:1023100080932E0281E0809301028DE290E0B5CFA0
:1023200088E090E090932F0280932E0281E08093CA
:10233000000286E190E0A9CF89E090E090932F021F
:1023400080932E0288E190E0A0CF10922F0210928D
:102350002E028DE390E090932C0280932B0281E873
:1023600092E00E944B086FEF70E086E00E949A04B2
:1023700070E060E085E00E949A040E94E2074B0151
:102380005C0182E00E941204182F0E94E207681983
:1023900079098A099B09683B7B408105910508F012
:1023A00006C682E00E941204113071F78111ECCF51
:1023B0000FEF10E0D02EB80186E00E949A0460E092
:1023C0007BE480E090E00E942E050E94E2074B0132
:1023D0005C0182E00E941204C82E0E94E207681984
:1023E00079098A099B09683E73408105910508F0C7
:1023F000E6C582E00E94120421E0C212EDCF8111F5
:10240000EBCF025011090D311105A1F68EE1D82E46
:102410000E94F6080D2D10E0015F1F4F0F3F1105C0
:1024200019F010F00FEF10E00093020181E292E04A
:102430000E94A806802F0E94C9098CE390E0909327
:102440002C0280932B0285E092E00E944B08ADCDD8
:102450008CE290E01ACF80918302882309F457C060
:1024600080917B0290917C020817190709F49DCD99
:1024700010937C0200937B0205301105C9F180F4B2
:1024800003301105E9F00430110509F08ECD8FE01D
:1024900090E090932C0280932B0283E494E0D5CFBC
:1024A00006301105E1F00730110509F07ECD81E11C
:1024B00090E090932C0280932B0286E294E0C5CFAB
:1024C000F0922F02E0922E021092830282E190E0BD
:1024D00090932C0280932B0280E594E0B6CF80E1AC
:1024E00090E090932C0280932B0286E394E0ADCF92
:1024F00010922F0210922E021092830282E190E03D
:1025000090932C0280932B0284E194E09ECF8091E3
:102510000802882309F457C08FE00E94F7048FE077
:102520000E94F7048F3D93401CF405301105D1F44F
:1025300089EF93E00E944B08F0922F02E0922E0266
:102540001092080281E08093FF010E94E2076093ED
:10255000FB017093FC018093FD019093FE0185E1E6
:1025600090E093CE0330110579F4F0922F02E092BF
:102570002E021092080285E190E090932C02809345
:102580002B0283EE93E061CF0E94E20700910402E8
:10259000109105022091060230910702601B710B19
:1025A000820B930B613D7B4F8140910508F4FDCC7C
:1025B000F0922F02E0922E021092080210922C024A
:1025C00010922B02F2CC80910302882309F445C0BB
:1025D00080917B0290917C020817190709F4E5CCE1
:1025E00010937C0200937B020530110539F150F401
:1025F0000330110589F08FE190E00430110509F4F2
:1026000044CED3CC06301105B1F081E290E0073022
:10261000110509F43ACEC9CCF0922F02E0922E02B5
:102620001092030282E290E090932C0280932B029E
:1026300081ED93E00ACF80E290E027CE10922F0246
:1026400010922E021092030282E290E090932C02EC
:1026500080932B0282EC93E0F8CE809102028823D3
:1026600009F445C080917B0290917C0208171907FC
:1026700009F49BCC10937C0200937B02053011057A
:1026800039F150F40330110589F083E390E0043010
:10269000110509F4FACD89CC06301105B1F085E3B6
:1026A00090E00730110509F4F0CD7FCCF0922F02B5
:1026B000E0922E021092020286E390E090932C02A8
:1026C00080932B028CEA93E0C0CE84E390E0DDCDD2
:1026D00010922F0210922E021092020286E390E0D6
:1026E00090932C0280932B0289E993E0AECE8091E7
:1026F0002D02882309F457C080917B0290917C02BF
:102700000817190709F451CC10937C0200937B023F
:1027100005301105C9F180F403301105E9F00430EA
:10272000110509F042CC84E290E090932C02809352
:102730002B0287E793E089CE06301105E1F00730E0
:10274000110509F032CC86E290E090932C02809340
:102750002B028AE593E079CEF0922F02E0922E02CE
:1027600010922D0287E290E090932C0280932B022E
:1027700084E893E06ACE85E290E090932C02809307
:102780002B028AE693E061CE10922F0210922E0265
:1027900010922D0287E290E090932C0280932B02FE
:1027A00088E493E052CE80910102882309F457C057
:1027B00080917B0290917C020817190709F4F5CBF0
:1027C00010937C0200937B0205301105C9F180F45F
:1027D00003301105E9F00430110509F0E6CB8EE273
:1027E00090E090932C0280932B028AE293E02DCE0E
:1027F00006301105E1F00730110509F0D6CB80E372
:1028000090E090932C0280932B0281E193E01DCE07
:10281000F0922F02E0922E021092010281E390E0EA
:1028200090932C0280932B0285E393E00ECE8FE2EF
:1028300090E090932C0280932B028FE193E005CEE1
:1028400010922F0210922E021092010281E390E06A
:1028500090932C0280932B0281E093E0F6CD80913F
:102860000002882339F10E94710790937E028093C1
:102870007D0220917B0230917C028217930709F43C
:1028800094CB90937C0280937B028330910519F066
:10289000059709F08ACBF0922F02E0922E02109257
:1028A000000287E190E090932C0280932B028EEE41
:1028B00092E0CBCDF9E0CF16D10409F076CB809130
:1028C0007B0290917C020817190709F46ECB1093D4
:1028D0007C0200937B0205301105B9F180F40330CE
:1028E000110531F10430110509F05FCB89E190E069
:1028F00090932C0280932B0281EE92E0A6CD0630BD
:10290000110569F00730110509F04FCB8BE190E01C
:1029100090932C0280932B0284EC92E096CD2AE1D6
:1029200030E030932C0220932B0284ED92E08DCD89
:10293000F0922F02E0922E02ECE1F0E0F0932C02F4
:10294000E0932B028FEA92E080CD10922F0210923A
:102950002E022CE130E030932C0220932B028DE9E3
:1029600092E073CD80912A0281110BC080912802E0
:1029700090912902892B29F480912702882309F458
:10298000BFC0109226020E94710790937E0280932E
:102990007D0280912A028823E1F180912002882320
:1029A000C1F180912B0290912C02099791F18091B5
:1029B000270281112EC01092200283E00E9412048F
:1029C000892B09F011C180911F02811112C08091E1
:1029D0001E028F5F80931E028330C8F089E18093CE
:1029E0001F028CE096E00E944B0880911F02882312
:1029F00071F0815080931F02811109C08BED95E029
:102A00000E944B080E94B3098FE080931D020E9430
:102A1000810B80911D02882361F090912702911112
:102A200008C0815080931D02882309F4E0C00E94F1
:102A3000810B81E10E94F70480900201912CB12C5E
:102A4000A12C81E10E94F7043FEF831A9108A108AD
:102A5000B108DC01A50194010E942F18A301920185
:102A60000E94051821503F4F4F4F5F4F20931C028B
:102A700080E10E94F70480E10E94F704DC01A501D7
:102A800094010E942F18A30192010E940518490188
:102A90005A018FEF880E911CA11CB11C80921B0261
:102AA000E0917D02F0917E0280912A0220917B02CA
:102AB00030917C02E217F30709F4BCC1F0937C0269
:102AC000E0937B02882309F497C0359749F49091ED
:102AD00026029111A5C0882309F49FC00E94B30962
:102AE00000912802109129020130110509F071C2EC
:102AF00060911C0270E0809112020E949A0455CAF3
:102B00008FE00E94F7048FE00E94F70420912602D4
:102B10008F3D93400CF441C0211112C081E080939D
:102B200026020E94E20760932202709323028093A0
:102B30002402909325028BE796E00E944B0823CF56
:102B40000E94E207009122021091230220912402A8
:102B500030912502601B710B820B930B603D774017
:102B60008105910508F40FCFF0922F02E0922E021A
:102B7000109221021092260210927C0210927B0287
:102B800010927E0210927D0228E230E030932C02F7
:102B900020932B028DE596E058CC222309F4F3CE46
:102BA0000E94E20700912202109123022091240248
:102BB000309125024B015C01801A910AA20AB30AE6
:102BC00082E496E00E94A8064AE0C501B4010E9492
:102BD000F50782E396E00E944B08109226021092BD
:102BE0007C0210927B02CFCE10921E02FECE87ECAA
:102BF00095E00E944B081DCF3197E830F10508F0B1
:102C00006FCFEB5FF94E0C947C1815162E16391603
:102C100074166715A216B91603170E94F60860CF3E
:102C200084EA95E00E944B085BCF80911902909155
:102C30001A028230910579F0992701960E9458096D
:102C40008091190290911A029927029690932C0272
:102C500080932B0245CF90E080E0F0CF9091180256
:102C600081E089270E9488098091180290E00696E9
:102C7000EDCF8091280290912902019711F40E94D2
:102C80001009EFEFFFEFF0932902E093280280E9AB
:102C900095E00E94A80680911C020E94C9090E942A
:102CA000E00385E08093120270E060E086E00E941D
:102CB0009A04C0901C020091020110E0D12C0C1566
:102CC0001D056CF4B80185E00E949A0460E471E08F
:102CD00080E090E00E942E050D5F1F4FF0CFB601FF
:102CE00085E00E949A04FCCE8091280290912902EE
:102CF000892B29F580912702811121C084E895E074
:102D00000E94A806882D0E94C90981E080932702AD
:102D10008CBB21E635E030930401209303018091C0
:102D200069008C7F826080936900E89A70E060E0BF
:102D300086E00E949A0460911B0270E0D1CF81E787
:102D400095E070CF8091280290912902892B71F42F
:102D50008091270281110AC085E695E00E94A806AD
:102D6000882D0E94C9090E94810BBACE82E595E0A8
:102D700059CF8091280290912902019611F40E9466
:102D80001009F0922902E092280283E00E941204C6
:102D9000019791F50E94E207609314027093150267
:102DA00080931602909317028EE395E00E94A80686
:102DB00080911C020E94C9090E94E00386E0809372
:102DC000120270E060E085E00E949A04C0901C024C
:102DD0000091020110E0D12C0C151D058CF4B801F6
:102DE00086E00E949A0460E471E080E090E00E9436
:102DF0002E050D5F1F4FF0CF60E070E0CB01CCCF10
:102E0000B60186E06ECF809118028093130281E0B4
:102E100080932A0210921F0210921E0210921D022D
:102E200088E090E090932C0280932B0281E00E9436
:102E3000880956CE811154CE84E10E94F70484E1C2
:102E40000E94F70484E10E94F7048C018091000144
:102E500090910101801B910B97FF03C09195819583
:102E600091090897ACF010930A020093090210939D
:102E70000101009300018FEC94E00E94A806C801B4
:102E80000E944C09EAE0F0E0F0932C02E0932B0260
:102E9000D0901102D092100283E00E94120421E02F
:102EA000009709F420E0209311020091280210916C
:102EB0002902892B09F057C0DD2069F00E94E20742
:102EC00060930B0270930C0280930D0290930E029C
:102ED00081E080930F0280910F02882309F400CED5
:102EE0000E94E20780900B0290900C02A0900D02CD
:102EF000B0900E02681979098A099B09643F7140F4
:102F00008105910508F4ECCD82E195E00F3F1007B3
:102F1000E9F001301105F1F480901402909015024F
:102F2000A0901602B090170281149104A104B1047C
:102F300089F00E94E207681979098A099B096033C0
:102F400075478105910530F086EE94E00E944B08AC
:102F50000E94F6088BE090E090932C0280932B0265
:102F600010920F02BDCD10920F020130110579F5BC
:102F70008091140290911502A0911602B09117024F
:102F8000892B8A2B8B2B51F40E94E2076093140249
:102F9000709315028093160290931702D110A8CD5A
:102FA000ECE0F0E0F0932C02E0932B0299CD84E565
:102FB00092E00E944B080E94F6080C94D50F8CE317
:102FC00092E00E94A8068D2D0E94C90921CADD2029
:102FD00039F30F3F1F4F11F00C94D50F89CDF9999C
:102FE000FECF92BD81BDF89A992780B50895262F0E
:102FF000F999FECF1FBA92BD81BD20BD0FB6F894DE
:10300000FA9AF99A0FBE01960895052E97FB1EF4C1
:1030100000940E941C1857FD07D00E94371807FC27
:1030200003D04EF40C941C18509540953095219582
:103030003F4F4F4F5F4F08959095809570956195E4
:103040007F4F8F4F9F4F08950E945918A59F900D55
:10305000B49F900DA49F800D911D11240895B7FF7A
:103060000C9424180E942418821B930B0895A1E24B
:103070001A2EAA1BBB1BFD010DC0AA1FBB1FEE1FF2
:10308000FF1FA217B307E407F50720F0A21BB30B3D
:10309000E40BF50B661F771F881F991F1A9469F7B9
:1030A00060957095809590959B01AC01BD01CF0115
:1030B0000895A29FB001B39FC001A39F700D811D11
:1030C0001124911DB29F700D811D1124911D089531
:1030D00097FB072E16F4009407D077FD09D00E94C5
:1030E000821807FC05D03EF4909581959F4F089576
:1030F000709561957F4F0895EE0FFF1F0590F49135
:10310000E02D0994AA1BBB1B51E107C0AA1FBB1FDE
:10311000A617B70710F0A61BB70B881F991F5A9563
:10312000A9F780959095BC01CD010895F894FFCF43
:103130009CFF64E803E80345464748494A4B4C4D29
:103140004E4F50515253CA03890348030703C60226
:10315000850244020302C20181014001FF00BE005A
:103160007D003C00000000005B06BB05E805C306CF
:103170001906F7050B06000000005D0752076E07F1
:0C31800028074B07380729070D0A00003C
:00000001FF
