:020000040000FA
:100000000C94C6030C94710C0C944A0C0C94EE03E3
:100010000C94EE030C94EE030C94EE030C94EE039C
:100020000C94EE030C94EE030C94EE030C94EE038C
:100030000C94EE030C94EE030C94EE030C94EE037C
:100040000C94000C0C94EE030C94BE0C0C94980CC5
:100050000C94EE030C94EE030C94EE030C94EE035C
:100060000C94F00C0C94EE034D6F746F723A2053A5
:10007000746F70002842726965666C792E2E2E2985
:10008000004C616D70206D6F64653A2000696E00F0
:100090006F7574002E2054656C6C696E6720526118
:1000A00073706920746F207A6F6F6D20005A6F6FC4
:1000B0006D206D6F64653A200043757272656E74D1
:1000C000204578706F737572652053657474696E1E
:1000D000673A200043757272656E742046696C6DD4
:1000E000206C6F61642073746174653A20005363FF
:1000F000616E2072656A6563746564206279205060
:1001000069004D656E753A206578697420286672BD
:100110006F6D20506929004D656E753A20626163EC
:100120006B20746F206D61696E202866726F6D2080
:100130005069290057694669206D656E753A2065DA
:1001400078697400546172676574206D656E753AE4
:100150002065786974004C6174656E6379206D6503
:100160006E753A206578697400415742206D656E5E
:10017000753A206578697400454550524F4D2062AC
:1001800061636B75703A2077697065640053656EC2
:1001900064696E67206E6577204578706F7375723D
:1001A000652054696D652076616C75652E00526519
:1001B000762E20005265762E20442028666C6F61D2
:1001C00074696E67290020574452463D0020424F13
:1001D00052463D002045585452463D0020504F5253
:1001E000463D00424F4F54204D435553523D3078C9
:1001F00000454550524F4D3A206E6F2063616C6947
:100200006220646174612C207573696E6720646577
:100210006661756C74206D6F746F724D696E447594
:1002200074793D31303000454550524F4D206D6F4F
:10023000746F724D696E44757479203D200043617E
:100240006C69623A20736176656420746F2045455D
:1002500050524F4D0043616C69623A206E657720C1
:100260006D6F746F724D696E44757479203D200016
:1002700043616C69623A207374616C6C65642061DF
:10028000742064757479200043616C69623A206E51
:100290006F204559452070756C7365202D20616273
:1002A0006F72746564202866696C6D206C6F616480
:1002B00065643F290043616C69623A20737461721E
:1002C00074696E67206D6F746F72207377656570E7
:1002D00000556E706169723A2065786974206D65A9
:1002E0006E7500556E706169723A206261636B20B1
:1002F000746F206D656E7500556E706169723A207D
:10030000636F6E6669726D00556E706169723A2036
:100310006E65787400556E706169723A207072650E
:1003200076004C6F67733A206261636B20746F20B4
:100330006D656E7500576946693A20657869742065
:100340006D656E7500576946693A20636F6E666920
:10035000726D00576946693A206E65787400576976
:1003600046693A207072657600576946693A20629C
:1003700061636B20746F206D656E750054617267E8
:1003800065743A2065786974206D656E75005461F6
:10039000726765743A20636F6E6669726D005461AE
:1003A000726765743A206E6578740054617267658F
:1003B000743A2070726576005461726765743A20F1
:1003C0006261636B20746F206D656E75004C6174A3
:1003D000656E63793A2065786974206D656E750085
:1003E0004C6174656E63793A206261636B20746F4F
:1003F000206D656E75004157423A2065786974201A
:100400006D656E75004157423A206261636B2074DE
:100410006F206D656E750050616972696E673A2074
:100420006261636B20746F206D656E750050616949
:1004300072696E67206D6F64653A2073746F702007
:1004400070726573736564005570646174653A20F9
:1004500065786974206D656E7500557064617465AA
:100460003A20636F6E6669726D00557064617465E1
:100470003A206E657874005570646174653A207036
:10048000726576005570646174653A206261636BD1
:1004900020746F206D656E75004D656E753A206530
:1004A000786974004D656E753A20656E7465726981
:1004B0006E67206974656D20004D656E753A207316
:1004C000656C6563746564206974656D20004D65B5
:1004D0006E753A2073656C65637465642069746534
:1004E0006D200020746F20004D656E753A20627596
:1004F00074746F6E206368616E6765642066726FE6
:100500006D20004E6577204578706F737572652099
:1005100053657474696E673A200046696C6D206596
:100520006E64656420647572696E6720636F6E74B3
:10053000696E756F75732072756E202D2073746FE0
:100540007070696E670046696C6D20656E646564E5
:1005500020647572696E6720636F6E74696E756F63
:1005600075732072756E202D2073746F7070696EB4
:1005700067004D6F746F723A203E3E2061742053C5
:100580007065656420004D6F746F72206E6F74200B
:1005900073746F707065642E003E20617420537018
:1005A00065656420004D6F746F72206E6F742073E8
:1005B000746F707065642E003C2061742053706508
:1005C000656420004D6F746F723A203C3C2061746A
:1005D000205370656564200053544F503A2069677A
:1005E0006E6F72696E6720286C6F6E672D70726512
:1005F00073732074696D696E67290046696C6D209C
:10060000656A65637420636F6D706C657465004521
:1006100078747261206672616D657320646F6E65B7
:10062000202D2073746F7070696E67207363616E24
:100630002C20656A656374696E672066696C6D005D
:1006400046696C6D20656E646564202D207363615E
:100650006E6E696E6720323520657874726120662F
:1006600072616D657300206D732028746F6F207345
:10067000686F727429004D656E753A2053544F505F
:100680002072656C656173656420616674657220B3
:10069000004D656E753A20656E74657220286C6F2A
:1006A0006E672070726573732053544F5029004D4C
:1006B000656E753A2053544F5020627574746F6E96
:1006C00020707265737365642C2074696D696E6740
:1006D0002E2E2E002C207461726765744D6F646538
:1006E0003D00546172676574206D656E753A2072C5
:1006F000652D656E746572202866726F6D20506975
:10070000292C206D656E7553746174653D005461CC
:10071000726765743A20656E746572696E67206DE4
:10072000656E75206D6F6465206669727374000074
:10073000000000240027002A0000000000250028F7
:10074000002B000000000023002600290004040400
:10075000040404040402020202020203030303036A
:100760000301020408102040800102040810200147
:100770000204081020000000080002010000030429
:10078000070000000000000000000F0E11241FBE33
:10079000CFEFD8E0DEBFCDBF11E0A0E0B1E0EEE1E9
:1007A000F1E302C005900D92AC35B107D9F723E013
:1007B000ACE5B1E001C01D92A231B207E1F713E050
:1007C000C6ECD3E004C02197FE010E947318C53C1B
:1007D000D107C9F70E94480E0C948D180C940000A4
:1007E000E89888EF93E090930401809303010895C3
:1007F0000895833081F028F4813099F08230A9F097
:1008000008958730A9F08830C9F08430B1F4809120
:1008100080008F7D03C0809180008F77809380005F
:10082000089584B58F7784BD089584B58F7DFBCFFF
:100830008091B0008F778093B00008958091B000D0
:100840008F7DF9CFCF93DF93282F30E0F901EB585C
:10085000F84F8491F901EF59F84FD491F901E35B16
:10086000F84FC491CC23A1F081110E94F903EC2F21
:10087000F0E0EE0FFF1FED5BF84FA591B491EC9106
:10088000ED2381E090E009F480E0DF91CF910895BD
:1008900080E090E0FACF1F93CF93DF93282F30E0D2
:1008A000F901EB58F84F8491F901EF59F84FD491C1
:1008B000F901E35BF84FC491CC23A9F0162F811105
:1008C0000E94F903EC2FF0E0EE0FFF1FE75CF84FFA
:1008D000A591B4918FB7F894EC91111108C0D095FF
:1008E000DE23DC938FBFDF91CF911F910895DE2B24
:1008F000F8CFCF93DF9390E0FC01EF59F84F2491AC
:10090000835B984FFC0184918823D1F090E0880F9D
:10091000991FFC01E15DF84FA591B491FC01E75CE2
:10092000F84FC591D49161110EC09FB7F8948C9186
:10093000E22FE0958E238C932881E223E8839FBFEA
:10094000DF91CF9108958FB7F894EC91E22BEC935F
:100950008FBFF6CF1F93CF93DF93182FEB0161E08A
:100960000E947904209739F460E0812FDF91CF91C4
:100970001F910C944B04CF3FD10511F461E0F5CFEA
:10098000E12FF0E0EB58F84FE491E33031F140F41F
:10099000E130B1F0E230E1F0C038D1057CF7E4CFCE
:1009A000E73029F1E83059F1E430B1F78091800067
:1009B000806280938000D0938B00C0938A0004C033
:1009C00084B5806884BDC7BDDF91CF911F91089524
:1009D00084B5806284BDC8BDF7CF809180008068F7
:1009E00080938000D0938900C0938800EDCF8091E0
:1009F000B00080688093B000C093B300E5CF8091D1
:100A0000B00080628093B000C093B400DDCF8E5000
:100A1000806480937C0080917A00806480937A0067
:100A200080917A0086FDFCCF8091780090917900CA
:100A300008953FB7F8948091650290916602A09165
:100A40006702B091680226B5A89B05C02F3F19F038
:100A50000196A11DB11D3FBFBA2FA92F982F88273E
:100A6000BC01CD01620F711D811D911D43E0660F18
:100A7000771F881F991F4A95D1F708958F929F92EB
:100A8000AF92BF92CF92DF92EF92FF926B017C0107
:100A90000E9419054B015C01C114D104E104F10469
:100AA000B9F00E941905681979098A099B09683EFD
:100AB00073408105910580F321E0C21AD108E10855
:100AC000F10888EE880E83E0981EA11CB11CE4CFCB
:100AD000FF90EF90DF90CF90BF90AF909F908F905E
:100AE0000895E091F901F091FA01309729F0109200
:100AF000F4011092F30109940895CF93DF93AC01B0
:100B0000E091F701F091F8013097F1F09091F60142
:100B10008091F5019817C0F090E0292F30E026175A
:100B2000370754F4D901A15ABE4F240F351FE901EC
:100B300028812C939F5FF1CF1092F6016093F5010D
:100B4000CB01DF91CF910994DF91CF910895AF92BE
:100B5000BF92CF92DF92EF92FF920F931F93CF93AA
:100B6000DF936C017B018B01040F151FEB015E010C
:100B7000AE18BF08C017D10759F06991D601ED91A1
:100B8000FC910190F081E02DC6010995892B79F740
:100B9000C501DF91CF911F910F91FF90EF90DF90F2
:100BA000CF90BF90AF900895FC01538D448D252FB9
:100BB00030E0842F90E0821B930B541710F0CF96F7
:100BC000089501970895FC01918D828D981761F029
:100BD000A28DAE0FBF2FB11D5D968C91928D9F5F40
:100BE0009F73928F90E008958FEF9FEF0895FC011F
:100BF000918D828D981731F0828DE80FF11D858DD2
:100C000090E008958FEF9FEF0895FC01918D228D64
:100C1000892F90E0805C9F4F821B91098F739927E9
:100C2000089589E692E00E94050621E0892B09F4E7
:100C300020E0822F089580E090E0892B29F00E9427
:100C4000110681110C9400000895FC01A48DA80FD9
:100C5000B92FB11DA35ABF4F2C91848D90E00196FE
:100C60008F739927848FA689B7892C93A089B1891E
:100C70008C91837080648C93938D848D981306C0BF
:100C80000288F389E02D80818F7D80830895EF9223
:100C9000FF920F931F93CF93DF93EC0181E0888F36
:100CA0009B8D8C8D98131AC0E889F989808185FF06
:100CB00015C09FB7F894EE89FF896083E889F989A8
:100CC00080818370806480839FBF81E090E0DF91AA
:100CD000CF911F910F91FF90EF900895F62E0B8DFD
:100CE00010E00F5F1F4F0F731127E02E8C8D8E11B8
:100CF0000CC00FB607FCFACFE889F989808185FF1F
:100D0000F5CFCE010E942506F1CFEB8DEC0FFD2F24
:100D1000F11DE35AFF4FF0829FB7F8940B8FEA89D9
:100D2000FB8980818062CFCF0F931F93CF93DF9396
:100D30008C01D0E0C0E0F801EC0FFD1F6491662348
:100D400041F089E692E00E944706892B11F0219636
:100D5000F2CFCE01DF91CF911F910F910895CF93E4
:100D6000DF93EC01888D8823B9F0AA89BB89E889D3
:100D7000F9898C9185FD03C0808186FD0DC00FB679
:100D800007FCF7CF8C9185FFF2CF808185FFEDCFF7
:100D9000CE010E942506E9CFDF91CF9108952091E1
:100DA000A501260F3327331F21323105ECF42091A2
:100DB000C901FC0190E080E0243069F082E00895F0
:100DC000A091A5012191AC014B575E4FA40FB52F07
:100DD000B11D2C930196861798F38091A501680F99
:100DE0006093A50180E0089581E008951092C90103
:100DF00081E08093CB011092CA0161E082E10E9400
:100E00004B0461E083E10E944B04E9EBF0E0808158
:100E10008E7F808380818D7F808380E28093B80085
:100E200085E48093BC0008950895E091F6018091D7
:100E3000F501E81730F4F0E0E15AFE4F808190E0D0
:100E400008958FEF9FEF08959091F6018091F5013D
:100E50002FEF3FEF981748F4E92FF0E0E15AFE4FEB
:100E6000208130E09F5F9093F601C9010895809141
:100E7000F5019091F601891B990B0895CF93DF93AB
:100E8000CB01EA01642F0E94CF06CE01DF91CF9102
:100E90000895CF93DF931F92CDB7DEB7698361E0EA
:100EA000CE0101960E94CF0681E090E00F90DF9185
:100EB000CF91089590E080E008950F931F93CF9312
:100EC000DF938EE00E9407058EE00E9407058C01EB
:100ED0008FE00E9407058FE00E940705EC0160E8A3
:100EE00072E080E090E00E943E0520915C012223A8
:100EF00069F1023011052CF490E080E0C230D10598
:100F000074F1C8014F978732910508F444C08A559F
:100F100091098732910550F18A5A9109879748F1D2
:100F20000F3D83E0180744F5CE014F9787329105B6
:100F300030F18A5591098732910520F18A5A910939
:100F4000879718F1CF3D83E0D80714F590E080E053
:100F5000023011051CF421E022970CF020E02093D0
:100F60005C01DF91CF911F910F91089583E090E094
:100F7000EFCF81E090E0ECCF82E090E0E9CF88E035
:100F800090E0E6CF87E090E0E3CF86E090E0E0CF2E
:100F900085E090E0DDCF84E090E0E0CF1092290280
:100FA000109228021092140210921502109216024A
:100FB000109217021092270261E086E00E944B0413
:100FC00061E085E00E944B040E94F00378948091D8
:100FD0002A02882331F085E090E090932C028093E0
:100FE0002B0208952FB7F89460916102709162020C
:100FF00080916302909164022FBF26E096958795B9
:10100000779567952A95D1F708958F929F92AF9221
:10101000BF920F931F93CF93DF93CDB7DEB7A19706
:101020000FB6F894DEBF0FBECDBF19A2423008F450
:101030004AE08E010F5D1F4F842E912CB12CA12C04
:10104000A50194010E942E18E62FB901CA01EA30C9
:1010500044F5E05DD801EE938D01232B242B252B45
:1010600079F790E080E0109769F0FD010190002091
:10107000E9F73197AF014A1B5B0BBD0189E692E0AE
:101080000E94A705A1960FB6F894DEBF0FBECDBF94
:10109000DF91CF911F910F91BF90AF909F908F9054
:1010A0000895E95CD7CF42E050E068E571E089E659
:1010B00092E00C94A705CF93DF930E949406EC0175
:1010C0000E9453088C0F9D1FDF91CF910895CF92FE
:1010D000DF92EF92FF920F931F93CF93DF9300D095
:1010E00000D01F92CDB7DEB780915E018823F9F062
:1010F000809131028823D9F04091320250E063E3BD
:1011000072E086E093E00E943E0710925E0110922A
:1011100031020F900F900F900F900F90DF91CF91B1
:101120001F910F91FF90EF90DF90CF900895009165
:101130002B0210912C0209831A821B821C82802FA1
:1011400080958D838091FF018823A9F00E94F2078A
:10115000C090FB01D090FC01E090FD01F090FE01F9
:101160006C197D098E099F096938734181059105C4
:1011700010F01092FF010A301105F9F48DE891E0AA
:101180000E945B089091090280910A029A838B83E6
:1011900045E050E0BE016F5F7F4F86E093E00E9424
:1011A0003E078091FF018823A9F00531110591F4D4
:1011B00010932C0200932B02ACCF0D30110541F798
:1011C0009091090280910A029A838B8380915D013C
:1011D0008C83DECF0231110569F480912E0290914B
:1011E0002F02892B39F489E290E090932C028093AE
:1011F0002B028FCF10922C0210922B028ACF1092CA
:1012000029021092280210921402109215021092D4
:101210001602109217021092270288E690E00E94B0
:101220005B0861E086E00E944B0461E085E00C947D
:101230004B040E94FF0884E790E00E945B0860E88E
:101240007EE380E090E00C943E05CF92DF92EF9237
:10125000FF92CF93DF936C01990FEE08FF08F7FE22
:1012600019C06DE289E692E00E944706EC0166270C
:101270007727CB016C197D098E099F094AE00E94EE
:1012800005088C0F9D1FDF91CF91FF90EF90DF90AD
:10129000CF9008954AE0C701B601DF91CF91FF904A
:1012A000EF90DF90CF900C940508CF93DF930E94CE
:1012B0002509EC010E9453088C0F9D1FDF91CF91EF
:1012C0000895CF93DF932091190230911A022817C5
:1012D000390721F1EC01892B19F081E00E94910975
:1012E000D0931A02C09319028DEA90E00E949406EE
:1012F000CE010E94250984E990E00E949406809125
:10130000190290911A02892B31F08DE890E0DF915B
:10131000CF910C945B0880E990E0F9CFDF91CF91F9
:101320000895CF9390911802981721F1C82F811139
:1013300004C090E080E00E946109C093180281E837
:1013400090E00E9494068C2F90E00E9455098091B5
:101350001802882349F061E088E00E944B0461E0B4
:1013600089E0CF910C944B0460E088E00E944B042C
:1013700060E0F6CFCF91089510922A0210922002D9
:101380000E94F0030E94FF0880E00E9491091092E1
:101390001A021092190289E090E090932C02809337
:1013A0002B020895CF93DF93682F70E090E080E0E8
:1013B0004AE00E940508EC010E9453088C0F9D1F13
:1013C000DF91CF91089581E0809327028CBB8EEC52
:1013D00097E09093040180930301E9E6F0E08081B7
:1013E0008C7F82608083E89A60911B0270E086E0C7
:1013F0000E94AA0470E060E085E00C94AA04CF93F8
:10140000DF9385ED8093BC008091810190918201F2
:10141000A0918301B09184010796A11DB11D23E025
:10142000B695A795979587952A95D1F72091BC00F9
:1014300024FD03C01092C90136C040918101509132
:1014400082016091830170918401452B462B472BCB
:1014500069F30097A105B10541F025E12A95F1F75F
:1014600000000197A109B109E1CF8091800191E0CD
:1014700090937F018823B9F0C091B800D091BA0051
:101480008091BC008A7B8093BC0060E082E10E9476
:101490004B0460E083E10E944B040E94F606D09367
:1014A000BA00C093B800DF91CF910895FF920F93D7
:1014B0001F93CF93DF93EC01F62E08811981C801A9
:1014C0000E94E617F81621F06F2DC8010E94EE1752
:1014D000CE01DF91CF911F910F91FF9008959F92C0
:1014E000AF92BF92CF92DF92EF92FF920F931F9332
:1014F000CF93DF93CDB7DEB7A2970FB6F894DEBFD8
:101500000FBECDBF181619060CF062C086E093E03E
:101510000E942407182FCE0101965C016C0100E0A7
:10152000F090F5018091F601F816A9F0003249F02B
:1015300086E093E00E9424070F5FF60181936F011C
:10154000EFCF8091F601F81609F42AC186E093E006
:101550000E942407F6CF173321F5023008F435C175
:10156000E980FA80FE24EF24FE246E01F3E0CF0E22
:10157000D11C82E0982EEA18FB0882E0E80EF11CEC
:10158000901609F422C1F60161916F01C7018E0F17
:101590009F1F9AA389A3CE0181960E94560A939415
:1015A000EFCF183309F002C1033090F029813A815E
:1015B0003227232732278B81813208F080E2309353
:1015C0005502209354028093530281E08093560287
:1015D000A2960FB6F894DEBF0FBECDBFDF91CF91BC
:1015E0001F910F91FF90EF90DF90CF90BF90AF9041
:1015F0009F900895173169F41092000281E090E005
:1016000090932F0280932E0210922C0210922B02A4
:10161000DFCF133889F41092030281E090E09093B9
:101620002F0280932E0210922C0210922B0289E638
:1016300091E00E945B08CCCF183879F41092020236
:1016400081E090E090932F0280932E0210922C0262
:1016500010922B0286E591E0ECCF143879F41092C9
:101660002D0281E090E090932F0280932E02109241
:101670002C0210922B0284E491E0DBCF163879F42F
:101680001092010281E090E090932F0280932E024D
:1016900010922C0210922B0284E391E0CACF1538ED
:1016A00021F481E08093300293CF193251F580917B
:1016B0002E0290912F020297C8F081E090E0909363
:1016C0002F0280932E0210925F0210920802109255
:1016D00003021092020210922D0210920002109248
:1016E0002C0210922B0287E191E0A3CF10922F02DF
:1016F00010922E0210922C0210922B0282E091E0A6
:1017000098CF173881F480912A02882309F460CF9A
:1017100010922A0210922002809113020E949109D5
:101720008EEE90E086CF103881F480912A028823D3
:1017300009F44ECF81E0809320024ACF1A3309F09A
:1017400044C081E080935E0140C0113809F040CF71
:1017500083E00E942204182F80935D0184E10E949F
:10176000070584E10E94070590930A02809309020D
:1017700084ED90E00E949406812F0E94D20989EBAB
:1017800090E00E9494068091090290910A020E94C2
:1017900055098DE090E090932C0280932B0218CF96
:1017A000173309F4DDCE183309F400CF193331F6BD
:1017B00085E090E09AA389A360E0CE0181960E9423
:1017C000560A88E791E00E945B0889EC810F84301B
:1017D00008F41FCF10925E0110923102143109F00B
:1017E00009CF1092080281E090E090932F0280933D
:1017F0002E0210922C0210922B021092FF01E8CEC2
:101800001F920F920FB60F9211242F933F938F9335
:101810009F93AF93BF938091610290916202A091D8
:101820006302B09164023091600226E0230F2D37ED
:1018300058F50296A11DB11D2093600280936102AC
:1018400090936202A0936302B09364028091650258
:1018500090916602A0916702B09168020196A11D65
:10186000B11D8093650290936602A0936702B093C6
:101870006802BF91AF919F918F913F912F910F90EF
:101880000FBE0F901F90189529E8230F0396A11DF6
:10189000B11DD2CF1F920F920FB60F9211242F932A
:1018A0003F934F935F936F937F938F939F93AF93E8
:1018B000BF93EF93FF93E0910501F0910601099525
:1018C000FF91EF91BF91AF919F918F917F916F9118
:1018D0005F914F913F912F910F900FBE0F901F90EE
:1018E00018951F920F920FB60F9211242F933F93CA
:1018F0004F935F936F937F938F939F93AF93BF9318
:10190000EF93FF93E0910301F09104010995FF919A
:10191000EF91BF91AF919F918F917F916F915F9167
:101920004F913F912F910F900FBE0F901F901895E0
:101930001F920F920FB60F9211242F933F934F9344
:101940005F936F937F938F939F93AF93BF93EF9327
:10195000FF9389E692E00E942506FF91EF91BF91E7
:10196000AF919F918F917F916F915F914F913F9137
:101970002F910F900FBE0F901F9018951F920F92EE
:101980000FB60F9211242F938F939F93EF93FF9392
:10199000E0917902F0917A028081E0917F02F091EA
:1019A000800282FD1BC09081809182028F5F8F73C5
:1019B00020918302821741F0E0918202F0E0E75922
:1019C000FD4F958F80938202FF91EF919F918F91B0
:1019D0002F910F900FBE0F901F9018958081F4CF1C
:1019E0001F920F920FB60F9211242F933F934F9394
:1019F0005F936F937F938F939F93AF93BF93EF9377
:101A0000FF938091B900887F803609F44AC0F0F5D1
:101A1000883209F4A7C018F5803109F49BC0B8F4E6
:101A2000882309F4F9C0883009F494C0FF91EF913C
:101A3000BF91AF919F918F917F916F915F914F91E6
:101A40003F912F910F900FBE0F901F9018958831E6
:101A500009F488C0803251F78093C80114C08034E3
:101A600009F49DC040F48033B9F38833F9F68093CC
:101A7000C80185ECB0C0803509F485C0883509F40B
:101A800096C0883499F60E94FF09D0CF883909F4AE
:101A90008CC038F5883729F050F4883611F080373B
:101AA00029F683E08093C9011092C70157C0883896
:101AB00009F47BC0803919F0803809F0B7CF8091E4
:101AC000C701803208F071C0E091C70181E08E0F3C
:101AD0008093C7018091BB00F0E0E955FE4F808301
:101AE0003DC0803B39F0E0F4803A09F479C0883A8F
:101AF00009F09CCF84E08093C9011092A601109256
:101B0000A501E091F101F091F20109958091A50103
:101B100081110FC081E08093A5011092850109C059
:101B2000803C09F4A6CF883C09F4A3CF883B09F098
:101B30007DCFE091A60181E08E0F8093A601F0E0B9
:101B4000EB57FE4F80818093BB009091A60180915E
:101B5000A50129C08091EE018093BB0085EC8093A4
:101B6000BC0064CF9091ED018091EC01981758F57D
:101B7000E091ED0181E08E0F8093ED01F0E0E45300
:101B8000FE4F8081E9CFE091ED0181E08E0F8093DF
:101B9000ED018091BB00F0E0E453FE4F8083909113
:101BA000ED018091EC019817C8F285E8D8CFE0915B
:101BB000ED0181E08E0F8093ED018091BB00F0E09C
:101BC000E453FE4F80838091CB0181115CCF81E093
:101BD0008093CA0184EA8093BC001092C90126CF89
:101BE00085EC8093BC001092C9018091C7018032BE
:101BF00030F4E091C701F0E0E955FE4F10826091AA
:101C0000C70170E0E091EF01F091F00187EA91E007
:101C100009951092C7010ACF1092C80134CFE9E6A6
:101C2000F2E01382128288EE93E0A0E0B0E08483B9
:101C30009583A683B78328E331E03183208325ECA5
:101C400030E03587248724EC30E03787268720EC86
:101C500030E0318B208B21EC30E0338B228B22EC77
:101C600030E0358B248B26EC30E0378B268B118EC1
:101C7000128E138E148EE6E0F3E0138212828483B8
:101C80009583A683B7838AE491E091838083089546
:101C9000CF93DF93CDB7DEB72F970FB6F894DEBFA3
:101CA0000FBECDBF789484B5826084BD84B5816059
:101CB00084BD85B5826085BD85B5816085BD809117
:101CC0006E00816080936E0010928100809181008F
:101CD0008260809381008091810081608093810087
:101CE000809180008160809380008091B100846049
:101CF0008093B1008091B00081608093B0008091AA
:101D00007A00846080937A0080917A008260809368
:101D10007A0080917A008E7F80937A0080917A0099
:101D2000806880937A001092C100F4B614BE61E01E
:101D300089E00E94790460E089E00E944B04E09110
:101D40007902F0917A0282E08083E0917502F0914D
:101D500076021082E0917702F091780288E0808329
:101D600010928102E0917D02F0917E0286E08083F4
:101D7000E0917B02F0917C02808180618083E09120
:101D80007B02F0917C02808188608083E0917B02FD
:101D9000F0917C02808180688083E0917B02F091E9
:101DA0007C0280818F7D808381E090E00E94E61735
:101DB000853A09F027C190E080E00E94E617182FCD
:101DC0008093020187E292E00E949406812F0E9494
:101DD000D20983EE91E00E9494066F2D70E090E0AE
:101DE00080E040E10E9405088CED91E00E9494069D
:101DF0008F2D817090E00E94250984ED91E00E9472
:101E00009406F1FA882780F990E00E9425098DEC6C
:101E100091E00E949406F2FA882780F990E00E94EF
:101E2000250986EC91E00E949406F3FA882780F950
:101E300090E00E94550960E08EE00E94790460E025
:101E40008FE00E94790460E080E10E94790460E004
:101E500081E10E94790460E084E10E94790461E0FC
:101E600088E00E94790461E086E00E94790461E0E4
:101E700085E00E94790460E082E00E94790460E0DD
:101E800083E00E94790460E085E10E94790483E0A8
:101E90000E94220421E0892B09F420E02093110202
:101EA000209310020E94F207605E7C4F8F4F9F4F7D
:101EB00060935B0270935C0280935D0290935E027C
:101EC00085B5887F816085BD61E086E00E944B0416
:101ED00061E085E00E944B0460E088E00E944B04D2
:101EE00060E089E00E944B041092F6011092F50127
:101EF0001092F4011092F3010E94F60681E795E03A
:101F00009093F2018093F1018DE795E09093F001B9
:101F10008093EF0184E58093BA008FE69AE0909376
:101F2000F8018093F70187E698E09093FA01809397
:101F3000F90184E10E94070585E10E9407058C01F3
:101F40007C016C0167E0A62EB12C85E10E9407059B
:101F500085E10E940705080F191F8C159D050CF4DB
:101F60006C01E816F9060CF47C0121E0A21AB10814
:101F700061F717FF02C0095F1F4F53E015950795E2
:101F80005A95E1F7EC18FD0839E7E316F1040CF473
:101F90003EC084EB91E00E945B0888248A9433E081
:101FA000932EA12CB12C48E0242E312CEE24E39466
:101FB000F12C80915F02811158C00E94F2070091BC
:101FC0005B0210915C0220915D0230915E0260170D
:101FD00071078207930708F048C00E945D0790933D
:101FE0005A0280935902909358028093570280E0DE
:101FF00090E0892BF1F20E9411068823B9F20E9429
:102000000000D4CF81EF91E00E945B08E2CE8FE028
:10201000E7E0F1E0DE01119601900D928A95E1F77B
:10202000E8E1F1E090E080E07C012FEFE21AF20AB3
:10203000219131910217130714F07C0104C0C701EC
:102040008E30910589F78EEA91E00E949406E1E0D6
:10205000F0E0EC0FFD1FEE0DFF1D608189E692E0C0
:102060000E9447060E94530898CF80915602882309
:1020700001F11092560200915402109155026090A5
:10208000530293E3C92E92E0D92E712C0E521240C6
:10209000671451F0C8018C0D9D1D0E94E617F601D2
:1020A00081936F017394F4CF6092320281E0809348
:1020B0003102809130028823C1F180912E029091EB
:1020C0002F0210923002892B41F4F0922F02E092FD
:1020D0002E028EE097E00E945B0881E080932D0243
:1020E00086E090E090932F0280932E0210922C02B3
:1020F00010922B020E945D0790935A02809359021E
:10210000909358028093570282EE96E00E949406C4
:1021100086E090E00E94250984ED96E00E949406F6
:1021200080912D0290E00E945509C0902E02D0901F
:102130002F02C114D10409F410C40E945D078C0160
:1021400090935A0280935902F1E0CF16D10409F01E
:102150007DC1C0905702D09058028C159D0509F49E
:1021600046CF88EE94E00E949406C6010E9425099D
:1021700083EE94E00E9494068091590290915A0255
:102180000E9455098091590290915A0290935802E9
:102190008093570284309105A1F180F4039709F0F0
:1021A00026CF10922F0210922E0289E290E0909397
:1021B0002C0280932B0289E994E042C1863091057C
:1021C00009F438C0079709F012CF84EA94E00E941E
:1021D0009406809121020E94D209E0912102EA3006
:1021E00008F031C1F0E0E950FF4E0C9473182E1145
:1021F0003E11541160116C11781184118E1123124B
:1022000097118091210290E009966AE070E00E94A7
:102210005F18182F809321028AE290E090932C029D
:1022200080932B028EEC94E00E949406812F0E94F2
:10223000D209DDCE8091210290E001966AE070E043
:102240000E945F18182F809321028BE290E09093F8
:102250002C0280932B0289EB94E0E6CF82E090E0A1
:1022600090932F0280932E0281E080935F028EE094
:1022700090E090932C0280932B02B9CE83E090E003
:1022800090932F0280932E0281E0809308020E9497
:10229000F207609304027093050280930602909304
:1022A000070283E190E0E5CF84E090E090932F0275
:1022B00080932E0281E0809303028EE190E0D9CFDB
:1022C00085E090E090932F0280932E0281E080932E
:1022D000020282E390E0CDCF86E090E090932F025F
:1022E00080932E0281E080932D0283E290E0C1CFA3
:1022F00087E090E090932F0280932E0281E08093FC
:1023000001028DE290E0B5CF30922F0220922E0292
:1023100081E08093000286E190E0ABCF89E090E01D
:1023200090932F0280932E0288E190E0A2CF10922A
:102330002F0210922E0289E290E090932C0280935B
:102340002B0285EB92E00E945B086FEF70E086E065
:102350000E94AA0470E060E085E00E94AA040E9446
:10236000F2072B013C0182E00E942204182F0E94F8
:10237000F2076419750986099709683B7B40810556
:10238000910508F00CC682E00E942204113071F71A
:102390008111ECCF0FEF10E0D02EB80186E00E9443
:1023A000AA0460E07BE480E090E00E943E050E9489
:1023B000F2072B013C0182E00E942204C82E0E94F9
:1023C000F2076419750986099709683E734081050B
:1023D000910508F0EBC582E00E94220491E0C91249
:1023E000EDCF8111EBCF025011090D311105A1F68E
:1023F0008EE1D82E0E94FF080D2D10E0015F1F4FC7
:102400000F3F110519F010F00FEF10E000930201DB
:1024100085E592E00E949406802F0E94D209609187
:1024200002011A821982CE0101960E94560AFA828E
:10243000E98265EACE0101960E94560A8EE392E097
:102440000E945B08D4CD8CE290E013CF80915F02B4
:10245000882309F457C080915702909158020817B9
:10246000190709F4C4CD10935802009357020530A0
:102470001105C9F180F403301105E9F004301105AC
:1024800009F0B5CD8FE090E090932C0280932B0261
:1024900087E794E0D5CF06301105E1F0073011054C
:1024A00009F0A5CD81E190E090932C0280932B025E
:1024B0008AE594E0C5CFF0922F02E0922E021092AE
:1024C0005F0282E190E090932C0280932B0284E8DB
:1024D00094E0B6CF80E190E090932C0280932B02A1
:1024E0008AE694E0ADCF10922F0210922E02109245
:1024F0005F0282E190E090932C0280932B0288E4AB
:1025000094E09ECF80910802882309F457C08FE0A1
:102510000E9407058FE00E9407058F3D93401CF441
:1025200005301105D1F48DE294E00E945B08F09231
:102530002F02E0922E021092080281E08093FF01A8
:102540000E94F2076093FB017093FC018093FD01F0
:102550009093FE0185E190E08CCE0330110579F473
:10256000F0922F02E0922E021092080285E190E094
:1025700090932C0280932B0287E194E061CF0E941C
:10258000F207009104021091050220910602309199
:102590000702601B710B820B930B613D7B4F8140E7
:1025A000910508F424CDF0922F02E0922E021092B1
:1025B000080210922C0210922B0219CD8091030276
:1025C000882309F445C0809157029091580208175A
:1025D000190709F40CCD10935802009357020530E7
:1025E000110539F150F40330110589F08FE190E0C5
:1025F0000430110509F43DCEFACC06301105B1F0D6
:1026000081E290E00730110509F433CEF0CCF0926E
:102610002F02E0922E021092030282E290E0909349
:102620002C0280932B0285E094E00ACF80E290E0B8
:1026300020CE10922F0210922E021092030282E2FC
:1026400090E090932C0280932B0286EF93E0F8CEDB
:1026500080910202882309F445C08091570290912D
:1026600058020817190709F4C2CC109358020093B6
:1026700057020530110539F150F40330110589F086
:1026800083E390E00430110509F4F3CDB0CC0630BB
:102690001105B1F085E390E00730110509F4E9CDAB
:1026A000A6CCF0922F02E0922E021092020286E354
:1026B00090E090932C0280932B0280EE93E0C0CEAA
:1026C00084E390E0D6CD10922F0210922E02109249
:1026D000020286E390E090932C0280932B028DEC13
:1026E00093E0AECE80912D02882309F457C08091EB
:1026F0005702909158020817190709F478CC1093E3
:1027000058020093570205301105C9F180F40330D7
:102710001105E9F00430110509F069CC84E290E07C
:1027200090932C0280932B028BEA93E089CE0630A3
:102730001105E1F00730110509F059CC86E290E06F
:1027400090932C0280932B028EE893E079CEF09246
:102750002F02E0922E0210922D0287E290E09093D9
:102760002C0280932B0288EB93E06ACE85E290E006
:1027700090932C0280932B028EE993E061CE10920D
:102780002F0210922E0210922D0287E290E0909379
:102790002C0280932B028CE793E052CE80910102B1
:1027A000882309F457C08091570290915802081766
:1027B000190709F41CCC10935802009357020530F6
:1027C0001105C9F180F403301105E9F00430110559
:1027D00009F00DCC8EE290E090932C0280932B02B6
:1027E0008EE593E02DCE06301105E1F0073011059E
:1027F00009F0FDCB80E390E090932C0280932B02B4
:1028000085E493E01DCEF0922F02E0922E0210920A
:10281000010281E390E090932C0280932B0289E6E1
:1028200093E00ECE8FE290E090932C0280932B02E7
:1028300083E593E005CE10922F0210922E021092A3
:10284000010281E390E090932C0280932B0285E3B8
:1028500093E0F6CD80910002882339F10E945D0754
:1028600090935A0280935902209157023091580256
:102870008217930709F4BBCB9093580280935702B9
:102880008330910519F0059709F0B1CBF0922F0232
:10289000E0922E021092000287E190E090932C02C9
:1028A00080932B0282E293E0CBCD29E0C216D104C3
:1028B00009F09DCB80915702909158020817190793
:1028C00009F495CB10935802009357020530110577
:1028D000B9F180F40330110531F10430110509F02C
:1028E00086CB89E190E090932C0280932B0285E1C6
:1028F00093E0A6CD0630110569F00730110509F007
:1029000076CB8BE190E090932C0280932B0288EFA2
:1029100092E096CD8AE190E090932C0280932B0276
:1029200088E093E08DCDF0922F02E0922E02ECE150
:10293000F0E0F0932C02E0932B0283EE92E080CD46
:1029400010922F0210922E022CE130E030932C02D4
:1029500020932B0281ED92E073CD80912A028111A8
:102960000BC08091280290912902892B29F4809133
:102970002702882309F4BFC0109226020E945D0737
:1029800090935A028093590280912A028823E1F1A0
:10299000809120028823C1F180912B0290912C021A
:1029A000099791F18091270281112EC01092200287
:1029B00083E00E942204892B09F011C180911F023B
:1029C000811112C080911E028F5F80931E0283309E
:1029D000C8F089E180931F0280E496E00E945B08C2
:1029E00080911F02882371F0815080931F02811112
:1029F00009C08FE096E00E945B080E94BC098FE04E
:102A000080931D020E94E30980911D02882361F0DA
:102A100090912702911108C0815080931D02882354
:102A200009F4E0C00E94E30981E10E94070540909B
:102A30000201512C712C612C81E10E9407053FEFAE
:102A4000431A510861087108DC01A30192010E9438
:102A50002618A50194010E94FC1721503F4F4F4FAB
:102A60005F4F20931C0280E10E94070580E10E94D5
:102A70000705DC01A30192010E942618A50194011B
:102A80000E94FC1729013A018FEF480E511C611C6E
:102A9000711C40921B02E0915902F0915A02809100
:102AA0002A022091570230915802E217F30709F4E5
:102AB000B9C1F0935802E0935702882309F497C0F4
:102AC000359749F4909126029111A5C0882309F405
:102AD0009FC00E94BC090091280210912902013078
:102AE000110509F06DC260911C0270E08091120224
:102AF0000E94AA047CCA8FE00E9407058FE00E9412
:102B00000705209126028F3D93400CF441C021110E
:102B100012C081E0809326020E94F2076093220295
:102B20007093230280932402909325028FEA96E00B
:102B30000E945B0823CF0E94F207009122021091AD
:102B400023022091240230912502601B710B820B1D
:102B5000930B683B7B408105910508F40FCFF09201
:102B60002F02E0922E021092210210922602109261
:102B700058021092570210925A021092590228E2FB
:102B800030E030932C0220932B0281E996E058CC60
:102B9000222309F4F3CE0E94F20700912202109141
:102BA000230220912402309125022B013C01401A7E
:102BB000510A620A730A86E796E00E9494064AE088
:102BC000C301B2010E94050886E696E00E945B08F8
:102BD000109226021092580210925702CFCE1092F5
:102BE0001E02FECE8BEF95E00E945B081DCF319751
:102BF000E830F10508F06FCFE050FA4E0C947318EE
:102C00001016291634166F1662159D16B416FE1688
:102C10000E94FF0860CF88ED95E00E945B085BCFC3
:102C20008091190290911A028230910579F09927CA
:102C300001960E9461098091190290911A029927C8
:102C4000029690932C0280932B0245CF90E080E077
:102C5000F0CF9091180281E089270E94910980911C
:102C6000180290E00696EDCF8091280290912902FB
:102C7000019711F40E941909EFEFFFEFF093290279
:102C8000E093280284EC95E00E94940680911C0257
:102C90000E94D2090E94F00385E08093120270E046
:102CA00060E086E00E94AA04C0901C02009102012C
:102CB00010E0D12C0C151D056CF4B80185E00E94C4
:102CC000AA0460E471E080E090E00E943E050D5FA0
:102CD0001F4FF0CFB60185E00E94AA04FCCE809180
:102CE000280290912902892B29F5809127028111D0
:102CF00021C088EB95E00E949406842D0E94D209A1
:102D000081E0809327028CBB2EEC37E030930401E6
:102D100020930301809169008C7F82608093690019
:102D2000E89A70E060E086E00E94AA0460911B02CD
:102D300070E0D1CF85EA95E070CF80912802909124
:102D40002902892B71F48091270281110AC089E937
:102D500095E00E949406842D0E94D2090E94E30906
:102D6000BACE86E895E059CF809128029091290249
:102D7000019611F40E941909F0922902E0922802AA
:102D800083E00E942204019791F50E94F20760936C
:102D9000140270931502809316029093170282E733
:102DA00095E00E94940680911C020E94D2090E9424
:102DB000F00386E08093120270E060E085E00E94FC
:102DC000AA04C0901C020091020110E0D12C0C1545
:102DD0001D058CF4B80186E00E94AA0460E471E04D
:102DE00080E090E00E943E050D5F1F4FF0CF60E055
:102DF00070E0CB01CCCFB60186E06ECF8091180297
:102E00008093130281E080932A0210921F02109295
:102E10001E0210921D0230922C0220922B020E9460
:102E2000910959CE811157CE84E10E94070584E1B2
:102E30000E94070584E10E9407058C018091000132
:102E400090910101801B910B97FF03C09195819593
:102E500091090897ACF010930A02009309021093AD
:102E600001010093000183E095E00E949406C801EF
:102E70000E9455098AE090E090932C0280932B02E7
:102E8000D0901102D092100283E00E94220421E02F
:102E9000009709F420E0209311020091280210917C
:102EA0002902892B09F057C0DD2069F00E94F20742
:102EB00060930B0270930C0280930D0290930E02AC
:102EC00081E080930F0280910F02882309F403CEE2
:102ED0000E94F20740900B0250900C0260900D028D
:102EE00070900E026419750986099709643F714054
:102EF0008105910508F4EFCD86E495E00F3F1007BA
:102F0000E9F001301105F1F44090140250901502DF
:102F1000609016027090170241145104610471040C
:102F200089F00E94F20764197509860997096033D0
:102F300075478105910530F08AE195E00E945B08B4
:102F40000E94FF088BE090E090932C0280932B026C
:102F500010920F02C0CD10920F020130110571F5D1
:102F60008091140290911502A0911602B09117025F
:102F7000892B8A2B8B2B51F40E94F2076093140249
:102F8000709315028093160290931702D110ABCD67
:102F9000ECE0F0E0F0932C02E0932B029CCD88E86B
:102FA00092E00E945B080E94FF0821C880E792E03F
:102FB0000E9494068D2D0E94D2091CCADD2041F387
:102FC0000F3F1F4F11F00C94F70F8DCDF999FECFE5
:102FD00092BD81BDF89A992780B50895262FF99959
:102FE000FECF1FBA92BD81BD20BD0FB6F894FA9AEC
:102FF000F99A0FBE01960895052E97FB1EF40094D2
:103000000E94131857FD07D00E942E1807FC03D00A
:103010004EF40C94131850954095309521953F4FE0
:103020004F4F5F4F089590958095709561957F4FB4
:103030008F4F9F4F08950E945018A59F900DB49FE9
:10304000900DA49F800D911D11240895B7FF0C943D
:103050001B180E941B18821B930B0895A1E21A2EC5
:10306000AA1BBB1BFD010DC0AA1FBB1FEE1FFF1F2C
:10307000A217B307E407F50720F0A21BB30BE40B7C
:10308000F50B661F771F881F991F1A9469F76095C3
:103090007095809590959B01AC01BD01CF0108957D
:1030A000A29FB001B39FC001A39F700D811D112489
:1030B000911DB29F700D811D1124911D089597FBE4
:1030C000072E16F4009407D077FD09D00E947918D6
:1030D00007FC05D03EF4909581959F4F089570951B
:1030E00061957F4F0895EE0FFF1F0590F491E02D3D
:1030F0000994AA1BBB1B51E107C0AA1FBB1FA6173F
:10310000B70710F0A61BB70B881F991F5A95A9F790
:1031100080959095BC01CD010895F894FFCF9CFF58
:1031200064F803F80345464748494A4B4C4D4E4F17
:1031300050515253CA03890348030703C60285024C
:1031400044020302C20181014001FF00BE007D0074
:103150003C00000000004706A705D405AF060506A1
:10316000E305F7050000000049073E075A0714076A
:0A3170003707240715070D0A0000B9
:107800000C94343C0C94513C0C94513C0C94513CE1
:107810000C94513C0C94513C0C94513C0C94513CB4
:107820000C94513C0C94513C0C94513C0C94513CA4
:107830000C94513C0C94513C0C94513C0C94513C94
:107840000C94513C0C94513C0C94513C0C94513C84
:107850000C94513C0C94513C0C94513C0C94513C74
:107860000C94513C0C94513C11241FBECFEFD8E036
:10787000DEBFCDBF11E0A0E0B1E0EAE8FFE702C063
:1078800005900D92A230B107D9F712E0A2E0B1E065
:1078900001C01D92AD30B107E1F70E942D3D0C945F
:1078A000C33F0C94003C982F95959595959595958B
:1078B000905D8F708A307CF0282F295A8091C0000B
:1078C00085FFFCCF9093C6008091C00085FFFCCF60
:1078D0002093C6000895282F205DF0CF982F809127
:1078E000C00085FFFCCF9093C6000895EF92FF92F1
:1078F0000F931F93EE24FF2487018091C00087FD22
:1079000017C00894E11CF11C011D111D81E2E8164D
:1079100081EAF80687E0080780E0180770F3E09135
:107920000401F091050109958091C00087FFE9CF1E
:107930008091C6001F910F91FF90EF9008950E94D3
:10794000763C982F8091C00085FFFCCF9093C600B5
:1079500091362CF490330CF09053892F089597555D
:10796000892F08951F930E949F3C182F0E949F3CCF
:107970001295107F810F1F9108951F93182F882350
:1079800021F00E94763C1150E1F71F9108951F935A
:10799000182F0E94763C803249F0809103018F5F5E
:1079A000809303018530C1F01F9108958091C0003C
:1079B00085FFFCCF84E18093C6008091C00085FFE5
:1079C000FCCF1093C6008091C00085FFFCCF80E102
:1079D0008093C6001F910895E0910401F091050184
:1079E00009951F9108950E94763C803241F0809164
:1079F00003018F5F80930301853081F008958091AA
:107A0000C00085FFFCCF84E18093C6008091C00058
:107A100085FFFCCF80E18093C6000895E0910401CA
:107A2000F09105010995089548EC50E08823A1F0F4
:107A30002D9A28EE33E0FA013197F1F721503040CA
:107A4000D1F72D9828EE33E0FA013197F1F7215064
:107A50003040D1F7815061F708953F924F925F9285
:107A60006F927F928F929F92AF92BF92CF92DF924E
:107A7000EF92FF920F931F93CF93DF93000082E06A
:107A80008093C00080E18093C4001092C50088E11B
:107A90008093C10086E08093C2005098589A259A3E
:107AA00081E00E94143D24E1F22E9EE1E92E85E959
:107AB000D82E0FE0C02E10E1B12EAA24A394B1E479
:107AC0009B2EA6E58A2EF2E57F2EE0E26E2E79E46B
:107AD000572E63E5462E50E5352E0E94763C8033C6
:107AE000B1F18133B9F1803409F46FC0813409F404
:107AF00076C0823409F485C0853409F488C08035A5
:107B000031F1823521F1813511F1853509F485C0D6
:107B1000863509F48DC0843609F496C0843709F49B
:107B200003C1853709F472C1863709F466C08091B4
:107B300003018F5F80930301853079F6E0910401A2
:107B4000F091050109950E94763C803351F60E9420
:107B5000F33CC3CF0E94763C803249F78091C0004D
:107B600085FFFCCFF092C6008091C00085FFFCCF5E
:107B70009092C6008091C00085FFFCCF8092C60025
:107B80008091C00085FFFCCF7092C6008091C0003C
:107B900085FFFCCF6092C6008091C00085FFFCCFBE
:107BA0005092C6008091C00085FFFCCF4092C60075
:107BB0008091C00085FFFCCF3092C6008091C0004C
:107BC00085FFFCCFB092C60088CF0E94763C8638F5
:107BD00008F4BDCF0E94763C0E94F33C7ECF0E9409
:107BE000763C803809F49CC0813809F40BC1823896
:107BF00009F430C1883909F48FC080E00E94C73C85
:107C00006CCF84E10E94BD3C0E94F33C66CF85E0CE
:107C10000E94BD3C0E94F33C60CF0E94763C809362
:107C200006010E94763C809307010E94F33C55CFE9
:107C30000E94763C803309F411C183E00E94BD3C70
:107C400080E00E94C73C49CF0E94763C80930902A5
:107C50000E94763C8093080280910C028E7F809374
:107C60000C020E94763C853409F409C18091080217
:107C700090910902892B89F000E010E00E94763C87
:107C8000F801E85FFE4F80830F5F1F4F809108026D
:107C9000909109020817190788F30E94763C8032F8
:107CA00009F045CF80910C0280FFF5C0609106017C
:107CB00070910701660F771F7093070160930601AB
:107CC000A0910802B09109021097C9F0E8E0F1E034
:107CD0009B01AD014E0F5F1FF999FECF32BD21BD53
:107CE000819180BDFA9AF99A2F5F3F4FE417F5070B
:107CF00099F76A0F7B1F70930701609306018091CB
:107D0000C00085FFFCCFF092C6008091C00085FFC7
:107D1000FCCFB092C600E1CE83E00E94C73CDDCE2E
:107D200082E00E94C73CD9CE0E94763C8093090233
:107D30000E94763C80930802809106019091070191
:107D4000880F991F90930701809306010E94763C4B
:107D5000853409F49AC080910C028E7F80930C02C6
:107D60000E94763C803209F0B8CE8091C00085FF39
:107D7000FCCFF092C600A0910802B09109021097C2
:107D8000C1F180910C02082F0170182F1695117007
:107D9000E0910601F0910701AF014F5F5F4FBA011B
:107DA00020E030E00023B1F4112339F49491809164
:107DB000C00085FFFCCF9093C6002F5F3F4FCB01E3
:107DC0000196FA012A173B0780F4BC014F5F5F4F11
:107DD000002351F3F999FECFF2BDE1BDF89A90B5B9
:107DE0008091C00085FFFCCFE6CF709307016093C0
:107DF00006018091C00085FDE5CE8091C00085FF21
:107E0000F8CFE0CE81E00E94C73C67CE0E94763C6E
:107E1000803209F08CCE8091C00085FFFCCFF092BB
:107E2000C6008091C00085FFFCCFE092C600809123
:107E3000C00085FFFCCFD092C6008091C00085FFB6
:107E4000FCCFC092C6008091C00085FFFCCFB092ED
:107E5000C60043CE80E10E94C73C3FCE0E94763CE4
:107E60000E94763C182F0E94763C112309F483C0AF
:107E7000113009F484C08FE00E94C73C2ECE80915F
:107E80000C02816080930C02F1CE80910C02816023
:107E900080930C0265CF809107018823880F880B9F
:107EA0008A2180930B028091060190910701880F2F
:107EB000991F90930701809306018091080280FF2B
:107EC00009C08091080290910902019690930902DD
:107ED00080930802F894F999FECF1127E0910601EA
:107EE000F0910701C8E0D1E0809108029091090269
:107EF000103091F40091570001700130D9F303E084
:107F000000935700E8950091570001700130D9F3B4
:107F100001E100935700E8950990199000915700EE
:107F200001700130D9F301E000935700E8951395F3
:107F3000103498F011270091570001700130D9F3E7
:107F400005E000935700E89500915700017001305B
:107F5000D9F301E100935700E8953296029709F0B2
:107F6000C7CF103011F00296E5CF11248091C000E8
:107F700085FFC5CEC8CE8EE10E94C73CAECD85E957
:0C7F80000E94C73CAACDF894FFCF8000FF
:00000001FF
