:100000000C943B030C94300B0C94090B0C9463037D
:100010000C9463030C9463030C9463030C946303C8
:100020000C9463030C9463030C9463030C946303B8
:100030000C9463030C9463030C9463030C946303A8
:100040000C94BF0A0C9463030C947D0B0C94570B17
:100050000C9463030C9463030C9463030C94630388
:100060000C94AF0B0C9463034D6F746F723A205372
:10007000746F70002842726965666C792E2E2E2985
:10008000004C616D70206D6F64653A2000696E00F0
:100090006F7574002E2054656C6C696E6720526118
:1000A00073706920746F207A6F6F6D20005A6F6FC4
:1000B0006D206D6F64653A200043757272656E74D1
:1000C000204578706F737572652053657474696E1E
:1000D000673A200043757272656E742046696C6DD4
:1000E000206C6F61642073746174653A20005363FF
:1000F000616E2072656A6563746564206279205060
:1001000069004D656E753A206578697420286672BD
:100110006F6D20506929004D656E753A20626163EC
:100120006B20746F206D61696E202866726F6D2080
:100130005069290057694669206D656E753A2065DA
:1001400078697400546172676574206D656E753AE4
:10015000206578697400415742206D656E753A20BC
:10016000657869740053656E64696E67206E6577A3
:10017000204578706F737572652054696D652076BF
:10018000616C75652E005265762E20005265762EC4
:1001900020442028666C6F6174696E6729002057BF
:1001A0004452463D0020424F52463D00204558549F
:1001B00052463D0020504F52463D00424F4F542082
:1001C0004D435553523D307800556E706169723A17
:1001D0002065786974206D656E7500556E70616973
:1001E000723A206261636B20746F206D656E7500DA
:1001F000556E706169723A20636F6E6669726D0048
:10020000556E706169723A206E65787400556E7033
:100210006169723A2070726576004C6F67733A209C
:100220006261636B20746F206D656E75005769465F
:10023000693A2065786974206D656E750057694666
:10024000693A20636F6E6669726D00576946693A54
:10025000206E65787400576946693A207072657639
:1002600000576946693A206261636B20746F206DA4
:10027000656E75005461726765743A2065786974BB
:10028000206D656E75005461726765743A20636F06
:100290006E6669726D005461726765743A206E65AE
:1002A0007874005461726765743A207072657600E4
:1002B0005461726765743A206261636B20746F20C9
:1002C0006D656E75004157423A2065786974206DFE
:1002D000656E75004157423A206261636B20746F0E
:1002E000206D656E750050616972696E673A2062B3
:1002F00061636B20746F206D656E7500506169726B
:10030000696E67206D6F64653A2073746F7020703A
:10031000726573736564005570646174653A206535
:10032000786974206D656E75005570646174653A06
:1003300020636F6E6669726D005570646174653A12
:10034000206E657874005570646174653A2070722F
:100350006576005570646174653A206261636B2054
:10036000746F206D656E75004D656E753A20657809
:100370006974004D656E753A20656E746572696EBC
:1003800067206974656D20004D656E753A20736550
:100390006C6563746564206974656D20004D656EDD
:1003A000753A2073656C6563746564206974656D66
:1003B000200020746F20004D656E753A20627574C0
:1003C000746F6E206368616E6765642066726F6D1E
:1003D00020004E6577204578706F737572652053E5
:1003E000657474696E673A200046696C6D20656EAD
:1003F00064656420647572696E6720636F6E7469EA
:100400006E756F75732072756E202D2073746F700A
:1004100070696E670046696C6D20656E6465642066
:10042000647572696E6720636F6E74696E756F753F
:10043000732072756E202D2073746F7070696E67F3
:10044000004D6F746F723A203E3E206174205370ED
:1004500065656420004D6F746F72206E6F74207339
:10046000746F707065642E003E2061742053706557
:10047000656420004D6F746F72206E6F742073740A
:100480006F707065642E003C206174205370656548
:100490006420004D6F746F723A203C3C20617420E0
:1004A0005370656564200053544F503A2069676E5D
:1004B0006F72696E6720286C6F6E672D707265733E
:1004C000732074696D696E67290046696C6D2065DB
:1004D0006A65637420636F6D706C65746500457840
:1004E000747261206672616D657320646F6E652041
:1004F0002D2073746F7070696E67207363616E2C4A
:1005000020656A656374696E672066696C6D004674
:10051000696C6D20656E646564202D207363616E67
:100520006E696E672032352065787472612066725C
:10053000616D65730050616972696E67206D6F64EB
:10054000653A2073746F7020707265737365640010
:10055000206D732028746F6F2073686F7274290088
:100560004D656E753A2053544F502072656C65612D
:1005700073656420616674657220004D656E753A1E
:1005800020656E74657220286C6F6E6720707265CE
:1005900073732053544F5029004D656E753A2053A4
:1005A000544F5020627574746F6E2070726573734F
:1005B00065642C2074696D696E672E2E2E002C20C8
:1005C0007461726765744D6F64653D005461726754
:1005D0006574206D656E753A2072652D656E746563
:1005E00072202866726F6D205069292C206D656E0F
:1005F0007553746174653D005461726765743A2087
:10060000656E746572696E67206D656E75206D6FBD
:10061000646520666972737400000000002400277E
:10062000002A0000000000250028002B0000000028
:100630000023002600290004040404040404040226
:10064000020202020203030303030301020408106F
:10065000204080010204081020010204081020003C
:100660000000080002010000030407000000000071
:1006700000000000EC0C11241FBECFEFD8E0DEBF5D
:10068000CDBF11E0A0E0B1E0E2EEFDE202C00590D6
:100690000D92AC35B107D9F722E0ACE5B1E001C06D
:1006A0001D92A43FB207E1F713E0CBE3D3E004C00F
:1006B0002197FE010E94DA16CA33D107C9F70E94BA
:1006C000250D0C94EF160C940000E8988DE693E04D
:1006D000909304018093030108950895833081F07D
:1006E00028F4813099F08230A9F008958730A9F07C
:1006F0008830C9F08430B1F4809180008F7D03C0D0
:10070000809180008F7780938000089584B58F77E3
:1007100084BD089584B58F7DFBCF8091B0008F7725
:100720008093B00008958091B0008F7DF9CFCF9372
:10073000DF93E2E6F6E08491EEE4F6E0D491EAE3BA
:10074000F6E0C491CC23A1F081110E946E03EC2F3E
:10075000F0E0EE0FFF1FE35DF94FA591B491EC912E
:10076000ED2381E090E009F480E0DF91CF910895DE
:1007700080E090E0FACF1F93CF93DF93282F30E0F3
:10078000F901E15AF94F8491F901E55BF94FD491F0
:10079000F901E95CF94FC491CC23A9F0162F81111E
:1007A0000E946E03EC2FF0E0EE0FFF1FED5DF94F9E
:1007B000A591B4918FB7F894EC91111108C0D09520
:1007C000DE23DC938FBFDF91CF911F910895DE2B45
:1007D000F8CFCF93DF9390E0FC01E55BF94F2491D4
:1007E000895C994FFC0184918823D1F090E0880FB7
:1007F000991FFC01E75EF94FA591B491FC01ED5DF5
:10080000F94FC591D49161110EC09FB7F8948C91A6
:10081000E22FE0958E238C932881E223E8839FBF0B
:10082000DF91CF9108958FB7F894EC91E22BEC9380
:100830008FBFF6CF1F93CF93DF93182FEB0161E0AB
:100840000E94E903209739F460E0812FDF91CF9176
:100850001F910C94BB03CF3FD10511F461E0F5CF9C
:10086000E12FF0E0E15AF94FE491E33031F140F447
:10087000E130B1F0E230E1F0C038D1057CF7E4CFEF
:10088000E73029F1E83059F1E430B1F78091800088
:10089000806280938000D0938B00C0938A0004C054
:1008A00084B5806884BDC7BDDF91CF911F91089545
:1008B00084B5806284BDC8BDF7CF80918000806818
:1008C00080938000D0938900C0938800EDCF809101
:1008D000B00080688093B000C093B300E5CF8091F2
:1008E000B00080628093B000C093B400DDCF8E5022
:1008F000806480937C0080917A00806480937A0089
:1009000080917A0086FDFCCF8091780090917900EB
:1009100008953FB7F8948091470290914802A091C2
:100920004902B0914A0226B5A89B05C02F3F19F095
:100930000196A11DB11D3FBFBA2FA92F982F88275F
:10094000BC01CD01620F711D811D911D43E0660F39
:10095000771F881F991F4A95D1F708958F929F920C
:10096000AF92BF92CF92DF92EF92FF924B015C0168
:100970000E9489046B017C010E9489046C197D0925
:100980008E099F09683E734081059105A8F321E017
:10099000821A9108A108B10888EEC80E83E0D81E1B
:1009A000E11CF11C81149104A104B10429F7FF900A
:1009B000EF90DF90CF90BF90AF909F908F90089571
:1009C000E091F801F091F901309729F01092F301CC
:1009D0001092F20109940895CF93DF93AC01E09156
:1009E000F601F091F7013097F1F09091F5018091C7
:1009F000F4019817C0F090E0292F30E02617370750
:100A000054F4D901A25ABE4F240F351FE9012881A1
:100A10002C939F5FF1CF1092F5016093F401CB010D
:100A2000DF91CF910994DF91CF910895AF92BF925A
:100A3000CF92DF92EF92FF920F931F93CF93DF93AA
:100A40006C017B018B01040F151FEB015E01AE18D9
:100A5000BF08C017D10759F06991D601ED91FC91FB
:100A60000190F081E02DC6010995892B79F7C50128
:100A7000DF91CF911F910F91FF90EF90DF90CF907A
:100A8000BF90AF900895FC01538D448D252F30E029
:100A9000842F90E0821B930B541710F0CF9608958B
:100AA00001970895FC01918D828D981761F0A28DB8
:100AB000AE0FBF2FB11D5D968C91928D9F5F9F737E
:100AC000928F90E008958FEF9FEF0895FC01918D34
:100AD000828D981731F0828DE80FF11D858D90E0A1
:100AE00008958FEF9FEF0895FC01918D228D892F3E
:100AF00090E0805C9F4F821B91098F739927089526
:100B00008BE492E00E94740521E0892B09F420E037
:100B1000822F089580E090E0892B29F00E948005C3
:100B200081110C9400000895FC01A48DA80FB92F29
:100B3000B11DA35ABF4F2C91848D90E001968F7305
:100B40009927848FA689B7892C93A089B1898C9124
:100B5000837080648C93938D848D981306C0028873
:100B6000F389E02D80818F7D80830895EF92FF923D
:100B70000F931F93CF93DF93EC0181E0888F9B8DC0
:100B80008C8D98131AC0E889F989808185FF15C07A
:100B90009FB7F894EE89FF896083E889F98980819D
:100BA0008370806480839FBF81E090E0DF91CF916C
:100BB0001F910F91FF90EF900895F62E0B8D10E08E
:100BC0000F5F1F4F0F731127E02E8C8D8E110CC0FD
:100BD0000FB607FCFACFE889F989808185FFF5CF48
:100BE000CE010E949405F1CFEB8DEC0FFD2FF11D8E
:100BF000E35AFF4FF0829FB7F8940B8FEA89FB8985
:100C000080818062CFCF0F931F93CF93DF938C01AE
:100C1000D0E0C0E0F801EC0FFD1F6491662341F0C5
:100C20008BE492E00E94B605892B11F02196F2CF59
:100C3000CE01DF91CF911F910F910895CF93DF9354
:100C4000EC01888D8823B9F0AA89BB89E889F989E4
:100C50008C9185FD03C0808186FD0DC00FB607FC19
:100C6000F7CF8C9185FFF2CF808185FFEDCFCE014C
:100C70000E949405E9CFDF91CF9108952091A401BE
:100C8000260F3327331F21323105ECF42091C801A0
:100C9000FC0190E080E0243069F082E00895A091AA
:100CA000A4012191AC014C575E4FA40FB52FB11D8B
:100CB0002C930196861798F38091A401680F609396
:100CC000A40180E0089581E008951092C80181E0B8
:100CD0008093CA011092C90161E082E10E94BB03C6
:100CE00061E083E10E94BB03E9EBF0E080818E7F4D
:100CF000808380818D7F808380E28093B80085E44B
:100D00008093BC0008950895E091F5018091F4016D
:100D1000E81730F4F0E0E25AFE4F808190E0089549
:100D20008FEF9FEF08959091F5018091F4012FEFDF
:100D30003FEF981748F4E92FF0E0E25AFE4F208188
:100D400030E09F5F9093F501C90108958091F4010F
:100D50009091F501891B990B0895CF93DF93CB01F7
:100D6000EA01642F0E943E06CE01DF91CF910895E3
:100D7000CF93DF931F92CDB7DEB7698361E0CE01D9
:100D800001960E943E0681E090E00F90DF91CF91A6
:100D9000089590E080E008950F931F93CF93DF9321
:100DA0008EE00E9477048EE00E9477048C018FE031
:100DB0000E9477048FE00E947704EC0160E872E003
:100DC00080E090E00E94AE0420915C01222369F152
:100DD000023011052CF490E080E0C230D10574F1AE
:100DE000C8014F978732910508F444C08A5591098C
:100DF0008732910550F18A5A9109879748F10F3D42
:100E000083E0180744F5CE014F978732910530F102
:100E10008A5591098732910520F18A5A910987975D
:100E200018F1CF3D83E0D80714F590E080E0023060
:100E300011051CF421E022970CF020E020935C01C6
:100E4000DF91CF911F910F91089583E090E0EFCF54
:100E500081E090E0ECCF82E090E0E9CF88E090E0A4
:100E6000E6CF87E090E0E3CF86E090E0E0CF85E05A
:100E700090E0DDCF84E090E0E0CFBF92CF92DF92B0
:100E8000EF92FF920F931F93CF93DF93B82E862F8D
:100E900070E060E00E941A04C0911102CC2EC6944A
:100EA000CC19DD0B10E000E0D12C8AE0E82EF12C0B
:100EB000C801B7010E94C6166C0D70E08B2D0E9410
:100EC0001A048AE0D81631F060EC70E080E090E01F
:100ED0000E94AE04D3940C0F1D1F8BE0D812E8CFF4
:100EE000DF91CF911F910F91FF90EF90DF90CF9006
:100EF000BF9008952FB7F894609143027091440217
:100F000080914502909146022FBF26E096958795E5
:100F1000779567952A95D1F708950F931F930E94AF
:100F20007A070091FB011091FC012091FD013091A5
:100F3000FE01601B710B820B930B653071058105FF
:100F4000910528F481E08CBB1F910F9108951092B8
:100F50002A021092290210920A0210920B02109299
:100F60000C0210920D028091110280932C020E94BB
:100F70007A0760932E0270932F0280933002909331
:100F8000310281E08093320280912B028823E1F2CA
:100F900085E090E09093340280933302D5CF8F9216
:100FA0009F92AF92BF920F931F93CF93DF93CDB7D2
:100FB000DEB7A1970FB6F894DEBF0FBECDBF19A262
:100FC000423008F44AE08E010F5D1F4F842E912CB1
:100FD000B12CA12CA50194010E949516E62FB90110
:100FE000CA01EA3044F5E05DD801EE938D01232B70
:100FF000242B252B79F790E080E0109769F0FD0114
:1010000001900020E9F73197AF014A1B5B0BBD014E
:101010008BE492E00E941605A1960FB6F894DEBF0D
:101020000FBECDBFDF91CF911F910F91BF90AF90B9
:101030009F908F900895E95CD7CF42E050E068E53B
:1010400071E08BE492E00C941605CF93DF930E943D
:101050000306EC010E941D088C0F9D1FDF91CF91AC
:1010600008950F931F93CF93DF93C0913302D091D4
:1010700034026C2F88EE92E00E94B80680911F0225
:101080008823A9F00E947A0700911B0210911C028C
:1010900020911D0230911E02601B710B820B930B7D
:1010A000693873418105910510F010921F02CB3011
:1010B000D105E1F485E691E00E94250842E050E088
:1010C0006FEF71E088EE92E00E94AD0680911F0202
:1010D0008823F1F0C631D105D9F4D0933402C093FE
:1010E0003302DF91CF911F910F910895CE30D1053A
:1010F00069F742E050E06FEF71E088EE92E00E9405
:10110000AD0660915D0188EE92E00E94B806DECFE8
:10111000639769F48091360290913702892B39F4F4
:1011200089E290E09093340280933302DACF1092F8
:10113000340210923302D5CF1092320210922A025A
:101140001092290210920A0210920B0210920C02C5
:1011500010920D0210922D0288E690E00E94250860
:1011600061E086E00E94BB0361E085E00C94BB0374
:10117000CF92DF92EF92FF92CF93DF936C01990FA2
:10118000EE08FF08F7FE19C06DE28BE492E00E94C2
:10119000B605EC0166277727CB016C197D098E090E
:1011A0009F094AE00E94CF078C0F9D1FDF91CF91CE
:1011B000FF90EF90DF90CF9008954AE0C701B6010D
:1011C000DF91CF91FF90EF90DF90CF900C94CF07FD
:1011D000CF93DF930E94B808EC010E941D088C0F8A
:1011E0009D1FDF91CF910895CF93DF9320910F0240
:1011F000309110022817390721F1EC01892B19F0E1
:1012000081E00E942409D0931002C0930F028DEA5E
:1012100090E00E940306CE010E94B80884E990E0A5
:101220000E94030680910F0290911002892B31F0E9
:101230008DE890E0DF91CF910C94250880E990E053
:10124000F9CFDF91CF910895CF9390910E02981727
:1012500021F1C82F811104C090E080E00E94F408C1
:10126000C0930E0281E890E00E9403068C2F90E06C
:101270000E94E80880910E02882349F061E088E02E
:101280000E94BB0361E089E0CF910C94BB0360E056
:1012900088E00E94BB0360E0F6CFCF910895CF9322
:1012A000DF93682F70E090E080E04AE00E94CF0773
:1012B000EC010E941D088C0F9D1FDF91CF910895B6
:1012C000CF93892BE1F09091F4018091F50198176B
:1012D00031F088EE92E00E949306282FF4CF25315A
:1012E00081F41092220281E090E090933702809383
:1012F0003602109234021092330210921F02CF91E4
:101300000895283169F41092210281E090E09093D1
:101310003702809336021092340210923302EFCFDC
:10132000233889F41092200281E090E090933702F4
:1013300080933602109234021092330286E591E0D7
:101340000E942508DCCF243879F41092350281E020
:1013500090E09093370280933602109234021092FC
:10136000330284E491E0ECCF263879F41092FA014C
:1013700081E090E09093370280933602109234021D
:101380001092330284E391E0DBCF253821F481E031
:1013900080933802B4CF293251F580913602909172
:1013A00037020297C8F081E090E090933702809373
:1013B00036021092410210922202109220021092E4
:1013C000350210922102109234021092330287E10A
:1013D00091E0CF910C9425081092370210923602BA
:1013E000109234021092330282E091E0F2CF27385B
:1013F00081F480912B02882309F481CF10922B0273
:1014000010921602809109020E9424098EEE90E04B
:10141000E0CF203849F480912B02882309F46FCF64
:1014200081E0809316026BCF213809F068CF0E94CB
:101430009703C82F80935D0184E10E94770484E1C3
:101440000E947704909300028093FF0184ED90E066
:101450000E9403068C2F0E944F0989EB90E00E94A6
:1014600003068091FF01909100020E94E8088EE03F
:1014700090E0909334028093330241CFCF93109247
:10148000320286E080930201C1E0C0932D020E94E7
:101490006503CCBB65E086E00E943D070E947A07A9
:1014A0006093FB017093FC018093FD019093FE011A
:1014B000CCBB8DE897E09093040180930301E9E6AB
:1014C000F0E080818C7F82608083E89ACF910895DC
:1014D000CF93DF9385ED8093BC0080918001909144
:1014E0008101A0918201B09183010796A11DB11DD8
:1014F00023E0B695A795979587952A95D1F72091E2
:10150000BC0024FD03C01092C80136C04091800188
:10151000509181016091820170918301452B462B8E
:10152000472B69F30097A105B10541F025E12A9504
:10153000F1F700000197A109B109E1CF80917F0186
:1015400091E090937E018823B9F0C091B800D091CA
:10155000BA008091BC008A7B8093BC0060E082E18D
:101560000E94BB0360E083E10E94BB030E9465060A
:10157000D093BA00C093B800DF91CF9108951F9225
:101580000F920FB60F9211242F933F938F939F9337
:10159000AF93BF938091430290914402A091450282
:1015A000B09146023091420226E0230F2D3758F5C4
:1015B0000296A11DB11D2093420280934302909395
:1015C0004402A0934502B093460280914702909155
:1015D0004802A0914902B0914A020196A11DB11D95
:1015E0008093470290934802A0934902B0934A0225
:1015F000BF91AF919F918F913F912F910F900FBE0F
:101600000F901F90189529E8230F0396A11DB11D77
:10161000D2CF1F920F920FB60F9211242F933F93A8
:101620004F935F936F937F938F939F93AF93BF93EA
:10163000EF93FF93E0910501F09106010995FF9169
:10164000EF91BF91AF919F918F917F916F915F913A
:101650004F913F912F910F900FBE0F901F901895B3
:101660001F920F920FB60F9211242F933F934F9317
:101670005F936F937F938F939F93AF93BF93EF93FA
:10168000FF93E0910301F09104010995FF91EF911F
:10169000BF91AF919F918F917F916F915F914F918A
:1016A0003F912F910F900FBE0F901F9018951F9292
:1016B0000F920FB60F9211242F933F934F935F9386
:1016C0006F937F938F939F93AF93BF93EF93FF930A
:1016D0008BE492E00E949405FF91EF91BF91AF914E
:1016E0009F918F917F916F915F914F913F912F913A
:1016F0000F900FBE0F901F9018951F920F920FB66C
:101700000F9211242F938F939F93EF93FF93E09168
:101710005B02F0915C028081E0916102F0916202D3
:1017200082FD1BC09081809164028F5F8F73209136
:101730006502821741F0E0916402F0E0E55BFD4F45
:10174000958F80936402FF91EF919F918F912F91DC
:101750000F900FBE0F901F9018958081F4CF1F92AD
:101760000F920FB60F9211242F933F934F935F93D5
:101770006F937F938F939F93AF93BF93EF93FF9359
:101780008091B900887F803609F44AC0F0F588322C
:1017900009F4A7C018F5803109F49BC0B8F4882378
:1017A00009F4F9C0883009F494C0FF91EF91BF911A
:1017B000AF919F918F917F916F915F914F913F91E9
:1017C0002F910F900FBE0F901F901895883109F43C
:1017D00088C0803251F78093C70114C0803409F467
:1017E0009DC040F48033B9F38833F9F68093C70184
:1017F00085ECB0C0803509F485C0883509F496C001
:10180000883499F60E94680AD0CF883909F48CC0D0
:1018100038F5883729F050F4883611F0803729F6EA
:1018200083E08093C8011092C60157C0883809F43C
:101830007BC0803919F0803809F0B7CF8091C6019C
:10184000803208F071C0E091C60181E08E0F809374
:10185000C6018091BB00F0E0EA55FE4F80833DC099
:10186000803B39F0E0F4803A09F479C0883A09F015
:101870009CCF84E08093C8011092A5011092A4012E
:10188000E091F001F091F10109958091A40181119D
:101890000FC081E08093A4011092840109C0803CB4
:1018A00009F4A6CF883C09F4A3CF883B09F07DCF8B
:1018B000E091A50181E08E0F8093A501F0E0EC5747
:1018C000FE4F80818093BB009091A5018091A4017F
:1018D00029C08091ED018093BB0085EC8093BC0012
:1018E00064CF9091EC018091EB01981758F5E0914D
:1018F000EC0181E08E0F8093EC01F0E0E553FE4FA8
:101900008081E9CFE091EC0181E08E0F8093EC01C2
:101910008091BB00F0E0E553FE4F80839091EC0195
:101920008091EB019817C8F285E8D8CFE091EC01DF
:1019300081E08E0F8093EC018091BB00F0E0E553D5
:10194000FE4F80838091CA0181115CCF81E080933A
:10195000C90184EA8093BC001092C80126CF85ECAF
:101960008093BC001092C8018091C601803230F48F
:10197000E091C601F0E0EA55FE4F10826091C60189
:1019800070E0E091EE01F091EF0186EA91E00995B7
:101990001092C6010ACF1092C70134CF0E949C0852
:1019A00084E790E00E94250860E87EE380E090E014
:1019B0000C94AE0410922B021092160280E00E944A
:1019C00024091092100210920F028AE090E0909386
:1019D0003402809333020895EBE4F2E01382128222
:1019E00088EE93E0A0E0B0E084839583A683B7837C
:1019F00028E331E03183208325EC30E035872487EC
:101A000024EC30E03787268720EC30E0318B208BC8
:101A100021EC30E0338B228B22EC30E0358B248BB1
:101A200026EC30E0378B268B118E128E138E148E9F
:101A3000E8EEF2E01382128284839583A683B78353
:101A40008AE491E0918380830895CF93DF93CDB7AB
:101A5000DEB72F970FB6F894DEBF0FBECDBF7894D8
:101A600084B5826084BD84B5816084BD85B58260A3
:101A700085BD85B5816085BD80916E008160809354
:101A80006E001092810080918100826080938100BD
:101A900080918100816080938100809180008160CD
:101AA000809380008091B10084608093B100809128
:101AB000B00081608093B00080917A008460809350
:101AC0007A0080917A00826080937A0080917A0017
:101AD0008E7F80937A0080917A00806880937A006C
:101AE0001092C100F4B614BE61E089E00E94E903DF
:101AF00060E089E00E94BB03E0915B02F0915C0230
:101B000082E08083E0915702F09158021082E091C8
:101B10005902F0915A0288E0808310926302E091AA
:101B20005F02F091600286E08083E0915D02F091B7
:101B30005E02808180618083E0915D02F0915E02AF
:101B4000808188608083E0915D02F0915E028081F7
:101B500080688083E0915D02F0915E0280818F7DDC
:101B600080838BEB91E00E9403066F2D70E090E084
:101B700080E040E10E94CF0784EB91E00E940306E1
:101B80008F2D817090E00E94B8088CEA91E00E944D
:101B90000306F1FA882780F990E00E94B80885EAE8
:101BA00091E00E940306F2FA882780F990E00E94F3
:101BB000B8088EE991E00E940306F3FA882780F9BD
:101BC00090E00E94E80860E08EE00E94E90360E097
:101BD0008FE00E94E90360E080E10E94E90360E099
:101BE00081E10E94E90360E084E10E94E90361E091
:101BF00088E00E94E90361E086E00E94E90361E079
:101C000085E00E94E90360E082E00E94E90360E071
:101C100083E00E94E90360E085E10E94E9030E94FD
:101C2000970321E0892B09F420E0209307022093F9
:101C300006020E947A07605E7C4F8F4F9F4F609331
:101C40003D0270933E0280933F029093400285B51F
:101C5000887F816085BD61E086E00E94BB0361E012
:101C600085E00E94BB0360E088E00E94BB0360E067
:101C700089E00E94BB031092F5011092F4011092CA
:101C8000F3011092F2010E94650680EE94E09093B9
:101C9000F1018093F0018CEE94E09093EF0180933A
:101CA000EE0184E58093BA0080E699E09093F70115
:101CB0008093F60181E398E09093F9018093F80115
:101CC00084E10E94770485E10E9477048C017C0105
:101CD0006C0187E0A82EB12C85E10E94770485E194
:101CE0000E947704080F191F8C159D050CF46C01D8
:101CF000E816F9060CF47C0121E0A21AB10861F79C
:101D000017FF02C0095F1F4FB3E015950795BA95FD
:101D1000E1F7EC18FD0839E7E316F104DCF18CE893
:101D200091E00E94250844244A94E3E05E2E612C51
:101D3000712CFEE18F2E912CA12CB12CA3E12A2E27
:101D4000312C80914102811153C00E947A07009189
:101D50003D0210913E0220913F02309140026017F7
:101D600071078207930708F043C00E94CC06909346
:101D70003C0280933B0290933A028093390280E0C8
:101D800090E0892BF1F20E9480058823D1F20E9415
:101D90000000D7CF8FE0E7E0F1E0DE01119601907F
:101DA0000D928A95E1F7E8E1F1E090E080E07C01B6
:101DB0002FEFE21AF20A219131910217130714F062
:101DC0007C0104C0C7018E30910589F786E891E057
:101DD0000E940306E1E0F0E0EC0FFD1FEE0DFF1D99
:101DE00060818BE492E00E94B6050E941D089BCFA3
:101DF000809138028823D1F1809136029091370288
:101E000010923802892B51F481E090E090933702D0
:101E10008093360288EF95E00E94250881E0809348
:101E2000350285E090E0909337028093360210925D
:101E30003402109233020E94CC0690933C028093AD
:101E40003B0290933A02809339028CEC95E00E9419
:101E5000030685E090E00E94B8088EEB95E00E94B2
:101E600003068091350290E00E94E808E090360277
:101E7000F0903702E114F10409F43AC30E94CC0651
:101E80008C0190933C0280933B0231E0E316F10415
:101E900009F0E0C0E0903902F0903A028E159F05FB
:101EA00009F46DCF87EB93E00E940306C7010E94FF
:101EB000B80882EB93E00E94030680913B02909168
:101EC0003C020E94E80880913B0290913C02909372
:101ED0003A028093390284309105A1F190F403977E
:101EE00009F04DCF109237021092360289E290E04D
:101EF000909334028093330288E693E00E94250891
:101F00003ECF86309105A9F1079709F038CF83E7D6
:101F100093E00E940306809123020E944F09E09102
:101F200023028CE290E0E73008F040C0F0E0E55694
:101F3000F04F0C94DA16CB0FDB0FF10FFD0F0910E9
:101F4000151021100091230210E0095F1F4F077048
:101F50001127009323028AE290E090933402809349
:101F600033028DE993E00E940306802F0E944F09FF
:101F700006CF0091230210E00F5F1F4F077011275B
:101F8000009323028BE290E090933402809333021B
:101F900088E893E0E8CF82E090E090933702809366
:101FA000360281E0809341028FE090E0909334020A
:101FB00080933302E4CE83E090E0909337028093E5
:101FC000360281E0809322020E947A076093170212
:101FD000709318028093190290931A0284E190E0A2
:101FE000E5CF84E090E0909337028093360281E061
:101FF000809320028EE190E0D9CF85E090E090932D
:1020000037028093360281E08093350283E290E0CC
:10201000CDCF86E090E0909337028093360281E046
:102020008093FA018DE290E0C1CF87E090E0909339
:1020300037028093360281E08093210287E190E0AD
:10204000B5CF88E090E0909337028093360289E123
:1020500090E0ACCF80914102882309F457C0809171
:10206000390290913A020817190709F488CE1093A3
:102070003A020093390205301105D9F180F403309A
:102080001105F1F00430110509F079CE80E190E0FE
:10209000909334028093330286E493E02FCF06308E
:1020A0001105E9F00730110509F069CE62E1E62E6D
:1020B000F12CF0923402E092330289E293E01ECFD9
:1020C00081E090E0909337028093360210924102B3
:1020D000309234022092330283E593E00FCF71E116
:1020E000C72ED12CD0923402C092330289E393E000
:1020F00005CF1092370210923602109241023092B0
:1021000034022092330287E193E0F8CE80912202DC
:10211000882309F45DC08FE00E9477048FE00E945D
:1021200077048F3D93401CF405301105D9F48CEFF2
:1021300092E00E94250881E090E09093370280931E
:1021400036021092220280931F020E947A07609347
:102150001B0270931C0280931D0290931E0286E165
:1021600090E024CF0330110591F481E090E090934A
:102170003702809336021092220256E1C52ED12CEE
:10218000D0923402C092330286EE92E0B7CE0E9423
:102190007A070091170210911802209119023091CC
:1021A0001A02601B710B820B930B613D7B4F8140C8
:1021B000910508F4E4CD81E090E09093370280939C
:1021C0003602109222021092340210923302D7CDBE
:1021D00080912002882309F448C0809139029091AF
:1021E0003A020817190709F4CACD10933A0200936E
:1021F00039020530110549F150F40330110589F019
:102200000430110509F0BBCD8FE190E0CFCE063050
:102210001105C1F00730110509F0B1CD81E290E060
:10222000C5CE81E090E09093370280933602109201
:10223000200282E290E0909334028093330284ED96
:1022400092E05CCE80E290E0B1CE10923702109224
:1022500036021092200242E2C42ED12CD0923402D7
:10226000C092330285EC92E049CE809135028823FA
:1022700009F459C08091390290913A020817190760
:1022800009F47DCD10933A0200933902053011050F
:10229000D9F180F403301105E9F00430110509F09B
:1022A0006ECD84E290E0909334028093330283EA0F
:1022B00092E024CE06301105F1F00730110509F047
:1022C0005ECD86E290E0909334028093330286E8FC
:1022D00092E014CE81E090E0909337028093360232
:1022E0001092350287E290E090933402809333029B
:1022F00080EB92E003CE85E290E0909334028093ED
:10230000330286E992E0FACD10923702109236023B
:102310001092350287E290E090933402809333026A
:1023200084E792E0EBCD8091FA01882309F459C04B
:102330008091390290913A020817190709F41FCDCC
:1023400010933A020093390205301105D9F180F457
:1023500003301105E9F00430110509F010CD8EE2CB
:1023600090E0909334028093330286E592E0C6CDEC
:1023700006301105F1F00730110509F000CD80E3BA
:1023800090E090933402809333028DE392E0B6CDD7
:1023900081E090E090933702809336021092FA0128
:1023A00081E390E0909334028093330281E692E0DF
:1023B000A5CD8FE290E090933402809333028BE4BA
:1023C00092E09CCD10923702109236021092FA01E0
:1023D00081E390E090933402809333028DE292E0A7
:1023E0008DCD80912102882349F10E94CC069093E3
:1023F0003C0280933B022091390230913A028217CD
:10240000930709F4BCCC90933A028093390283304D
:10241000910519F0059709F0B2CC81E090E0909316
:102420003702809336021092210288E190E0909367
:102430003402809333028AE192E060CD28E0E21614
:10244000F10409F09CCC8091390290913A0208176E
:10245000190709F494CC10933A020093390205301D
:102460001105C9F180F40330110531F10430110573
:1024700009F085CC8AE190E0909334028093330296
:102480008DE092E03BCD0630110569F00730110573
:1024900009F075CC8CE190E0909334028093330284
:1024A00080EF91E02BCD8BE190E09093340280930C
:1024B000330280E092E022CD81E090E090933702F9
:1024C000809336028DE190E0909334028093330242
:1024D0008BED91E013CD10923702109236028DE110
:1024E00090E0909334028093330289EC91E006CD22
:1024F000809132028823D1F10E947A0700912E0246
:1025000010912F022091300230913102AB01BC01B9
:10251000401B510B620B730B4E3151056105710568
:1025200068F01092320210922D0261E086E00E9463
:10253000BB0361E085E00E94BB0321CCA0912C028B
:102540001091020175016401C41AD50AE60AF70A5E
:10255000A7019601B0E00E948A16A50194010E948D
:102560009516B901812F0E941A0409CC80912B0283
:1025700081110BC08091290290912A02892B29F4A4
:1025800080912D02882309F4C2C010922802809104
:10259000220290914102911161C381112EC180915B
:1025A0002102811177C380912002811173C3809130
:1025B0001F028111E4CB0E94CC0690933C028093D1
:1025C0003B0280912B028823B9F180911602882367
:1025D00099F180913302909134020A9769F1109237
:1025E00016020E949703892B09F067C1809115029A
:1025F000811112C0809114028F5F80931402833086
:10260000C8F089E1809315028FE095E00E942508CB
:1026100080911502882371F08150809315028111F9
:1026200009C08EED94E00E9425080E94DA0C8FE02C
:10263000809313020E943E0A80911302882361F066
:1026400090912D02911108C081508093130288232C
:1026500009F436C10E943E0A81E10E94770481E1BB
:102660000E9477049C01A5E6BFEF0E94E016A3013B
:1026700092010E946B1621503F4F4F4F5F4F2093A6
:10268000120280E10E94770480E10E9477049C019D
:10269000A5E6BFEF0E94E016A30192010E946B160F
:1026A00069017A018FEFC80ED11CE11CF11CC092A8
:1026B0001102E0913B02F0913C0280912B022091AB
:1026C000390230913A02E217F30709F4FFC1F0939F
:1026D0003A02E0933902882309F4F7C0359749F4A8
:1026E00090912802911105C1882309F4FFC00E942E
:1026F000DA0C0091290210912A020130110509F02B
:10270000A8C26091120270E0809108022CCF8FE085
:102710000E9477048FE00E947704209128028F3D69
:1027200093400CF443C0211112C081E08093280231
:102730000E947A07609324027093250280932602F8
:102740009093270289E995E00E94250820CF0E94F6
:102750007A070091240210912502209126023091DF
:102760002702601B710B820B930B683B7B4081053A
:10277000910508F40CCF81E090E0909337028093AC
:102780003602109223021092280210923A021092FE
:10279000390210923C0210923B0288E290E0909342
:1027A0003402809333028BE795E0A8CB222309F40F
:1027B000EECE0E947A07009124021091250220910A
:1027C0002602309127026B017C01C01AD10AE20A6D
:1027D000F30A80E695E00E9403064AE0C701B601CD
:1027E0000E94CF0780E595E00E94250810922802FC
:1027F00010923A0210923902CACE8FE00E947704FA
:102800008FE00E9477048C010E94CC0690933C02DA
:1028100080933B020F3D134014F4059741F485E388
:1028200095E00E9425081092220281E08CCC0E9443
:102830007A07009117021091180220911902309125
:102840001A02601B710B820B930B613D7B4F814021
:10285000910508F494CAB5CC8730910591F008979A
:1028600009F018C222E1E22EF12CF0923402E0923B
:10287000330210C280E190E09093340280933302DF
:1028800009C231E1C32ED12CD0923402C09233025E
:1028900001C23092340220923302FCC1873091058C
:1028A00009F4D0CC089709F4B9CC69CA22E230E027
:1028B000309334022093330262CA10921402A8CEDD
:1028C0008AEC94E00E942508C7CE3197E830F105E4
:1028D00008F00FCFE259FB4E0C94DA167E149714D1
:1028E000A214C914701303151A154F150E949C08E1
:1028F00000CF87EA94E00E942508FBCE80910F026A
:10290000909110028230910579F0992701960E94EA
:10291000F40880910F0290911002992702969093EB
:10292000340280933302E5CE90E080E0F0CF9091C6
:102930000E0281E089270E94240980910E0290E016
:102940000696EDCF8091290290912A02019711F409
:102950000E94CE0C8FEF9FEF90932A028093290262
:1029600083E994E00E940306809112020E944F09BD
:102970000E94650385E08093080270E060E086E0D5
:102980000E941A046091120270E085E00E941A040D
:10299000B0CE8091290290912A02892B89F58091ED
:1029A0002D0281112DC087E894E00E9403068C2D32
:1029B0000E944F091092320285E08093020111E0DB
:1029C00010932D021092FB011092FC011092FD0158
:1029D0001092FE010E9465031CBB66E085E00E9428
:1029E0003D071CBB8DE897E09093040180930301A1
:1029F000809169008C7F826080936900E89A79CE2B
:102A000084E794E078CF8091290290912A02892B63
:102A100071F480912D0281110AC088E694E00E9431
:102A200003068C2D0E944F090E943E0A62CE85E566
:102A300094E061CF8091290290912A02019611F4CD
:102A40000E94CE0C81E090E090932A0280932902AC
:102A50000E9497030197F9F40E947A0760930A0293
:102A600070930B0280930C0290930D0281E494E02A
:102A70000E940306809112020E944F090E94650382
:102A800086E0809308026091120270E00E941A04AE
:102A900070E060E07ACF60E070E0CB01DFCF809142
:102AA0000E028093090281E080932B02109215029E
:102AB000109214021092130289E090E09093340275
:102AC0008093330281E00E94240913CE811111CE3C
:102AD00084E10E94770484E10E94770484E10E94EB
:102AE00077042091000130910101281B390B37FF39
:102AF00003C031952195310928303105CCF09093F0
:102B000000028093FF01909301018093000182ED08
:102B100093E00E9403068091FF01909100020E94C1
:102B2000E8089BE0C92ED12CD0923402C092330227
:102B3000F0900702F09206020E94970321E00097AE
:102B400009F420E0209307020091290210912A0243
:102B5000892B09F057C0FF2069F00E947A07609323
:102B6000010270930202809303029093040281E0B9
:102B70008093050280910502882309F4BACD0E9452
:102B80007A07C0900102D0900202E0900302F09018
:102B900004026C197D098E099F09643F714081050B
:102BA000910508F4A6CD85E194E00F3F1007E9F008
:102BB00001301105F1F4C0900A02D0900B02E090B0
:102BC0000C02F0900D02C114D104E104F10489F06B
:102BD0000E947A076C197D098E099F096033754739
:102BE0008105910530F089EE93E00E9425080E944E
:102BF0009C088CE090E09093340280933302109212
:102C0000050277CD109205020130110501F5809182
:102C10000A0290910B02A0910C02B0910D02892B37
:102C20008A2B8B2B51F40E947A0760930A027093CF
:102C30000B0280930C0290930D02F11062CD8DE097
:102C4000C82ED12CD0923402C092330252CDFF2034
:102C5000B1F30F3F1F4F09F092C853CD8111CDCD75
:102C60000E94CC0690933C0280933B022091390253
:102C700030913A028217930769F090933A02809359
:102C800039028530910509F404CE08F0E5CD0397AB
:102C900009F4F0CD80912002882309F470C80E94C5
:102CA000CC0690933C0280933B02209139023091F4
:102CB0003A028217930709F462C890933A0280930C
:102CC00039028530910509F4F1CD08F0E7CD03977D
:102CD00009F49ACA54C8052E97FB1EF400940E946A
:102CE000821657FD07D00E94951607FC03D04EF4BC
:102CF0000C94821650954095309521953F4F4F4F3B
:102D00005F4F089590958095709561957F4F8F4F97
:102D10009F4F08950E94B716A59F900DB49F900DE8
:102D2000A49F800D911D11240895A1E21A2EAA1BC3
:102D3000BB1BFD010DC0AA1FBB1FEE1FFF1FA2176B
:102D4000B307E407F50720F0A21BB30BE40BF50B68
:102D5000661F771F881F991F1A9469F760957095F1
:102D6000809590959B01AC01BD01CF010895A29F74
:102D7000B001B39FC001A39F700D811D1124911D4F
:102D8000B29F700D811D1124911D0895AA1BBB1BBC
:102D900051E107C0AA1FBB1FA617B70710F0A61B5B
:102DA000B70B881F991F5A95A9F780959095BC017C
:102DB000CD010895EE0FFF1F0590F491E02D0994C9
:102DC0000E94B716332312F48A1B9B0B0C94EA164D
:102DD0000E94B716B7FF0895821B930B0895F894CD
:022DE000FFCF23
:102DE2009CFF066D036D0345464748494A4B4C4DCF
:102DF2004E4F50515253CA03890348030703C60278
:102E0200850244020302C20181014001FF00BE00AB
:102E12007D003C0000000000B605160543051E06B5
:102E220074055205660500000000B806AD06C90625
:0C2E32008306A606930684060D0A000025
:00000001FF
