:100000000C943B030C94E90A0C94C20A0C9463030D
:100010000C9463030C9463030C9463030C946303C8
:100020000C9463030C9463030C9463030C946303B8
:100030000C9463030C9463030C9463030C946303A8
:100040000C94780A0C9463030C94360B0C94100BEC
:100050000C9463030C9463030C9463030C94630388
:100060000C94680B0C9463034D6F746F723A2053B9
:10007000746F70002842726965666C792E2E2E2985
:10008000004C616D70206D6F64653A2000696E00F0
:100090006F7574002E2054656C6C696E6720526118
:1000A00073706920746F207A6F6F6D20005A6F6FC4
:1000B0006D206D6F64653A200043757272656E74D1
:1000C000204578706F737572652053657474696E1E
:1000D000673A200043757272656E742046696C6DD4
:1000E000206C6F61642073746174653A20005363FF
:1000F000616E2072656A6563746564206279205060
:1001000069004D656E753A206578697420286672BD
:100110006F6D20506929004D656E753A20626163EC
:100120006B20746F206D61696E202866726F6D2080
:10013000506929002C207461726765744D6F646585
:100140003D00546172676574206D656E753A20726A
:10015000652D656E746572202866726F6D2050691A
:10016000292C206D656E7553746174653D00546172
:10017000726765743A20656E746572696E67206D8A
:10018000656E75206D6F64652066697273740057C3
:10019000694669206D656E753A206578697400540A
:1001A0006172676574206D656E753A206578697453
:1001B00000415742206D656E753A2065786974007C
:1001C00053656E64696E67206E6577204578706F41
:1001D000737572652054696D652076616C75652E46
:1001E000005265762E20005265762E204420286627
:1001F0006C6F6174696E67290020574452463D0058
:1002000020424F52463D002045585452463D002062
:10021000504F52463D00424F4F54204D435553528C
:100220003D307800556E706169723A206578697466
:10023000206D656E7500556E706169723A2062615D
:10024000636B20746F206D656E7500556E7061690B
:10025000723A20636F6E6669726D00556E706169E7
:10026000723A206E65787400556E706169723A203A
:1002700070726576004C6F67733A206261636B2021
:10028000746F206D656E7500576946693A20657810
:100290006974206D656E7500576946693A20636F11
:1002A0006E6669726D00576946693A206E657874AA
:1002B00000576946693A2070726576005769466949
:1002C0003A206261636B20746F206D656E75005417
:1002D00061726765743A2065786974206D656E7522
:1002E000005461726765743A20636F6E6669726D5F
:1002F000005461726765743A206E657874005461C9
:10030000726765743A207072657600546172676531
:10031000743A206261636B20746F206D656E7500A6
:100320004157423A2065786974206D656E750041C9
:1003300057423A206261636B20746F206D656E7561
:100340000050616972696E673A206261636B207464
:100350006F206D656E750050616972696E67206D02
:100360006F64653A2073746F702070726573736583
:1003700064005570646174653A2065786974206D15
:10038000656E75005570646174653A20636F6E66C2
:1003900069726D005570646174653A206E65787499
:1003A000005570646174653A20707265760055700E
:1003B000646174653A206261636B20746F206D65BF
:1003C0006E75004D656E753A2065786974004D65EF
:1003D0006E753A20656E746572696E672069746522
:1003E0006D20004D656E753A2073656C65637465AC
:1003F00064206974656D20004D656E753A207365E3
:100400006C6563746564206974656D200020746F89
:1004100020004D656E753A20627574746F6E2063AE
:1004200068616E6765642066726F6D200046696C56
:100430006D20656E64656420647572696E67206303
:100440006F6E74696E756F75732072756E202D20D6
:1004500073746F7070696E670046696C6D20656EAD
:1004600064656420647572696E6720636F6E746979
:100470006E756F75732072756E202D2073746F709A
:1004800070696E67004E6577204578706F7375727E
:10049000652053657474696E673A20004D6F746F00
:1004A000723A203E3E2061742053706565642000DE
:1004B0004D6F746F72206E6F742073746F707065FF
:1004C000642E003E20617420537065656420004DE9
:1004D0006F746F72206E6F742073746F70706564C8
:1004E0002E003C20617420537065656420004D6FC0
:1004F000746F723A203C3C206174205370656564CF
:10050000200053544F503A2069676E6F72696E67CE
:1005100020286C6F6E672D70726573732074696D1F
:10052000696E67290046696C6D20656A6563742091
:10053000636F6D706C6574650045787472612066D8
:1005400072616D657320646F6E65202D2073746F0A
:100550007070696E67207363616E2C20656A6563D5
:1005600074696E672066696C6D0046696C6D206504
:100570006E646564202D207363616E6E696E672002
:100580003235206578747261206672616D65730022
:1005900050616972696E67206D6F64653A2073748B
:1005A0006F70207072657373656400206D7320280E
:1005B000746F6F2073686F727429004D656E753AA1
:1005C0002053544F502072656C65617365642061DF
:1005D0006674657220004D656E753A20656E7465AF
:1005E0007220286C6F6E672070726573732053548D
:1005F0004F5029004D656E753A2053544F5020627C
:100600007574746F6E20707265737365642C2074DA
:10061000696D696E672E2E2E0000000000240027F1
:10062000002A0000000000250028002B0000000028
:100630000023002600290004040404040404040226
:10064000020202020203030303030301020408106F
:10065000204080010204081020010204081020003C
:100660000000080002010000030407000000000071
:1006700000000000930C11241FBECFEFD8E0DEBFB6
:10068000CDBF11E0A0E0B1E0E4E0FCE202C00590E3
:100690000D92AA35B107D9F722E0AAE5B1E001C071
:1006A0001D92A63EB207E1F713E0CBE3D3E004C00E
:1006B0002197FE010E94D715CA33D107C9F70E94BE
:1006C000CC0C0C9400160C940000833081F028F4BC
:1006D000813099F08230A9F008958730A9F08830F0
:1006E000C9F08430B1F4809180008F7D03C0809187
:1006F00080008F7780938000089584B58F7784BDC4
:10070000089584B58F7DFBCF8091B0008F77809363
:10071000B00008958091B0008F7DF9CFCF93DF9323
:10072000E2E6F6E08491EEE4F6E0D491EAE3F6E066
:10073000C491CC23A1F081110E946503EC2FF0E05D
:10074000EE0FFF1FE35DF94FA591B491EC91ED23FE
:1007500081E090E009F480E0DF91CF91089580E09E
:1007600090E0FACF1F93CF93DF93282F30E0F90169
:10077000E15AF94F8491F901E55BF94FD491F90100
:10078000E95CF94FC491CC23A9F0162F81110E9486
:100790006503EC2FF0E0EE0FFF1FED5DF94FA59123
:1007A000B4918FB7F894EC91111108C0D095DE2365
:1007B000DC938FBFDF91CF911F910895DE2BF8CF8F
:1007C000CF93DF9390E0FC01E55BF94F2491895CC6
:1007D000994FFC0184918823D1F090E0880F991FF4
:1007E000FC01E75EF94FA591B491FC01ED5DF94F75
:1007F000C591D49161110EC09FB7F8948C91E22FEE
:10080000E0958E238C932881E223E8839FBFDF91BC
:10081000CF9108958FB7F894EC91E22BEC938FBFB2
:10082000F6CF1F93CF93DF93182FEB0161E00E9467
:10083000E003209739F460E0812FDF91CF911F9181
:100840000C94B203CF3FD10511F461E0F5CFE12F55
:10085000F0E0E15AF94FE491E33031F140F4E13056
:10086000B1F0E230E1F0C038D1057CF7E4CFE730F9
:1008700029F1E83059F1E430B1F7809180008062CD
:1008800080938000D0938B00C0938A0004C084B50D
:10089000806884BDC7BDDF91CF911F91089584B555
:1008A000806284BDC8BDF7CF80918000806880934E
:1008B0008000D0938900C0938800EDCF8091B00074
:1008C00080688093B000C093B300E5CF8091B00002
:1008D00080628093B000C093B400DDCF8E508064FE
:1008E00080937C0080917A00806480937A0080916C
:1008F0007A0086FDFCCF8091780090917900089570
:100900003FB7F8948091390290913A02A0913B024E
:10091000B0913C0226B5A89B05C02F3F19F0019667
:10092000A11DB11D3FBFBA2FA92F982F8827BC0149
:10093000CD01620F711D811D911D43E0660F771F70
:10094000881F991F4A95D1F708958F929F92AF9271
:10095000BF92CF92DF92EF92FF924B015C010E9417
:1009600080046B017C010E9480046C197D098E0952
:100970009F09683E734081059105A8F321E0821A22
:100980009108A108B10888EEC80E83E0D81EE11CCA
:10099000F11C81149104A104B10429F7FF90EF9098
:1009A000DF90CF90BF90AF909F908F9008952FB71A
:1009B000F8946091350270913602809137029091DF
:1009C00038022FBF08950895109227021092260230
:1009D0001092040210920502109206021092070271
:1009E0001092250261E086E00E94B20361E085E09A
:1009F0000C94B203E091F601F091F701309729F0E1
:100A00001092F1011092F00109940895CF93DF93B1
:100A1000AC01E091F401F091F5013097F1F0909183
:100A2000F3018091F2019817C0F090E0292F30E097
:100A30002617370754F4D901A45ABE4F240F351F87
:100A4000E90128812C939F5FF1CF1092F30160930D
:100A5000F201CB01DF91CF910994DF91CF910895FD
:100A6000AF92BF92CF92DF92EF92FF920F931F93BC
:100A7000CF93DF936C017B018B01040F151FEB01FA
:100A80005E01AE18BF08C017D10759F06991D601B1
:100A9000ED91FC910190F081E02DC6010995892B23
:100AA00079F7C501DF91CF911F910F91FF90EF90E2
:100AB000DF90CF90BF90AF900895FC01538D448D8F
:100AC000252F30E0842F90E0821B930B541710F0F9
:100AD000CF96089501970895FC01918D828D981706
:100AE00061F0A28DAE0FBF2FB11D5D968C91928DDE
:100AF0009F5F9F73928F90E008958FEF9FEF08950F
:100B0000FC01918D828D981731F0828DE80FF11DD7
:100B1000858D90E008958FEF9FEF0895FC01918DF2
:100B2000228D892F90E0805C9F4F821B91098F73EB
:100B3000992708958DE392E00E948E0521E0892B8C
:100B400009F420E0822F089580E090E0892B29F0BD
:100B50000E949A0581110C9400000895FC01A48D57
:100B6000A80FB92FB11DA35ABF4F2C91848D90E0CF
:100B700001968F739927848FA689B7892C93A089B2
:100B8000B1898C91837080648C93938D848D98133C
:100B900006C00288F389E02D80818F7D80830895CF
:100BA000EF92FF920F931F93CF93DF93EC0181E0BD
:100BB000888F9B8D8C8D98131AC0E889F989808164
:100BC00085FF15C09FB7F894EE89FF896083E88997
:100BD000F98980818370806480839FBF81E090E089
:100BE000DF91CF911F910F91FF90EF900895F62E16
:100BF0000B8D10E00F5F1F4F0F731127E02E8C8DB0
:100C00008E110CC00FB607FCFACFE889F9898081F4
:100C100085FFF5CFCE010E94AE05F1CFEB8DEC0F35
:100C2000FD2FF11DE35AFF4FF0829FB7F8940B8F11
:100C3000EA89FB8980818062CFCF0F931F93CF9386
:100C4000DF938C01D0E0C0E0F801EC0FFD1F649150
:100C5000662341F08DE392E00E94D005892B11F0CC
:100C60002196F2CFCE01DF91CF911F910F91089580
:100C7000CF93DF93EC01888D8823B9F0AA89BB89D3
:100C8000E889F9898C9185FD03C0808186FD0DC0BE
:100C90000FB607FCF7CF8C9185FFF2CF808185FFDF
:100CA000EDCFCE010E94AE05E9CFDF91CF9108953F
:100CB0002091A201260F3327331F21323105ECF496
:100CC0002091C601FC0190E080E0243069F082E0D0
:100CD0000895A091A2012191AC014E575E4FA40F3F
:100CE000B52FB11D2C930196861798F38091A20120
:100CF000680F6093A20180E0089581E0089510924A
:100D0000C60181E08093C8011092C70161E082E1D1
:100D10000E94B20361E083E10E94B203E9EBF0E0DC
:100D200080818E7F808380818D7F808380E280932D
:100D3000B80085E48093BC0008950895E091F30124
:100D40008091F201E81730F4F0E0E45AFE4F808120
:100D500090E008958FEF9FEF08959091F3018091B7
:100D6000F2012FEF3FEF981748F4E92FF0E0E45A33
:100D7000FE4F208130E09F5F9093F301C9010895F9
:100D80008091F2019091F301891B990B0895CF9303
:100D9000DF93CB01EA01642F0E945806CE01DF9158
:100DA000CF910895CF93DF931F92CDB7DEB76983BC
:100DB00061E0CE0101960E94580681E090E00F901C
:100DC000DF91CF91089590E080E008950F931F93F5
:100DD000CF93DF938EE00E946E048EE00E946E043B
:100DE0008C018FE00E946E048FE00E946E04EC0183
:100DF0006AE070E080E090E00E94A50420915A0132
:100E0000222369F1023011052CF490E080E0C23019
:100E1000D10574F1C8014F978732910508F444C099
:100E20008A5591098732910550F18A5A910987971D
:100E300048F10F3D83E0180744F5CE014F97873204
:100E4000910530F18A5591098732910520F18A5A2E
:100E50009109879718F1CF3D83E0D80714F590E00A
:100E600080E0023011051CF421E022970CF020E014
:100E700020935A01DF91CF911F910F91089583E044
:100E800090E0EFCF81E090E0ECCF82E090E0E9CF1E
:100E900088E090E0E6CF87E090E0E3CF86E090E066
:100EA000E0CF85E090E0DDCF84E090E0E0CF8F926E
:100EB0009F92AF92BF920F931F93CF93DF93CDB7C3
:100EC000DEB7A1970FB6F894DEBF0FBECDBF19A253
:100ED000423008F44AE08E010F5D1F4F842E912CA2
:100EE000B12CA12CA50194010E949215E62FB90105
:100EF000CA01EA3044F5E05DD801EE938D01232B61
:100F0000242B252B79F790E080E0109769F0FD0104
:100F100001900020E9F73197AF014A1B5B0BBD013F
:100F20008DE392E00E943005A1960FB6F894DEBFE3
:100F30000FBECDBFDF91CF911F910F91BF90AF90AA
:100F40009F908F900895E95CD7CF42E050E067E52D
:100F500071E08DE392E00C943005CF93DF930E9413
:100F60001D06EC010E94A5078C0F9D1FDF91CF91FC
:100F700008950F931F93CF93DF93C0911D02D091DB
:100F80001E026C2F8AED92E00E94D2068091190217
:100F90008823A9F00E94D70400911502109116022F
:100FA0002091170230911802601B710B820B930B7A
:100FB000693873418105910510F010921902CB3008
:100FC000D105E1F480EC91E00E94AD0742E050E0F1
:100FD00061E072E08AED92E00E94C70680911902FA
:100FE0008823F1F0C631D105D9F4D0931E02C09305
:100FF0001D02DF91CF911F910F910895CE30D10541
:1010000069F742E050E061E072E08AED92E00E9410
:10101000C70660915B018AED92E00E94D206DECFA6
:10102000639769F48091290290912A02892B39F4FF
:1010300089E290E090931E0280931D02DACF109215
:101040001E0210921D02D5CF109227021092260286
:1010500010920402109205021092060210920702EA
:101060001092250288E690E00E94AD0761E086E0DC
:101070000E94B20361E085E00C94B203CF92DF924C
:10108000EF92FF92CF93DF936C01990FEE08FF0868
:10109000F7FE19C06DE28DE392E00E94D005EC01ED
:1010A00066277727CB016C197D098E099F094AE0D5
:1010B0000E9457078C0F9D1FDF91CF91FF90EF90FB
:1010C000DF90CF9008954AE0C701B601DF91CF913C
:1010D000FF90EF90DF90CF900C945707CF93DF9362
:1010E0000E943E08EC010E94A5078C0F9D1FDF9116
:1010F000CF910895CF93DF932091090230910A0296
:101100002817390721F1EC01892B19F081E00E94A1
:10111000AA08D0930A02C09309028DEA90E00E94C7
:101120001D06CE010E943E0884E990E00E941D0643
:101130008091090290910A02892B31F08DE890E0AC
:10114000DF91CF910C94AD0780E990E0F9CFDF916A
:10115000CF910895CF9390910802981721F1C82F4D
:10116000811104C090E080E00E947A08C0930802D8
:1011700081E890E00E941D068C2F90E00E946E088E
:1011800080910802882349F061E088E00E94B20360
:1011900061E089E0CF910C94B20360E088E00E94A6
:1011A000B20360E0F6CFCF9108951092280210921A
:1011B000100280E00E94AA0810920A02109209020E
:1011C0008AE090E090931E0280931D020895CF93D1
:1011D000DF93682F70E090E080E04AE00E945707BC
:1011E000EC010E94A5078C0F9D1FDF91CF91089500
:1011F000CF93892BE1F09091F2018091F301981740
:1012000031F08AED92E00E94AD06282FF4CF25310F
:1012100081F410921C0281E090E090932A02809366
:10122000290210921E0210921D0210921902CF91F3
:101230000895283169F410921B0281E090E09093A8
:101240002A028093290210921E0210921D02EFCFF3
:10125000233889F410921A0281E090E090932A02D8
:101260008093290210921E0210921D0281EB91E0E0
:101270000E94AD07DCCF243879F41092F90181E0A7
:1012800090E090932A028093290210921E021092FD
:101290001D028FE991E0ECCF263879F41092F80125
:1012A00081E090E090932A028093290210921E021E
:1012B00010921D028FE891E0DBCF2538C9F58091AF
:1012C000290290912A02892B51F481E090E09093B9
:1012D0002A02809329028EE691E00E94AD0781E008
:1012E0008093F90185E090E090932A02809329028F
:1012F00010921E0210921D020E94E60690932E028A
:1013000080932D0290932C0280932B0282E491E033
:101310000E941D0685E090E00E943E0884E391E073
:101320000E941D068091F90190E0CF910C946E0807
:10133000293251F58091290290912A020297C8F032
:1013400081E090E090932A02809329021092330268
:1013500010921C0210921A021092F90110921B02B4
:1013600010921E0210921D0287E191E0CF910C9421
:10137000AD0710922A021092290210921E021092BA
:101380001D0282E091E0F2CF273851F480912802CB
:10139000882309F44CCF0E94D5088EEE90E0E6CF6A
:1013A000203849F480912802882309F440CF81E055
:1013B000809310023CCF213809F039CF0E948E0370
:1013C000C82F80935B0184E10E946E0484E10E9437
:1013D0006E04909302028093010284ED90E00E94DB
:1013E0001D068C2F0E94E70889EB90E00E941D06E5
:1013F00080910102909102020E946E088EE090E0BE
:1014000090931E0280931D0212CF81E080932502EB
:101410008CBB84EE94E09093030180930201E9E693
:10142000F0E080818C7F82608083E89A60910B027B
:1014300070E086E00E94110470E060E085E00C94AA
:101440001104CF93DF9385ED8093BC0080917E01E2
:1014500090917F01A0918001B09181010796A11D1B
:10146000B11D23E0B695A795979587952A95D1F755
:101470002091BC0024FD03C01092C60136C04091EB
:101480007E0150917F016091800170918101452B17
:10149000462B472B69F30097A105B10541F025E1E3
:1014A0002A95F1F700000197A109B109E1CF8091D8
:1014B0007D0191E090937C018823B9F0C091B80040
:1014C000D091BA008091BC008A7B8093BC0060E020
:1014D00082E10E94B20360E083E10E94B2030E94B5
:1014E0007F06D093BA00C093B800DF91CF910895E2
:1014F0001F920F920FB60F9211242F933F938F9349
:101500009F93AF93BF938091350290913602A09143
:101510003702B09138023091340226E0230F2D3784
:1015200058F50296A11DB11D209334028093350217
:1015300090933602A0933702B0933802809139021B
:1015400090913A02A0913B02B0913C020196A11DFC
:10155000B11D8093390290933A02A0933B02B0935D
:101560003C02BF91AF919F918F913F912F910F902E
:101570000FBE0F901F90189529E8230F0396A11D09
:10158000B11DD2CF1F920F920FB60F9211242F933D
:101590003F934F935F936F937F938F939F93AF93FB
:1015A000BF93EF93FF93E0910401F091050109953A
:1015B000FF91EF91BF91AF919F918F917F916F912B
:1015C0005F914F913F912F910F900FBE0F901F9001
:1015D00018951F920F920FB60F9211242F933F93DD
:1015E0004F935F936F937F938F939F93AF93BF932B
:1015F000EF93FF93E0910201F09103010995FF91B0
:10160000EF91BF91AF919F918F917F916F915F917A
:101610004F913F912F910F900FBE0F901F901895F3
:101620001F920F920FB60F9211242F933F934F9357
:101630005F936F937F938F939F93AF93BF93EF933A
:10164000FF938DE392E00E94AE05FF91EF91BF9171
:10165000AF919F918F917F916F915F914F913F914A
:101660002F910F900FBE0F901F9018951F920F9201
:101670000FB60F9211242F938F939F93EF93FF93A5
:10168000E0914D02F0914E028081E0915302F09181
:10169000540282FD1BC09081809156028F5F8F7330
:1016A00020915702821741F0E0915602F0E0E35C8E
:1016B000FD4F958F80935602FF91EF919F918F91EF
:1016C0002F910F900FBE0F901F9018958081F4CF2F
:1016D0001F920F920FB60F9211242F933F934F93A7
:1016E0005F936F937F938F939F93AF93BF93EF938A
:1016F000FF938091B900887F803609F44AC0F0F5E5
:10170000883209F4A7C018F5803109F49BC0B8F4F9
:10171000882309F4F9C0883009F494C0FF91EF914F
:10172000BF91AF919F918F917F916F915F914F91F9
:101730003F912F910F900FBE0F901F9018958831F9
:1017400009F488C0803251F78093C50114C08034F9
:1017500009F49DC040F48033B9F38833F9F68093DF
:10176000C50185ECB0C0803509F485C0883509F421
:1017700096C0883499F60E94210AD0CF883909F49E
:101780008CC038F5883729F050F4883611F080374E
:1017900029F683E08093C6011092C40157C08838AF
:1017A00009F47BC0803919F0803809F0B7CF8091F7
:1017B000C401803208F071C0E091C40181E08E0F55
:1017C0008093C4018091BB00F0E0EC55FE4F808314
:1017D0003DC0803B39F0E0F4803A09F479C0883AA2
:1017E00009F09CCF84E08093C6011092A30110926F
:1017F000A201E091EE01F091EF0109958091A20123
:1018000081110FC081E08093A2011092820109C072
:10181000803C09F4A6CF883C09F4A3CF883B09F0AB
:101820007DCFE091A30181E08E0F8093A301F0E0D2
:10183000EE57FE4F80818093BB009091A301809171
:10184000A20129C08091EB018093BB0085EC8093BD
:10185000BC0064CF9091EA018091E901981758F596
:10186000E091EA0181E08E0F8093EA01F0E0E75316
:10187000FE4F8081E9CFE091EA0181E08E0F8093F5
:10188000EA018091BB00F0E0E753FE4F8083909126
:10189000EA018091E9019817C8F285E8D8CFE09174
:1018A000EA0181E08E0F8093EA018091BB00F0E0B5
:1018B000E753FE4F80838091C80181115CCF81E0A6
:1018C0008093C70184EA8093BC001092C60126CFA2
:1018D00085EC8093BC001092C6018091C4018032D7
:1018E00030F4E091C401F0E0EC55FE4F10826091BD
:1018F000C40170E0E091EC01F091ED0184EA91E027
:1019000009951092C4010ACF1092C50134CF0E94EC
:10191000240884E790E00E94AD076AEF70E080E061
:1019200090E00C94A504EDE3F2E01382128288EEBD
:1019300093E0A0E0B0E084839583A683B78327E398
:1019400031E03183208325EC30E03587248724EC97
:1019500030E03787268720EC30E0318B208B21EC7C
:1019600030E0338B228B22EC30E0358B248B26EC5D
:1019700030E0378B268B118E128E138E148EEAED8B
:10198000F2E01382128284839583A683B78389E46D
:1019900091E0918380830895CF93DF93CDB7DEB735
:1019A0002F970FB6F894DEBF0FBECDBF789484B5E5
:1019B000826084BD84B5816084BD85B5826085BD4B
:1019C00085B5816085BD80916E00816080936E00D9
:1019D00010928100809181008260809381008091CB
:1019E000810081608093810080918000816080937C
:1019F00080008091B10084608093B1008091B0003C
:101A000081608093B00080917A00846080937A0036
:101A100080917A00826080937A0080917A008E7F34
:101A200080937A0080917A00806880937A00109287
:101A3000C100F4B614BE61E089E00E94E00360E0FA
:101A400089E00E94B203E0914D02F0914E0282E0E3
:101A50008083E0914902F0914A021082E0914B02AA
:101A6000F0914C0288E0808310925502E09151027F
:101A7000F091520286E08083E0914F02F091500293
:101A8000808180618083E0914F02F09150028081DB
:101A900088608083E0914F02F091500280818068DD
:101AA0008083E0914F02F091500280818F7D80838E
:101AB00086E192E00E941D066F2D70E090E080E0CC
:101AC00040E10E9457078FE092E00E941D068F2D93
:101AD000817090E00E943E0887E092E00E941D061F
:101AE000F1FA882780F990E00E943E0880E092E0B9
:101AF0000E941D06F2FA882780F990E00E943E08B5
:101B000089EF91E00E941D06F3FA882780F990E0A2
:101B10000E946E0860E08EE00E94E00360E08FE0CB
:101B20000E94E00360E080E10E94E00360E081E168
:101B30000E94E00360E084E10E94E00361E088E04D
:101B40000E94E00361E086E00E94E00361E085E03E
:101B50000E94E00360E082E00E94E00360E083E036
:101B60000E94E00360E085E10E94E0030E948E0392
:101B700021E0892B09F420E0209300022093FF014B
:101B80000E94D704605E7C4F8F4F9F4F60932F025F
:101B900070933002809331029093320270E060E0E3
:101BA00086E00E94110470E060E085E00E9411046C
:101BB00060E088E00E94B20360E089E00E94B20326
:101BC0001092F3011092F2011092F1011092F001C3
:101BD0000E947F068AEF94E09093EF018093EE01DC
:101BE00086E095E09093ED018093EC0184E580938D
:101BF000BA0088EF98E09093F5018093F40189EBA7
:101C000097E09093F7018093F60184E10E946E04BF
:101C100085E10E946E048C017C016C0147E0A42EDA
:101C2000B12C85E10E946E0485E10E946E04080FCC
:101C3000191F8C159D050CF46C01E816F9060CF4BF
:101C40007C0121E0A21AB10861F717FF02C0095F09
:101C50001F4F33E0159507953A95E1F7EC18FD080D
:101C600039E7E316F104CCF187EE91E00E94AD076D
:101C700088248A9493E0992EA12CB12C22E2622E22
:101C8000712CEE24E394F12C50903302511053C088
:101C90000E94D70400912F0210913002209131024E
:101CA00030913202601771078207930708F043C032
:101CB0000E94E60690932E0280932D0290932C02B0
:101CC00080932B0280E090E0892BF1F20E949A052C
:101CD0008823B9F20E940000D4CF8FE0E6E0F1E063
:101CE000DE01119601900D928A95E1F7E7E1F1E0AE
:101CF00090E080E07C012FEFE21AF20A219131910D
:101D00000217130714F07C0104C0C7018E3091053F
:101D100089F781EE91E00E941D06E1E0F0E0EC0F12
:101D2000FD1FEE0DFF1D60818DE392E00E94D00546
:101D30000E94A5079DCFC0902902D0902A02C1140D
:101D4000D10409F427C30E94E6068C0190932E0269
:101D500080932D0231E0C316D10409F0E4C0C09095
:101D60002B02D0902C028C159D0509F4ABCF82E19B
:101D700094E00E941D06C6010E943E088DE094E09A
:101D80000E941D0680912D0290912E020E946E08E5
:101D900080912D0290912E0290932C0280932B0221
:101DA00084309105A1F190F4039709F08BCF109244
:101DB0002A021092290289E290E090931E028093F9
:101DC0001D0283EC93E00E94AD077CCF8630910525
:101DD000B9F1079709F076CF8EEC93E00E941D06CB
:101DE00080911F020E94E708E0911F028CE290E0C0
:101DF000E73008F044C0F0E0E050F14F0C94D71504
:101E0000340F440F5A0F660F720F7E0F8A0F8091A6
:101E10001F0290E0069667E070E00E94C315182F3D
:101E200080931F028AE290E090931E0280931D022D
:101E300088EF93E00E941D06812F0E94E70842CFA1
:101E400080911F0290E0019667E070E00E94C31548
:101E5000182F80931F028BE290E090931E028093D4
:101E60001D0283EE93E0E6CF82E090E090932A0299
:101E70008093290281E0809333028FE090E0909379
:101E80001E0280931D021ECF83E090E090932A02F1
:101E90008093290281E080931C020E94D704609302
:101EA000110270931202809313029093140284E142
:101EB00090E0E5CF84E090E090932A02809329029D
:101EC00081E080931A028EE190E0D9CF85E090E026
:101ED00090932A028093290281E08093F90183E2A2
:101EE00090E0CDCF86E090E090932A028093290283
:101EF00081E08093F8018DE290E0C1CF87E090E02F
:101F000090932A028093290281E080931B0287E14B
:101F100090E0B5CF88E090E090932A028093290268
:101F200089E190E0ACCF552009F457C080912B0295
:101F300090912C020817190709F4C4CE10932C02B3
:101F400000932B0205301105C9F180F4033011050F
:101F5000E9F00430110509F0B5CE20E130E030930E
:101F60001E0220931D0281EA93E02DCF0630110559
:101F7000E1F00730110509F0A5CE22E130E0309301
:101F80001E0220931D0284E893E01DCFF0922A02E6
:101F9000E09229021092330283E190E090931E02B6
:101FA00080931D028EEA93E00ECF81E190E0909342
:101FB0001E0280931D0284E993E005CF10922A024D
:101FC000109229021092330283E190E090931E0256
:101FD00080931D0282E793E0F6CE80911C02882355
:101FE00009F457C08FE00E946E048FE00E946E04D7
:101FF0008F3D93401CF405301105D1F487E593E043
:102000000E94AD07F0922A02E092290210921C026F
:1020100081E0809319020E94D704609315027093A7
:102020001602809317029093180286E190E027CF62
:102030000330110579F4F0922A02E09229021092FD
:102040001C0226E130E030931E0220931D0281E441
:1020500093E0B9CE0E94D7040091110210911202B0
:102060002091130230911402601B710B820B930BB1
:10207000613D7B4F8140910508F424CEF0922A0205
:10208000E092290210921C0210921E0210921D0270
:1020900019CE80911A02882309F441C080912B0245
:1020A00090912C020817190709F40CCE10932C02FA
:1020B00000932B020530110529F150F4033011056E
:1020C00089F00430110509F0FDCD8FE190E0D7CE05
:1020D00006301105A1F00730110509F0F3CD81E2BA
:1020E00090E0CDCEF0922A02E092290210921A02DC
:1020F00070921E0260921D028FE293E064CE80E235
:1021000090E0BDCE10922A021092290210921A027B
:1021100070921E0260921D0280E293E054CE809184
:10212000F901882309F457C080912B0290912C0269
:102130000817190709F4C6CD10932C0200932B023F
:1021400005301105C9F180F403301105E9F00430C0
:10215000110509F0B7CD84E290E090931E028093C0
:102160001D028EEF92E02FCE06301105E1F0073010
:10217000110509F0A7CD86E290E090931E028093AE
:102180001D0281EE92E01FCEF0922A02E092290217
:102190001092F90187E290E090931E0280931D0255
:1021A0008BE093E010CE85E290E090931E02809346
:1021B0001D0281EF92E007CE10922A0210922902AE
:1021C0001092F90187E290E090931E0280931D0225
:1021D0008FEC92E0F8CD8091F801882309F457C084
:1021E00080912B0290912C020817190709F46ACDEF
:1021F00010932C0200932B0205301105C9F180F4D5
:1022000003301105E9F00430110509F05BCD8EE2D1
:1022100090E090931E0280931D0281EB92E0D3CD5B
:1022200006301105E1F00730110509F04BCD80E3D0
:1022300090E090931E0280931D0288E992E0C3CD46
:10224000F0922A02E09229021092F80181E390E0D4
:1022500090931E0280931D028CEB92E0B4CD8FE22E
:1022600090E090931E0280931D0286EA92E0ABCD2F
:1022700010922A02109229021092F80181E390E054
:1022800090931E0280931D0288E892E09CCD80917D
:102290001B02882339F10E94E60690932E02809358
:1022A0002D0220912B0230912C028217930709F402
:1022B00009CD90932C0280932B028330910519F065
:1022C000059709F0FFCCF0922A02E09229021092C1
:1022D0001B0288E190E090931E0280931D0285E727
:1022E00092E071CD88E0C816D10409F0EBCC809162
:1022F0002B0290912C020817190709F4E3CC1093D4
:102300002C0200932B0205301105B9F180F4033043
:10231000110531F10430110509F0D4CC8AE190E0C7
:1023200090931E0280931D0288E692E04CCD063009
:10233000110569F00730110509F0C4CC8CE190E07B
:1023400090931E0280931D028BE492E03CCD8BE1C2
:1023500090E090931E0280931D028BE592E033CDB6
:10236000F0922A02E09229028DE190E090931E0201
:1023700080931D0286E392E026CD10922A021092ED
:1023800029028DE190E090931E0280931D0284E269
:1023900092E019CD8091280281110BC08091260214
:1023A00090912702892B29F480912502882309F432
:1023B000C6C01092240280911C02909133029111A8
:1023C00055C3811130C180911B0281116BC3809173
:1023D0001A02811167C380911902811173CC0E9486
:1023E000E60690932E0280932D0280912802882386
:1023F000C9F1809110028823A9F180911D0290916A
:102400001E020A9779F1109210020E948E03892B06
:1024100009F05CC180910F02811114C080910E02FD
:102420008F5F80930E02833008F453C189E180935B
:102430000F028AE695E00E94AD0780910F02882383
:1024400009F447C1815080930F02811142C189E391
:1024500095E00E94AD070E94D5088FE080930D02A1
:102460000E94050A80910D02882361F09091250257
:10247000911108C0815080930D02882309F432C164
:102480000E94050A81E10E946E0481E10E946E04AF
:102490009C01A5E6BFEF0E94DD15A50194010E94F5
:1024A000731521503F4F4F4F5F4F20930C0280E137
:1024B0000E946E0480E10E946E049C01A5E6BFEFBD
:1024C0000E94DD15A50194010E94731519012A01CE
:1024D0008FEF280E311C411C511C20920B02E09101
:1024E0002D02F0912E028091280220912B02309132
:1024F0002C02E217F30709F4F2C1F0932C02E093E7
:102500002B02882309F4F3C0359749F490912402F3
:10251000911101C1882309F4FBC00E94D5080091E4
:102520002602109127020130110509F09AC260912C
:102530000C0270E0809103020E941104C3CB8FE073
:102540000E946E048FE00E946E04209124028F3D51
:1025500093400CF441C0211112C081E08093240209
:102560000E94D7046093200270932102809322027C
:102570009093230284EF95E00E94AD071CCF0E9448
:10258000D704009120021091210220912202309163
:102590002302601B710B820B930B683B7B40810510
:1025A000910508F408CFF0922A02E09229021092D5
:1025B0001F021092240210922C0210922B021092F1
:1025C0002E0210922D0288E290E090931E028093DA
:1025D0001D0286ED95E0F7CB222309F4ECCE0E9494
:1025E000D704009120021091210220912202309103
:1025F00023021B012C01201A310A420A530A8BEBD9
:1026000095E00E941D064AE0C201B1010E945707F1
:102610008BEA95E00E94AD071092240210922C02E2
:1026200010922B02C8CE8FE00E946E048FE00E94B1
:102630006E048C010E94E60690932E0280932D0278
:102640000F3D134014F4059729F480E995E00E94AA
:10265000AD07DCCC0E94D704009111021091120248
:102660002091130230911402601B710B820B930BAB
:10267000613D7B4F8140910508F424CB03CD873029
:10268000910569F0089709F00DC282E190E002C05F
:1026900080E190E090931E0280931D0203C221E12D
:1026A00030E030931E0220931D02FCC123E130E094
:1026B000F8CF8730910509F422CD089709F40FCDA2
:1026C00001CB70921E0260921D02FCCA10920E0293
:1026D000B4CE0E94050A85E090E090931E0280939C
:1026E0001D02C0CE85E295E00E94AD07CBCE3197AA
:1026F000E830F10508F013CFE058FC4E0C94D715E4
:102700009013A913B413E01386120D1424145C144F
:102710000E94240804CF82E095E00E94AD07FFCE1E
:102720008091090290910A028230910579F09927EF
:1027300001960E947A088091090290910A029927D5
:10274000029690931E0280931D02E9CE90E080E0F5
:10275000F0CF9091080281E089270E94AA08809119
:10276000080290E00696EDCF809126029091270214
:10277000019711F40E94870C8FEF9FEF909327022F
:10278000809326028EEE94E00E941D0680910C023A
:102790000E94E708E89883EE94E090930301809309
:1027A000020185E08093030270E060E086E00E9411
:1027B000110460910C0270E085E00E941104AFCE1C
:1027C0008091260290912702892B21F58091250284
:1027D000811120C082EE94E00E941D06822D0E948D
:1027E000E70881E0809325028CBB84EE94E090930F
:1027F000030180930201809169008C7F8260809345
:102800006900E89A70E060E086E00E94110460913F
:102810000B02D1CF8FEC94E080CF80912602909173
:102820002702892B71F48091250281110AC083EC63
:1028300094E00E941D06822D0E94E7080E94050A6E
:102840006ECE80EB94E069CF8091260290912702B2
:10285000019611F40E94870CF0922702E092260262
:102860000E948E03019721F50E94D7046093040211
:102870007093050280930602909307028CE994E01E
:102880000E941D0680910C020E94E708E89883EEE2
:1028900094E0909303018093020186E08093030209
:1028A00060910C0270E00E94110470E060E084CF3F
:1028B00060E070E0CB01DACF81E0809328021092D3
:1028C0000F0210920E0210920D0289E090E0909398
:1028D0001E0280931D0281E00E94AA0820CE811171
:1028E0001ECE84E10E946E0484E10E946E0484E1A5
:1028F0000E946E042091000130910101281B390BC8
:1029000037FF03C031952195310928303105C4F0D6
:102910009093020280930102909301018093000141
:1029200085E894E00E941D068091010290910202C8
:102930000E946E082BE030E030931E0220931D02AF
:10294000D0900002D092FF010E948E0321E00097F8
:1029500009F420E020930002009126021091270242
:10296000892B09F058C0DD2069F00E94D7046093DC
:10297000FA017093FB018093FC019093FD0181E0CB
:102980008093FE018091FE01882309F4C8CD0E9446
:10299000D7042091FA013091FB014091FC01509144
:1029A000FD01621B730B840B950B643F7140810525
:1029B000910508F4B4CD0F3F100779F489E594E050
:1029C0000E94AD070E9424088CE090E090931E02C4
:1029D00080931D021092FE01A2CD01301105A1F7D6
:1029E00020900402309005024090060250900702A9
:1029F000211431044104510439F30E94D7046219AF
:102A00007309840995096033754781059105E0F2E2
:102A10008DE294E0D5CF1092FE0101301105F9F45A
:102A20008091040290910502A0910602B0910702E4
:102A3000892B8A2B8B2B51F40E94D70460930402BC
:102A4000709305028093060290930702D1106FCD18
:102A50002DE030E030931E0220931D0260CDDD207A
:102A6000B9F30F3F1F4F09F02DC961CD8111DBCDA7
:102A70000E94E60690932E0280932D0220912B0255
:102A800030912C028217930769F090932C02809367
:102A90002B028530910509F409CE08F0F0CD03979B
:102AA00009F4F6CD80911A02882309F40BC90E941B
:102AB000E60690932E0280932D0220912B023091F6
:102AC0002C028217930709F4FDC890932C0280937F
:102AD0002B028530910509F4F4CD08F0EACD039777
:102AE00009F4F3CAEFC8052E97FB1EF400940E9468
:102AF0008A1557FD07D00E94921507FC03D04EF4AB
:102B00000C948A1550954095309521953F4F4F4F25
:102B10005F4F089590958095709561957F4F8F4F89
:102B20009F4F0895A1E21A2EAA1BBB1BFD010DC0E9
:102B3000AA1FBB1FEE1FFF1FA217B307E407F5076D
:102B400020F0A21BB30BE40BF50B661F771F881F49
:102B5000991F1A9469F760957095809590959B01DF
:102B6000AC01BD01CF010895A29FB001B39FC00188
:102B7000A39F700D811D1124911DB29F700D811DA9
:102B80001124911D089597FB072E16F4009407D089
:102B900077FD09D00E94EC1507FC05D03EF4909516
:102BA00081959F4F0895709561957F4F0895EE0F21
:102BB000FF1F0590F491E02D09940E94B415332372
:102BC00012F48A1B9B0B0C94E7150E94B415B7FFF7
:102BD0000895821B930B0895AA1BBB1B51E107C0EC
:102BE000AA1FBB1FA617B70710F0A61BB70B881F9D
:102BF000991F5A95A9F780959095BC01CD0108952C
:042C0000F894FFCF76
:102C04009CFFE304E30445464748494A4B4C4D4E78
:102C14004F50515253CA03890348030703C6028520
:102C24000244020302C20181014001FF00BE007D93
:102C3400003C0000000000D00530055D0538068E1C
:102C4400056C05800500000000D206C706E3069D5A
:0A2C540006C006AD069E060D0A003C
:00000001FF
