:100000000C943B030C94BA0A0C94930A0C9463036B
:100010000C9463030C9463030C9463030C946303C8
:100020000C9463030C9463030C9463030C946303B8
:100030000C9463030C9463030C9463030C946303A8
:100040000C94490A0C9463030C94070B0C94E10A7A
:100050000C9463030C9463030C9463030C94630388
:100060000C94390B0C9463034D6F746F723A2053E8
:10007000746F70002842726965666C792E2E2E2985
:10008000004C616D70206D6F64653A2000696E00F0
:100090006F7574002E2054656C6C696E6720526118
:1000A00073706920746F207A6F6F6D20005A6F6FC4
:1000B0006D206D6F64653A200043757272656E74D1
:1000C000204578706F737572652053657474696E1E
:1000D000673A200043757272656E742046696C6DD4
:1000E000206C6F61642073746174653A20005363FF
:1000F000616E2072656A6563746564206279205060
:1001000069004D656E753A206578697420286672BD
:100110006F6D20506929004D656E753A20626163EC
:100120006B20746F206D61696E202866726F6D2080
:100130005069290057694669206D656E753A2065DA
:1001400078697400546172676574206D656E753AE4
:10015000206578697400415742206D656E753A20BC
:10016000657869740053656E64696E67206E6577A3
:10017000204578706F737572652054696D652076BF
:10018000616C75652E005265762E20005265762EC4
:1001900020442028666C6F6174696E6729002057BF
:1001A0004452463D0020424F52463D00204558549F
:1001B00052463D0020504F52463D00424F4F542082
:1001C0004D435553523D307800556E706169723A17
:1001D0002065786974206D656E7500556E70616973
:1001E000723A206261636B20746F206D656E7500DA
:1001F000556E706169723A20636F6E6669726D0048
:10020000556E706169723A206E65787400556E7033
:100210006169723A2070726576004C6F67733A209C
:100220006261636B20746F206D656E75005769465F
:10023000693A2065786974206D656E750057694666
:10024000693A20636F6E6669726D00576946693A54
:10025000206E65787400576946693A207072657639
:1002600000576946693A206261636B20746F206DA4
:10027000656E75005461726765743A2065786974BB
:10028000206D656E75005461726765743A20636F06
:100290006E6669726D005461726765743A206E65AE
:1002A0007874005461726765743A207072657600E4
:1002B0005461726765743A206261636B20746F20C9
:1002C0006D656E75004157423A2065786974206DFE
:1002D000656E75004157423A206261636B20746F0E
:1002E000206D656E750050616972696E673A2062B3
:1002F00061636B20746F206D656E7500506169726B
:10030000696E67206D6F64653A2073746F7020703A
:10031000726573736564005570646174653A206535
:10032000786974206D656E75005570646174653A06
:1003300020636F6E6669726D005570646174653A12
:10034000206E657874005570646174653A2070722F
:100350006576005570646174653A206261636B2054
:10036000746F206D656E75004D656E753A20657809
:100370006974004D656E753A20656E746572696EBC
:1003800067206974656D20004D656E753A20736550
:100390006C6563746564206974656D20004D656EDD
:1003A000753A2073656C6563746564206974656D66
:1003B000200020746F20004D656E753A20627574C0
:1003C000746F6E206368616E6765642066726F6D1E
:1003D00020004E6577204578706F737572652053E5
:1003E000657474696E673A200046696C6D20656EAD
:1003F00064656420647572696E6720636F6E7469EA
:100400006E756F75732072756E202D2073746F700A
:1004100070696E670046696C6D20656E6465642066
:10042000647572696E6720636F6E74696E756F753F
:10043000732072756E202D2073746F7070696E67F3
:10044000004D6F746F723A203E3E206174205370ED
:1004500065656420004D6F746F72206E6F74207339
:10046000746F707065642E003E2061742053706557
:10047000656420004D6F746F72206E6F742073740A
:100480006F707065642E003C206174205370656548
:100490006420004D6F746F723A203C3C20617420E0
:1004A0005370656564200053544F503A2069676E5D
:1004B0006F72696E6720286C6F6E672D707265733E
:1004C000732074696D696E67290046696C6D2065DB
:1004D0006A65637420636F6D706C65746500457840
:1004E000747261206672616D657320646F6E652041
:1004F0002D2073746F7070696E67207363616E2C4A
:1005000020656A656374696E672066696C6D004674
:10051000696C6D20656E646564202D207363616E67
:100520006E696E672032352065787472612066725C
:10053000616D65730050616972696E67206D6F64EB
:10054000653A2073746F7020707265737365640010
:10055000206D732028746F6F2073686F7274290088
:100560004D656E753A2053544F502072656C65612D
:1005700073656420616674657220004D656E753A1E
:1005800020656E74657220286C6F6E6720707265CE
:1005900073732053544F5029004D656E753A2053A4
:1005A000544F5020627574746F6E2070726573734F
:1005B00065642C2074696D696E672E2E2E002C20C8
:1005C0007461726765744D6F64653D005461726754
:1005D0006574206D656E753A2072652D656E746563
:1005E00072202866726F6D205069292C206D656E0F
:1005F0007553746174653D005461726765743A2087
:10060000656E746572696E67206D656E75206D6FBD
:10061000646520666972737400000000002400277E
:10062000002A0000000000250028002B0000000028
:100630000023002600290004040404040404040226
:10064000020202020203030303030301020408106F
:10065000204080010204081020010204081020003C
:100660000000080002010000030407000000000071
:1006700000000000760C11241FBECFEFD8E0DEBFD3
:10068000CDBF11E0A0E0B1E0ECEEFBE202C00590CE
:100690000D92AA35B107D9F722E0AAE5B1E001C071
:1006A0001D92A83EB207E1F713E0CBE3D3E004C00C
:1006B0002197FE010E94DF15CA33D107C9F70E94B6
:1006C000AF0C0C94F4150C940000833081F028F4E6
:1006D000813099F08230A9F008958730A9F08830F0
:1006E000C9F08430B1F4809180008F7D03C0809187
:1006F00080008F7780938000089584B58F7784BDC4
:10070000089584B58F7DFBCF8091B0008F77809363
:10071000B00008958091B0008F7DF9CFCF93DF9323
:10072000E2E6F6E08491EEE4F6E0D491EAE3F6E066
:10073000C491CC23A1F081110E946503EC2FF0E05D
:10074000EE0FFF1FE35DF94FA591B491EC91ED23FE
:1007500081E090E009F480E0DF91CF91089580E09E
:1007600090E0FACF1F93CF93DF93282F30E0F90169
:10077000E15AF94F8491F901E55BF94FD491F90100
:10078000E95CF94FC491CC23A9F0162F81110E9486
:100790006503EC2FF0E0EE0FFF1FED5DF94FA59123
:1007A000B4918FB7F894EC91111108C0D095DE2365
:1007B000DC938FBFDF91CF911F910895DE2BF8CF8F
:1007C000CF93DF9390E0FC01E55BF94F2491895CC6
:1007D000994FFC0184918823D1F090E0880F991FF4
:1007E000FC01E75EF94FA591B491FC01ED5DF94F75
:1007F000C591D49161110EC09FB7F8948C91E22FEE
:10080000E0958E238C932881E223E8839FBFDF91BC
:10081000CF9108958FB7F894EC91E22BEC938FBFB2
:10082000F6CF1F93CF93DF93182FEB0161E00E9467
:10083000E003209739F460E0812FDF91CF911F9181
:100840000C94B203CF3FD10511F461E0F5CFE12F55
:10085000F0E0E15AF94FE491E33031F140F4E13056
:10086000B1F0E230E1F0C038D1057CF7E4CFE730F9
:1008700029F1E83059F1E430B1F7809180008062CD
:1008800080938000D0938B00C0938A0004C084B50D
:10089000806884BDC7BDDF91CF911F91089584B555
:1008A000806284BDC8BDF7CF80918000806880934E
:1008B0008000D0938900C0938800EDCF8091B00074
:1008C00080688093B000C093B300E5CF8091B00002
:1008D00080628093B000C093B400DDCF8E508064FE
:1008E00080937C0080917A00806480937A0080916C
:1008F0007A0086FDFCCF8091780090917900089570
:100900003FB7F89480913B0290913C02A0913D0248
:10091000B0913E0226B5A89B05C02F3F19F0019665
:10092000A11DB11D3FBFBA2FA92F982F8827BC0149
:10093000CD01620F711D811D911D43E0660F771F70
:10094000881F991F4A95D1F708958F929F92AF9271
:10095000BF92CF92DF92EF92FF924B015C010E9417
:1009600080046B017C010E9480046C197D098E0952
:100970009F09683E734081059105A8F321E0821A22
:100980009108A108B10888EEC80E83E0D81EE11CCA
:10099000F11C81149104A104B10429F7FF90EF9098
:1009A000DF90CF90BF90AF909F908F900895089563
:1009B0001092250210922402109204021092050255
:1009C00010920602109207021092230261E086E064
:1009D0000E94B20361E085E00E94B203809126028A
:1009E000882331F085E090E09093280280932702DD
:1009F0000895E091F601F091F701309729F01092F7
:100A0000F1011092F00109940895CF93DF93AC01A6
:100A1000E091F401F091F5013097F1F09091F3013C
:100A20008091F2019817C0F090E0292F30E026174E
:100A3000370754F4D901A45ABE4F240F351FE901DA
:100A400028812C939F5FF1CF1092F3016093F20104
:100A5000CB01DF91CF910994DF91CF910895AF92AF
:100A6000BF92CF92DF92EF92FF920F931F93CF939B
:100A7000DF936C017B018B01040F151FEB015E01FD
:100A8000AE18BF08C017D10759F06991D601ED9192
:100A9000FC910190F081E02DC6010995892B79F731
:100AA000C501DF91CF911F910F91FF90EF90DF90E3
:100AB000CF90BF90AF900895FC01538D448D252FAA
:100AC00030E0842F90E0821B930B541710F0CF96E8
:100AD000089501970895FC01918D828D981761F01A
:100AE000A28DAE0FBF2FB11D5D968C91928D9F5F31
:100AF0009F73928F90E008958FEF9FEF0895FC0110
:100B0000918D828D981731F0828DE80FF11D858DC2
:100B100090E008958FEF9FEF0895FC01918D228D55
:100B2000892F90E0805C9F4F821B91098F739927DA
:100B300008958FE392E00E948D0521E0892B09F44E
:100B400020E0822F089580E090E0892B29F00E9418
:100B5000990581110C9400000895FC01A48DA80F43
:100B6000B92FB11DA35ABF4F2C91848D90E00196EF
:100B70008F739927848FA689B7892C93A089B1890F
:100B80008C91837080648C93938D848D981306C0B0
:100B90000288F389E02D80818F7D80830895EF9214
:100BA000FF920F931F93CF93DF93EC0181E0888F27
:100BB0009B8D8C8D98131AC0E889F989808185FFF7
:100BC00015C09FB7F894EE89FF896083E889F98999
:100BD00080818370806480839FBF81E090E0DF919B
:100BE000CF911F910F91FF90EF900895F62E0B8DEE
:100BF00010E00F5F1F4F0F731127E02E8C8D8E11A9
:100C00000CC00FB607FCFACFE889F989808185FF0F
:100C1000F5CFCE010E94AD05F1CFEB8DEC0FFD2F8E
:100C2000F11DE35AFF4FF0829FB7F8940B8FEA89CA
:100C3000FB8980818062CFCF0F931F93CF93DF9387
:100C40008C01D0E0C0E0F801EC0FFD1F6491662339
:100C500041F08FE392E00E94CF05892B11F021969D
:100C6000F2CFCE01DF91CF911F910F910895CF93D5
:100C7000DF93EC01888D8823B9F0AA89BB89E889C4
:100C8000F9898C9185FD03C0808186FD0DC00FB66A
:100C900007FCF7CF8C9185FFF2CF808185FFEDCFE8
:100CA000CE010E94AD05E9CFDF91CF91089520914B
:100CB000A201260F3327331F21323105ECF4209196
:100CC000C601FC0190E080E0243069F082E00895E4
:100CD000A091A2012191AC014E575E4FA40FB52FF8
:100CE000B11D2C930196861798F38091A201680F8D
:100CF0006093A20180E0089581E008951092C601FA
:100D000081E08093C8011092C70161E082E10E94F6
:100D1000B20361E083E10E94B203E9EBF0E080817D
:100D20008E7F808380818D7F808380E28093B80076
:100D300085E48093BC0008950895E091F3018091CB
:100D4000F201E81730F4F0E0E45AFE4F808190E0C1
:100D500008958FEF9FEF08959091F3018091F20134
:100D60002FEF3FEF981748F4E92FF0E0E45AFE4FD9
:100D7000208130E09F5F9093F301C9010895809135
:100D8000F2019091F301891B990B0895CF93DF93A2
:100D9000CB01EA01642F0E945706CE01DF91CF916B
:100DA0000895CF93DF931F92CDB7DEB7698361E0DB
:100DB000CE0101960E94570681E090E00F90DF91EE
:100DC000CF91089590E080E008950F931F93CF9303
:100DD000DF938EE00E946E048EE00E946E048C0110
:100DE0008FE00E946E048FE00E946E04EC0160E8C8
:100DF00072E080E090E00E94A50420915A01222335
:100E000069F1023011052CF490E080E0C230D10588
:100E100074F1C8014F978732910508F444C08A5590
:100E200091098732910550F18A5A9109879748F1C3
:100E30000F3D83E0180744F5CE014F9787329105A7
:100E400030F18A5591098732910520F18A5A91092A
:100E5000879718F1CF3D83E0D80714F590E080E044
:100E6000023011051CF421E022970CF020E02093C1
:100E70005A01DF91CF911F910F91089583E090E087
:100E8000EFCF81E090E0ECCF82E090E0E9CF88E026
:100E900090E0E6CF87E090E0E3CF86E090E0E0CF1F
:100EA00085E090E0DDCF84E090E0E0CF2FB7F894CC
:100EB00060913702709138028091390290913A0224
:100EC0002FBF26E096958795779567952A95D1F758
:100ED00008958F929F92AF92BF920F931F93CF93DB
:100EE000DF93CDB7DEB7A1970FB6F894DEBF0FBE84
:100EF000CDBF19A2423008F44AE08E010F5D1F4FAA
:100F0000842E912CB12CA12CA50194010E94AE1528
:100F1000E62FB901CA01EA3044F5E05DD801EE934D
:100F20008D01232B242B252B79F790E080E010975F
:100F300069F0FD0101900020E9F73197AF014A1BEC
:100F40005B0BBD018FE392E00E942F05A1960FB6C7
:100F5000F894DEBF0FBECDBFDF91CF911F910F91EF
:100F6000BF90AF909F908F900895E95CD7CF42E0FB
:100F700050E067E571E08FE392E00C942F05CF938A
:100F8000DF930E941C06EC010E94B7078C0F9D1F87
:100F9000DF91CF9108950F931F93CF93DF93C0916B
:100FA0002702D09128026C2F8CED92E00E94D1068E
:100FB000809119028823A9F00E945607009115021A
:100FC000109116022091170230911802601B710BCC
:100FD000820B930B693873418105910510F01092D3
:100FE0001902CB30D105E1F485E691E00E94BF07FC
:100FF00042E050E069EF71E08CED92E00E94C6069D
:10100000809119028823F1F0C631D105D9F4D0932B
:101010002802C0932702DF91CF911F910F9108956D
:10102000CE30D10569F742E050E069EF71E08CED18
:1010300092E00E94C60660915B018CED92E00E94F6
:10104000D106DECF639769F480912A0290912B023A
:10105000892B39F489E290E090932802809327024B
:10106000DACF1092280210922702D5CF10922502D3
:1010700010922402109204021092050210920602AD
:10108000109207021092230288E690E00E94BF07A8
:1010900061E086E00E94B20361E085E00C94B20357
:1010A000CF92DF92EF92FF92CF93DF936C01990F73
:1010B000EE08FF08F7FE19C06DE28FE392E00E9490
:1010C000CF05EC0166277727CB016C197D098E09C6
:1010D0009F094AE00E9469078C0F9D1FDF91CF9105
:1010E000FF90EF90DF90CF9008954AE0C701B601DE
:1010F000DF91CF91FF90EF90DF90CF900C94690734
:10110000CF93DF930E945008EC010E94B7078C0F29
:101110009D1FDF91CF910895CF93DF932091090216
:1011200030910A022817390721F1EC01892B19F0B7
:1011300081E00E94BC08D0930A02C09309028DEAA4
:1011400090E00E941C06CE010E94500884E990E0C5
:101150000E941C068091090290910A02892B31F0AD
:101160008DE890E0DF91CF910C94BF0780E990E08B
:10117000F9CFDF91CF910895CF93909108029817FE
:1011800021F1C82F811104C090E080E00E948C08FA
:10119000C093080281E890E00E941C068C2F90E02A
:1011A0000E94800880910802882349F061E088E06D
:1011B0000E94B20361E089E0CF910C94B20360E039
:1011C00088E00E94B20360E0F6CFCF910895CF93FC
:1011D000DF93682F70E090E080E04AE00E946907AA
:1011E000EC010E94B7078C0F9D1FDF91CF910895EE
:1011F000CF93892BE1F09091F2018091F301981740
:1012000031F08CED92E00E94AC06282FF4CF25310E
:1012100081F410921C0281E090E090932B02809365
:101220002A02109228021092270210921902CF91DE
:101230000895283169F410921B0281E090E09093A8
:101240002B0280932A021092280210922702EFCFDD
:10125000233889F410921A0281E090E090932B02D7
:1012600080932A02109228021092270286E591E0CC
:101270000E94BF07DCCF243879F41092290281E064
:1012800090E090932B0280932A02109228021092F1
:10129000270284E491E0ECCF263879F41092F8012B
:1012A00081E090E090932B0280932A021092280212
:1012B0001092270284E391E0DBCF253821F481E00E
:1012C00080932C02B4CF293251F580912A0290915B
:1012D0002B020297C8F081E090E090932B0280935C
:1012E0002A021092350210921C0210921A021092D9
:1012F000290210921B02109228021092270287E105
:1013000091E0CF910C94BF0710922B0210922A0209
:10131000109228021092270282E091E0F2CF273843
:1013200081F480912602882309F481CF109226024D
:1013300010921002809103020E94BC088EEE90E091
:10134000E0CF203849F480912602882309F46FCF3A
:1013500081E0809310026BCF213809F068CF0E94A2
:101360008E03C82F80935B0184E10E946E0484E1A8
:101370000E946E049093FA018093F90184ED90E04D
:101380000E941C068C2F0E94E70889EB90E00E94C7
:101390001C068091F9019091FA010E9480088EE06C
:1013A00090E0909328028093270241CF81E08093C0
:1013B00023028CBB88ED94E090930101809300019F
:1013C000E9E6F0E080818C7F82608083E89A60911A
:1013D0000B0270E086E00E94110470E060E085E09E
:1013E0000C941104CF93DF9385ED8093BC00809122
:1013F0007E0190917F01A0918001B09181010796BB
:10140000A11DB11D23E0B695A795979587952A95BF
:10141000D1F72091BC0024FD03C01092C60136C054
:1014200040917E0150917F01609180017091810116
:10143000452B462B472B69F30097A105B10541F0D9
:1014400025E12A95F1F700000197A109B109E1CF43
:1014500080917D0191E090937C018823B9F0C09147
:10146000B800D091BA008091BC008A7B8093BC0008
:1014700060E082E10E94B20360E083E10E94B20377
:101480000E947E06D093BA00C093B800DF91CF913E
:1014900008951F920F920FB60F9211242F933F932E
:1014A0008F939F93AF93BF938091370290913802AF
:1014B000A0913902B0913A023091360226E0230F12
:1014C0002D3758F50296A11DB11D20933602809349
:1014D000370290933802A0933902B0933A02809178
:1014E0003B0290913C02A0913D02B0913E020196D8
:1014F000A11DB11D80933B0290933C02A0933D023D
:10150000B0933E02BF91AF919F918F913F912F91E8
:101510000F900FBE0F901F90189529E8230F039688
:10152000A11DB11DD2CF1F920F920FB60F921124A1
:101530002F933F934F935F936F937F938F939F93DB
:10154000AF93BF93EF93FF93E0910201F0910301FA
:101550000995FF91EF91BF91AF919F918F917F91ED
:101560006F915F914F913F912F910F900FBE0F9010
:101570001F9018951F920F920FB60F9211242F9360
:101580003F934F935F936F937F938F939F93AF930B
:10159000BF93EF93FF93E0910001F0910101099552
:1015A000FF91EF91BF91AF919F918F917F916F913B
:1015B0005F914F913F912F910F900FBE0F901F9011
:1015C00018951F920F920FB60F9211242F933F93ED
:1015D0004F935F936F937F938F939F93AF93BF933B
:1015E000EF93FF938FE392E00E94AD05FF91EF919F
:1015F000BF91AF919F918F917F916F915F914F912B
:101600003F912F910F900FBE0F901F9018951F9232
:101610000F920FB60F9211242F938F939F93EF93F6
:10162000FF93E0914F02F09150028081E0915502CA
:10163000F091560282FD1BC09081809158028F5F0D
:101640008F7320915902821741F0E0915802F0E027
:10165000E15CFD4F958F80935802FF91EF919F9130
:101660008F912F910F900FBE0F901F901895808132
:10167000F4CF1F920F920FB60F9211242F933F9326
:101680004F935F936F937F938F939F93AF93BF938A
:10169000EF93FF938091B900887F803609F44AC0A8
:1016A000F0F5883209F4A7C018F5803109F49BC021
:1016B000B8F4882309F4F9C0883009F494C0FF9184
:1016C000EF91BF91AF919F918F917F916F915F91BA
:1016D0004F913F912F910F900FBE0F901F90189533
:1016E000883109F488C0803251F78093C50114C055
:1016F000803409F49DC040F48033B9F38833F9F69F
:101700008093C50185ECB0C0803509F485C088356B
:1017100009F496C0883499F60E94F209D0CF88392E
:1017200009F48CC038F5883729F050F4883611F068
:10173000803729F683E08093C6011092C40157C018
:10174000883809F47BC0803919F0803809F0B7CFA8
:101750008091C401803208F071C0E091C40181E041
:101760008E0F8093C4018091BB00F0E0EC55FE4FDA
:1017700080833DC0803B39F0E0F4803A09F479C0C1
:10178000883A09F09CCF84E08093C6011092A301AF
:101790001092A201E091EE01F091EF010995809184
:1017A000A20181110FC081E08093A20110928201F9
:1017B00009C0803C09F4A6CF883C09F4A3CF883B3C
:1017C00009F07DCFE091A30181E08E0F8093A3010A
:1017D000F0E0EE57FE4F80818093BB009091A30113
:1017E0008091A20129C08091EB018093BB0085EC20
:1017F0008093BC0064CF9091EA018091E901981731
:1018000058F5E091EA0181E08E0F8093EA01F0E063
:10181000E753FE4F8081E9CFE091EA0181E08E0F2E
:101820008093EA018091BB00F0E0E753FE4F808394
:101830009091EA018091E9019817C8F285E8D8CF24
:10184000E091EA0181E08E0F8093EA018091BB0074
:10185000F0E0E753FE4F80838091C80181115CCF97
:1018600081E08093C70184EA8093BC001092C60196
:1018700026CF85EC8093BC001092C6018091C401F4
:10188000803230F4E091C401F0E0EC55FE4F10825C
:101890006091C40170E0E091EC01F091ED0184EA07
:1018A00091E009951092C4010ACF1092C50134CF7E
:1018B0000E94360884E790E00E94BF0760E87EE35C
:1018C00080E090E00C94A504109226021092100281
:1018D00080E00E94BC0810920A02109209028AE07D
:1018E00090E090932802809327020895EFE3F2E0BE
:1018F0001382128288EE93E0A0E0B0E084839583A7
:10190000A683B78327E331E03183208325EC30E0E1
:101910003587248724EC30E03787268720EC30E0B9
:10192000318B208B21EC30E0338B228B22EC30E0AA
:10193000358B248B26EC30E0378B268B118E128E64
:10194000138E148EECEDF2E0138212828483958361
:10195000A683B78389E491E0918380830895CF9330
:10196000DF93CDB7DEB72F970FB6F894DEBF0FBE6B
:10197000CDBF789484B5826084BD84B5816084BD18
:1019800085B5826085BD85B5816085BD80916E001D
:10199000816080936E00109281008091810082604E
:1019A000809381008091810081608093810080918B
:1019B00080008160809380008091B100846080937A
:1019C000B1008091B00081608093B00080917A0076
:1019D000846080937A0080917A00826080937A009C
:1019E00080917A008E7F80937A0080917A0080685F
:1019F00080937A001092C100F4B614BE61E089E0D1
:101A00000E94E00360E089E00E94B203E0914F028F
:101A1000F091500282E08083E0914B02F0914C0201
:101A20001082E0914D02F0914E0288E08083109286
:101A30005702E0915302F091540286E08083E091D6
:101A40005102F0915202808180618083E0915102C5
:101A5000F0915202808188608083E0915102F09180
:101A60005202808180688083E0915102F09152029D
:101A700080818F7D80838BEB91E00E941C066F2D0F
:101A800070E090E080E040E10E94690784EB91E023
:101A90000E941C068F2D817090E00E9450088CEAF5
:101AA00091E00E941C06F1FA882780F990E00E94DC
:101AB000500885EA91E00E941C06F2FA882780F916
:101AC00090E00E9450088EE991E00E941C06F3FA13
:101AD000882780F990E00E94800860E08EE00E94F4
:101AE000E00360E08FE00E94E00360E080E10E949C
:101AF000E00360E081E10E94E00360E084E10E9495
:101B0000E00361E088E00E94E00361E086E00E947B
:101B1000E00361E085E00E94E00360E082E00E9473
:101B2000E00360E083E00E94E00360E085E10E9462
:101B3000E0030E948E0321E0892B09F420E020932A
:101B40000102209300020E945607605E7C4F8F4F77
:101B50009F4F6093310270933202809333029093CF
:101B6000340285B5887F816085BD61E086E00E9492
:101B7000B20361E085E00E94B20360E088E00E9469
:101B8000B20360E089E00E94B2031092F301109268
:101B9000F2011092F1011092F0010E947E0689EF8D
:101BA00094E09093EF018093EE0185E095E09093AF
:101BB000ED018093EC0184E58093BA0088EF98E012
:101BC0009093F5018093F4018BEC97E09093F701EB
:101BD0008093F60184E10E946E0485E10E946E0408
:101BE0008C017C016C0147E0A42EB12C85E10E94A0
:101BF0006E0485E10E946E04080F191F8C159D0567
:101C00000CF46C01E816F9060CF47C0121E0A21A30
:101C1000B10861F717FF02C0095F1F4F33E0159548
:101C200007953A95E1F7EC18FD0839E7E316F1045A
:101C3000CCF18CE891E00E94BF0788248A9493E05D
:101C4000992EA12CB12C22E2622E712CEE24E39469
:101C5000F12C80913502811153C00E9456070091EA
:101C60003102109132022091330230913402601718
:101C700071078207930708F043C00E94E50690931E
:101C8000300280932F0290932E0280932D0280E0E9
:101C900090E0892BF1F20E9499058823B9F20E9405
:101CA0000000D4CF8FE0E6E0F1E0DE011196019074
:101CB0000D928A95E1F7E7E1F1E090E080E07C01A8
:101CC0002FEFE21AF20A219131910217130714F053
:101CD0007C0104C0C7018E30910589F786E891E048
:101CE0000E941C06E1E0F0E0EC0FFD1FEE0DFF1D71
:101CF00060818FE392E00E94CF050E94B7079DCFDD
:101D000080912C028823C1F180912A0290912B02AC
:101D100010922C02892B41F4F0922B02E0922A02BD
:101D200088EF95E00E94BF0781E08093290285E05B
:101D300090E090932B0280932A0210922802109236
:101D400027020E94E5069093300280932F02909321
:101D50002E0280932D028CEC95E00E941C0685E0FB
:101D600090E00E9450088EEB95E00E941C06809146
:101D7000290290E00E948008C0902A02D0902B0295
:101D8000C114D10409F425C30E94E5068C01909387
:101D9000300280932F0231E0C316D10409F0E0C075
:101DA000C0902D02D0902E028C159D0509F46FCFA6
:101DB00087EB93E00E941C06C6010E94500882EB4C
:101DC00093E00E941C0680912F02909130020E94A5
:101DD000800880912F029091300290932E02809380
:101DE0002D0284309105A1F190F4039709F04FCFB3
:101DF00010922B0210922A0289E290E0909328021E
:101E00008093270288E693E00E94BF0740CF863088
:101E10009105A9F1079709F03ACF83E793E00E9473
:101E20001C0680911D020E94E708E0911D028CE2D1
:101E300090E0E73008F040C0F0E0EF5DF04F0C9428
:101E4000DF15510F610F770F830F8F0F9B0FA70FB8
:101E500000911D0210E0095F1F4F077011270093CA
:101E60001D028AE290E090932802809327028DE978
:101E700093E00E941C06802F0E94E70808CF009183
:101E80001D0210E00F5F1F4F0770112700931D0206
:101E90008BE290E0909328028093270288E893E0F9
:101EA000E8CF82E090E090932B0280932A0281E0B9
:101EB000809335028FE090E0909328028093270270
:101EC000E6CE83E090E090932B0280932A0281E09B
:101ED00080931C020E9456076093110270931202B5
:101EE000809313029093140284E190E0E5CF84E0A4
:101EF00090E090932B0280932A0281E080931A0253
:101F00008EE190E0D9CF85E090E090932B02809312
:101F10002A0281E08093290283E290E0CDCF86E01F
:101F200090E090932B0280932A0281E08093F80145
:101F30008DE290E0C1CF87E090E090932B028093F8
:101F40002A0281E080931B0287E190E0B5CF88E010
:101F500090E090932B0280932A0289E190E0ACCF2D
:101F600080913502882309F457C080912D02909109
:101F70002E020817190709F48ACE10932E02009337
:101F80002D0205301105C9F180F403301105E9F087
:101F90000430110509F07BCE20E130E030932802B7
:101FA0002093270286E493E02FCF06301105E1F05D
:101FB0000730110509F06BCE22E130E030932802A2
:101FC0002093270289E293E01FCFF0922B02E09248
:101FD0002A021092350283E190E0909328028093C8
:101FE000270283E593E010CF81E190E090932802EF
:101FF0008093270289E393E007CF10922B0210927F
:102000002A021092350283E190E090932802809397
:10201000270287E193E0F8CE80911C02882309F41F
:1020200057C08FE00E946E048FE00E946E048F3DC7
:1020300093401CF405301105D1F48CEF92E00E941E
:10204000BF07F0922B02E0922A0210921C0281E05C
:10205000809319020E94560760931502709316022E
:10206000809317029093180286E190E025CF033009
:10207000110579F4F0922B02E0922A0210921C02D0
:1020800026E130E0309328022093270286EE92E08A
:10209000BBCE0E94560700911102109112022091AE
:1020A000130230911402601B710B820B930B613D84
:1020B0007B4F8140910508F4EACDF0922B02E0922B
:1020C0002A0210921C021092280210922702DFCDE1
:1020D00080911A02882309F441C080912D029091C9
:1020E0002E020817190709F4D2CD10932E0200937F
:1020F0002D020530110529F150F40330110589F046
:102100000430110509F0C3CD8FE190E0D5CE063043
:102110001105A1F00730110509F0B9CD81E290E079
:10212000CBCEF0922B02E0922A0210921A02709209
:1021300028026092270284ED92E066CE80E290E071
:10214000BBCE10922B0210922A0210921A027092A9
:1021500028026092270285EC92E056CE80912902F7
:10216000882309F457C080912D0290912E02081700
:10217000190709F48CCD10932E0200932D0205301F
:102180001105C9F180F403301105E9F0043011059F
:1021900009F07DCD84E290E090932802809327029D
:1021A00083EA92E031CE06301105E1F007301105E7
:1021B00009F06DCD86E290E090932802809327028B
:1021C00086E892E021CEF0922B02E0922A02109251
:1021D000290287E290E0909328028093270280EB07
:1021E00092E012CE85E290E090932802809327023D
:1021F00086E992E009CE10922B0210922A021092E8
:10220000290287E290E0909328028093270284E7D6
:1022100092E0FACD8091F801882309F457C08091AB
:102220002D0290912E020817190709F430CD109352
:102230002E0200932D0205301105C9F180F4033000
:102240001105E9F00430110509F021CD8EE290E08E
:10225000909328028093270286E592E0D5CD063040
:102260001105E1F00730110509F011CD80E390E090
:1022700090932802809327028DE392E0C5CDF092DF
:102280002B02E0922A021092F80181E390E09093F1
:1022900028028093270281E692E0B6CD8FE290E09B
:1022A00090932802809327028BE492E0ADCD1092A8
:1022B0002B0210922A021092F80181E390E0909391
:1022C0002802809327028DE292E09ECD80911B022E
:1022D000882339F10E94E5069093300280932F0203
:1022E00020912D0230912E028217930709F4CFCC52
:1022F00090932E0280932D028330910519F005975B
:1023000009F0C5CCF0922B02E0922A0210921B0237
:1023100088E190E090932802809327028AE192E07E
:1023200073CD88E0C816D10409F0B1CC80912D029C
:1023300090912E020817190709F4A9CC10932E02C8
:1023400000932D0205301105B9F180F40330110519
:1023500031F10430110509F09ACC8AE190E09093B4
:102360002802809327028DE092E04ECD06301105C1
:1023700069F00730110509F08ACC8CE190E0909368
:1023800028028093270280EF91E03ECD8BE190E020
:10239000909328028093270280E092E035CDF0925E
:1023A0002B02E0922A028DE190E090932802809324
:1023B00027028BED91E028CD10922B0210922A0279
:1023C0008DE190E0909328028093270289EC91E0C0
:1023D0001BCD8091260281110BC080912402909127
:1023E0002502892B29F480912302882309F4C8C08F
:1023F0001092220280911C0290913502911152C3D9
:10240000811132C180911B02811168C380911A022F
:10241000811164C380911902811139CC0E94E506B3
:102420009093300280932F02809126028823D9F165
:10243000809110028823B9F180912702909128029F
:102440000A9789F18091230281112DC01092100208
:102450000E948E03892B09F05AC180910F028111CD
:1024600012C080910E028F5F80930E028330C8F0FD
:1024700089E180930F028FE095E00E94BF07809171
:102480000F02882371F0815080930F02811109C0DF
:102490008EED94E00E94BF070E94640C8FE0809351
:1024A0000D020E94D60980910D02882361F090915F
:1024B0002302911108C0815080930D02882309F4F2
:1024C00029C10E94D60981E10E946E0481E10E9427
:1024D0006E049C01A5E6BFEF0E94E515A5019401DD
:1024E0000E948F1521503F4F4F4F5F4F20930C029A
:1024F00080E10E946E0480E10E946E049C01A5E6CA
:10250000BFEF0E94E515A50194010E948F151901E6
:102510002A018FEF280E311C411C511C20920B0206
:10252000E0912F02F09130028091260220912D023D
:1025300030912E02E217F30709F4EDC1F0932E0259
:10254000E0932D02882309F4EAC0359749F490916D
:1025500022029111F8C0882309F4F2C00E94640C91
:1025600000912402109125020130110509F095C255
:1025700060910C0270E0809102020E94110487CBEE
:102580008FE00E946E048FE00E946E042091220270
:102590008F3D93400CF441C0211112C081E0809323
:1025A00022020E94560760931E0270931F028093BE
:1025B00020029093210289E995E00E94BF071ACF7B
:1025C0000E94560700911E0210911F0220912002C6
:1025D00030912102601B710B820B930B683B7B4097
:1025E0008105910508F406CFF0922B02E0922A02B1
:1025F00010921D021092220210922E0210922D02B1
:102600001092300210922F0288E290E090932802FC
:10261000809327028BE795E0F7CB222309F4EACEDB
:102620000E94560700911E0210911F022091200265
:10263000309121021B012C01201A310A420A530A4F
:1026400080E695E00E941C064AE0C201B1010E94AA
:10265000690780E595E00E94BF0710922202109260
:102660002E0210922D02C6CE8FE00E946E048FE0E3
:102670000E946E048C010E94E506909330028093C4
:102680002F020F3D134014F4059729F485E395E0DC
:102690000E94BF07DACC0E945607009111021091E8
:1026A00012022091130230911402601B710B820BF5
:1026B000930B613D7B4F8140910508F4E8CA01CD41
:1026C0008730910569F0089709F008C282E190E02F
:1026D00002C080E190E09093280280932702FEC11F
:1026E00021E130E03093280220932702F7C123E153
:1026F00030E0F8CF8730910509F420CD089709F430
:102700000DCDC5CA7092280260922702C0CA1092ED
:102710000E02B5CE8AEC94E00E94BF07D4CE31976A
:10272000E830F10508F01CCFE856FC4E0C94DF159C
:10273000A813C113CC13F813A71225143C14741456
:102740000E9436080DCF87EA94E00E94BF0708CFA9
:102750008091090290910A028230910579F09927BF
:1027600001960E948C088091090290910A02992793
:1027700002969093280280932702F2CE90E080E0A8
:10278000F0CF9091080281E089270E94BC088091D7
:10279000080290E00696EDCF8091240290912502E8
:1027A000019711F40E94580C8FEF9FEF9093250230
:1027B0008093240283E994E00E941C0680910C021D
:1027C0000E94E708E89887ED94E0909301018093D8
:1027D000000185E08093020270E060E086E00E94E4
:1027E000110460910C0270E085E00E941104B8CEE3
:1027F0008091240290912502892B21F5809123025A
:10280000811120C087E894E00E941C06822D0E945E
:10281000E70881E0809323028CBB88ED94E09093DD
:10282000010180930001809169008C7F8260809318
:102830006900E89A70E060E086E00E94110460910F
:102840000B02D1CF84E794E080CF80912402909155
:102850002502892B71F48091230281110AC088E638
:1028600094E00E941C06822D0E94E7080E94D6096F
:1028700077CE85E594E069CF80912402909125027E
:10288000019611F40E94580CF0922502E092240265
:102890000E948E03019721F50E945607609304025F
:1028A00070930502809306029093070281E494E0FE
:1028B0000E941C0680910C020E94E708E89887EDB0
:1028C00094E0909301018093000186E080930202DE
:1028D00060910C0270E00E94110470E060E084CF0F
:1028E00060E070E0CB01DACF8091080280930302B0
:1028F00081E08093260210920F0210920E02109235
:102900000D0289E090E0909328028093270281E0F5
:102910000E94BC0825CE811123CE84E10E946E0462
:1029200084E10E946E0484E10E946E0420910401FF
:1029300030910501281B390B37FF03C031952195D4
:10294000310928303105C4F09093FA018093F901E0
:10295000909305018093040182ED93E00E941C0690
:102960008091F9019091FA010E9480082BE030E0FB
:102970003093280220932702D0900102D0920002C7
:102980000E948E0321E0009709F420E020930102C9
:102990000091240210912502892B09F058C0DD20F6
:1029A00069F00E9456076093FB017093FC018093CD
:1029B000FD019093FE0181E08093FF018091FF0172
:1029C000882309F4CDCD0E9456072091FB01309158
:1029D000FC014091FD015091FE01621B730B840BC1
:1029E000950B643F71408105910508F4B9CD0F3F07
:1029F000100779F485E194E00E94BF070E94360831
:102A00008CE090E090932802809327021092FF01BF
:102A1000A7CD01301105A1F72090040230900502E6
:102A200040900602509007022114310441045104E1
:102A300039F30E94560762197309840995096033B6
:102A4000754781059105E0F289EE93E0D5CF1092AC
:102A5000FF0101301105F9F4809104029091050203
:102A6000A0910602B0910702892B8A2B8B2B51F47F
:102A70000E94560760930402709305028093060239
:102A800090930702D11074CD2DE030E030932802EE
:102A90002093270265CDDD20B9F30F3F1F4F09F0CA
:102AA000F6C866CD8111E0CD0E94E5069093300214
:102AB00080932F0220912D0230912E0282179307CE
:102AC00069F090932E0280932D028530910509F4D0
:102AD0000ECE08F0F5CD039709F4FBCD80911A02D4
:102AE000882309F4D4C80E94E506909330028093AD
:102AF0002F0220912D0230912E028217930709F4A4
:102B0000C6C890932E0280932D028530910509F45A
:102B1000F9CD08F0EFCD039709F4F6CAB8C8052E31
:102B200097FB1EF400940E94A61557FD07D00E9443
:102B3000AE1507FC03D04EF40C94A61550954095A5
:102B4000309521953F4F4F4F5F4F08959095809559
:102B5000709561957F4F8F4F9F4F0895A1E21A2E78
:102B6000AA1BBB1BFD010DC0AA1FBB1FEE1FFF1F31
:102B7000A217B307E407F50720F0A21BB30BE40B81
:102B8000F50B661F771F881F991F1A9469F76095C8
:102B90007095809590959B01AC01BD01CF01089582
:102BA000A29FB001B39FC001A39F700D811D11248E
:102BB000911DB29F700D811D1124911D0895EE0F7E
:102BC000FF1F0590F491E02D09940E94D015332346
:102BD00012F48A1B9B0B0C94EF150E94D015B7FFC3
:0C2BE0000895821B930B0895F894FFCF1A
:102BEC00D704D7049CFF45464748494A4B4C4D4EA9
:102BFC004F50515253CA03890348030703C6028539
:102C0C000244020302C20181014001FF00BE007DAB
:102C1C00003C0000000000CF052F055C0537068D39
:102C2C00056B057F0500000000D106C606E2069C78
:0A2C3C0006BF06AC069D060D0A0057
:00000001FF
