:100000000C9462000C9425070C94FE060C948A0054
:100010000C948A000C948A000C948A000C948A0038
:100020000C948A000C948A000C948A000C948A0028
:100030000C948A000C948A000C948A000C948A0018
:100040000C94B4060C948A000C9472070C944C0720
:100050000C948A000C948A000C948A000C948A00F8
:100060000C94A4070C948A000000000024002700D0
:100070002A0000000000250028002B0000000000DE
:1000800023002600290004040404040404040202DA
:100090000202020203030303030301020408102007
:1000A0004080010204081020010204081020000012
:1000B0000008000201000003040700000000000027
:1000C0000000CF0811241FBECFEFD8E0DEBFCDBFA8
:1000D00012E0A0E0B1E0E0EEFAE102C005900D927E
:1000E000AA3DB107D9F724E0AAEDB2E001C01D9204
:1000F000A535B207E1F710E0C2E6D0E004C02197D1
:10010000FE010E94590DC136D107C9F70E940809A6
:100110000C946E0D0C940000833081F028F4813033
:1001200099F08230A9F008958730A9F08830C9F09D
:100130008430B1F4809180008F7D03C08091800075
:100140008F7780938000089584B58F7784BD08955C
:1001500084B58F7DFBCF8091B0008F778093B00006
:1001600008958091B0008F7DF9CFCF93DF93E1EBBD
:10017000F0E08491EDE9F0E0D491E9E8F0E0C49199
:10018000CC23A1F081110E948C00EC2FF0E0EE0F47
:10019000FF1FE458FF4FA591B491EC91ED2381E04E
:1001A00090E009F480E0DF91CF91089580E090E045
:1001B000FACF1F93CF93DF93282F30E0F901E25558
:1001C000FF4F8491F901E656FF4FD491F901EA57A8
:1001D000FF4FC491CC23A9F0162F81110E948C00EF
:1001E000EC2FF0E0EE0FFF1FEE58FF4FA591B491FA
:1001F0008FB7F894EC91111108C0D095DE23DC93F1
:100200008FBFDF91CF911F910895DE2BF8CFCF9351
:10021000DF9390E0FC01E656FF4F24918A579F4FF1
:10022000FC0184918823D1F090E0880F991FFC0194
:10023000E859FF4FA591B491FC01EE58FF4FC591CD
:10024000D49161110EC09FB7F8948C91E22FE09584
:100250008E238C932881E223E8839FBFDF91CF9187
:1002600008958FB7F894EC91E22BEC938FBFF6CF03
:100270001F93CF93DF93182FEB0161E00E940701DA
:10028000209739F460E0812FDF91CF911F910C947A
:10029000D900CF3FD10511F461E0F5CFE12FF0E0B7
:1002A000E255FF4FE491E33031F140F4E130B1F039
:1002B000E230E1F0C038D1057CF7E4CFE73029F136
:1002C000E83059F1E430B1F780918000806280938A
:1002D0008000D0938B00C0938A0004C084B58068EE
:1002E00084BDC7BDDF91CF911F91089584B5806211
:1002F00084BDC8BDF7CF8091800080688093800066
:10030000D0938900C0938800EDCF8091B0008068C1
:100310008093B000C093B300E5CF8091B0008062BD
:100320008093B000C093B400DDCF8E508064809382
:100330007C0080917A00806480937A0080917A00BA
:1003400086FDFCCF809178009091790008953FB7A9
:10035000F8948091A8039091A903A091AA03B09169
:10036000AB0326B5A89B05C02F3F19F00196A11D30
:10037000B11D3FBFBA2FA92F982F8827BC01CD01EF
:10038000620F711D811D911D43E0660F771F881F4D
:10039000991F4A95D1F708958F929F92AF92BF927D
:1003A000CF92DF92EF92FF924B015C010E94A70176
:1003B0006B017C010E94A7016C197D098E099F09C0
:1003C000683E734081059105A8F321E0821A9108E7
:1003D000A108B10888EEC80E83E0D81EE11CF11C0C
:1003E00081149104A104B10429F7FF90EF90DF90EC
:1003F000CF90BF90AF909F908F9008952FB7F894B3
:100400006091A4037091A5038091A6039091A70326
:100410002FBF08950895109285031092840361E020
:1004200086E00E94D90061E085E00C94D900E0915B
:100430007603F0917703309729F0109271031092B0
:10044000700309940895CF93DF93AC01E091740396
:10045000F09175033097F1F09091730380917203DE
:100460009817C0F090E0292F30E02617370754F492
:10047000D901A452BD4F240F351FE90128812C93C7
:100480009F5FF1CF1092730360937203CB01DF91F2
:10049000CF910994DF91CF910895AF92BF92CF92FF
:1004A000DF92EF92FF920F931F93CF93DF936C0134
:1004B0007B018B01040F151FEB015E01AE18BF0815
:1004C000C017D10759F06991D601ED91FC910190C7
:1004D000F081E02DC6010995892B79F7C501DF91DF
:1004E000CF911F910F91FF90EF90DF90CF90BF9031
:1004F000AF900895FC01538D448D252F30E0842F5B
:1005000090E0821B930B541710F0CF96089501973B
:100510000895FC01918D828D981761F0A28DAE0F28
:10052000BF2FB11D5D968C91928D9F5F9F73928FAF
:1005300090E008958FEF9FEF0895FC01918D828DDB
:10054000981731F0828DE80FF11D858D90E00895A8
:100550008FEF9FEF0895FC01918D228D892F90E000
:10056000805C9F4F821B91098F73992708958CEAB5
:1005700093E00E94AB0221E0892B09F420E0822F56
:10058000089580E090E0892B29F00E94B702811144
:100590000C9400000895FC01A48DA80FB92FB11D83
:1005A000A35ABF4F2C91848D90E001968F739927A9
:1005B000848FA689B7892C93A089B1898C91837087
:1005C00080648C93938D848D981306C00288F38980
:1005D000E02D80818F7D80830895EF92FF920F93AD
:1005E0001F93CF93DF93EC0181E0888F9B8D8C8DDF
:1005F00098131AC0E889F989808185FF15C09FB7D3
:10060000F894EE89FF896083E889F9898081837095
:10061000806480839FBF81E090E0DF91CF911F9144
:100620000F91FF90EF900895F62E0B8D10E00F5F65
:100630001F4F0F731127E02E8C8D8E110CC00FB63B
:1006400007FCFACFE889F989808185FFF5CFCE01D3
:100650000E94CB02F1CFEB8DEC0FFD2FF11DE35A81
:10066000FF4FF0829FB7F8940B8FEA89FB89808156
:100670008062CFCFCF93DF93EC01888D8823B9F0D0
:10068000AA89BB89E889F9898C9185FD03C080819D
:1006900086FD0DC00FB607FCF7CF8C9185FFF2CF1A
:1006A000808185FFEDCFCE010E94CB02E9CFDF91A3
:1006B000CF91089520912203260F3327331F213233
:1006C0003105ECF420914603FC0190E080E02430F9
:1006D00069F082E00895A09122032191AC014E5F60
:1006E0005C4FA40FB52FB11D2C930196861798F37C
:1006F00080912203680F6093220380E0089581E0D7
:1007000008951092460381E08093480310924703B6
:1007100061E082E10E94D90061E083E10E94D9009A
:10072000E9EBF0E080818E7F808380818D7F808304
:1007300080E28093B80085E48093BC00089508951A
:10074000E091730380917203E81730F4F0E0E45213
:10075000FD4F808190E008958FEF9FEF0895909175
:100760007303809172032FEF3FEF981748F4E92F3E
:10077000F0E0E452FD4F208130E09F5F90937303DF
:10078000C90108958091720390917303891B990B9D
:100790000895CF93DF93CB01EA01642F0E945A039F
:1007A000CE01DF91CF910895CF93DF931F92CDB704
:1007B000DEB7698361E0CE0101960E945A0381E0B1
:1007C00090E00F90DF91CF91089590E080E0089540
:1007D0000F931F93CF93DF938EE00E9495018EE0DD
:1007E0000E9495018C018FE00E9495018FE00E948C
:1007F0009501EC016AE070E080E090E00E94CC019D
:100800002091DA02222369F1023011052CF490E0E4
:1008100080E0C230D10574F1C8014F97873291054D
:1008200008F444C08A5591098732910550F18A5ADB
:100830009109879748F10F3D83E0180744F5CE01F1
:100840004F978732910530F18A559109873291058A
:1008500020F18A5A9109879718F1CF3D83E0D80794
:1008600014F590E080E0023011051CF421E022979D
:100870000CF020E02093DA02DF91CF911F910F91CD
:10088000089583E090E0EFCF81E090E0ECCF82E04C
:1008900090E0E9CF88E090E0E6CF87E090E0E3CF1A
:1008A00086E090E0E0CF85E090E0DDCF84E090E06E
:1008B000E0CFFC0101900020E9F73197AF01481B20
:1008C000590BBC018CEA93E00C944D028F929F92DD
:1008D000AF92BF920F931F93CF93DF93CDB7DEB745
:1008E000A1970FB6F894DEBF0FBECDBF19A242305C
:1008F00008F44AE08E010F5D1F4F842E912CB12C1D
:10090000A12CA50194010E94280DE62FB901CA016E
:10091000EA30F4F4E05DD801EE938D01232B242B13
:10092000252B79F790E080E0109719F0CD010E9417
:100930005904A1960FB6F894DEBF0FBECDBFDF916C
:10094000CF911F910F91BF90AF909F908F9008957E
:10095000E95CE1CFCF92DF92EF92FF92CF93DF93EA
:100960006B017C016DE28CEA93E00E94ED02EC01E8
:1009700066277727CB016C197D098E099F094AE00C
:100980000E9466048C0F9D1FDF91CF91FF90EF9026
:10099000DF90CF9008950C945904CF93DF93D0E06B
:1009A000C0E0009719F00E945904EC0188E291E040
:1009B0000E9459048C0F9D1FDF91CF9108950F93D2
:1009C0001F93CF93DF93C0919103D09192036C2F2B
:1009D00089E494E00E94D403809197038823A9F0CE
:1009E0000E94FE01009193031091940320919503BE
:1009F00030919603601B710B820B930B6938734126
:100A00008105910510F010929703CB30D105E1F4E8
:100A10008BE291E00E94CD0442E050E06AE773E08F
:100A200089E494E00E94C903809197038823F1F040
:100A3000C631D105D9F4D0939203C0939103DF91CD
:100A4000CF911F910F910895CE30D10569F742E003
:100A500050E06AE773E089E494E00E94C903609182
:100A6000DB0289E494E00E94D403DECF109292036B
:100A700010929103E4CF10928503109284038FE4C7
:100A800091E00E94CD0461E086E00E94D90061E01F
:100A900085E00C94D900CF93DF93682F70E090E04D
:100AA00080E04AE00E946604EC0188E291E00E9446
:100AB00059048C0F9D1FDF91CF910895CF93DF9341
:100AC000BC01990F880B990B97FF0CC00E94AA04D8
:100AD000EC0188E291E00E9459048C0F9D1FDF9188
:100AE000CF9108954AE00E946604F2CF892B09F461
:100AF00052C09091720380917303981731F089E48A
:100B000094E00E94AF03282FF4CF253149F41092CE
:100B100099031092920310929103109297030895F3
:100B2000283139F410929803109292031092910395
:100B30000895203841F480918C03882361F181E08D
:100B400080938B030895213831F50E94B50080937E
:100B5000DB0284E10E94950184E10E94950190935B
:100B60007B0380937A0388E691E00E94CB04809116
:100B7000DB020E944B0582E891E00E94CB04809149
:100B80007A0390917B030E945E058EE090E0909343
:100B90009203809391030895CF93DF93EC01892B07
:100BA00019F081E00E94FF05D0938803C09387036A
:100BB00084EA91E00E94CB046091870370918803DE
:100BC000072E000C880B990B97FF12C00E94AA04F5
:100BD00080EB91E00E94CB04809187039091880381
:100BE000892B51F081EA91E0DF91CF910C94CD04F3
:100BF0004AE00E946604ECCF8DE991E0F5CFCF93F7
:100C000090918603981759F1C82F81110AC08091DD
:100C1000870390918803892B21F090E080E00E9467
:100C2000CC05C093860389EC91E00E94CB048091AF
:100C3000860390E00E945E0580918603882349F038
:100C400061E088E00E94D90061E089E0CF910C94D6
:100C5000D90060E088E00E94D90060E0F6CFCF9133
:100C6000089510928C0310928B0380E00E94FF0580
:100C700010928803109287038AE090E09093920389
:100C800080939103089581E08CBB8BE092E0909378
:100C9000010180930001E9E6F0E080818C7F8260B1
:100CA0008083E89A6091890370E086E00E943801B1
:100CB00070E060E085E00C943801CF93DF9385ED20
:100CC0008093BC008091FE029091FF02A0910003EE
:100CD000B09101030796A11DB11D23E0B695A7951C
:100CE000979587952A95D1F72091BC0024FD03C0E4
:100CF0001092460336C04091FE025091FF0260916F
:100D0000000370910103452B462B472B69F3009795
:100D1000A105B10541F025E12A95F1F70000019701
:100D2000A109B109E1CF8091FD0291E09093FC020D
:100D30008823B9F0C091B800D091BA008091BC006E
:100D40008A7B8093BC0060E082E10E94D90060E071
:100D500083E10E94D9000E948103D093BA00C0931E
:100D6000B800DF91CF9108951F920F920FB60F92A6
:100D700011242F933F938F939F93AF93BF938091B1
:100D8000A4039091A503A091A603B091A70330916D
:100D9000A30326E0230F2D3758F50296A11DB11DA0
:100DA0002093A3038093A4039093A503A093A60389
:100DB000B093A7038091A8039091A903A091AA03DF
:100DC000B091AB030196A11DB11D8093A803909330
:100DD000A903A093AA03B093AB03BF91AF919F91D6
:100DE0008F913F912F910F900FBE0F901F901895EC
:100DF00029E8230F0396A11DB11DD2CF1F920F9298
:100E00000FB60F9211242F933F934F935F936F93DD
:100E10007F938F939F93AF93BF93EF93FF93E09153
:100E20000201F09103010995FF91EF91BF91AF91FC
:100E30009F918F917F916F915F914F913F912F91F2
:100E40000F900FBE0F901F9018951F920F920FB624
:100E50000F9211242F933F934F935F936F937F9340
:100E60008F939F93AF93BF93EF93FF93E091000114
:100E7000F09101010995FF91EF91BF91AF919F9181
:100E80008F917F916F915F914F913F912F910F9033
:100E90000FBE0F901F9018951F920F920FB60F92D2
:100EA00011242F933F934F935F936F937F938F936F
:100EB0009F93AF93BF93EF93FF938CEA93E00E94CD
:100EC000CB02FF91EF91BF91AF919F918F917F9155
:100ED0006F915F914F913F912F910F900FBE0F90A7
:100EE0001F9018951F920F920FB60F9211242F93F7
:100EF0008F939F93EF93FF93E091BC03F091BD0319
:100F00008081E091C203F091C30382FD1BC09081F8
:100F10008091C5038F5F8F732091C603821741F0C4
:100F2000E091C503F0E0E455FC4F958F8093C50335
:100F3000FF91EF919F918F912F910F900FBE0F9086
:100F40001F9018958081F4CF1F920F920FB60F92C9
:100F500011242F933F934F935F936F937F938F93BE
:100F60009F93AF93BF93EF93FF938091B900887FD6
:100F7000803609F44AC0F0F5883209F4A7C018F5A4
:100F8000803109F49BC0B8F4882309F4F9C0883093
:100F900009F494C0FF91EF91BF91AF919F918F9110
:100FA0007F916F915F914F913F912F910F900FBE65
:100FB0000F901F901895883109F488C0803251F73E
:100FC0008093450314C0803409F49DC040F48033FD
:100FD000B9F38833F9F68093450385ECB0C08035CA
:100FE00009F485C0883509F496C0883499F60E94C2
:100FF0005D06D0CF883909F48CC038F5883729F0E0
:1010000050F4883611F0803729F683E08093460348
:101010001092440357C0883809F47BC0803919F016
:10102000803809F0B7CF80914403803208F071C056
:10103000E091440381E08E0F809344038091BB00D4
:10104000F0E0EC5DFC4F80833DC0803B39F0E0F484
:10105000803A09F479C0883A09F09CCF84E0809303
:1010600046031092230310922203E0916E03F09145
:101070006F0309958091220381110FC081E0809355
:1010800022031092020309C0803C09F4A6CF883CD9
:1010900009F4A3CF883B09F07DCFE091230381E0E1
:1010A0008E0F80932303F0E0EE5FFC4F80818093EE
:1010B000BB00909123038091220329C080916B0390
:1010C0008093BB0085EC8093BC0064CF90916A0351
:1010D00080916903981758F5E0916A0381E08E0FBB
:1010E00080936A03F0E0E75BFC4F8081E9CFE091F9
:1010F0006A0381E08E0F80936A038091BB00F0E069
:10110000E75BFC4F808390916A0380916903981795
:10111000C8F285E8D8CFE0916A0381E08E0F809312
:101120006A038091BB00F0E0E75BFC4F8083809115
:10113000480381115CCF81E08093470384EA809368
:10114000BC001092460326CF85EC8093BC00109221
:10115000460380914403803230F4E0914403F0E090
:10116000EC5DFC4F10826091440370E0E0916C03F1
:10117000F0916D0384E293E00995109244030ACF45
:101180001092450334CF0E943B058BE591E00E940D
:10119000CD046AEF70E080E090E00C94CC01ECEAC2
:1011A000F3E01382128288EE93E0A0E0B0E0848343
:1011B0009583A683B78328E031E03183208325EC33
:1011C00030E03587248724EC30E03787268720EC11
:1011D00030E0318B208B21EC30E0338B228B22EC02
:1011E00030E0358B248B26EC30E0378B268B118E4C
:1011F000128E138E148EE9E4F4E01382128284833B
:101200009583A683B7838AE191E0918380830895D3
:10121000789484B5826084BD84B5816084BD85B5D1
:10122000826085BD85B5816085BD80916E008160DD
:1012300080936E0010928100809181008260809383
:101240008100809181008160809381008091800085
:101250008160809380008091B10084608093B100B0
:101260008091B00081608093B00080917A008460AA
:1012700080937A0080917A00826080937A008091D6
:101280007A008E7F80937A0080917A0080688093C4
:101290007A001092C100E091BC03F091BD0382E09E
:1012A0008083E091B803F091B9031082E091BA0312
:1012B000F091BB0388E080831092C403E091C003E7
:1012C000F091C10386E08083E091BE03F091BF03FB
:1012D000808180618083E091BE03F091BF038081B3
:1012E00088608083E091BE03F091BF0380818068B5
:1012F0008083E091BE03F091BF0380818F7D808366
:1013000060E08EE00E94070160E08FE00E9407012C
:1013100060E080E10E94070160E081E10E94070136
:1013200060E084E10E94070161E088E00E9407011B
:1013300061E089E00E94070161E086E00E94070108
:1013400061E085E00E94070161E087E00E940701FB
:1013500060E082E00E94070160E083E00E940701F4
:101360000E94FE01605E7C4F8F4F9F4F60939E03F3
:1013700070939F038093A0039093A1038EE00E943B
:1013800095018EE00E9495018C018FE00E949501ED
:101390008FE00E949501EC0185ED91E00E94CB0465
:1013A000C8010E945E0583EE91E00E94CB04CE014D
:1013B0000E945E05A801495751094732510538F48A
:1013C00081E09E01295731092732310508F080E07C
:1013D0009E012F5131094732510520F491E0C2306E
:1013E000D1050CF090E02732310508F09CC081E077
:1013F000809399030E94FE0160938D0370938E0386
:1014000080938F039093900384E190E090939203F4
:101410008093910381EF91E00E94CD0470E060E041
:1014200086E00E94380170E060E085E00E943801AB
:1014300060E088E00E94D90060E089E00E94D90065
:101440001092730310927203109271031092700342
:101450000E94810387E192E090936F0380936E0373
:1014600083E292E090936D0380936C0384E5809314
:10147000BA0086E795E090937503809374038FED2F
:1014800094E09093770380937603CC24CA9483E00E
:10149000D82EE12CF12C0AE012E09DE0292E312C0F
:1014A0002CE0422E512C3BE0632E712C49E0842E1F
:1014B000912CAA24A394B12CC091A203CC2309F4AB
:1014C0005EC080919903882309F49AC08FE00E943E
:1014D00095018FE00E949501EC010E94E803909332
:1014E0009D0380939C03CF3DD3401CF4059709F0E6
:1014F0006DC086E392E00E94CD041092990381E0D2
:10150000809397030E94FE0160939303709394036A
:10151000809395039093960386E190E090939203D5
:101520008093910346C00F3D134064F081E08093A7
:10153000980387E190E0909392038093910385E074
:1015400092E06ACF992349F089E190E09093920369
:101550008093910385E192E05FCFC538D3401CF4BE
:10156000882309F45BCF81E08093A2038FE090E0B1
:10157000909392038093910383E292E04DCF0E9477
:10158000FE0120919E0330919F034091A003509152
:10159000A103621773078407950708F0B8C10E947A
:1015A000E80390939D0380939C0390939B03809307
:1015B0009A0380E090E0892B09F47ECF0E94B70265
:1015C000882309F479CF0E94000076CF0E94FE01A3
:1015D00020918D0330918E0340918F0350919003A1
:1015E000621B730B840B950B613D7B4F8140910512
:1015F00000F3109299031092920310929103D9CFA5
:10160000CC23B9F20E94E80390939D0380939C033E
:1016100020919A0330919B038217930751F2909384
:101620009B0380939A038530910599F030F40397DA
:1016300009F0BFCF80E190E071CF8730910531F0A4
:10164000089709F0B6CF82E190E068CF81E190E0A1
:1016500065CF83E190E062CF0E94430685E090E091
:1016600090939203809391037FC13197E830F10505
:1016700008F0BDC1E25CF44F0C94590D490B660BA8
:10168000710B9B0B460BC50BD60BFA0B0E943B054F
:10169000AEC120918703309188032230310589F053
:1016A000C901992701962817390769F480918703A2
:1016B00090918803992702969093920380939103C7
:1016C00096C190E080E00E94CC05F0CF9091860317
:1016D00081E089270E94FF058091860390E00696AD
:1016E000EBCF8091840390918503019711F40E94C0
:1016F000C3088FEF9FEF90938503809384038CE55D
:1017000092E00E94CB0480918A030E944B05E898E6
:10171000109301010093000185E08093830370E042
:1017200060E086E00E94380160918A0370E085E005
:101730000E9438015CC18091840390918503892BBC
:1017400029F080E792E00E94CD0451C184E692E046
:101750000E94CB04809189030E944B0581E08CBBE1
:101760008BE092E0909301018093000180916900E9
:101770008C7F826080936900E89A70E060E086E088
:101780000E94380160918903D1CF809184039091A8
:101790008503892BB1F68BE892E00E94CB048091FF
:1017A00089030E944B050E94430621C18091840356
:1017B00090918503019611F40E94C308B0928503AD
:1017C000A092840383E892E00E94CB0480918A0374
:1017D0000E944B05E898109301010093000186E0F8
:1017E0008093830360918A0370E00E94380170E067
:1017F00060E09DCF81E080938C0390929203809271
:1018000091030E94FF05F3C021112CC0C0917A03FF
:10181000D0917B03D0937903C093780384E10E9435
:10182000950184E10E94950184E10E949501C81B05
:10183000D90BD7FF03C0D195C195D109239794F057
:1018400090937B0380937A0387E992E00E94CB0414
:1018500080917A0390917B030E945E0570929203BF
:1018600060929103C0918203C09381030E94B500EE
:1018700021E0009709F420E020938203892BF1F501
:10188000CC2369F00E94FE0160937D0370937E0378
:1018900080937F039093800381E080937C03809109
:1018A0007C03882309F4A3C0C0918403D0918503ED
:1018B0000E94FE0120917D0330917E0340917F03C1
:1018C00050918003621B730B840B950B643F714036
:1018D0008105910508F48BC0C130D10511F0219626
:1018E00031F48EEA92E00E94CD040E943B055092B2
:1018F00092034092910310927C0379C010927C0372
:10190000C11175C0309292032092910370C08091F2
:1019100099038111D6CD809198038111D2CD809108
:101920009703811146CE0E94E80390939D03809314
:101930009C0380918C038823B9F080918B038823CA
:1019400099F080919103909192030A9769F0109217
:101950008B030E94B500892B09F07ECE81E592E0D1
:101960000E94CD040E94310681E10E94950181E12F
:101970000E9495019C01A5E6BFEF0E945F0DA701A3
:1019800096010E94090D21503F4F4F4F5F4F20930A
:101990008A0380E10E94950180E10E9495019C01EB
:1019A000A5E6BFEF0E945F0DA70196010E94090DF9
:1019B00021503F4F4F4F5F4F20938903E0919C038D
:1019C000F0919D0320918C0380919A0390919B0349
:1019D000E817F90709F418CFF0939B03E0939A03F3
:1019E000222309F442CE359711F40E9431068091EA
:1019F0008403909185038130910519F0019609F0D7
:101A0000D8CD60918A0370E0809183030E943801F1
:101A1000D0CD052E97FB1EF400940E94200D57FD9B
:101A200007D00E94280D07FC03D04EF40C94200D23
:101A300050954095309521953F4F4F4F5F4F0895FA
:101A400090958095709561957F4F8F4F9F4F08952A
:101A5000A1E21A2EAA1BBB1BFD010DC0AA1FBB1FB2
:101A6000EE1FFF1FA217B307E407F50720F0A21B24
:101A7000B30BE40BF50B661F771F881F991F1A9491
:101A800069F760957095809590959B01AC01BD01BB
:101A9000CF010895A29FB001B39FC001A39F700D15
:101AA000811D1124911DB29F700D811D1124911D66
:101AB0000895EE0FFF1F0590F491E02D09940E9408
:101AC0004A0D332312F48A1B9B0B0C94690D0E9460
:101AD0004A0DB7FF0895821B930B0895F894FFCF2A
:101AE0000A020A0200000000ED024D027A023A03E7
:101AF000AB0289029D0200000000D403C903E50384
:101B00009F03C203AF03A0030D0A00526571756500
:101B10007374696E67206E6577204578706F737592
:101B200072652054696D652076616C75652E004D77
:101B30006F746F723A2053746F7000284272696537
:101B4000666C792E2E2E290043757272656E742094
:101B500046696C6D206C6F61642073746174653AC2
:101B6000200043757272656E74204578706F7375CE
:101B700072652053657474696E673A20006F7574DE
:101B800000696E005A6F6F6D206D6F64653A2000BA
:101B90002E2054656C6C696E6720526173706920E9
:101BA000746F207A6F6F6D20004C616D70206D6FC7
:101BB00064653A2000426F6F7420413020414443F5
:101BC0003A2000426F6F74204131204144433A2053
:101BD0000050616972696E67206D6F64653A2065B7
:101BE0006E746572004C6F672064756D703A206585
:101BF0006E74657200556E706169723A20656E741C
:101C0000657200557064617465206D6F64653A207B
:101C1000656E7465720050616972696E67206D6FE0
:101C200064653A2073746F702070726573736564B5
:101C30000046696C6D20656E646564004D6F746F5D
:101C4000723A203C3C20617420537065656420002A
:101C50004D6F746F72206E6F742073746F70706547
:101C6000642E004D6F746F723A203E3E20617420E6
:101C7000537065656420004E6577204578706F73FA
:101C80007572652053657474696E673A2000466901
:101C90006C6D20656E64656420647572696E672082
:101CA000636F6E74696E756F75732072756E202D1B
:0A1CB0002073746F7070696E670096
:00000001FF
