:100000000C94C6030C94560C0C942F0C0C94EE0319
:100010000C94EE030C94EE030C94EE030C94EE039C
:100020000C94EE030C94EE030C94EE030C94EE038C
:100030000C94EE030C94EE030C94EE030C94EE037C
:100040000C94E50B0C94EE030C94A30C0C947D0C17
:100050000C94EE030C94EE030C94EE030C94EE035C
:100060000C94D50C0C94EE034D6F746F723A2053C0
:10007000746F70002842726965666C792E2E2E2985
:10008000004C616D70206D6F64653A2000696E00F0
:100090006F7574002E2054656C6C696E6720526118
:1000A00073706920746F207A6F6F6D20005A6F6FC4
:1000B0006D206D6F64653A200043757272656E74D1
:1000C000204578706F737572652053657474696E1E
:1000D000673A200043757272656E742046696C6DD4
:1000E000206C6F61642073746174653A20005363FF
:1000F000616E2072656A6563746564206279205060
:1001000069004D656E753A206578697420286672BD
:100110006F6D20506929004D656E753A20626163EC
:100120006B20746F206D61696E202866726F6D2080
:100130005069290057694669206D656E753A2065DA
:1001400078697400546172676574206D656E753AE4
:100150002065786974004C6174656E6379206D6503
:100160006E753A206578697400415742206D656E5E
:10017000753A206578697400454550524F4D2062AC
:1001800061636B75703A2077697065640053656EC2
:1001900064696E67206E6577204578706F7375723D
:1001A000652054696D652076616C75652E00526519
:1001B000762E20005265762E20442028666C6F61D2
:1001C00074696E67290020574452463D0020424F13
:1001D00052463D002045585452463D0020504F5253
:1001E000463D00424F4F54204D435553523D3078C9
:1001F00000454550524F4D3A206E6F2063616C6947
:100200006220646174612C207573696E6720646577
:100210006661756C74206D6F746F724D696E447594
:1002200074793D31303000454550524F4D206D6F4F
:10023000746F724D696E44757479203D200043617E
:100240006C69623A20736176656420746F2045455D
:1002500050524F4D0043616C69623A206E657720C1
:100260006D6F746F724D696E44757479203D200016
:1002700043616C69623A207374616C6C65642061DF
:10028000742064757479200043616C69623A206E51
:100290006F204559452070756C7365202D20616273
:1002A0006F72746564202866696C6D206C6F616480
:1002B00065643F290043616C69623A20737461721E
:1002C00074696E67206D6F746F72207377656570E7
:1002D00000556E706169723A2065786974206D65A9
:1002E0006E7500556E706169723A206261636B20B1
:1002F000746F206D656E7500556E706169723A207D
:10030000636F6E6669726D00556E706169723A2036
:100310006E65787400556E706169723A207072650E
:1003200076004C6F67733A206261636B20746F20B4
:100330006D656E7500576946693A20657869742065
:100340006D656E7500576946693A20636F6E666920
:10035000726D00576946693A206E65787400576976
:1003600046693A207072657600576946693A20629C
:1003700061636B20746F206D656E750054617267E8
:1003800065743A2065786974206D656E75005461F6
:10039000726765743A20636F6E6669726D005461AE
:1003A000726765743A206E6578740054617267658F
:1003B000743A2070726576005461726765743A20F1
:1003C0006261636B20746F206D656E75004C6174A3
:1003D000656E63793A2065786974206D656E750085
:1003E0004C6174656E63793A206261636B20746F4F
:1003F000206D656E75004157423A2065786974201A
:100400006D656E75004157423A206261636B2074DE
:100410006F206D656E750050616972696E673A2074
:100420006261636B20746F206D656E750050616949
:1004300072696E67206D6F64653A2073746F702007
:1004400070726573736564005570646174653A20F9
:1004500065786974206D656E7500557064617465AA
:100460003A20636F6E6669726D00557064617465E1
:100470003A206E657874005570646174653A207036
:10048000726576005570646174653A206261636BD1
:1004900020746F206D656E75004D656E753A206530
:1004A000786974004D656E753A20656E7465726981
:1004B0006E67206974656D20004D656E753A207316
:1004C000656C6563746564206974656D20004D65B5
:1004D0006E753A2073656C65637465642069746534
:1004E0006D200020746F20004D656E753A20627596
:1004F00074746F6E206368616E6765642066726FE6
:100500006D20004E6577204578706F737572652099
:1005100053657474696E673A200046696C6D206596
:100520006E64656420647572696E6720636F6E74B3
:10053000696E756F75732072756E202D2073746FE0
:100540007070696E670046696C6D20656E646564E5
:1005500020647572696E6720636F6E74696E756F63
:1005600075732072756E202D2073746F7070696EB4
:1005700067004D6F746F723A203E3E2061742053C5
:100580007065656420004D6F746F72206E6F74200B
:1005900073746F707065642E003E20617420537018
:1005A00065656420004D6F746F72206E6F742073E8
:1005B000746F707065642E003C2061742053706508
:1005C000656420004D6F746F723A203C3C2061746A
:1005D000205370656564200053544F503A2069677A
:1005E0006E6F72696E6720286C6F6E672D70726512
:1005F00073732074696D696E67290046696C6D209C
:10060000656A65637420636F6D706C657465004521
:1006100078747261206672616D657320646F6E65B7
:10062000202D2073746F7070696E67207363616E24
:100630002C20656A656374696E672066696C6D005D
:1006400046696C6D20656E646564202D207363615E
:100650006E6E696E6720323520657874726120662F
:1006600072616D657300206D732028746F6F207345
:10067000686F727429004D656E753A2053544F505F
:100680002072656C656173656420616674657220B3
:10069000004D656E753A20656E74657220286C6F2A
:1006A0006E672070726573732053544F5029004D4C
:1006B000656E753A2053544F5020627574746F6E96
:1006C00020707265737365642C2074696D696E6740
:1006D0002E2E2E002C207461726765744D6F646538
:1006E0003D00546172676574206D656E753A2072C5
:1006F000652D656E746572202866726F6D20506975
:10070000292C206D656E7553746174653D005461CC
:10071000726765743A20656E746572696E67206DE4
:10072000656E75206D6F6465206669727374000074
:10073000000000240027002A0000000000250028F7
:10074000002B000000000023002600290004040400
:10075000040404040402020202020203030303036A
:100760000301020408102040800102040810200147
:100770000204081020000000080002010000030429
:1007800007000000000000000000F40D11241FBE4F
:10079000CFEFD8E0DEBFCDBF11E0A0E0B1E0E4EAEA
:1007A000F0E302C005900D92AC35B107D9F723E014
:1007B000ACE5B1E001C01D92AD30B207E1F713E046
:1007C000C6ECD3E004C02197FE010E943618C53C58
:1007D000D107C9F70E942D0E0C9450180C940000FC
:1007E000E89888EF93E090930401809303010895C3
:1007F0000895833081F028F4813099F08230A9F097
:1008000008958730A9F08830C9F08430B1F4809120
:1008100080008F7D03C0809180008F77809380005F
:10082000089584B58F7784BD089584B58F7DFBCFFF
:100830008091B0008F778093B00008958091B000D0
:100840008F7DF9CFCF93DF93282F30E0F901EB585C
:10085000F84F8491F901EF59F84FD491F901E35B16
:10086000F84FC491CC23A1F081110E94F903EC2F21
:10087000F0E0EE0FFF1FED5BF84FA591B491EC9106
:10088000ED2381E090E009F480E0DF91CF910895BD
:1008900080E090E0FACF1F93CF93DF93282F30E0D2
:1008A000F901EB58F84F8491F901EF59F84FD491C1
:1008B000F901E35BF84FC491CC23A9F0162F811105
:1008C0000E94F903EC2FF0E0EE0FFF1FE75CF84FFA
:1008D000A591B4918FB7F894EC91111108C0D095FF
:1008E000DE23DC938FBFDF91CF911F910895DE2B24
:1008F000F8CFCF93DF9390E0FC01EF59F84F2491AC
:10090000835B984FFC0184918823D1F090E0880F9D
:10091000991FFC01E15DF84FA591B491FC01E75CE2
:10092000F84FC591D49161110EC09FB7F8948C9186
:10093000E22FE0958E238C932881E223E8839FBFEA
:10094000DF91CF9108958FB7F894EC91E22BEC935F
:100950008FBFF6CF1F93CF93DF93182FEB0161E08A
:100960000E947904209739F460E0812FDF91CF91C4
:100970001F910C944B04CF3FD10511F461E0F5CFEA
:10098000E12FF0E0EB58F84FE491E33031F140F41F
:10099000E130B1F0E230E1F0C038D1057CF7E4CFCE
:1009A000E73029F1E83059F1E430B1F78091800067
:1009B000806280938000D0938B00C0938A0004C033
:1009C00084B5806884BDC7BDDF91CF911F91089524
:1009D00084B5806284BDC8BDF7CF809180008068F7
:1009E00080938000D0938900C0938800EDCF8091E0
:1009F000B00080688093B000C093B300E5CF8091D1
:100A0000B00080628093B000C093B400DDCF8E5000
:100A1000806480937C0080917A00806480937A0067
:100A200080917A0086FDFCCF8091780090917900CA
:100A300008953FB7F8948091600290916102A0916F
:100A40006202B091630226B5A89B05C02F3F19F042
:100A50000196A11DB11D3FBFBA2FA92F982F88273E
:100A6000BC01CD01620F711D811D911D43E0660F18
:100A7000771F881F991F4A95D1F708958F929F92EB
:100A8000AF92BF92CF92DF92EF92FF926B017C0107
:100A90000E9419054B015C01C114D104E104F10469
:100AA000B9F00E941905681979098A099B09683EFD
:100AB00073408105910580F321E0C21AD108E10855
:100AC000F10888EE880E83E0981EA11CB11CE4CFCB
:100AD000FF90EF90DF90CF90BF90AF909F908F905E
:100AE0000895E0911A02F0911B02309729F01092BC
:100AF00015021092140209940895CF93DF93AC016C
:100B0000E0911802F09119023097F1F090911702DC
:100B1000809116029817C0F090E0292F30E0261738
:100B2000370754F4D901A058BE4F240F351FE901EF
:100B300028812C939F5FF1CF1092170260931602C9
:100B4000CB01DF91CF910994DF91CF910895AF92BE
:100B5000BF92CF92DF92EF92FF920F931F93CF93AA
:100B6000DF936C017B018B01040F151FEB015E010C
:100B7000AE18BF08C017D10759F06991D601ED91A1
:100B8000FC910190F081E02DC6010995892B79F740
:100B9000C501DF91CF911F910F91FF90EF90DF90F2
:100BA000CF90BF90AF900895FC01538D448D252FB9
:100BB00030E0842F90E0821B930B541710F0CF96F7
:100BC000089501970895FC01918D828D981761F029
:100BD000A28DAE0FBF2FB11D5D968C91928D9F5F40
:100BE0009F73928F90E008958FEF9FEF0895FC011F
:100BF000918D828D981731F0828DE80FF11D858DD2
:100C000090E008958FEF9FEF0895FC01918D228D64
:100C1000892F90E0805C9F4F821B91098F739927E9
:100C2000089584E692E00E94050621E0892B09F4EC
:100C300020E0822F089580E090E0892B29F00E9427
:100C4000110681110C9400000895FC01A48DA80FD9
:100C5000B92FB11DA35ABF4F2C91848D90E00196FE
:100C60008F739927848FA689B7892C93A089B1891E
:100C70008C91837080648C93938D848D981306C0BF
:100C80000288F389E02D80818F7D80830895EF9223
:100C9000FF920F931F93CF93DF93EC0181E0888F36
:100CA0009B8D8C8D98131AC0E889F989808185FF06
:100CB00015C09FB7F894EE89FF896083E889F989A8
:100CC00080818370806480839FBF81E090E0DF91AA
:100CD000CF911F910F91FF90EF900895F62E0B8DFD
:100CE00010E00F5F1F4F0F731127E02E8C8D8E11B8
:100CF0000CC00FB607FCFACFE889F989808185FF1F
:100D0000F5CFCE010E942506F1CFEB8DEC0FFD2F24
:100D1000F11DE35AFF4FF0829FB7F8940B8FEA89D9
:100D2000FB8980818062CFCF0F931F93CF93DF9396
:100D30008C01D0E0C0E0F801EC0FFD1F6491662348
:100D400041F084E692E00E944706892B11F021963B
:100D5000F2CFCE01DF91CF911F910F910895CF93E4
:100D6000DF93EC01888D8823B9F0AA89BB89E889D3
:100D7000F9898C9185FD03C0808186FD0DC00FB679
:100D800007FCF7CF8C9185FFF2CF808185FFEDCFF7
:100D9000CE010E942506E9CFDF91CF9108952091E1
:100DA000C601260F3327331F21323105ECF4209181
:100DB000EA01FC0190E080E0243069F082E00895CF
:100DC000A091C6012191AC014A555E4FA40FB52FE9
:100DD000B11D2C930196861798F38091C601680F78
:100DE0006093C60180E0089581E008951092EA01C1
:100DF00081E08093EC011092EB0161E082E10E94BE
:100E00004B0461E083E10E944B04E9EBF0E0808158
:100E10008E7F808380818D7F808380E28093B80085
:100E200085E48093BC0008950895E09117028091B5
:100E30001602E81730F4F0E0E058FE4F808190E0B1
:100E400008958FEF9FEF08959091170280911602F9
:100E50002FEF3FEF981748F4E92FF0E0E058FE4FEE
:100E6000208130E09F5F90931702C901089580911F
:100E7000160290911702891B990B0895CF93DF9367
:100E8000CB01EA01642F0E94CF06CE01DF91CF9102
:100E90000895CF93DF931F92CDB7DEB7698361E0EA
:100EA000CE0101960E94CF0681E090E00F90DF9185
:100EB000CF91089590E080E008950F931F93CF9312
:100EC000DF938EE00E9407058EE00E9407058C01EB
:100ED0008FE00E9407058FE00E940705EC0160E8A3
:100EE00072E080E090E00E943E0520915C012223A8
:100EF00069F1023011052CF490E080E0C230D10598
:100F000074F1C8014F978732910508F444C08A559F
:100F100091098732910550F18A5A9109879748F1D2
:100F20000F3D83E0180744F5CE014F9787329105B6
:100F300030F18A5591098732910520F18A5A910939
:100F4000879718F1CF3D83E0D80714F590E080E053
:100F5000023011051CF421E022970CF020E02093D0
:100F60005C01DF91CF911F910F91089583E090E094
:100F7000EFCF81E090E0ECCF82E090E0E9CF88E035
:100F800090E0E6CF87E090E0E3CF86E090E0E0CF2E
:100F900085E090E0DDCF84E090E0E0CF10924A025F
:100FA00010924902109235021092360210923702C6
:100FB000109238021092480261E086E00E944B04D1
:100FC00061E085E00E944B040E94F00378948091D8
:100FD0004B02882331F085E090E090934D0280939E
:100FE0004C0208952FB7F89460915C0270915D02F5
:100FF00080915E0290915F022FBF26E096958795C3
:10100000779567952A95D1F708958F929F92AF9221
:10101000BF920F931F93CF93DF93CDB7DEB7A19706
:101020000FB6F894DEBF0FBECDBF19A2423008F450
:101030004AE08E010F5D1F4F842E912CB12CA12C04
:10104000A50194010E94F117E62FB901CA01EA3007
:1010500044F5E05DD801EE938D01232B242B252B45
:1010600079F790E080E0109769F0FD010190002091
:10107000E9F73197AF014A1B5B0BBD0184E692E0B3
:101080000E94A705A1960FB6F894DEBF0FBECDBF94
:10109000DF91CF911F910F91BF90AF909F908F9054
:1010A0000895E95CD7CF42E050E068E571E084E65E
:1010B00092E00C94A705CF93DF930E949406EC0175
:1010C0000E9453088C0F9D1FDF91CF9108950F93BD
:1010D0001F93CF93DF9380917F01882381F040910C
:1010E0007E0150E06EE571E081E093E00E943E07F2
:1010F00010927F01DF91CF911F910F910895C091C0
:101100004C02D0914D026C2F81E093E00E94490780
:10111000809120028823A9F00E94F20700911C020E
:1011200010911D0220911E0230911F02601B710B55
:10113000820B930B693873418105910510F0109271
:101140002002CA30D105C1F48DE891E00E945B080D
:1011500042E050E06AE272E081E093E00E943E07E4
:10116000809120028823D1F0C531D105B9F4D09304
:101170004D02C0934C02BECFCD30D10589F742E07D
:1011800050E06AE272E081E093E00E943E076091E5
:101190005D0181E093E00E944907E2CF629769F424
:1011A00080914F0290915002892B39F489E290E0AE
:1011B00090934D0280934C029DCF10924D0210925D
:1011C0004C0298CF10924A021092490210923502B6
:1011D0001092360210923702109238021092480292
:1011E00088E690E00E945B0861E086E00E944B0484
:1011F00061E085E00C944B040E94E20884E790E0F3
:101200000E945B0860E87EE380E090E00C943E057D
:10121000CF92DF92EF92FF92CF93DF936C01990F01
:10122000EE08FF08F7FE19C06DE284E692E00E9426
:101230004706EC0166277727CB016C197D098E09DB
:101240009F094AE00E9405088C0F9D1FDF91CF91F6
:10125000FF90EF90DF90CF9008954AE0C701B6016C
:10126000DF91CF91FF90EF90DF90CF900C94050825
:10127000CF93DF930E940809EC010E9453088C0F62
:101280009D1FDF91CF910895CF93DF9320913A0274
:1012900030913B022817390721F1EC01892B19F015
:1012A00081E00E947409D0933B02C0933A028DEA18
:1012B00090E00E949406CE010E94080984E990E023
:1012C0000E94940680913A0290913B02892B31F062
:1012D0008DE890E0DF91CF910C945B0880E990E07D
:1012E000F9CFDF91CF910895CF939091390298175C
:1012F00021F1C82F811104C090E080E00E944409D0
:10130000C093390281E890E00E9494068C2F90E00F
:101310000E94380980913902882349F061E088E011
:101320000E944B0461E089E0CF910C944B0460E093
:1013300088E00E944B0460E0F6CFCF9108951092B0
:101340004B02109241020E94F0030E94E20880E0EA
:101350000E94740910923B0210923A0289E090E0D8
:1013600090934D0280934C020895CF93DF93682FA2
:1013700070E090E080E04AE00E940508EC010E94E5
:1013800053088C0F9D1FDF91CF91089581E08093CA
:1013900048028CBB8EEC97E090930401809303018C
:1013A000E9E6F0E080818C7F82608083E89A60913A
:1013B0003C0270E086E00E94AA0470E060E085E0F4
:1013C0000C94AA04CF93DF9385ED8093BC008091A9
:1013D000A2019091A301A091A401B091A50107964B
:1013E000A11DB11D23E0B695A795979587952A95E0
:1013F000D1F72091BC0024FD03C01092EA0136C051
:101400004091A2015091A3016091A4017091A501A6
:10141000452B462B472B69F30097A105B10541F0F9
:1014200025E12A95F1F700000197A109B109E1CF63
:101430008091A10191E09093A0018823B9F0C0911F
:10144000B800D091BA008091BC008A7B8093BC0028
:1014500060E082E10E944B0460E083E10E944B0463
:101460000E94F606D093BA00C093B800DF91CF91E6
:101470000895FF920F931F93CF93DF93EC01F62E05
:1014800008811981C8010E94A917F81621F06F2D53
:10149000C8010E94B117CE01DF91CF911F910F912A
:1014A000FF900895AF92BF92CF92DF92EF92FF929A
:1014B0000F931F93CF93DF93CDB7DEB7A2970FB6ED
:1014C000F894DEBF0FBECDBF181619060CF074C01D
:1014D00081E093E00E942407182FCE0101965C0161
:1014E0006C01F12C00911602809117020817B1F0DF
:1014F00090E2F91649F081E093E00E942407F3940A
:10150000F60181936F01EECF80911702081709F45D
:1015100045C181E093E00E942407F6CF173319F507
:10152000F1E0FF1508F048C009811A811027012752
:1015300010276E0183E0C80ED11C22E0E22E0A19AA
:101540001B090E5F1F4FEF14B9F1F60161916F0196
:10155000C8018E0F9F1F9AA389A3CE0181960E9476
:10156000390AE394F0CF183309F01EC1F2E0FF15F9
:1015700018F509811A81102701271027EB8080E2D6
:101580008E1510F490E2E92E8EE5C82E81E0D82E5B
:10159000F12C09551140FE1451F0C8018C0D9D1D10
:1015A0000E94A917F60181936F01F394F4CFF09292
:1015B0007E0181E080937F01A2960FB6F894DEBF92
:1015C0000FBECDBFDF91CF911F910F91FF90EF9094
:1015D000DF90CF90BF90AF9008951092290281E0E4
:1015E00090E09093500280934F0210924D0210921F
:1015F0004C0210922002E0CF1092210281E090E094
:101600009093500280934F0210924D0210924C0220
:10161000D3CF183879F41092230281E090E09093B0
:10162000500280934F0210924D0210924C0286E5B8
:1016300091E0C8C0143879F410924E0281E090E035
:101640009093500280934F0210924D0210924C02E0
:1016500084E491E0B7C0163879F41092220281E058
:1016600090E09093500280934F0210924D0210929E
:101670004C0284E391E0A6C0153821F481E0809308
:1016800051029ACF193251F580914F029091500238
:101690000297C8F081E090E09093500280934F024F
:1016A00010925A02109229021092240210922302E0
:1016B00010924E021092210210924D0210924C0292
:1016C00087E191E07FC01092500210924F02109279
:1016D0004D0210924C0282E091E074C0173881F400
:1016E00080914B02882309F467CF10924B0210922D
:1016F0004102809134020E9474098EEE90E062C033
:10170000103809F580914B02882309F455CF81E008
:101710008093410251CF143109F45FCF173109F49E
:101720006BCF133809F075CF1092240281E090E05E
:101730009093500280934F0210924D0210924C02EF
:1017400089E691E03FC0113809F036CF83E00E946E
:101750002204182F80935D0184E10E94070584E133
:101760000E94070590932B0280932A0284ED90E05B
:101770000E949406812F0E94B50989EB90E00E9497
:10178000940680912A0290912B020E9438098DE0E4
:1017900090E090934D0280934C020ECF173309F4E2
:1017A000C3CE183309F4E5CE193309F0B4CF85E080
:1017B00090E09AA389A360E0CE0181960E94390A45
:1017C00088E791E00E945B08F7CE1F920F920FB658
:1017D0000F9211242F933F938F939F93AF93BF93B7
:1017E00080915C0290915D02A0915E02B0915F02D7
:1017F00030915B0226E0230F2D3758F50296A11D8C
:10180000B11D20935B0280935C0290935D02A093D4
:101810005E02B0935F028091600290916102A0919C
:101820006202B09163020196A11DB11D8093600216
:1018300090936102A0936202B0936302BF91AF9153
:101840009F918F913F912F910F900FBE0F901F90FE
:10185000189529E8230F0396A11DB11DD2CF1F9221
:101860000F920FB60F9211242F933F934F935F93D4
:101870006F937F938F939F93AF93BF93EF93FF9358
:10188000E0910501F09106010995FF91EF91BF915B
:10189000AF919F918F917F916F915F914F913F9108
:1018A0002F910F900FBE0F901F9018951F920F92BF
:1018B0000FB60F9211242F933F934F935F936F9323
:1018C0007F938F939F93AF93BF93EF93FF93E09199
:1018D0000301F09104010995FF91EF91BF91AF9140
:1018E0009F918F917F916F915F914F913F912F9138
:1018F0000F900FBE0F901F9018951F920F920FB66A
:101900000F9211242F933F934F935F936F937F9385
:101910008F939F93AF93BF93EF93FF9384E692E0EF
:101920000E942506FF91EF91BF91AF919F918F91FA
:101930007F916F915F914F913F912F910F900FBECB
:101940000F901F9018951F920F920FB60F921124AF
:101950002F938F939F93EF93FF93E0917402F091F5
:1019600075028081E0917A02F0917B0282FD1BC0BA
:10197000908180917D028F5F8F7320917E0282170C
:1019800041F0E0917D02F0E0EC59FD4F958F80939E
:101990007D02FF91EF919F918F912F910F900FBE3C
:1019A0000F901F9018958081F4CF1F920F920FB661
:1019B0000F9211242F933F934F935F936F937F93D5
:1019C0008F939F93AF93BF93EF93FF938091B90051
:1019D000887F803609F44AC0F0F5883209F4A7C040
:1019E00018F5803109F49BC0B8F4882309F4F9C0D4
:1019F000883009F494C0FF91EF91BF91AF919F910E
:101A00008F917F916F915F914F913F912F910F90A7
:101A10000FBE0F901F901895883109F488C080324E
:101A200051F78093E90114C0803409F49DC040F45B
:101A30008033B9F38833F9F68093E90185ECB0C0BF
:101A4000803509F485C0883509F496C0883499F644
:101A50000E94E209D0CF883909F48CC038F5883764
:101A600029F050F4883611F0803729F683E080930E
:101A7000EA011092E80157C0883809F47BC0803928
:101A800019F0803809F0B7CF8091E801803208F072
:101A900071C0E091E80181E08E0F8093E8018091B0
:101AA000BB00F0E0E853FE4F80833DC0803B39F03F
:101AB000E0F4803A09F479C0883A09F09CCF84E0D8
:101AC0008093EA011092C7011092C601E0911202C0
:101AD000F091130209958091C60181110FC081E038
:101AE0008093C6011092A60109C0803C09F4A6CFDC
:101AF000883C09F4A3CF883B09F07DCFE091C70172
:101B000081E08E0F8093C701F0E0EA55FE4F80819F
:101B10008093BB009091C7018091C60129C080913C
:101B20000F028093BB0085EC8093BC0064CF909142
:101B30000E0280910D02981758F5E0910E0281E097
:101B40008E0F80930E02F0E0E351FE4F8081E9CFCB
:101B5000E0910E0281E08E0F80930E028091BB0017
:101B6000F0E0E351FE4F808390910E0280910D02D0
:101B70009817C8F285E8D8CFE0910E0281E08E0F69
:101B800080930E028091BB00F0E0E351FE4F808312
:101B90008091EC0181115CCF81E08093EB0184EABC
:101BA0008093BC001092EA0126CF85EC8093BC00A4
:101BB0001092EA018091E801803230F4E091E8016E
:101BC000F0E0E853FE4F10826091E80170E0E09190
:101BD0001002F091110288EC91E009951092E80151
:101BE0000ACF1092E90134CFE4E6F2E013821282C8
:101BF00088EE93E0A0E0B0E084839583A683B7836A
:101C000028E331E03183208325EC30E035872487D9
:101C100024EC30E03787268720EC30E0318B208BB6
:101C200021EC30E0338B228B22EC30E0358B248B9F
:101C300026EC30E0378B268B118E128E138E148E8D
:101C4000E1E0F3E01382128284839583A683B78355
:101C50008AE491E0918380830895CF93DF93CDB799
:101C6000DEB72F970FB6F894DEBF0FBECDBF7894C6
:101C700084B5826084BD84B5816084BD85B5826091
:101C800085BD85B5816085BD80916E008160809342
:101C90006E001092810080918100826080938100AB
:101CA00080918100816080938100809180008160BB
:101CB000809380008091B10084608093B100809116
:101CC000B00081608093B00080917A00846080933E
:101CD0007A0080917A00826080937A0080917A0005
:101CE0008E7F80937A0080917A00806880937A005A
:101CF0001092C100F4B614BE61E089E00E9479043C
:101D000060E089E00E944B04E0917402F09175025A
:101D100082E08083E0917002F09171021082E09184
:101D20007202F091730288E0808310927C02E0914D
:101D30007802F091790286E08083E0917602F0915A
:101D40007702808180618083E0917602F091770252
:101D5000808188608083E0917602F09177028081B3
:101D600080688083E0917602F091770280818F7D98
:101D7000808381E090E00E94A917853A09F027C18D
:101D800090E080E00E94A917182F8093020187E25B
:101D900092E00E949406812F0E94B50983EE91E0A3
:101DA0000E9494066F2D70E090E080E040E10E9478
:101DB00005088CED91E00E9494068F2D817090E0D3
:101DC0000E94080984ED91E00E949406F1FA8827A8
:101DD00080F990E00E9408098DEC91E00E94940641
:101DE000F2FA882780F990E00E94080986EC91E0D9
:101DF0000E949406F3FA882780F990E00E9438093F
:101E000060E08EE00E94790460E08FE00E94790437
:101E100060E080E10E94790460E081E10E94790441
:101E200060E084E10E94790461E088E00E94790426
:101E300061E086E00E94790461E085E00E94790417
:101E400060E082E00E94790460E083E00E9479040F
:101E500060E085E10E94790483E00E94220421E091
:101E6000892B09F420E020933202209331020E9452
:101E7000F207605E7C4F8F4F9F4F609356027093C6
:101E80005702809358029093590285B5887F8160EC
:101E900085BD61E086E00E944B0461E085E00E9420
:101EA0004B0460E088E00E944B0460E089E00E94FF
:101EB0004B04109217021092160210921502109203
:101EC00014020E94F60681E795E090931302809336
:101ED00012028DE795E0909311028093100284E541
:101EE0008093BA0082E59AE09093190280931802D9
:101EF00087E698E090931B0280931A0284E10E9487
:101F0000070585E10E9407058C017C016C0157E003
:101F1000A52EB12C85E10E94070585E10E940705E9
:101F2000080F191F8C159D050CF46C01E816F906B5
:101F30000CF47C0121E0A21AB10861F717FF02C07E
:101F4000095F1F4F43E0159507954A95E1F7EC1897
:101F5000FD0839E7E316F1040CF43EC084EB91E090
:101F60000E945B0888248A9423E0922EA12CB12C35
:101F700038E0232E312CEE24E394F12C80915A0288
:101F8000811158C00E94F207009156021091570229
:101F90002091580230915902601771078207930708
:101FA00008F048C00E945D07909355028093540248
:101FB000909353028093520280E090E0892BF1F2DB
:101FC0000E9411068823B9F20E940000D4CF81EF4D
:101FD00091E00E945B08E2CE8FE0E7E0F1E0DE01F5
:101FE000119601900D928A95E1F7E8E1F1E090E019
:101FF00080E07C012FEFE21AF20A21913191021761
:10200000130714F07C0104C0C7018E30910589F7D5
:102010008EEA91E00E949406E1E0F0E0EC0FFD1FF3
:10202000EE0DFF1D608184E692E00E9447060E944B
:10203000530898CF809151028823C1F180914F02BB
:102040009091500210925102892B41F4F09250026B
:10205000E0924F028EE097E00E945B0881E080935F
:102060004E0286E090E09093500280934F021092CF
:102070004D0210924C020E945D079093550280938E
:102080005402909353028093520282EE96E00E9493
:10209000940686E090E00E94080984ED96E00E9494
:1020A000940680914E0290E00E943809C0904F0241
:1020B000D0905002C114D10409F410C40E945D07ED
:1020C0008C01909355028093540231E0C316D104E1
:1020D00009F07DC1C0905202D09053028C159D052D
:1020E00009F46ACF88EE94E00E949406C6010E942B
:1020F000080983EE94E00E94940680915402909126
:1021000055020E9438098091540290915502909393
:1021100053028093520284309105A1F180F4039719
:1021200009F04ACF1092500210924F0289E290E0DB
:1021300090934D0280934C0289E994E042C186302D
:10214000910509F438C0079709F036CF84EA94E086
:102150000E949406809142020E94B509E0914202D9
:10216000EA3008F031C1F0E0E854FF4E0C94361824
:10217000EF10FF10151121112D11391145114F11BB
:10218000E41158118091420290E009966AE070E0F3
:102190000E942218182F809342028AE290E09093C6
:1021A0004D0280934C028EEC94E00E949406812FA5
:1021B0000E94B50901CF8091420290E001966AE049
:1021C00070E00E942218182F809342028BE290E068
:1021D00090934D0280934C0289EB94E0E6CF82E02D
:1021E00090E09093500280934F0281E080935A02D6
:1021F0008EE090E090934D0280934C02DDCE83E020
:1022000090E09093500280934F0281E080932902E6
:102210000E94F207609325027093260280932702A2
:102220009093280283E190E0E5CF84E090E09093E2
:10223000500280934F0281E0809324028EE190E06F
:10224000D9CF85E090E09093500280934F0281E0D7
:102250008093230282E390E0CDCF86E090E09093DC
:10226000500280934F0281E080934E0283E290E01F
:10227000C1CF87E090E09093500280934F0281E0BD
:10228000809322028DE290E0B5CF309250022092EE
:102290004F0281E08093210286E190E0ABCF89E09C
:1022A00090E09093500280934F0288E190E0A2CF9B
:1022B0001092500210924F0289E290E090934D02EA
:1022C00080934C0285EB92E00E945B086FEF70E018
:1022D00086E00E94AA0470E060E085E00E94AA0403
:1022E0000E94F2072B013C0182E00E942204182F79
:1022F0000E94F2076419750986099709683B7B40BB
:102300008105910508F00FC682E00E942204113079
:1023100071F78111ECCF0FEF10E0D02EB80186E0FD
:102320000E94AA0460E07BE480E090E00E943E0509
:102330000E94F2072B013C0182E00E942204C82E79
:102340000E94F2076419750986099709683E73406F
:102350008105910508F0EEC582E00E94220491E01B
:10236000C912EDCF8111EBCF025011090D311105CA
:10237000A1F68EE1D82E0E94E2080D2D10E0015F3B
:102380001F4F0F3F110519F010F00FEF10E00093F1
:10239000020185E592E00E949406802F0E94B50913
:1023A000609102011A821982CE0101960E94390AB7
:1023B000FA82E98265EACE0101960E94390A8EE32B
:1023C00092E00E945B08F8CD8CE290E013CF809100
:1023D0005A02882309F457C0809152029091530207
:1023E0000817190709F4E8CD10935302009352021D
:1023F00005301105C9F180F403301105E9F004300E
:10240000110509F0D9CD8FE090E090934D028093B3
:102410004C0287E794E0D5CF06301105E1F0073094
:10242000110509F0C9CD81E190E090934D028093B0
:102430004C028AE594E0C5CFF0925002E0924F0240
:1024400010925A0282E190E090934D0280934C02E8
:1024500084E894E0B6CF80E190E090934D028093C1
:102460004C028AE694E0ADCF1092500210924F02D7
:1024700010925A0282E190E090934D0280934C02B8
:1024800088E494E09ECF80912902882309F457C004
:102490008FE00E9407058FE00E9407058F3D934063
:1024A0001CF405301105D1F48DE294E00E945B0824
:1024B000F0925002E0924F021092290281E0809344
:1024C00020020E94F20760931C0270931D02809309
:1024D0001E0290931F0285E190E08CCE033011051F
:1024E00079F4F0925002E0924F021092290285E1B5
:1024F00090E090934D0280934C0287E194E061CF8D
:102500000E94F207009125021091260220912702D5
:1025100030912802601B710B820B930B613D7B4F46
:102520008140910508F448CDF0925002E0924F02AC
:102530001092290210924D0210924C023DCD8091D2
:102540002402882309F445C08091520290915302DD
:102550000817190709F430CD109353020093520263
:102560000530110539F150F40330110589F08FE180
:1025700090E00430110509F43DCE1ECD0630110562
:10258000B1F081E290E00730110509F433CE14CDAB
:10259000F0925002E0924F021092240282E290E008
:1025A00090934D0280934C0285E094E00ACF80E244
:1025B00090E020CE1092500210924F02109224020E
:1025C00082E290E090934D0280934C0286EF93E07C
:1025D000F8CE80912302882309F445C080915202ED
:1025E000909153020817190709F4E6CC109353028F
:1025F000009352020530110539F150F403301105F2
:1026000089F083E390E00430110509F4F3CDD4CCD4
:1026100006301105B1F085E390E00730110509F4AB
:10262000E9CDCACCF0925002E0924F021092230200
:1026300086E390E090934D0280934C0280EE93E00D
:10264000C0CE84E390E0D6CD1092500210924F029B
:102650001092230286E390E090934D0280934C0207
:102660008DEC93E0AECE80914E02882309F457C0E2
:1026700080915202909153020817190709F49CCCDB
:10268000109353020093520205301105C9F180F4F2
:1026900003301105E9F00430110509F08DCC84E216
:1026A00090E090934D0280934C028BEA93E089CEA8
:1026B00006301105E1F00730110509F07DCC86E206
:1026C00090E090934D0280934C028EE893E079CE97
:1026D000F0925002E0924F0210924E0287E290E098
:1026E00090934D0280934C0288EB93E06ACE85E292
:1026F00090E090934D0280934C028EE993E061CE7E
:102700001092500210924F0210924E0287E290E017
:1027100090934D0280934C028CE793E052CE8091CF
:102720002202882309F457C08091520290915302EB
:102730000817190709F440CC109353020093520272
:1027400005301105C9F180F403301105E9F00430BA
:10275000110509F031CC8EE290E090934D02809308
:102760004C028EE593E02DCE06301105E1F00730E6
:10277000110509F021CC80E390E090934D02809305
:102780004C0285E493E01DCEF0925002E0924F029D
:102790001092220281E390E090934D0280934C02CC
:1027A00089E693E00ECE8FE290E090934D02809305
:1027B0004C0283E593E005CE1092500210924F0236
:1027C0001092220281E390E090934D0280934C029C
:1027D00085E393E0F6CD80912102882339F10E94B0
:1027E0005D079093550280935402209152023091DC
:1027F00053028217930709F4DFCB9093530280931F
:1028000052028330910519F0059709F0D5CBF0926B
:102810005002E0924F021092210287E190E09093E3
:102820004D0280934C0282E293E0CBCD89E0C81642
:10283000D10409F0C1CB8091520290915302081744
:10284000190709F4B9CB10935302009352020530D3
:102850001105B9F180F40330110531F1043011058F
:1028600009F0AACB89E190E090934D0280934C024D
:1028700085E193E0A6CD0630110569F0073011051A
:1028800009F09ACB8BE190E090934D0280934C023B
:1028900088EF92E096CD2AE130E030934D0220930C
:1028A0004C0288E093E08DCDF0925002E0924F020E
:1028B0008CE190E090934D0280934C0283EE92E085
:1028C00080CD1092500210924F022CE130E03093F4
:1028D0004D0220934C0281ED92E073CD80914B022A
:1028E00081110BC08091490290914A02892B29F4F1
:1028F00080914802882309F4BFC0109247020E94C9
:102900005D07909355028093540280914B02882377
:10291000E1F1809141028823C1F180914C029091B4
:102920004D02099791F18091480281112EC01092B9
:10293000410283E00E942204892B09F011C1809199
:102940004002811112C080913F028F5F80933F024D
:102950008330C8F089E18093400280E496E00E94D1
:102960005B0880914002882371F08150809340027F
:10297000811109C08FE096E00E945B080E949F09C8
:102980008FE080933E020E94C60980913E02882318
:1029900061F090914802911108C0815080933E02ED
:1029A000882309F4E0C00E94C60981E10E9407055E
:1029B00040900201512C712C612C81E10E9407058D
:1029C0002FEF421A510861087108DC01A30192013E
:1029D0000E94E917A50194010E94BF1721503F4FA3
:1029E0004F4F5F4F20933D0280E10E94070580E139
:1029F0000E940705DC01A30192010E94E917A501CD
:102A000094010E94BF1729013A018FEF480E511C13
:102A1000611C711C40923C02E0915402F0915502FD
:102A200080914B022091520230915302E217F3073A
:102A300009F4B9C1F0935302E0935202882309F4D8
:102A400097C0359749F4909147029111A5C088230A
:102A500009F49FC00E949F090091490210914A0207
:102A60000130110509F070C260913D0270E0809163
:102A700033020E94AA04A0CA8FE00E9407058FE0DB
:102A80000E940705209147028F3D93400CF441C0FE
:102A9000211112C081E0809347020E94F2076093E7
:102AA00043027093440280934502909346028FEA5A
:102AB00096E00E945B0823CF0E94F2070091430238
:102AC000109144022091450230914602601B710B27
:102AD000820B930B683B7B408105910508F40FCF77
:102AE000F0925002E0924F0210924202109247027E
:102AF00010925302109252021092550210925402F8
:102B000088E290E090934D0280934C0281E996E038
:102B100058CC222309F4F3CE0E94F207009143021D
:102B20001091440220914502309146022B013C0154
:102B3000401A510A620A730A86E796E00E949406D8
:102B40004AE0C301B2010E94050886E696E00E94B1
:102B50005B08109247021092530210925202CFCE9D
:102B600010923F02FECE8BEF95E00E945B081DCFD6
:102B70003197E830F10508F06FCFEF53FA4E0C941F
:102B80003618D115EA15F515301623155E1675168B
:102B9000BF160E94E20860CF88ED95E00E945B08B6
:102BA0005BCF80913A0290913B028230910579F09F
:102BB000992701960E94440980913A0290913B0224
:102BC0009927029690934D0280934C0245CF90E056
:102BD00080E0F0CF9091390281E089270E9474094A
:102BE0008091390290E00696EDCF80914902909154
:102BF0004A02019711F40E94FC082FEF3FEF309337
:102C00004A022093490284EC95E00E949406809148
:102C10003D020E94B5090E94F00385E080933302D3
:102C200070E060E086E00E94AA04C0903D0200913E
:102C3000020110E0D12C0C151D056CF4B80185E0E3
:102C40000E94AA0460E471E080E090E00E943E05EA
:102C50000D5F1F4FF0CFB60185E00E94AA04FCCEA5
:102C60008091490290914A02892B29F5809148026E
:102C7000811121C088EB95E00E949406842D0E946A
:102C8000B50981E0809348028CBB8EEC97E090936D
:102C9000040180930301809169008C7F826080939E
:102CA0006900E89A70E060E086E00E94AA04609102
:102CB0003C0270E0D1CF85EA95E070CF8091490267
:102CC00090914A02892B71F48091480281110AC0C7
:102CD00089E995E00E949406842D0E94B5090E941E
:102CE000C609BACE86E895E059CF80914902909105
:102CF0004A02019611F40E94FC08F0924A02E09206
:102D0000490283E00E942204019791F50E94F20794
:102D100060933502709336028093370290933802A5
:102D200082E795E00E94940680913D020E94B509D9
:102D30000E94F00386E08093330270E060E085E05B
:102D40000E94AA04C0903D020091020110E0D12C23
:102D50000C151D058CF4B80186E00E94AA0460E4FD
:102D600071E080E090E00E943E050D5F1F4FF0CFC4
:102D700060E070E0CB01CCCFB60186E06ECF8091F1
:102D800039028093340281E080934B02109240021A
:102D900010923F0210923E0230924D0220924C025D
:102DA0000E94740959CE811157CE84E10E94070513
:102DB00084E10E94070584E10E940705209100013B
:102DC00030910101281B390B37FF03C03195219544
:102DD000310928303105C4F090932B0280932A02E8
:102DE000909301018093000183E095E00E94940696
:102DF00080912A0290912B020E9438098AE090E08B
:102E000090934D0280934C02D0903202D0923102C6
:102E100083E00E94220421E0009709F420E020933F
:102E200032020091490210914A02892B09F057C0E1
:102E3000DD2069F00E94F20760932C0270932D024E
:102E400080932E0290932F0281E080933002809134
:102E50003002882309F400CE0E94F20740902C0231
:102E600050902D0260902E0270902F026419750907
:102E700086099709643F71408105910508F4ECCDFE
:102E800086E495E00F3F1007E9F001301105F1F4F9
:102E900040903502509036026090370270903802B0
:102EA000411451046104710489F00E94F20764190D
:102EB000750986099709603375478105910530F0DA
:102EC0008AE195E00E945B080E94E2088BE090E0B6
:102ED00090934D0280934C0210923002BDCD10921F
:102EE00030020130110571F5809135029091360262
:102EF000A0913702B0913802892B8A2B8B2B51F489
:102F00000E94F20760933502709336028093370275
:102F100090933802D110A8CD2CE030E030934D02D0
:102F200020934C0299CD88E892E00E945B080E94B1
:102F3000E20842C880E792E00E9494068D2D0E942C
:102F4000B50919CADD2041F30F3F1F4F09F034C8FE
:102F50008BCDF999FECF92BD81BDF89A992780B5A6
:102F60000895262FF999FECF1FBA92BD81BD20BDCD
:102F70000FB6F894FA9AF99A0FBE01960895052EA5
:102F800097FB1EF400940E94D61757FD07D00E94AD
:102F9000F11707FC03D04EF40C94D61750954095CA
:102FA000309521953F4F4F4F5F4F089590958095F5
:102FB000709561957F4F8F4F9F4F08950E94131812
:102FC000A59F900DB49F900DA49F800D911D11247D
:102FD0000895B7FF0C94DE170E94DE17821B930B37
:102FE0000895A1E21A2EAA1BBB1BFD010DC0AA1F4A
:102FF000BB1FEE1FFF1FA217B307E407F50720F062
:10300000A21BB30BE40BF50B661F771F881F991FDC
:103010001A9469F760957095809590959B01AC0125
:10302000BD01CF010895A29FB001B39FC001A39F2E
:10303000700D811D1124911DB29F700D811D1124F1
:10304000911D089597FB072E16F4009407D077FD85
:1030500009D00E943C1807FC05D03EF4909581955C
:103060009F4F0895709561957F4F0895EE0FFF1F54
:103070000590F491E02D0994AA1BBB1B51E107C0F8
:10308000AA1FBB1FA617B70710F0A61BB70B881FF8
:10309000991F5A95A9F780959095BC01CD01089587
:0430A000F894FFCFD2
:1030A4009CFF64F803F80345464748494A4B4C4D96
:1030B4004E4F50515253CA03890348030703C602B3
:1030C400850244020302C20181014001FF00BE00E7
:1030D4007D003C00000000004706A705D405AF06AC
:1030E4000506E305F7050000000049073E075A07F7
:0C30F40014073707240715070D0A000019
:00000001FF
