:100000000C9478000C94EB070C94C4070C94A0009B
:100010000C94A0000C94A0000C94A0000C94A000E0
:100020000C94A0000C94A0000C94A0000C94A000D0
:100030000C94A0000C94A0000C94A0000C94A000C0
:100040000C947A070C94A0000C9438080C941208B5
:100050000C94A0000C94A0000C94A0000C94A000A0
:100060000C946A080C94A00020574452463D00208E
:10007000424F52463D002045585452463D002050C4
:100080004F52463D00424F4F54204D435553523D31
:1000900030780000000000240027002A0000000043
:1000A00000250028002B0000000000230026002966
:1000B0000004040404040404040202020202020311
:1000C000030303030301020408102040800102041B
:1000D000081020010204081020000000080002019E
:1000E0000000030407000000000000000000A70952
:1000F00011241FBECFEFD8E0DEBFCDBF15E0A0E0DA
:10010000B1E0EAE9F4E202C005900D92A03FB10728
:10011000D9F727E0A0EFB5E001C01D92A837B207DC
:10012000E1F710E0C8E7D0E004C02197FE010E948B
:100130002212C737D107C9F70E94E0090C944B126D
:100140000C940000833081F028F4813099F08230E3
:10015000A9F008958730A9F08830C9F08430B1F44F
:10016000809180008F7D03C0809180008F77809385
:100170008000089584B58F7784BD089584B58F7D00
:10018000FBCF8091B0008F778093B000089580916D
:10019000B0008F7DF9CFCF93DF93ECEDF0E0849149
:1001A000E8ECF0E0D491E4EBF0E0C491CC23A1F0D2
:1001B00081110E94A200EC2FF0E0EE0FFF1FE95525
:1001C000FF4FA591B491EC91ED2381E090E009F40B
:1001D00080E0DF91CF91089580E090E0FACF1F9307
:1001E000CF93DF93282F30E0F901E752FF4F84913E
:1001F000F901EB53FF4FD491F901EF54FF4FC49134
:10020000CC23A9F0162F81110E94A200EC2FF0E060
:10021000EE0FFF1FE356FF4FA591B4918FB7F894EF
:10022000EC91111108C0D095DE23DC938FBFDF91D4
:10023000CF911F910895DE2BF8CFCF93DF9390E0FD
:10024000FC01EB53FF4F24918F549F4FFC0184918D
:100250008823D1F090E0880F991FFC01ED56FF4FE5
:10026000A591B491FC01E356FF4FC591D491611162
:100270000EC09FB7F8948C91E22FE0958E238C935B
:100280002881E223E8839FBFDF91CF9108958FB744
:10029000F894EC91E22BEC938FBFF6CF1F93CF93A2
:1002A000DF93182FEB0161E00E941D01209739F4C4
:1002B00060E0812FDF91CF911F910C94EF00CF3F31
:1002C000D10511F461E0F5CFE12FF0E0E752FF4FE7
:1002D000E491E33031F140F4E130B1F0E230E1F0AB
:1002E000C038D1057CF7E4CFE73029F1E83059F187
:1002F000E430B1F780918000806280938000D093D9
:100300008B00C0938A0004C084B5806884BDC7BDDB
:10031000DF91CF911F91089584B5806284BDC8BDDF
:10032000F7CF80918000806880938000D09389000F
:10033000C0938800EDCF8091B00080688093B000BA
:10034000C093B300E5CF8091B00080628093B0008D
:10035000C093B400DDCF8E50806480937C00809188
:100360007A00806480937A0080917A0086FDFCCFC9
:10037000809178009091790008953FB7F89480912A
:10038000CB069091CC06A091CD06B091CE0626B5B5
:10039000A89B05C02F3F19F00196A11DB11D3FBFBD
:1003A000BA2FA92F982F8827BC01CD01620F711D8C
:1003B000811D911D43E0660F771F881F991F4A9585
:1003C000D1F708958F929F92AF92BF92CF92DF9212
:1003D000EF92FF924B015C010E94BD016B017C0119
:1003E0000E94BD016C197D098E099F09683E73400A
:1003F00081059105A8F321E0821A9108A108B108AE
:1004000088EEC80E83E0D81EE11CF11C8114910413
:10041000A104B10429F7FF90EF90DF90CF90BF9037
:10042000AF909F908F9008952FB7F8946091C70672
:100430007091C8068091C9069091CA062FBF089591
:1004400008951092B9061092B8061092B70661E0AE
:1004500086E00E94EF0061E085E00C94EF00E091FF
:100460008C06F0918D06309729F010928706109235
:10047000860609940895CF93DF93AC01E0918A0634
:10048000F0918B063097F1F0909189068091880663
:100490009817C0F090E0292F30E02617370754F462
:1004A000D901AE50BA4F240F351FE90128812C9392
:1004B0009F5FF1CF1092890660938806CB01DF9190
:1004C000CF910994DF91CF910895AF92BF92CF92CF
:1004D000DF92EF92FF920F931F93CF93DF936C0104
:1004E0007B018B01040F151FEB015E01AE18BF08E5
:1004F000C017D10759F06991D601ED91FC91019097
:10050000F081E02DC6010995892B79F7C501DF91AE
:10051000CF911F910F91FF90EF90DF90CF90BF9000
:10052000AF900895FC01538D448D252F30E0842F2A
:1005300090E0821B930B541710F0CF96089501970B
:100540000895FC01918D828D981761F0A28DAE0FF8
:10055000BF2FB11D5D968C91928D9F5F9F73928F7F
:1005600090E008958FEF9FEF0895FC01918D828DAB
:10057000981731F0828DE80FF11D858D90E0089578
:100580008FEF9FEF0895FC01918D228D892F90E0D0
:10059000805C9F4F821B91098F73992708958FEC80
:1005A00096E00E94C30221E0892B09F420E0822F0B
:1005B000089580E090E0892B29F00E94CF028111FC
:1005C0000C9400000895FC01A48DA80FB92FB11D53
:1005D000A35ABF4F2C91848D90E001968F73992779
:1005E000848FA689B7892C93A089B1898C91837057
:1005F00080648C93938D848D981306C00288F38950
:10060000E02D80818F7D80830895EF92FF920F937C
:100610001F93CF93DF93EC0181E0888F9B8D8C8DAE
:1006200098131AC0E889F989808185FF15C09FB7A2
:10063000F894EE89FF896083E889F9898081837065
:10064000806480839FBF81E090E0DF91CF911F9114
:100650000F91FF90EF900895F62E0B8D10E00F5F35
:100660001F4F0F731127E02E8C8D8E110CC00FB60B
:1006700007FCFACFE889F989808185FFF5CFCE01A3
:100680000E94E302F1CFEB8DEC0FFD2FF11DE35A39
:10069000FF4FF0829FB7F8940B8FEA89FB89808126
:1006A0008062CFCF0F931F93CF93DF938C01D0E065
:1006B000C0E0F801EC0FFD1F6491662341F08FEC60
:1006C00096E00E940503892B11F02196F2CFCE010E
:1006D000DF91CF911F910F910895CF93DF93EC019C
:1006E000888D8823B9F0AA89BB89E889F9898C911A
:1006F00085FD03C0808186FD0DC00FB607FCF7CFD6
:100700008C9185FFF2CF808185FFEDCFCE010E94D5
:10071000E302E9CFDF91CF91089520913806260FAB
:100720003327331F21323105ECF420915C06FC01A4
:1007300090E080E0243069F082E00895A0913806CE
:100740002191AC01485E594FA40FB52FB11D2C93D8
:100750000196861798F380913806680F60933806E3
:1007600080E0089581E0089510925C0681E0809316
:100770005E0610925D0661E082E10E94EF0061E09A
:1007800083E10E94EF00E9EBF0E080818E7F8083BF
:1007900080818D7F808380E28093B80085E48093A0
:1007A000BC0008950895E091890680918806E817B5
:1007B00030F4F0E0EE50FA4F808190E008958FEF32
:1007C0009FEF089590918906809188062FEF3FEF63
:1007D000981748F4E92FF0E0EE50FA4F208130E00E
:1007E0009F5F90938906C901089580918806909132
:1007F0008906891B990B0895CF93DF93CB01EA01FA
:10080000642F0E948D03CE01DF91CF910895CF9385
:10081000DF931F92CDB7DEB7698361E0CE01019609
:100820000E948D0381E090E00F90DF91CF910895B9
:1008300090E080E008950F931F93CF93DF938EE0B5
:100840000E94AB018EE00E94AB018C018FE00E9400
:10085000AB018FE00E94AB01EC016AE070E080E048
:1008600090E00E94E2012091F005222369F102301C
:1008700011052CF490E080E0C230D10574F1C8017C
:100880004F978732910508F444C08A559109873201
:10089000910550F18A5A9109879748F10F3D83E0FD
:1008A000180744F5CE014F978732910530F18A55EC
:1008B00091098732910520F18A5A9109879718F199
:1008C000CF3D83E0D80714F590E080E002301105B9
:1008D0001CF421E022970CF020E02093F005DF913A
:1008E000CF911F910F91089583E090E0EFCF81E0C9
:1008F00090E0ECCF82E090E0E9CF88E090E0E6CFB6
:1009000087E090E0E3CF86E090E0E0CF85E090E004
:10091000DDCF84E090E0E0CFFC0101900020E9F71A
:100920003197AF01481B590BBC018FEC96E00C943A
:1009300065028F929F92AF92BF920F931F93CF93B6
:10094000DF93CDB7DEB7A1970FB6F894DEBF0FBE29
:10095000CDBF19A2423008F44AE08E010F5D1F4F4F
:10096000842E912CB12CA12CA50194010E94DD11A3
:10097000E62FB901CA01EA30F4F4E05DD801EE9344
:100980008D01232B242B252B79F790E080E0109705
:1009900019F0CD010E948C04A1960FB6F894DEBF29
:1009A0000FBECDBFDF91CF911F910F91BF90AF9040
:1009B0009F908F900895E95CE1CF0C948C04CF93C5
:1009C000DF93D0E0C0E0009719F00E948C04EC01A6
:1009D0008AE291E00E948C048C0F9D1FDF91CF91E1
:1009E00008950F931F93CF93DF93C091AF06D091DB
:1009F000B0066C2F8CE697E00E9407048091AB064E
:100A00008823A9F00E9414020091A7061091A8065D
:100A10002091A9063091AA06601B710B820B930BE3
:100A2000693873418105910510F01092AB06CB3007
:100A3000D105E1F48DE291E00E94DF0442E050E054
:100A400067E976E08CE697E00E94FC038091AB06B4
:100A50008823F1F0C631D105D9F4D093B006C09304
:100A6000AF06DF91CF911F910F910895CE30D10540
:100A700069F742E050E067E976E08CE697E00E9493
:100A8000FC036091F1058CE697E00E940704DECF3D
:100A9000639769F48091BB069091BC06892B39F469
:100AA00089E290E09093B0068093AF06DACF10927F
:100AB000B0061092AF06D5CF1092B9061092B806C4
:100AC0001092B7068EE491E00E94DF0461E086E0B8
:100AD0000E94EF0061E085E00C94EF00CF92DF927E
:100AE000EF92FF92CF93DF936C01990FEE08FF080E
:100AF000F7FE19C06DE28FEC96E00E940503EC0151
:100B000066277727CB016C197D098E099F094AE07A
:100B10000E9499048C0F9D1FDF91CF91FF90EF9061
:100B2000DF90CF9008954AE0C701B601DF91CF91E1
:100B3000FF90EF90DF90CF900C949904CF93DF93C8
:100B40000E946E05EC018AE291E00E948C048C0FF9
:100B50009D1FDF91CF910895CF93DF93EC01892BF7
:100B600019F081E00E94D505D0939C06C0939B06A6
:100B70008EE691E00E94DD0480919B0690919C0698
:100B80000E946E058AE791E00E94DD0480919B0639
:100B900090919C06892B31F08BE691E0DF91CF910B
:100BA0000C94DF0487E691E0F9CFCF9390919A06F9
:100BB000981759F1C82F81110AC080919B06909116
:100BC0009C06892B21F090E080E00E94AC05C09348
:100BD0009A0683E991E00E94DD0480919A0690E0F4
:100BE0000E949E0580919A06882349F061E088E082
:100BF0000E94EF0061E089E0CF910C94EF0060E08B
:100C000088E00E94EF0060E0F6CFCF910895CF9387
:100C1000DF93682F70E090E080E04AE00E94990442
:100C2000EC018AE291E00E948C048C0F9D1FDF9101
:100C3000CF910895892B09F4E9C09091880680919D
:100C40008906981731F08CE697E00E94E203282F7E
:100C5000F4CF253179F41092AE0681E090E09093C4
:100C6000BC068093BB061092B0061092AF0610929D
:100C7000AB060895283169F41092AD0681E090E04A
:100C80009093BC068093BB061092B0061092AF06FC
:100C90000895233889F41092AC0681E090E0909397
:100CA000BC068093BB061092B0061092AF068FE987
:100CB00091E00E94DF040895243879F410928F06A1
:100CC00081E090E09093BC068093BB061092B00642
:100CD0001092AF068EEA91E0ECCF2538D1F58091E5
:100CE000BB069091BC06892B51F481E090E0909373
:100CF000BC068093BB0680EC91E00E94DF0481E09B
:100D000080938F0685E090E09093BC068093BB06AD
:100D10001092B0061092AF060E941B049093C0067A
:100D20008093BF069093BE068093BD0681EE91E04E
:100D30000E94DD048091BB069091BC060E946E0566
:100D40008DE092E00E94DD0480918F0690E00C948B
:100D50009E05293249F58091BB069091BC06029709
:100D6000C0F081E090E09093BC068093BB061092A7
:100D7000C5061092AE061092AC0610928F06109225
:100D8000AD061092B0061092AF068BE192E00C9483
:100D9000DF041092BC061092BB061092B0061092AF
:100DA000AF0688E392E0F3CF203841F48091BA0691
:100DB000882361F181E08093A2060895213831F5FE
:100DC0000E94CB008093F10584E10E94AB0184E195
:100DD0000E94AB0190939806809397068DE492E071
:100DE0000E94DD048091F1050E94070687E692E0EB
:100DF0000E94DD0480919706909198060E949E05BE
:100E00008EE090E09093B0068093AF06089581E065
:100E10008093B7068CBB81E292E0909303018093AC
:100E20000201E9E6F0E080818C7F82608083E89AAD
:100E300060919D0670E086E00E944E0170E060E0E7
:100E400085E00C944E01CF93DF9385ED8093BC0039
:100E50008091140690911506A0911606B091170680
:100E60000796A11DB11D23E0B695A7959795879587
:100E70002A95D1F72091BC0024FD03C010925C0696
:100E800036C0409114065091150660911606709177
:100E90001706452B462B472B69F30097A105B10593
:100EA00041F025E12A95F1F700000197A109B10968
:100EB000E1CF8091130691E0909312068823B9F058
:100EC000C091B800D091BA008091BC008A7B809319
:100ED000BC0060E082E10E94EF0060E083E10E94DC
:100EE000EF000E94B403D093BA00C093B800DF9122
:100EF000CF9108951F920F920FB60F9211242F9346
:100F00003F938F939F93AF93BF938091C706909128
:100F1000C806A091C906B091CA063091C60626E05F
:100F2000230F2D3758F50296A11DB11D2093C6063B
:100F30008093C7069093C806A093C906B093CA06CB
:100F40008091CB069091CC06A091CD06B091CE06B3
:100F50000196A11DB11D8093CB069093CC06A09362
:100F6000CD06B093CE06BF91AF919F918F913F91E7
:100F70002F910F900FBE0F901F90189529E8230F07
:100F80000396A11DB11DD2CF1F920F920FB60F92E3
:100F900011242F933F934F935F936F937F938F937E
:100FA0009F93AF93BF93EF93FF93E0910401F09170
:100FB00005010995FF91EF91BF91AF919F918F919D
:100FC0007F916F915F914F913F912F910F900FBE45
:100FD0000F901F9018951F920F920FB60F92112429
:100FE0002F933F934F935F936F937F938F939F9331
:100FF000AF93BF93EF93FF93E0910201F091030150
:101000000995FF91EF91BF91AF919F918F917F9142
:101010006F915F914F913F912F910F900FBE0F9065
:101020001F9018951F920F920FB60F9211242F93B5
:101030003F934F935F936F937F938F939F93AF9360
:10104000BF93EF93FF938FEC96E00E94E302FF9132
:10105000EF91BF91AF919F918F917F916F915F9130
:101060004F913F912F910F900FBE0F901F901895A9
:101070001F920F920FB60F9211242F938F939F936D
:10108000EF93FF93E091DF06F091E0068081E0911D
:10109000E506F091E60682FD1BC090818091E8068E
:1010A0008F5F8F732091E906821741F0E091E80687
:1010B000F0E0E153F94F958F8093E806FF91EF91AF
:1010C0009F918F912F910F900FBE0F901F901895A9
:1010D0008081F4CF1F920F920FB60F9211242F939D
:1010E0003F934F935F936F937F938F939F93AF93B0
:1010F000BF93EF93FF938091B900887F803609F406
:101100004AC0F0F5883209F4A7C018F5803109F417
:101110009BC0B8F4882309F4F9C0883009F494C05E
:10112000FF91EF91BF91AF919F918F917F916F91BF
:101130005F914F913F912F910F900FBE0F901F9095
:101140001895883109F488C0803251F780935B0686
:1011500014C0803409F49DC040F48033B9F388335F
:10116000F9F680935B0685ECB0C0803509F485C044
:10117000883509F496C0883499F60E942307D0CFA9
:10118000883909F48CC038F5883729F050F488364E
:1011900011F0803729F683E080935C0610925A069E
:1011A00057C0883809F47BC0803919F0803809F0BD
:1011B000B7CF80915A06803208F071C0E0915A068C
:1011C00081E08E0F80935A068091BB00F0E0E65CD0
:1011D000F94F80833DC0803B39F0E0F4803A09F458
:1011E00079C0883A09F09CCF84E080935C06109225
:1011F000390610923806E0918406F091850609952B
:101200008091380681110FC081E0809338061092DA
:10121000180609C0803C09F4A6CF883C09F4A3CF86
:10122000883B09F07DCFE091390681E08E0F8093F5
:101230003906F0E0E85EF94F80818093BB00909121
:1012400039068091380629C0809181068093BB00C1
:1012500085EC8093BC0064CF9091800680917F06DE
:10126000981758F5E091800681E08E0F80938006F4
:10127000F0E0E15AF94F8081E9CFE091800681E00A
:101280008E0F809380068091BB00F0E0E15AF94F09
:1012900080839091800680917F069817C8F285E838
:1012A000D8CFE091800681E08E0F809380068091F8
:1012B000BB00F0E0E15AF94F808380915E06811116
:1012C0005CCF81E080935D0684EA8093BC0010923D
:1012D0005C0626CF85EC8093BC0010925C06809162
:1012E0005A06803230F4E0915A06F0E0E65CF94F9D
:1012F000108260915A0670E0E0918206F0918306B8
:101300008AE396E0099510925A060ACF10925B067E
:1013100034CF0E945C058AE591E00E94DF046AEF09
:1013200070E080E090E00C94E2011092BA06109216
:10133000A20680E00E94D50510929C0610929B06A2
:101340008AE090E09093B0068093AF060895EFECAA
:10135000F6E01382128288EE93E0A0E0B0E084838E
:101360009583A683B7832AE031E03183208325EC7F
:1013700030E03587248724EC30E03787268720EC5F
:1013800030E0318B208B21EC30E0338B228B22EC50
:1013900030E0358B248B26EC30E0378B268B118E9A
:1013A000128E138E148EECE6F7E013821282848381
:1013B0009583A683B7838CE191E091838083089520
:1013C000789484B5826084BD84B5816084BD85B520
:1013D000826085BD85B5816085BD80916E0081602C
:1013E00080936E00109281008091810082608093D2
:1013F00081008091810081608093810080918000D4
:101400008160809380008091B10084608093B100FE
:101410008091B00081608093B00080917A008460F8
:1014200080937A0080917A00826080937A00809124
:101430007A008E7F80937A0080917A008068809312
:101440007A001092C10014B714BE61E089E00E94D6
:101450001D0160E089E00E94EF00E091DF06F0915D
:10146000E00682E08083E091DB06F091DC061082EA
:10147000E091DD06F091DE0688E080831092E706B9
:10148000E091E306F091E40686E08083E091E106D6
:10149000F091E206808180618083E091E106F09125
:1014A000E206808188608083E091E106F091E206A7
:1014B000808180688083E091E106F091E20680817E
:1014C0008F7D808385E890E00E945203612F70E059
:1014D00090E080E040E10E9499048EE790E00E9455
:1014E0005203812F817090E00E946E0586E790E0A4
:1014F0000E945203812F8695817090E00E946E05B4
:101500008FE690E00E94520312FB882780F990E05A
:101510000E946E0588E690E00E94520313FB882724
:1015200080F990E00E949E0560E08EE00E941D011F
:1015300060E08FE00E941D0160E080E10E941D01DB
:1015400060E081E10E941D0160E084E10E941D01D4
:1015500061E088E00E941D0161E086E00E941D01BB
:1015600061E085E00E941D0161E087E00E941D01AD
:1015700060E082E00E941D0160E083E00E941D01A6
:101580000E94CB0021E0892B09F420E020939606ED
:10159000209395060E941402605E7C4F8F4F9F4FF0
:1015A0006093C1067093C2068093C3069093C406ED
:1015B00070E060E086E00E944E0170E060E085E04F
:1015C0000E944E0160E088E00E94EF0060E089E048
:1015D0000E94EF00109289061092880610928706EA
:1015E000109286060E94B4038FE292E090938506E3
:1015F000809384068BE392E0909383068093820627
:1016000084E58093BA008AE196E090938B068093FC
:101610008A0681EF94E090938D0680938C0688244F
:101620008A9483E0982EA12CB12C93E1692E712C21
:1016300022E2E22EF12C01E010E05090C50651109C
:1016400024C00E9414022091C1063091C20640912C
:10165000C3065091C4066217730784079507A8F460
:101660000E941B049093C0068093BF069093BE0611
:101670008093BD0680E090E0892BF9F20E94CF02B2
:101680008823C9F20E940000D6CFC090BB06D0903C
:10169000BC06C114D10409F413C30E941B04EC015D
:1016A0009093C0068093BF0681E0C816D10409F06C
:1016B000DFC08091BD069091BE06C817D907D1F250
:1016C00082E892E00E94DD048091BD069091BE0602
:1016D0000E946E058DE992E00E94DD048091BF06B4
:1016E0009091C0060E949E058091BF069091C00611
:1016F0009093BE068093BD0684309105A1F190F4CD
:10170000039709F0B7CF1092BC061092BB0689E28E
:1017100090E09093B0068093AF068CEC92E00E942C
:10172000DF04A8CF86309105B9F1079709F0A2CF61
:1017300087EB92E00E94DD048091B1060E940706CB
:10174000E091B1068CE290E0E73008F03DC0F0E0B7
:10175000E455F44F0C942212D90BE90BFF0B0B0C40
:10176000170C230C2F0C8091B10690E0069667E0D1
:1017700070E00E940E128093B1068AE290E090938E
:10178000B0068093AF0682EA92E00E94DD04809169
:10179000B1060E9407066ECF8091B10690E00196D7
:1017A00067E070E00E940E128093B1068BE290E039
:1017B000E6CF82E090E09093BC068093BB0681E088
:1017C0008093C5068FE090E09093B0068093AF06BB
:1017D00051CF83E090E09093BC068093BB0681E0FC
:1017E0008093AE060E9414026093A3067093A40631
:1017F0008093A5069093A60684E190E0E5CF84E06F
:1018000090E09093BC068093BB0681E08093AC0689
:101810008EE190E0D9CF85E090E09093BC06809374
:10182000BB0681E080938F0683E290E0CDCF86E017
:1018300090E09093BC068093BB0681E080938E0677
:101840008DE290E0C1CF87E090E09093BC0680935A
:10185000BB0681E08093AD0687E190E0B5CF88E0DC
:1018600090E09093BC068093BB0689E190E0ACCFFA
:10187000552009F451C08091BD069091BE06C8174D
:10188000D90709F4F7CED093BE06C093BD06C53084
:10189000D105A9F178F4C330D105D9F0249709F026
:1018A000E9CE20E130E03093B0062093AF068CEE15
:1018B00092E035CFC630D105C9F0279709F0DACECE
:1018C00022E130E03093B0062093AF0686E093E04B
:1018D00026CF1093BC060093BB061092C5067092EB
:1018E000B0066092AF0687ED92E019CF81E190E0FB
:1018F0009093B0068093AF0689EF92E010CF1092DC
:10190000BC061092BB061092C5067092B00660929B
:10191000AF0686E193E003CF8091AE06882309F4F9
:1019200056C08FE00E94AB018FE00E94AB018F3D5B
:1019300093401CF4C530D105D1F488E293E00E94B5
:10194000DF041093BC060093BB061092AE0681E044
:101950008093AB060E9414026093A7067093A806BA
:101960008093A9069093AA0686E190E02DCF239755
:1019700079F41093BC060093BB061092AE0626E1E4
:1019800030E03093B0062093AF0683E493E0C7CEF7
:101990000E9414022091A3063091A4064091A5064E
:1019A0005091A606621B730B840B950B613D7B4F18
:1019B0008140910508F45ECE1093BC060093BB06EF
:1019C0001092AE061092B0061092AF0653CE8091E0
:1019D000AC06882309F43FC08091BD069091BE06F5
:1019E000C817D90709F446CED093BE06C093BD06EA
:1019F000C530D10519F148F4C330D10579F02497E9
:101A000009F038CE8FE190E0DFCEC630D10599F0F5
:101A1000279709F02FCE81E290E0D6CE1093BC0636
:101A20000093BB061092AC06F092B006E092AF06AF
:101A300089E593E074CE80E290E0C6CE1092BC06B9
:101A40001092BB061092AC06F092B006E092AF0680
:101A50008BE693E064CE80918F06882309F455C00D
:101A60008091BD069091BE06C817D90709F402CE31
:101A7000D093BE06C093BD06C530D105B9F178F448
:101A8000C330D105D9F0249709F0F4CD84E290E079
:101A90009093B0068093AF068FE893E040CEC630B7
:101AA000D105D9F0279709F0E5CD86E290E0909333
:101AB000B0068093AF0689EA93E031CE1093BC065E
:101AC0000093BB0610928F0687E290E09093B006D9
:101AD0008093AF068AE793E022CE85E290E0909370
:101AE000B0068093AF068CE993E019CE1092BC0645
:101AF0001092BB0610928F0687E290E09093B0069A
:101B00008093AF0689EB93E00ACE80918E068823FE
:101B100009F455C08091BD069091BE06C817D9073B
:101B200009F4A8CDD093BE06C093BD06C530D1053B
:101B3000B9F178F4C330D105D9F0249709F09ACDE2
:101B40008EE290E09093B0068093AF068EED93E026
:101B5000E6CDC630D105D9F0279709F08BCD80E3CB
:101B600090E09093B0068093AF0684EF93E0D7CDDA
:101B70001093BC060093BB0610928E0681E390E0A2
:101B80009093B0068093AF068BEC93E0C8CD8FE2C4
:101B900090E09093B0068093AF0689EE93E0BFCDBE
:101BA0001092BC061092BB0610928E0681E390E064
:101BB0009093B0068093AF0682E094E0B0CD809120
:101BC000AD06882339F10E941B049093C0068093D0
:101BD000BF062091BD063091BE068217930709F417
:101BE00049CD9093BE068093BD068330910519F0D0
:101BF000059709F03FCD1093BC060093BB061092E9
:101C0000AD0688E190E09093B0068093AF0682E144
:101C100094E085CD88E0C816D10409F02BCD8091E1
:101C2000BD069091BE06C817D90709F423CDD093FD
:101C3000BE06C093BD06C530D105A9F178F4C33006
:101C4000D10521F1249709F015CD8AE190E0909318
:101C5000B0068093AF0685E294E061CDC630D10531
:101C600061F0279709F006CD8CE190E09093B006E3
:101C70008093AF068FE394E052CD8BE190E0909398
:101C8000B0068093AF0682E394E049CD1093BC0682
:101C90000093BB068DE190E09093B0068093AF0671
:101CA0008FE494E03CCD1092BC061092BB068DE10F
:101CB00090E09093B0068093AF0684E694E02FCD39
:101CC0008091BA0681110BC08091B8069091B90637
:101CD000892B29F48091B706882309F4C5C0109296
:101CE000B6068091AE069091C50691110AC3811186
:101CF0002FC18091AD06811120C38091AC06811166
:101D00001CC38091AB068111B5CC0E941B0490933B
:101D1000C0068093BF068091BA068823C9F18091DE
:101D2000A2068823A9F18091AF069091B0060A9788
:101D300079F11092A2060E94CB00892B09F05DC1B7
:101D40008091A106811114C08091A0068F5F8093BD
:101D5000A006833008F454C189E18093A10684EE83
:101D600094E00E94DF048091A106882309F448C111
:101D700081508093A106811143C18AE095E00E94C1
:101D8000DF040E9495098FE080939F060E94070759
:101D900080919F06882361F09091B706911108C049
:101DA000815080939F06882309F433C10E9407075E
:101DB00081E10E94AB0181E10E94AB019C01A5E69B
:101DC000BFEF0E942812A50194010E94BE1121506C
:101DD0003F4F4F4F5F4F20939E0680E10E94AB0123
:101DE00080E10E94AB019C01A5E6BFEF0E94281292
:101DF000A50194010E94BE1121503F4F4F4F5F4FEC
:101E000020939D06E091BF06F091C0062091BA068E
:101E10008091BD069091BE06E817F90709F4E6C166
:101E2000F093BE06E093BD06222309F4F7C0359770
:101E300049F48091B606811105C1222309F4FFC03F
:101E40000E9495098091B8069091B906813091055C
:101E500019F0019609F00ECC60919E0670E0809119
:101E600099060E944E0106CC8FE00E94AB018FE0E4
:101E70000E94AB012091B6068F3D93400CF441C007
:101E8000211112C081E08093B6060E941402609373
:101E9000B2067093B3068093B4069093B50686E7B6
:101EA00094E00E94DF041DCF0E9414022091B2062C
:101EB0003091B3064091B4065091B506621B730B86
:101EC000840B950B683B7B408105910508F409CF95
:101ED0001093BC060093BB061092B1061092B60692
:101EE0001092BE061092BD061092C0061092BF0658
:101EF00088E290E09093B0068093AF068BE994E07F
:101F00000ECC222309F4EDCE0E9414022091B206D9
:101F10003091B3064091B4065091B5061B012C01D7
:101F2000221A330A440A550A89EB94E00E94DD0420
:101F30004AE0C201B1010E94990484ED94E00E943C
:101F4000DF041092B6061092BE061092BD06C9CEEE
:101F50008FE00E94AB018FE00E94AB01EC010E9478
:101F60001B049093C0068093BF06CF3DD34014F46A
:101F7000059729F488E293E00E94DF04E6CC0E94F2
:101F800014022091A3063091A4064091A506509119
:101F9000A606621B730B840B950B613D7B4F814042
:101FA000910508F467CB0CCD8730910569F008974F
:101FB00009F0C3C182E190E002C080E190E090931B
:101FC000B0068093AF06B9C121E130E03093B0068E
:101FD0002093AF06B2C17092B0066092AF06ADC159
:101FE0008730910509F427CD089709F414CD42CB29
:101FF000F092B006E092AF063DCB1092A006B3CEB1
:102000000E94070785E090E09093B0068093AF06AA
:10201000BFCE8BE395E00E94DF04CACE3197E83053
:10202000F10508F00FCFE95EFF4E0C942212271045
:1020300044104F107B10190FA910BE10E4100E941D
:102040005C0500CF8FE495E00E94DF04FBCE209179
:102050009B0630919C062230310589F0C9019927F1
:1020600001962817390769F480919B0690919C0688
:10207000992702969093B0068093AF06E3CE90E046
:1020800080E00E94AC05F0CF90919A0681E089270C
:102090000E94D50580919A0690E00696EBCF80913C
:1020A000B8069091B906019711F40E9489098FEF43
:1020B0009FEF9093B9068093B80682E795E00E945F
:1020C000DD0480919E060E940706E89820E232E037
:1020D000309303012093020185E08093990670E01C
:1020E00060E086E00E944E0160919E0670E085E00F
:1020F0000E944E01A7CE8091B8069091B906892B17
:1021000029F58091B706811121C08AE795E00E94E8
:10211000DD0480919D060E94070681E08093B7064A
:102120008CBB81E292E09093030180930201809145
:1021300069008C7F826080936900E89A70E060E0BB
:1021400086E00E944E0160919D06D0CF86E895E022
:102150007BCF8091B8069091B906892BB9F7809111
:10216000B7068111F3CF81EA95E00E94DD048091EA
:102170009D060E9407060E94070764CE8091B8065C
:102180009091B906019611F40E9489091093B9063D
:102190000093B80689E995E00E94DD0480919E06CF
:1021A0000E940706E89880E292E0909303018093F2
:1021B000020186E08093990660919E0670E00E947D
:1021C0004E0170E060E093CF81E08093BA061092F8
:1021D000A1061092A00610929F0629E030E03093ED
:1021E000B0062093AF060E94D5052CCE21112ACE31
:1021F00084E10E94AB0184E10E94AB0184E10E9472
:10220000AB012091000130910101281B390B37FFF0
:1022100003C031952195310928303105C4F09093E0
:1022200098068093970690930101809300018DEAB0
:1022300095E00E94DD0480919706909198060E9497
:102240009E058BE090E09093B0068093AF06C0911E
:102250009606C09395060E94CB0021E0009709F4F2
:1022600020E020939606892B09F040C0CC2369F02A
:102270000E941402609391067093920680939306D5
:102280009093940681E08093900680919006882335
:1022900009F4D8CDC091B806D091B9060E941402B5
:1022A00020919106309192064091930650919406A8
:1022B000621B730B840B950B643F71408105910584
:1022C00008F4C0CDC130D10511F0219631F484EC71
:1022D00095E00E94DF040E945C058CE090E0909302
:1022E000B0068093AF0610929006ACCD1092900687
:1022F000C111A8CD2DE030E03093B0062093AF0699
:10230000A1CD811125CE0E941B049093C00680931D
:10231000BF062091BD063091BE068217930769F073
:102320009093BE068093BD068530910509F453CE87
:1023300008F03ACE039709F440CE8091AC0688238A
:1023400009F498C90E941B049093C0068093BF06AD
:102350002091BD063091BE068217930709F48AC901
:102360009093BE068093BD068530910509F440CE5A
:1023700008F036CE039709F445CB7CC9052E97FBB0
:102380001EF400940E94D51157FD07D00E94DD1164
:1023900007FC03D04EF40C94D51150954095309520
:1023A00021953F4F4F4F5F4F0895909580957095C1
:1023B00061957F4F8F4F9F4F0895A1E21A2EAA1B60
:1023C000BB1BFD010DC0AA1FBB1FEE1FFF1FA217E5
:1023D000B307E407F50720F0A21BB30BE40BF50BE2
:1023E000661F771F881F991F1A9469F7609570956B
:1023F000809590959B01AC01BD01CF010895A29FEE
:10240000B001B39FC001A39F700D811D1124911DC8
:10241000B29F700D811D1124911D089597FB072E09
:1024200016F4009407D077FD09D00E94371207FCFC
:1024300005D03EF4909581959F4F089570956195D4
:102440007F4F0895EE0FFF1F0590F491E02D099442
:102450000E94FF11332312F48A1B9B0B0C9432123F
:102460000E94FF11B7FF0895821B930B0895AA1BCA
:10247000BB1B51E107C0AA1FBB1FA617B70710F06F
:10248000A61BB70B881F991F5A95A9F780959095A1
:0A249000BC01CD010895F894FFCFC0
:10249A009CFF200220020000000005036502920250
:1024AA006D03C302A102B502000000000704FC0389
:1024BA001804D203F503E203D3030D0A0053656E31
:1024CA0064696E67206E6577204578706F737572E0
:1024DA00652054696D652076616C75652E004D6FB7
:1024EA00746F723A2053746F70002842726965667D
:1024FA006C792E2E2E29006F757400696E005A6F42
:10250A006F6D206D6F64653A20002E2054656C6CE7
:10251A00696E6720526173706920746F207A6F6FD9
:10252A006D20004C616D70206D6F64653A2000412A
:10253A005742206D656E753A20657869740054615A
:10254A0072676574206D656E753A206578697400E6
:10255A005461726765743A20656E746572696E6754
:10256A00206D656E75206D6F64652066697273747F
:10257A0000546172676574206D656E753A207265E4
:10258A002D656E746572202866726F6D20506929F8
:10259A002C206D656E7553746174653D002C207432
:1025AA0061726765744D6F64653D004D656E753A7D
:1025BA00206261636B20746F206D61696E202866EA
:1025CA00726F6D20506929004D656E753A206578E5
:1025DA006974202866726F6D2050692900437572EC
:1025EA0072656E742046696C6D206C6F616420732D
:1025FA00746174653A200043757272656E74204581
:10260A0078706F737572652053657474696E673A72
:10261A0020004D656E753A20627574746F6E206382
:10262A0068616E6765642066726F6D200020746F42
:10263A0020004D656E753A2073656C656374656438
:10264A00206974656D20004D656E753A20656E745B
:10265A006572696E67206974656D20004D656E75D7
:10266A003A2065786974005570646174653A20622D
:10267A0061636B20746F206D656E750055706461BF
:10268A0074653A2070726576005570646174653AB3
:10269A00206E657874005570646174653A20636FC2
:1026AA006E6669726D005570646174653A2065786A
:1026BA006974206D656E750050616972696E672074
:1026CA006D6F64653A2073746F70207072657373EE
:1026DA0065640050616972696E673A206261636B72
:1026EA0020746F206D656E75004157423A20626111
:1026FA00636B20746F206D656E75004157423A20F6
:10270A0065786974206D656E7500546172676574C9
:10271A003A206261636B20746F206D656E75005498
:10272A0061726765743A20707265760054617267E7
:10273A0065743A206E657874005461726765743AFC
:10274A0020636F6E6669726D005461726765743AD0
:10275A002065786974206D656E7500576946693A17
:10276A00206261636B20746F206D656E7500576916
:10277A0046693A207072657600576946693A206E52
:10278A0065787400576946693A20636F6E666972A4
:10279A006D00576946693A2065786974206D656EDF
:1027AA0075004C6F67733A206261636B20746F2007
:1027BA006D656E7500556E706169723A207072654A
:1027CA007600556E706169723A206E6578740055AC
:1027DA006E706169723A20636F6E6669726D005538
:1027EA006E706169723A206261636B20746F206D4A
:1027FA00656E7500556E706169723A206578697404
:10280A00206D656E75004D656E753A2053544F50B4
:10281A0020627574746F6E20707265737365642CB0
:10282A002074696D696E672E2E2E004D656E753A9D
:10283A0020656E74657220286C6F6E6720707265F1
:10284A0073732053544F5029004D656E753A2053C7
:10285A00544F502072656C656173656420616674BB
:10286A0065722000206D732028746F6F2073686F63
:10287A007274290046696C6D20656E646564202D4A
:10288A00207363616E6E696E6720323520657874D5
:10289A007261206672616D65730045787472612099
:1028AA006672616D657320646F6E65202D20737486
:1028BA006F7070696E67207363616E2C20656A653C
:1028CA006374696E672066696C6D0046696C6D2079
:1028DA00656A65637420636F6D706C657465005317
:1028EA00544F503A2069676E6F72696E6720286C80
:1028FA006F6E672D70726573732074696D696E6788
:10290A0029004D6F746F723A203C3C206174205349
:10291A007065656420004D6F746F72206E6F74204D
:10292A0073746F707065642E004D6F746F723A2005
:10293A003E3E20617420537065656420004E6577C1
:10294A00204578706F737572652053657474696E6B
:10295A00673A200046696C6D20656E646564206480
:10296A007572696E6720636F6E74696E756F7573C1
:10297A002072756E202D2073746F7070696E6700F7
:00000001FF
