:100000000C9462000C94C0070C9499070C948A001D
:100010000C948A000C948A000C948A000C948A0038
:100020000C948A000C948A000C948A000C948A0028
:100030000C948A000C948A000C948A000C948A0018
:100040000C944F070C948A000C940D080C94E7074D
:100050000C948A000C948A000C948A000C948A00F8
:100060000C943F080C948A00000000002400270034
:100070002A0000000000250028002B0000000000DE
:1000800023002600290004040404040404040202DA
:100090000202020203030303030301020408102007
:1000A0004080010204081020010204081020000012
:1000B0000008000201000003040700000000000027
:1000C00000007C0911241FBECFEFD8E0DEBFCDBFFA
:1000D00015E0A0E0B1E0E0E1F3E202C005900D928E
:1000E000AA37B107D9F727E0AAE7B5E001C01D920A
:1000F000A130B207E1F710E0C2E6D0E004C02197DA
:10010000FE010E945D11C136D107C9F70E94B509F1
:100110000C9486110C940000833081F028F4813017
:1001200099F08230A9F008958730A9F08830C9F09D
:100130008430B1F4809180008F7D03C08091800075
:100140008F7780938000089584B58F7784BD08955C
:1001500084B58F7DFBCF8091B0008F778093B00006
:1001600008958091B0008F7DF9CFCF93DF93E1EBBD
:10017000F0E08491EDE9F0E0D491E9E8F0E0C49199
:10018000CC23A1F081110E948C00EC2FF0E0EE0F47
:10019000FF1FE458FF4FA591B491EC91ED2381E04E
:1001A00090E009F480E0DF91CF91089580E090E045
:1001B000FACF1F93CF93DF93282F30E0F901E25558
:1001C000FF4F8491F901E656FF4FD491F901EA57A8
:1001D000FF4FC491CC23A9F0162F81110E948C00EF
:1001E000EC2FF0E0EE0FFF1FEE58FF4FA591B491FA
:1001F0008FB7F894EC91111108C0D095DE23DC93F1
:100200008FBFDF91CF911F910895DE2BF8CFCF9351
:10021000DF9390E0FC01E656FF4F24918A579F4FF1
:10022000FC0184918823D1F090E0880F991FFC0194
:10023000E859FF4FA591B491FC01EE58FF4FC591CD
:10024000D49161110EC09FB7F8948C91E22FE09584
:100250008E238C932881E223E8839FBFDF91CF9187
:1002600008958FB7F894EC91E22BEC938FBFF6CF03
:100270001F93CF93DF93182FEB0161E00E940701DA
:10028000209739F460E0812FDF91CF911F910C947A
:10029000D900CF3FD10511F461E0F5CFE12FF0E0B7
:1002A000E255FF4FE491E33031F140F4E130B1F039
:1002B000E230E1F0C038D1057CF7E4CFE73029F136
:1002C000E83059F1E430B1F780918000806280938A
:1002D0008000D0938B00C0938A0004C084B58068EE
:1002E00084BDC7BDDF91CF911F91089584B5806211
:1002F00084BDC8BDF7CF8091800080688093800066
:10030000D0938900C0938800EDCF8091B0008068C1
:100310008093B000C093B300E5CF8091B0008062BD
:100320008093B000C093B400DDCF8E508064809382
:100330007C0080917A00806480937A0080917A00BA
:1003400086FDFCCF809178009091790008953FB7A9
:10035000F8948091540690915506A0915606B0915C
:10036000570626B5A89B05C02F3F19F00196A11D81
:10037000B11D3FBFBA2FA92F982F8827BC01CD01EF
:10038000620F711D811D911D43E0660F771F881F4D
:10039000991F4A95D1F708958F929F92AF92BF927D
:1003A000CF92DF92EF92FF924B015C010E94A70176
:1003B0006B017C010E94A7016C197D098E099F09C0
:1003C000683E734081059105A8F321E0821A9108E7
:1003D000A108B10888EEC80E83E0D81EE11CF11C0C
:1003E00081149104A104B10429F7FF90EF90DF90EC
:1003F000CF90BF90AF909F908F9008952FB7F894B3
:10040000609150067091510680915206909153066A
:100410002FBF08950895109242061092410610923F
:10042000400661E086E00E94D90061E085E00C941E
:10043000D900E0911606F0911706309729F0109236
:1004400011061092100609940895CF93DF93AC0122
:10045000E0911406F09115063097F1F09091130693
:10046000809112069817C0F090E0292F30E02617EF
:10047000370754F4D901A458BA4F240F351FE901A6
:1004800028812C939F5FF1CF109213066093120680
:10049000CB01DF91CF910994DF91CF910895AF9275
:1004A000BF92CF92DF92EF92FF920F931F93CF9361
:1004B000DF936C017B018B01040F151FEB015E01C3
:1004C000AE18BF08C017D10759F06991D601ED9158
:1004D000FC910190F081E02DC6010995892B79F7F7
:1004E000C501DF91CF911F910F91FF90EF90DF90A9
:1004F000CF90BF90AF900895FC01538D448D252F70
:1005000030E0842F90E0821B930B541710F0CF96AD
:10051000089501970895FC01918D828D981761F0DF
:10052000A28DAE0FBF2FB11D5D968C91928D9F5FF6
:100530009F73928F90E008958FEF9FEF0895FC01D5
:10054000918D828D981731F0828DE80FF11D858D88
:1005500090E008958FEF9FEF0895FC01918D228D1B
:10056000892F90E0805C9F4F821B91098F739927A0
:10057000089588E596E00E94AD0221E0892B09F4F8
:1005800020E0822F089580E090E0892B29F00E94DE
:10059000B90281110C9400000895FC01A48DA80FEC
:1005A000B92FB11DA35ABF4F2C91848D90E00196B5
:1005B0008F739927848FA689B7892C93A089B189D5
:1005C0008C91837080648C93938D848D981306C076
:1005D0000288F389E02D80818F7D80830895EF92DA
:1005E000FF920F931F93CF93DF93EC0181E0888FED
:1005F0009B8D8C8D98131AC0E889F989808185FFBD
:1006000015C09FB7F894EE89FF896083E889F9895E
:1006100080818370806480839FBF81E090E0DF9160
:10062000CF911F910F91FF90EF900895F62E0B8DB3
:1006300010E00F5F1F4F0F731127E02E8C8D8E116E
:100640000CC00FB607FCFACFE889F989808185FFD5
:10065000F5CFCE010E94CD02F1CFEB8DEC0FFD2F37
:10066000F11DE35AFF4FF0829FB7F8940B8FEA8990
:10067000FB8980818062CFCFCF93DF93EC01888D9F
:100680008823B9F0AA89BB89E889F9898C9185FD0D
:1006900003C0808186FD0DC00FB607FCF7CF8C919B
:1006A00085FFF2CF808185FFEDCFCE010E94CD0284
:1006B000E9CFDF91CF9108952091C205260F33270E
:1006C000331F21323105ECF42091E605FC0190E066
:1006D00080E0243069F082E00895A091C205219164
:1006E000AC014E555A4FA40FB52FB11D2C93019656
:1006F000861798F38091C205680F6093C20580E069
:10070000089581E008951092E60581E08093E80560
:100710001092E70561E082E10E94D90061E083E187
:100720000E94D900E9EBF0E080818E7F8083808198
:100730008D7F808380E28093B80085E48093BC0045
:1007400008950895E091130680911206E81730F499
:10075000F0E0E458FA4F808190E008958FEF9FEF2A
:10076000089590911306809112062FEF3FEF98178E
:1007700048F4E92FF0E0E458FA4F208130E09F5F21
:1007800090931306C9010895809112069091130663
:10079000891B990B0895CF93DF93CB01EA01642F56
:1007A0000E945C03CE01DF91CF910895CF93DF9338
:1007B0001F92CDB7DEB7698361E0CE0101960E943A
:1007C0005C0381E090E00F90DF91CF91089590E07D
:1007D00080E008950F931F93CF93DF938EE00E94E4
:1007E00095018EE00E9495018C018FE00E94950199
:1007F0008FE00E949501EC016AE070E080E090E0FB
:100800000E94CC0120917A05222369F10230110562
:100810002CF490E080E0C230D10574F1C8014F970C
:100820008732910508F444C08A55910987329105B1
:1008300050F18A5A9109879748F10F3D83E01807D4
:1008400044F5CE014F978732910530F18A559109D1
:100850008732910520F18A5A9109879718F1CF3D87
:1008600083E0D80714F590E080E0023011051CF415
:1008700021E022970CF020E020937A05DF91CF91C0
:100880001F910F91089583E090E0EFCF81E090E019
:10089000ECCF82E090E0E9CF88E090E0E6CF87E01F
:1008A00090E0E3CF86E090E0E0CF85E090E0DDCF20
:1008B00084E090E0E0CFFC0101900020E9F731975F
:1008C000AF01481B590BBC0188E596E00C944F0220
:1008D0008F929F92AF92BF920F931F93CF93DF930C
:1008E000CDB7DEB7A1970FB6F894DEBF0FBECDBF70
:1008F00019A2423008F44AE08E010F5D1F4F842E8A
:10090000912CB12CA12CA50194010E941811E62F65
:10091000B901CA01EA30F4F4E05DD801EE938D012B
:10092000232B242B252B79F790E080E0109719F0EA
:10093000CD010E945B04A1960FB6F894DEBF0FBEF6
:10094000CDBFDF91CF911F910F91BF90AF909F903E
:100950008F900895E95CE1CFCF92DF92EF92FF9202
:10096000CF93DF936B017C016DE288E596E00E94F6
:10097000EF02EC0166277727CB016C197D098E0900
:100980009F094AE00E9468048C0F9D1FDF91CF9160
:10099000FF90EF90DF90CF9008950C945B04CF937D
:1009A000DF93D0E0C0E0009719F00E945B04EC01F7
:1009B0008AE291E00E945B048C0F9D1FDF91CF9132
:1009C00008950F931F93CF93DF93C0913806D09172
:1009D00039066C2F85EF96E00E94D603809134068D
:1009E0008823A9F00E94FE01009130061091310683
:1009F0002091320630913306601B710B820B930BF2
:100A0000693873418105910510F010923406CB309E
:100A1000D105E1F48DE291E00E94CF0442E050E084
:100A200060E276E085EF96E00E94CB038091340689
:100A30008823F1F0C631D105D9F4D0933906C0939B
:100A40003806DF91CF911F910F910895CE30D105D7
:100A500069F742E050E060E276E085EF96E00E94C0
:100A6000CB0360917B0585EF96E00E94D603DECF35
:100A7000639769F48091440690914506892B39F477
:100A800089E290E09093390680933806DACF10928D
:100A9000390610923806D5CF1092420610924106C0
:100AA000109240068EE491E00E94CF0461E086E05F
:100AB0000E94D90061E085E00C94D900CF93DF93C8
:100AC000BC01990F880B990B97FF0CC00E94AC04D6
:100AD000EC018AE291E00E945B048C0F9D1FDF9184
:100AE000CF9108954AE00E946804F2CFBC01990FAB
:100AF000880B990B97FD0C94AC044AE00C946804A5
:100B0000CF93DF93EC01892B19F081E00E94A905B6
:100B1000D0932506C09324068EE691E00E94CD0472
:100B200080912406909125060E9476058AE791E03F
:100B30000E94CD048091240690912506892B31F0E6
:100B40008BE691E0DF91CF910C94CF0487E691E0A2
:100B5000F9CFCF9390912306981759F1C82F81119F
:100B60000AC08091240690912506892B21F090E0FF
:100B700080E00E948005C093230683E991E00E94F3
:100B8000CD048091230690E00E945E0580912306AB
:100B9000882349F061E088E00E94D90061E089E0A3
:100BA000CF910C94D90060E088E00E94D90060E009
:100BB000F6CFCF910895CF93DF93682F70E090E048
:100BC00080E04AE00E946804EC018AE291E00E9421
:100BD0005B048C0F9D1FDF91CF910895892B09F441
:100BE000EAC09091120680911306981731F085EFB4
:100BF00096E00E94B103282FF4CF253179F41092AA
:100C0000370681E090E09093450680934406109269
:100C1000390610923806109234060895283169F486
:100C20001092360681E090E090934506809344064A
:100C300010923906109238060895233889F41092DC
:100C4000350681E090E0909345068093440610922B
:100C50003906109238068FE991E00E94CF0408957A
:100C6000243879F41092180681E090E090934506BC
:100C70008093440610923906109238068EEA91E06D
:100C8000ECCF2538D9F481E08093180685E090E018
:100C900090934506809344061092390610923806C8
:100CA0000E94EA0390934906809348069093470672
:100CB0008093460680EC91E00C94CF042638F1F442
:100CC0008091440690914506892B09F074C081E01B
:100CD00090E0909345068093440610923906109256
:100CE00038060E94EA039093490680934806909341
:100CF00047068093460686ED91E0DECF293241F526
:100D000080914406909145060297B8F081E090E00A
:100D1000909345068093440610924E061092370633
:100D20001092350610921806109236061092390667
:100D3000109238068CEE91E0BFCF109245061092CB
:100D40004406109239061092380689E092E0B4CF3A
:100D5000203879F580914306882369F181E08093FA
:100D60002B0608950E94B50080937B0584E10E94C4
:100D7000950184E10E9495019093210680932006BD
:100D80008EE192E00E94CD0480917B050E94DB05FC
:100D900088E392E00E94CD04809120069091210684
:100DA0000E945E058EE090E09093390680933806AD
:100DB00008952138B9F2089581E0809340068CBBF4
:100DC0008BE092E09093030180930201E9E6F0E06A
:100DD00080818C7F82608083E89A6091260670E033
:100DE00086E00E94380170E060E085E00C943801F4
:100DF000CF93DF9385ED8093BC0080919E05909109
:100E00009F05A091A005B091A1050796A11DB11D58
:100E100023E0B695A795979587952A95D1F72091C8
:100E2000BC0024FD03C01092E60536C040919E052B
:100E300050919F056091A0057091A105452B462B0F
:100E4000472B69F30097A105B10541F025E12A95EB
:100E5000F1F700000197A109B109E1CF80919D054B
:100E600091E090939C058823B9F0C091B800D0918F
:100E7000BA008091BC008A7B8093BC0060E082E174
:100E80000E94D90060E083E10E94D9000E948303A0
:100E9000D093BA00C093B800DF91CF9108951F920C
:100EA0000F920FB60F9211242F933F938F939F931E
:100EB000AF93BF938091500690915106A091520636
:100EC000B091530630914F0626E0230F2D3758F589
:100ED0000296A11DB11D20934F068093500690935A
:100EE0005106A0935206B0935306809154069091F8
:100EF0005506A0915606B09157060196A11DB11D49
:100F00008093540690935506A0935606B0935706C7
:100F1000BF91AF919F918F913F912F910F900FBEF5
:100F20000F901F90189529E8230F0396A11DB11D5E
:100F3000D2CF1F920F920FB60F9211242F933F938F
:100F40004F935F936F937F938F939F93AF93BF93D1
:100F5000EF93FF93E0910401F09105010995FF9152
:100F6000EF91BF91AF919F918F917F916F915F9121
:100F70004F913F912F910F900FBE0F901F9018959A
:100F80001F920F920FB60F9211242F933F934F93FE
:100F90005F936F937F938F939F93AF93BF93EF93E1
:100FA000FF93E0910201F09103010995FF91EF9108
:100FB000BF91AF919F918F917F916F915F914F9171
:100FC0003F912F910F900FBE0F901F9018951F9279
:100FD0000F920FB60F9211242F933F934F935F936D
:100FE0006F937F938F939F93AF93BF93EF93FF93F1
:100FF00088E596E00E94CD02FF91EF91BF91AF91FD
:101000009F918F917F916F915F914F913F912F9120
:101010000F900FBE0F901F9018951F920F920FB652
:101020000F9211242F938F939F93EF93FF93E0914F
:101030006806F09169068081E0916E06F0916F0676
:1010400082FD1BC09081809171068F5F8F7320910C
:101050007206821741F0E0917106F0E0E85AF94F0C
:10106000958F80937106FF91EF919F918F912F91B2
:101070000F900FBE0F901F9018958081F4CF1F9294
:101080000F920FB60F9211242F933F934F935F93BC
:101090006F937F938F939F93AF93BF93EF93FF9340
:1010A0008091B900887F803609F44AC0F0F5883213
:1010B00009F4A7C018F5803109F49BC0B8F488235F
:1010C00009F4F9C0883009F494C0FF91EF91BF9101
:1010D000AF919F918F917F916F915F914F913F91D0
:1010E0002F910F900FBE0F901F901895883109F423
:1010F00088C0803251F78093E50514C0803409F42C
:101100009DC040F48033B9F38833F9F68093E50548
:1011100085ECB0C0803509F485C0883509F496C0E7
:10112000883499F60E94F806D0CF883909F48CC02B
:1011300038F5883729F050F4883611F0803729F6D1
:1011400083E08093E6051092E40557C0883809F4DF
:101150007BC0803919F0803809F0B7CF8091E40561
:10116000803208F071C0E091E40581E08E0F809339
:10117000E4058091BB00F0E0EC53FA4F80833DC062
:10118000803B39F0E0F4803A09F479C0883A09F0FC
:101190009CCF84E08093E6051092C3051092C205AF
:1011A000E0910E06F0910F0609958091C20581111C
:1011B0000FC081E08093C2051092A20509C0803C57
:1011C00009F4A6CF883C09F4A3CF883B09F07DCF72
:1011D000E091C30581E08E0F8093C305F0E0EE55EA
:1011E000FA4F80818093BB009091C3058091C20526
:1011F00029C080910B068093BB0085EC8093BC00D6
:1012000064CF90910A0680910906981758F5E091ED
:101210000A0681E08E0F80930A06F0E0E751FA4F4C
:101220008081E9CFE0910A0681E08E0F80930A0663
:101230008091BB00F0E0E751FA4F808390910A065D
:10124000809109069817C8F285E8D8CFE0910A0680
:1012500081E08E0F80930A068091BB00F0E0E75199
:10126000FA4F80838091E80581115CCF81E0809303
:10127000E70584EA8093BC001092E60526CF85EC52
:101280008093BC001092E6058091E405803230F432
:10129000E091E405F0E0EC53FA4F10826091E40530
:1012A00070E0E0910C06F0910D0684EC95E0099554
:1012B0001092E4050ACF1092E50534CF0E944C0548
:1012C0008AE591E00E94CF046AEF70E080E090E050
:1012D0000C94CC011092430610922B0680E00E94E1
:1012E000A90510922506109224068AE090E09093BA
:1012F0003906809338060895E8E5F6E013821282F5
:1013000088EE93E0A0E0B0E084839583A683B78362
:101310002AE031E03183208325EC30E035872487D3
:1013200024EC30E03787268720EC30E0318B208BAF
:1013300021EC30E0338B228B22EC30E0358B248B98
:1013400026EC30E0378B268B118E128E138E148E86
:10135000E5EFF6E01382128284839583A683B78338
:101360008CE191E0918380830895789484B58260C4
:1013700084BD84B5816084BD85B5826085BD85B539
:10138000816085BD80916E00816080936E001092B7
:101390008100809181008260809381008091810032
:1013A00081608093810080918000816080938000C3
:1013B0008091B10084608093B1008091B000816021
:1013C0008093B00080917A00846080937A0080914D
:1013D0007A00826080937A0080917A008E7F809379
:1013E0007A0080917A00806880937A001092C10020
:1013F00061E089E00E94070160E089E00E94D90075
:10140000E0916806F091690682E08083E0916406CD
:10141000F09165061082E0916606F091670688E01B
:10142000808310927006E0916C06F0916D0686E064
:101430008083E0916A06F0916B06808180618083F1
:10144000E0916A06F0916B06808188608083E0916C
:101450006A06F0916B06808180688083E0916A065D
:10146000F0916B0680818F7D808360E08EE00E942A
:10147000070160E08FE00E94070160E080E10E94C8
:10148000070160E081E10E94070160E084E10E94C1
:10149000070161E088E00E94070161E086E00E94A8
:1014A000070161E085E00E94070161E087E00E949A
:1014B000070160E082E00E94070160E083E00E9493
:1014C00007010E94B50021E0892B09F420E0209358
:1014D0001F0620931E060E94FE01605E7C4F8F4F08
:1014E0009F4F60934A0670934B0680934C069093EF
:1014F0004D0670E060E086E00E94380170E060E038
:1015000085E00E94380160E088E00E94D90060E038
:1015100089E00E94D90010921306109212061092D0
:101520001106109210060E94830389E192E09093C5
:101530000F0680930E0685E292E090930D0680934D
:101540000C0684E58093BA008EEE95E09093150624
:101550008093140681EE94E090931706809316060C
:1015600088248A9483E0982EA12CB12C93E1692ED3
:10157000712C22E2E22EF12C01E010E050904E0698
:10158000511024C00E94FE0120914A0630914B0662
:1015900040914C0650914D066217730784079507DA
:1015A000A8F40E94EA03909349068093480690931A
:1015B00047068093460680E090E0892BF9F20E946E
:1015C000B9028823C9F20E940000D6CFC090440619
:1015D000D0904506C114D10409F4ADC20E94EA03BB
:1015E000EC01909349068093480621E0C216D1048D
:1015F00009F0D3C08091460690914706C817D907D5
:10160000D1F283E592E00E94CD048091460690914C
:1016100047060E9476058EE692E00E94CD048091F6
:101620004806909149060E945E05609148067091B7
:10163000490670934706609346066430710589F148
:1016400098F46330710509F0B6CF109245061092F8
:10165000440689E290E090933906809338068DE93C
:1016600092E00E94CF04A7CF6630710599F16730F0
:10167000710509F0A0CF88E892E00E94CD04809126
:101680003A060E94DB0520913A06223009F461C037
:1016900060F52223C9F1213009F446C08CE290E0C4
:1016A0003EC080913A0690E0059666E070E00E94A8
:1016B000491180933A068AE290E09093390680932C
:1016C000380683E792E00E94CD0480913A060E949A
:1016D000DB0571CF80913A0690E001960E94491196
:1016E00080933A068BE290E0E8CF243009F449C0B9
:1016F000E0F1253099F687E090E0909345068093DD
:10170000440689E190E00BC082E090E090934506AA
:101710008093440681E080934E068FE090E09093A2
:1017200039068093380647CF83E090E090934506D2
:1017300080934406209337060E94FE0160932C0696
:1017400070932D0680932E0690932F0684E190E0EF
:10175000E6CF84E090E0909345068093440681E0D4
:10176000809335068EE190E0DACF85E090E09093AB
:1017700045068093440681E08093180683E290E05A
:10178000CECF86E090E0909345068093440681E0BA
:101790008093360687E190E0C2CF552009F451C00E
:1017A0008091460690914706C817D90709F403CFE0
:1017B000D0934706C0934606C530D105A9F178F409
:1017C000C330D105D9F0249709F0F5CE80E190E03F
:1017D00090933906809338068DEB92E042CFC63065
:1017E000D105C9F0279709F0E6CE82E190E0909309
:1017F00039068093380687ED92E033CF1093450683
:101800000093440610924E06709239066092380694
:1018100088EA92E026CF21E130E030933906209328
:1018200038068AEC92E01DCF1092450610924406CD
:1018300010924E06709239066092380687EE92E05A
:1018400010CF80913706882309F456C08FE00E949C
:1018500095018FE00E9495018F3D93401CF4C530A7
:10186000D105D1F489EF92E00E94CF041093450690
:10187000009344061092370681E0809334060E945C
:10188000FE01609330067093310680933206909388
:10189000330686E190E043CF239779F41093450611
:1018A000009344061092370626E130E03093390663
:1018B0002093380684E193E0D4CE0E94FE0120916B
:1018C0002C0630912D0640912E0650912F06621B5A
:1018D000730B840B950B613D7B4F8140910508F4A0
:1018E0006ACE109345060093440610923706109274
:1018F0003906109238065FCE80913506882309F4A8
:101900003FC08091460690914706C817D90709F451
:1019100052CED0934706C0934606C530D10519F183
:1019200048F4C330D10579F0249709F044CE8FE113
:1019300090E0F5CEC630D10599F0279709F03BCE5F
:1019400081E290E0ECCE109345060093440610929D
:101950003506F0923906E09238068AE293E081CEAD
:1019600080E290E0DCCE1092450610924406109280
:101970003506F0923906E09238068CE393E071CE9A
:1019800080911806882309F455C0809146069091ED
:101990004706C817D90709F40ECED0934706C0935F
:1019A0004606C530D105B9F178F4C330D105D9F078
:1019B000249709F000CE84E290E09093390680935A
:1019C000380680E693E04DCEC630D105D9F0279792
:1019D00009F0F1CD86E290E09093390680933806C5
:1019E0008AE793E03ECE109345060093440610929A
:1019F000180687E290E090933906809338068BE4CE
:101A000093E02FCE85E290E09093390680933806DC
:101A10008DE693E026CE1092450610924406109271
:101A2000180687E290E090933906809338068AE89A
:101A300093E017CE80913606882339F10E94EA039D
:101A400090934906809348062091460630914706B8
:101A50008217930709F4AFCD90934706809346060B
:101A60008330910519F0059709F0A5CD109345062F
:101A7000009344061092360688E190E09093390670
:101A8000809338068CE993E0ECCD87E0C816D1044A
:101A900009F091CD8091460690914706C817D90765
:101AA00009F489CDD0934706C0934606C530D105C9
:101AB000A9F178F4C330D10521F1249709F07BCD49
:101AC0008AE190E090933906809338068FEA93E09C
:101AD000C8CDC630D10561F0279709F06CCD8CE1F7
:101AE00090E0909339068093380689EC93E0B9CD65
:101AF0008BE190E090933906809338068CEB93E06D
:101B0000B0CD10934506009344068DE190E090938C
:101B100039068093380689ED93E0A3CD10924506EF
:101B2000109244068DE190E0909339068093380638
:101B30008EEE93E096CD8091430681110BC080918B
:101B4000410690914206892B29F480914006882312
:101B500009F4C5C010923F068091370690914E0659
:101B600091110AC381112FC180913606811120C3C2
:101B70008091350681111CC38091340681111BCDE3
:101B80000E94EA0390934906809348068091430699
:101B90008823C9F180912B068823A9F1809138060A
:101BA000909139060A9779F110922B060E94B500A0
:101BB000892B09F05DC180912A06811114C08091A2
:101BC00029068F5F80932906833008F454C189E188
:101BD00080932A068EE694E00E94CF0480912A0624
:101BE000882309F448C1815080932A06811143C19A
:101BF00084E994E00E94CF040E946A098FE08093F8
:101C000028060E94DC0680912806882361F09091C6
:101C10004006911108C0815080932806882309F45A
:101C200033C10E94DC0681E10E94950181E10E949E
:101C300095019C01A5E6BFEF0E946311A5019401E7
:101C40000E94F91021503F4F4F4F5F4F20932706BE
:101C500080E10E94950180E10E9495019C01A5E62A
:101C6000BFEF0E946311A50194010E94F910215059
:101C70003F4F4F4F5F4F20932606E0914806F0916B
:101C80004906209143068091460690914706E81741
:101C9000F90709F4E6C1F0934706E09346062223CC
:101CA00009F4F7C0359749F480913F06811105C1C9
:101CB000222309F4FFC00E946A0980914106909195
:101CC00042068130910519F0019609F074CC6091BB
:101CD000270670E0809122060E9438016CCC8FE0CC
:101CE0000E9495018FE00E94950120913F068F3D53
:101CF00093400CF441C0211112C081E080933F0653
:101D00000E94FE0160933B0670933C0680933D0663
:101D100090933E0680E094E00E94CF041DCF0E9485
:101D2000FE0120913B0630913C0640913D065091CA
:101D30003E06621B730B840B950B683B7B40810551
:101D4000910508F409CF10934506009344061092BC
:101D50003A0610923F0610924706109246061092DD
:101D600049061092480688E290E0909339068093E5
:101D7000380685E294E075CC222309F4EDCE0E946A
:101D8000FE0120913B0630913C0640913D0650916A
:101D90003E061B012C01221A330A440A550A83E429
:101DA00094E00E94CD044AE0C201B1010E9468049F
:101DB0008EE594E00E94CF0410923F0610924706F1
:101DC00010924606C9CE8FE00E9495018FE00E94D6
:101DD0009501EC010E94EA0390934906809348061E
:101DE000CF3DD34014F4059729F489EF92E00E9487
:101DF000CF0440CD0E94FE0120912C0630912D068B
:101E000040912E0650912F06621B730B840B950B8D
:101E1000613D7B4F8140910508F4CDCB66CD873085
:101E2000910569F0089709F0C3C182E190E002C012
:101E300080E190E09093390680933806B9C121E1A2
:101E400030E03093390620933806B2C170923906DB
:101E500060923806ADC18730910509F481CD0897AD
:101E600009F46ECDA8CBF0923906E0923806A3CBE8
:101E700010922906B3CE0E94DC0685E090E0909394
:101E8000390680933806BFCE85EC94E00E94CF04DB
:101E9000CACE3197E830F10508F00FCFEE5AF04F77
:101EA0000C945D11620F7F0F8A0FB60F540EE40F72
:101EB000F90F1F100E944C0500CF89ED94E00E949D
:101EC000CF04FBCE20912406309125062230310527
:101ED00089F0C901992701962817390769F480917B
:101EE00024069091250699270296909339068093AF
:101EF0003806E3CE90E080E00E948005F0CF90911C
:101F0000230681E089270E94A9058091230690E09D
:101F10000696EBCF8091410690914206019711F40D
:101F20000E945E098FEF9FEF9093420680934106D7
:101F30008CEF94E00E94CD04809127060E94DB057F
:101F4000E8982AE032E0309303012093020185E013
:101F50008093220670E060E086E00E943801609184
:101F6000270670E085E00E943801A7CE80914106E7
:101F700090914206892B29F580914006811121C05C
:101F800084E095E00E94CD04809126060E94DB0546
:101F900081E0809340068CBB8BE092E0909303013C
:101FA00080930201809169008C7F82608093690038
:101FB000E89A70E060E086E00E94380160912606B1
:101FC000D0CF80E195E07BCF809141069091420691
:101FD000892BB9F7809140068111F3CF8BE295E010
:101FE0000E94CD04809126060E94DB050E94DC063B
:101FF00064CE8091410690914206019611F40E94B0
:102000005E09109342060093410683E295E00E9428
:10201000CD04809127060E94DB05E8988AE092E0D3
:10202000909303018093020186E0809322066091E1
:10203000270670E00E94380170E060E093CF81E0F5
:102040008093430610922A061092290610922806C1
:1020500029E030E030933906209338060E94A90524
:102060002CCE21112ACE84E10E94950184E10E94A8
:10207000950184E10E9495012091000130910101B8
:10208000281B390B37FF03C03195219531092830C2
:102090003105C4F0909321068093200690930101AE
:1020A0008093000187E395E00E94CD048091200693
:1020B000909121060E945E058BE090E09093390696
:1020C00080933806C0911F06C0931E060E94B5007B
:1020D00021E0009709F420E020931F06892B09F0E6
:1020E00040C0CC2369F00E94FE0160931A067093F1
:1020F0001B0680931C0690931D0681E080931906B1
:1021000080911906882309F4D8CDC0914106D09159
:1021100042060E94FE0120911A0630911B06409152
:102120001C0650911D06621B730B840B950B643FBC
:1021300071408105910508F4C0CDC130D10511F081
:10214000219631F48EE495E00E94CF040E944C0564
:102150008CE090E09093390680933806109219062F
:10216000ACCD10921906C111A8CD2DE030E030930E
:10217000390620933806A1CD811125CE0E94EA03AD
:102180009093490680934806209146063091470671
:102190008217930769F0909347068093460685302F
:1021A000910509F453CE08F03ACE039709F440CED6
:1021B00080913506882309F4FEC90E94EA039093B2
:1021C00049068093480620914606309147068217BB
:1021D000930709F4F0C9909347068093460685302B
:1021E000910509F440CE08F036CE039709F49FCB51
:1021F000E2C9052E97FB1EF400940E94101157FDB2
:1022000007D00E94181107FC03D04EF40C94101153
:1022100050954095309521953F4F4F4F5F4F089512
:1022200090958095709561957F4F8F4F9F4F089542
:10223000A1E21A2EAA1BBB1BFD010DC0AA1FBB1FCA
:10224000EE1FFF1FA217B307E407F50720F0A21B3C
:10225000B30BE40BF50B661F771F881F991F1A94A9
:1022600069F760957095809590959B01AC01BD01D3
:10227000CF010895A29FB001B39FC001A39F700D2D
:10228000811D1124911DB29F700D811D1124911D7E
:10229000089597FB072E16F4009407D077FD09D018
:1022A0000E94721107FC05D03EF4909581959F4FD6
:1022B0000895709561957F4F0895EE0FFF1F05906B
:1022C000F491E02D09940E943A11332312F48A1BF1
:1022D0009B0B0C946D110E943A11B7FF0895821B5D
:1022E000930B0895AA1BBB1B51E107C0AA1FBB1F7C
:1022F000A617B70710F0A61BB70B881F991F5A9592
:10230000A9F780959095BC01CD010895F894FFCF71
:102310009CFF0A020A0200000000EF024F027C024A
:102320003C03AD028B029F0200000000D603CB03EA
:10233000E703A103C403B103A2030D0A0053656EB2
:1023400064696E67206E6577204578706F7375726B
:10235000652054696D652076616C75652E004D6F42
:10236000746F723A2053746F700028427269656608
:102370006C792E2E2E29006F757400696E005A6FCD
:102380006F6D206D6F64653A20002E2054656C6C73
:10239000696E6720526173706920746F207A6F6F65
:1023A0006D20004C616D70206D6F64653A200041B6
:1023B0005742206D656E753A2065786974005461E6
:1023C00072676574206D656E753A20657869740072
:1023D000546172676574206D656E753A2072652D63
:1023E000656E746572004D656E753A20656E746534
:1023F00072202866726F6D20506929004D656E75D8
:102400003A206261636B20746F206D61696E2028D1
:1024100066726F6D20506929004D656E753A2065B2
:10242000786974202866726F6D20506929004375A1
:102430007272656E742046696C6D206C6F616420E9
:1024400073746174653A200043757272656E74200E
:102450004578706F737572652053657474696E6723
:102460003A20004D656E753A20627574746F6E2067
:102470006368616E6765642066726F6D200020740A
:102480006F20004D656E753A2073656C65637465E9
:1024900064206974656D20004D656E753A20656E27
:1024A000746572696E67206974656D20004D656E94
:1024B000753A2065786974005570646174653A20D6
:1024C0006261636B20746F206D656E75005570647A
:1024D0006174653A20707265760055706461746548
:1024E0003A206E657874005570646174653A2063B3
:1024F0006F6E6669726D005570646174653A20652F
:10250000786974206D656E750050616972696E67D7
:10251000206D6F64653A2073746F702070726573FC
:102520007365640050616972696E673A2062616325
:102530006B20746F206D656E75004157423A2062C2
:1025400061636B20746F206D656E75004157423A70
:102550002065786974206D656E75005461726765D9
:10256000743A206261636B20746F206D656E750034
:102570005461726765743A207072657600546172B6
:102580006765743A206E657874005461726765748B
:102590003A20636F6E6669726D005461726765748C
:1025A0003A2065786974206D656E75004C6F6773AD
:1025B0003A206261636B20746F206D656E75005503
:1025C0006E706169723A207072657600556E706146
:1025D00069723A206E65787400556E706169723A5E
:1025E00020636F6E6669726D00556E706169723A34
:1025F000206261636B20746F206D656E7500556E8F
:10260000706169723A2065786974206D656E750035
:102610004D656E753A2053544F5020627574746F37
:102620006E20707265737365642C2074696D696EB9
:10263000672E2E2E004D656E753A20656E7465729C
:1026400020286C6F6E672070726573732053544F2F
:102650005029004D656E753A2053544F50207265D5
:102660006C65617365642061667465722000206D1D
:10267000732028746F6F2073686F72742900466925
:102680006C6D20656E646564202D207363616E6ED1
:10269000696E6720323520657874726120667261D8
:1026A0006D6573004578747261206672616D657343
:1026B00020646F6E65202D2073746F7070696E6773
:1026C000207363616E2C20656A656374696E672090
:1026D00066696C6D0046696C6D20656A656374207F
:1026E000636F6D706C6574650053544F503A206988
:1026F000676E6F72696E6720286C6F6E672D7072DF
:102700006573732074696D696E6729004D6F746F0E
:10271000723A203C3C20617420537065656420004F
:102720004D6F746F72206E6F742073746F7070656C
:10273000642E004D6F746F723A203E3E206174200B
:10274000537065656420004E6577204578706F731F
:102750007572652053657474696E673A2000466926
:102760006C6D20656E64656420647572696E6720A7
:10277000636F6E74696E756F75732072756E202D40
:0A2780002073746F7070696E6700BB
:00000001FF
