:020000040000FA
:100000000C94C7030C94760C0C944F0C0C94EF03D7
:100010000C94EF030C94EF030C94EF030C94EF0398
:100020000C94EF030C94EF030C94EF030C94EF0388
:100030000C94EF030C94EF030C94EF030C94EF0378
:100040000C94050C0C94EF030C94C30C0C949D0CB5
:100050000C94EF030C94EF030C94EF030C94EF0358
:100060000C94F50C0C94EF034D6F746F723A20539F
:10007000746F70002842726965666C792E2E2E2985
:10008000004C616D70206D6F64653A2000696E00F0
:100090006F7574002E2054656C6C696E6720526118
:1000A00073706920746F207A6F6F6D20005A6F6FC4
:1000B0006D206D6F64653A200043757272656E74D1
:1000C000204578706F737572652053657474696E1E
:1000D000673A200043757272656E742046696C6DD4
:1000E000206C6F61642073746174653A20005363FF
:1000F000616E2072656A6563746564206279205060
:1001000069004D6F746F722063616C696220736562
:10011000742066726F6D2050693A206D6F746F7233
:100120004D696E44757479203D20004D656E753AB9
:100130002065786974202866726F6D2050692900E7
:100140004D656E753A206261636B20746F206D613E
:10015000696E202866726F6D2050692900576946C4
:1001600069206D656E753A20657869740054617216
:10017000676574206D656E753A2065786974004C0A
:100180006174656E6379206D656E753A2065786976
:100190007400415742206D656E753A206578697428
:1001A0000053656E64696E67206E657720457870D0
:1001B0006F737572652054696D652076616C756525
:1001C0002E005265762E20005265762E204420287F
:1001D000666C6F6174696E67290020574452463D12
:1001E0000020424F52463D002045585452463D00A3
:1001F00020504F52463D00424F4F54204D435553DF
:10020000523D30780043616C69623A2072657375C3
:100210006C742071756575656420666F7220506915
:100220000043616C69623A206E6577206D6F746F70
:10023000724D696E44757479203D200043616C698C
:10024000623A207374616C6C65642061742064751B
:100250007479200043616C69623A206E6F204559C1
:10026000452070756C7365202D2061626F72746516
:1002700064202866696C6D206C6F616465643F2939
:100280000043616C69623A207374617274696E67CD
:10029000206D6F746F7220737765657000556E7096
:1002A0006169723A2065786974206D656E750055D4
:1002B0006E706169723A206261636B20746F206DA9
:1002C000656E7500556E706169723A20636F6E6677
:1002D00069726D00556E706169723A206E6578744E
:1002E00000556E706169723A2070726576004C6FCD
:1002F00067733A206261636B20746F206D656E7561
:1003000000576946693A2065786974206D656E7595
:1003100000576946693A20636F6E6669726D0057CF
:100320006946693A206E65787400576946693A20D3
:100330007072657600576946693A206261636B2086
:10034000746F206D656E75005461726765743A2034
:1003500065786974206D656E7500546172676574A7
:100360003A20636F6E6669726D00546172676574DE
:100370003A206E657874005461726765743A207033
:10038000726576005461726765743A206261636BCE
:1003900020746F206D656E75004C6174656E6379B5
:1003A0003A2065786974206D656E75004C617465DE
:1003B0006E63793A206261636B20746F206D656EA5
:1003C00075004157423A2065786974206D656E75F5
:1003D000004157423A206261636B20746F206D6563
:1003E0006E750050616972696E673A2074696D6557
:1003F00064206F75742C206261636B20746F206DB4
:10040000656E750050616972696E673A206261635A
:100410006B20746F206D656E750050616972696E36
:1004200067206D6F64653A2073746F702070726519
:1004300073736564005570646174653A206578690A
:1004400074206D656E75005570646174653A206343
:100450006F6E6669726D005570646174653A206EE6
:10046000657874005570646174653A2070726576C1
:10047000005570646174653A206261636B20746F2B
:10048000206D656E75004D656E753A2065786974EE
:10049000004D656E753A20656E746572696E6720F1
:1004A0006974656D20004D656E753A2073656C65E5
:1004B00063746564206974656D20004D656E753ADE
:1004C0002073656C6563746564206974656D2000D4
:1004D00020746F20004D656E753A20627574746FDC
:1004E0006E206368616E6765642066726F6D2000C0
:1004F0004E6577204578706F73757265205365740B
:1005000074696E673A200046696C6D20656E64659B
:100510006420647572696E6720636F6E74696E75AE
:100520006F75732072756E202D2073746F707069F3
:100530006E670046696C6D20656E64656420647545
:1005400072696E6720636F6E74696E756F75732064
:1005500072756E202D2073746F7070696E67004D18
:100560006F746F723A203E3E20617420537065654F
:100570006420004D6F746F72206E6F742073746FFF
:10058000707065642E003E20617420537065656450
:1005900020004D6F746F72206E6F742073746F70D3
:1005A0007065642E003C2061742053706565642082
:1005B000004D6F746F723A203C3C20617420537080
:1005C000656564200053544F503A2069676E6F721E
:1005D000696E6720286C6F6E672D7072657373206B
:1005E00074696D696E67290046696C6D20656A657E
:1005F000637420636F6D706C657465004578747208
:1006000061206672616D657320646F6E65202D20B8
:1006100073746F7070696E67207363616E2C2065F0
:100620006A656374696E672066696C6D0046696C03
:100630006D20656E646564202D207363616E6E6944
:100640006E67203235206578747261206672616D44
:10065000657300206D732028746F6F2073686F724C
:100660007429004D656E753A2053544F50207265C1
:100670006C656173656420616674657220004D6508
:100680006E753A20656E74657220286C6F6E6720F7
:1006900070726573732053544F5029004D656E7509
:1006A0003A2053544F5020627574746F6E207072EC
:1006B00065737365642C2074696D696E672E2E2EC8
:1006C000002C207461726765744D6F64653D005441
:1006D0006172676574206D656E753A2072652D656F
:1006E0006E746572202866726F6D205069292C2007
:1006F0006D656E7553746174653D00546172676514
:10070000743A20656E746572696E67206D656E75EA
:10071000206D6F64652066697273740045455052A0
:100720004F4D206261636B75703A20776970656424
:100730000000000000240027002A0000000000251F
:100740000028002B000000000023002600290004E0
:100750000404040404040402020202020203030368
:100760000303030102040810204080010204081062
:10077000200102040810200000000800020100000F
:10078000030407000000000000000000140E112404
:100790001FBECFEFD8E0DEBFCDBF11E0A0E0B1E0DB
:1007A000EAE5F1E302C005900D92AC35B107D9F747
:1007B00023E0ACE5B1E001C01D92A633B207E1F73A
:1007C00013E0C7ECD3E004C02197FE010E9491180A
:1007D000C63CD107C9F70E944D0E0C94AB180C947F
:1007E0000000E89889EF93E090930401809303015F
:1007F00008950895833081F028F4813099F0823093
:10080000A9F008958730A9F08830C9F08430B1F498
:10081000809180008F7D03C0809180008F778093CE
:100820008000089584B58F7784BD089584B58F7D49
:10083000FBCF8091B0008F778093B00008958091B6
:10084000B0008F7DF9CFCF93DF93282F30E0F901EF
:10085000E958F84F8491F901ED59F84FD491F90115
:10086000E15BF84FC491CC23A1F081110E94FA03FF
:10087000EC2FF0E0EE0FFF1FEB5BF84FA591B4916A
:10088000EC91ED2381E090E009F480E0DF91CF91DD
:10089000089580E090E0FACF1F93CF93DF93282F45
:1008A00030E0F901E958F84F8491F901ED59F84F1A
:1008B000D491F901E15BF84FC491CC23A9F0162F34
:1008C00081110E94FA03EC2FF0E0EE0FFF1FE55CB0
:1008D000F84FA591B4918FB7F894EC91111108C01D
:1008E000D095DE23DC938FBFDF91CF911F910895C8
:1008F000DE2BF8CFCF93DF9390E0FC01ED59F84F5A
:100900002491815B984FFC0184918823D1F090E081
:10091000880F991FFC01EF5CF84FA591B491FC0181
:10092000E55CF84FC591D49161110EC09FB7F89462
:100930008C91E22FE0958E238C932881E223E8832B
:100940009FBFDF91CF9108958FB7F894EC91E22B80
:10095000EC938FBFF6CF1F93CF93DF93182FEB014C
:1009600061E00E947A04209739F460E0812FDF91E2
:10097000CF911F910C944C04CF3FD10511F461E04D
:10098000F5CFE12FF0E0E958F84FE491E33031F191
:1009900040F4E130B1F0E230E1F0C038D1057CF74D
:1009A000E4CFE73029F1E83059F1E430B1F7809134
:1009B0008000806280938000D0938B00C0938A0077
:1009C00004C084B5806884BDC7BDDF91CF911F91FD
:1009D000089584B5806284BDC8BDF7CF8091800042
:1009E000806880938000D0938900C0938800EDCF09
:1009F0008091B00080688093B000C093B300E5CFD1
:100A00008091B00080628093B000C093B400DDCFCD
:100A10008E50806480937C0080917A008064809303
:100A20007A0080917A0086FDFCCF809178009091C9
:100A3000790008953FB7F8948091890290918A02D5
:100A4000A0918B02B0918C0226B5A89B05C02F3FC8
:100A500019F00196A11DB11D3FBFBA2FA92F982FE4
:100A60008827BC01CD01620F711D811D911D43E0DE
:100A7000660F771F881F991F4A95D1F708958F92A7
:100A80009F92AF92BF92CF92DF92EF92FF926B0153
:100A90007C010E941A054B015C01C114D104E104E0
:100AA000F104B9F00E941A05681979098A099B09AD
:100AB000683E73408105910580F321E0C21AD10898
:100AC000E108F10888EE880E83E0981EA11CB11C95
:100AD000E4CFFF90EF90DF90CF90BF90AF909F90CA
:100AE0008F900895109229021092280210921402F9
:100AF00010921502109216021092170210922702FD
:100B000061E086E00E944C0461E085E00E944C04B4
:100B10000E94F103789480912A02882331F085E0C5
:100B200090E090932C0280932B020895E091F901BC
:100B3000F091FA01309729F01092F4011092F3012C
:100B400009940895CF93DF93AC01E091F701F09100
:100B5000F8013097F1F09091F6018091F501981726
:100B6000C0F090E0292F30E02617370754F4D90160
:100B7000A15ABE4F240F351FE90128812C939F5F96
:100B8000F1CF1092F6016093F501CB01DF91CF9187
:100B90000994DF91CF910895AF92BF92CF92DF92E7
:100BA000EF92FF920F931F93CF93DF936C017B0122
:100BB0008B01040F151FEB015E01AE18BF08C017B3
:100BC000D10759F06991D601ED91FC910190F08126
:100BD000E02DC6010995892B79F7C501DF91CF91E9
:100BE0001F910F91FF90EF90DF90CF90BF90AF904B
:100BF0000895FC01538D448D252F30E0842F90E023
:100C0000821B930B541710F0CF9608950197089507
:100C1000FC01918D828D981761F0A28DAE0FBF2FD0
:100C2000B11D5D968C91928D9F5F9F73928F90E026
:100C300008958FEF9FEF0895FC01918D828D981795
:100C400031F0828DE80FF11D858D90E008958FEFD2
:100C50009FEF0895FC01918D228D892F90E0805C9B
:100C60009F4F821B91098F73992708958DE892E019
:100C70000E942A0621E0892B09F420E0822F0895A2
:100C800080E090E0892B29F00E94360681110C94B7
:100C900000000895FC01A48DA80FB92FB11DA35A1F
:100CA000BF4F2C91848D90E001968F739927848F8C
:100CB000A689B7892C93A089B1898C9183708064AF
:100CC0008C93938D848D981306C00288F389E02D50
:100CD00080818F7D80830895EF92FF920F931F9301
:100CE000CF93DF93EC0181E0888F9B8D8C8D9813DF
:100CF0001AC0E889F989808185FF15C09FB7F894EB
:100D0000EE89FF896083E889F98980818370806436
:100D100080839FBF81E090E0DF91CF911F910F9181
:100D2000FF90EF900895F62E0B8D10E00F5F1F4F90
:100D30000F731127E02E8C8D8E110CC00FB607FC9F
:100D4000FACFE889F989808185FFF5CFCE010E942D
:100D50004A06F1CFEB8DEC0FFD2FF11DE35AFF4F4B
:100D6000F0829FB7F8940B8FEA89FB8980818062BB
:100D7000CFCF0F931F93CF93DF938C01D0E0C0E0D0
:100D8000F801EC0FFD1F6491662341F08DE892E0BD
:100D90000E946C06892B11F02196F2CFCE01DF91D3
:100DA000CF911F910F910895CF93DF93EC01888D20
:100DB0008823B9F0AA89BB89E889F9898C9185FDD6
:100DC00003C0808186FD0DC00FB607FCF7CF8C9164
:100DD00085FFF2CF808185FFEDCFCE010E944A06CC
:100DE000E9CFDF91CF9108952091A501260F3327F8
:100DF000331F21323105ECF42091C901FC0190E050
:100E000080E0243069F082E00895A091A50121914D
:100E1000AC014B575E4FA40FB52FB11D2C9301961B
:100E2000861798F38091A501680F6093A50180E073
:100E3000089581E008951092C90181E08093CB016B
:100E40001092CA0161E082E10E944C0461E083E1FA
:100E50000E944C04E9EBF0E080818E7F80838081EA
:100E60008D7F808380E28093B80085E48093BC000E
:100E700008950895E091F6018091F501E81730F4A6
:100E8000F0E0E15AFE4F808190E008958FEF9FEFF0
:100E900008959091F6018091F5012FEF3FEF98179B
:100EA00048F4E92FF0E0E15AFE4F208130E09F5FE7
:100EB0009093F601C90108958091F5019091F60192
:100EC000891B990B0895CF93DF93CB01EA01642F1F
:100ED0000E94F406CE01DF91CF910895CF93DF9366
:100EE0001F92CDB7DEB7698361E0CE0101960E9403
:100EF000F40681E090E00F90DF91CF91089590E0AB
:100F000080E008950F931F93CF93DF938EE00E94AC
:100F100008058EE00E9408058C018FE00E940805FC
:100F20008FE00E940805EC0160E872E080E090E04C
:100F30000E943F0520915C01222369F102301105D6
:100F40002CF490E080E0C230D10574F1C8014F97D5
:100F50008732910508F444C08A559109873291057A
:100F600050F18A5A9109879748F10F3D83E018079D
:100F700044F5CE014F978732910530F18A5591099A
:100F80008732910520F18A5A9109879718F1CF3D50
:100F900083E0D80714F590E080E0023011051CF4DE
:100FA00021E022970CF020E020935C01DF91CF91AB
:100FB0001F910F91089583E090E0EFCF81E090E0E2
:100FC000ECCF82E090E0E9CF88E090E0E6CF87E0E8
:100FD00090E0E3CF86E090E0E0CF85E090E0DDCFE9
:100FE00084E090E0E0CF2FB7F89460918502709193
:100FF000860280918702909188022FBF26E0969505
:101000008795779567952A95D1F708958F929F9246
:10101000AF92BF920F931F93CF93DF93CDB7DEB7FD
:10102000A1970FB6F894DEBF0FBECDBF19A2423014
:1010300008F44AE08E010F5D1F4F842E912CB12CD5
:10104000A12CA50194010E944C18E62FB901CA01F8
:10105000EA3044F5E05DD801EE938D01232B242B7B
:10106000252B79F790E080E0109769F0FD01019061
:101070000020E9F73197AF014A1B5B0BBD018DE8FA
:1010800092E00E94CC05A1960FB6F894DEBF0FBE89
:10109000CDBFDF91CF911F910F91BF90AF909F90E7
:1010A0008F900895E95CD7CF42E050E068E571E0A9
:1010B0008DE892E00C94CC05CF93DF930E94B906A3
:1010C000EC010E9454088C0F9D1FDF91CF91089571
:1010D000CF92DF92EF92FF920F931F93CF93DF9304
:1010E00000D000D01F92CDB7DEB780915E0188237B
:1010F000F9F0809155028823D9F04091560250E0D2
:1011000067E572E08AE293E00E94630710925E0155
:10111000109255020F900F900F900F900F90DF914B
:10112000CF911F910F91FF90EF90DF90CF90089596
:1011300000912B0210912C0209831A821B821C82BF
:10114000802F80958D838091FF018823A9F00E94D4
:10115000F307C090FB01D090FC01E090FD01F090FE
:10116000FE016C197D098E099F096938734181055B
:10117000910510F01092FF010A301105F9F481EA8F
:1011800091E00E945C089091090280910A029A8382
:101190008B8345E050E0BE016F5F7F4F8AE293E0B2
:1011A0000E9463078091FF018823E1F0053111055A
:1011B000C9F410932C0200932B02ACCF0D30110513
:1011C00051F49091090280910A029A838B83809155
:1011D0005D018C83DECF0C331105D9F680910201BD
:1011E0008A83D7CF0231110569F480912E02909144
:1011F0002F02892B39F489E290E090932C0280939E
:101200002B0288CF10922C0210922B0283CF1092C7
:1012100029021092280210921402109215021092C4
:101220001602109217021092270288E690E00E94A0
:101230005C0861E086E00E944C0461E085E00C946B
:101240004C040E94070984E790E00E945C0860E873
:101250007EE380E090E00C943F05CF92DF92EF9226
:10126000FF92CF93DF936C01990FEE08FF08F7FE12
:1012700019C06DE28DE892E00E946C06EC016627D1
:101280007727CB016C197D098E099F094AE00E94DE
:1012900006088C0F9D1FDF91CF91FF90EF90DF909C
:1012A000CF9008954AE0C701B601DF91CF91FF903A
:1012B000EF90DF90CF900C940608CF93DF930E94BD
:1012C0002D09EC010E9454088C0F9D1FDF91CF91D6
:1012D0000895CF93DF932091190230911A022817B5
:1012E000390721F1EC01892B19F081E00E9499095D
:1012F000D0931A02C09319028DEA90E00E94B906B9
:10130000CE010E942D0984E990E00E94B9068091E7
:10131000190290911A02892B31F08DE890E0DF914B
:10132000CF910C945C0880E990E0F9CFDF91CF91E8
:101330000895CF9390911802981721F1C82F811129
:1013400004C090E080E00E946909C093180281E81F
:1013500090E00E94B9068C2F90E00E945D09809178
:101360001802882349F061E088E00E944C0461E0A3
:1013700089E0CF910C944C0460E088E00E944C041A
:1013800060E0F6CFCF91089510922A0210922002C9
:101390000E94F1030E94070980E00E9499091092BF
:1013A0001A021092190289E090E090932C02809327
:1013B0002B020895CF93DF93682F70E090E080E0D8
:1013C0004AE00E940608EC010E9454088C0F9D1F01
:1013D000DF91CF910895CF92DF92FF920F931F93E9
:1013E000CF93DF93CDB7DEB7A0970FB6F894DEBFEB
:1013F0000FBECDBF181619060CF074C08AE293E038
:101400000E944907182FCE0101966C0100E0F09070
:10141000F5018091F601F816A9F0003249F08AE250
:1014200093E00E9449070F5FF60181936F01EFCFB0
:101430008091F601F81609F463C18AE293E00E94F4
:101440004907F6CF1733B9F50230D8F089819A8170
:101450009827892798273EEF300FDE011396E1E3A6
:10146000F2E020E0231720F44D9141932F5FFACF53
:1014700090935302809352023093510281E0809303
:10148000540289EC810F843008F449C010925E0147
:10149000109255021431A1F51092080281E090E0FB
:1014A00090932F0280932E0210922C0210922B0206
:1014B0001092FF0117C0183309F028C1033090F0D3
:1014C00029813A813227232732278B81813208F004
:1014D00080E230937902209378028093770281E052
:1014E00080937A02A0960FB6F894DEBF0FBECDBFF0
:1014F000DF91CF911F910F91FF90DF90CF900895D2
:10150000173169F41092000281E090E090932F026D
:1015100080932E0210922C0210922B02E3CF1338EC
:1015200089F41092030281E090E090932F0280935F
:101530002E0210922C0210922B0282E991E00E945E
:101540005C08D0CF183879F41092020281E090E064
:1015500090932F0280932E0210922C0210922B0255
:101560008FE791E0ECCF143879F410922D0281E0EE
:1015700090E090932F0280932E0210922C021092F2
:101580002B028DE691E0DBCF163879F41092010240
:1015900081E090E090932F0280932E0210922C0213
:1015A00010922B028DE591E0CACF153821F481E02D
:1015B0008093300297CF1932C1F580912E0290911D
:1015C0002F02029738F181E090E090932F028093F0
:1015D0002E021092830210920802109203021092BF
:1015E000020210922D021092000210922C02109210
:1015F0002B0280E491E0A0960FB6F894DEBF0FBEF8
:10160000CDBFDF91CF911F910F91FF90DF90CF90D1
:101610000C945C0810922F0210922E0210922C0251
:1016200010922B028BE291E0E6CF1B33D1F4002322
:1016300009F458CF19811093020182E091E00E94D1
:10164000B906812FA0960FB6F894DEBF0FBECDBFAE
:10165000DF91CF911F910F91FF90DF90CF900C946D
:10166000DA09173801F580912A02882309F43ACF64
:1016700010922A0210922002809113020E9499096E
:101680008EEE90E0B8CF80912A02882309F42ACF09
:1016900081E08093200226CF1A3309F0F2CE81E058
:1016A00080935E01EECE103871F3113809F01ACF35
:1016B00083E00E942304182F80935D0184E10E943F
:1016C000080584E10E94080590930A0280930902AC
:1016D00084ED90E00E94B906812F0E94DA0989EB1F
:1016E00090E00E94B9068091090290910A020E943E
:1016F0005D098DE090E090932C0280932B02F2CE56
:10170000173309F4A3CE183309F4DACE193321F6CE
:1017100010923102109253021092520281E0809393
:101720005102ADCE81E0809327028CBB82E795E029
:101730009093040180930301E9E6F0E080818C7FBF
:1017400082608083E89A60911B0270E086E00E94CC
:10175000AB0470E060E085E00C94AB04CF93DF93C2
:1017600085ED8093BC008091810190918201A091D0
:101770008301B09184010796A11DB11D23E0B695A8
:10178000A795979587952A95D1F72091BC0024FDC0
:1017900003C01092C90136C040918101509182016D
:1017A0006091830170918401452B462B472B69F38F
:1017B0000097A105B10541F025E12A95F1F7000058
:1017C0000197A109B109E1CF8091800191E0909347
:1017D0007F018823B9F0C091B800D091BA00809100
:1017E000BC008A7B8093BC0060E082E10E944C04D4
:1017F00060E083E10E944C040E941B07D093BA0072
:10180000C093B800DF91CF9108951F920F920FB649
:101810000F9211242F933F938F939F93AF93BF9376
:101820008091850290918602A0918702B0918802F2
:101830003091840226E0230F2D3758F50296A11D22
:10184000B11D209384028093850290938602A09319
:101850008702B09388028091890290918A02A091B8
:101860008B02B0918C020196A11DB11D809389025B
:1018700090938A02A0938B02B0938C02BF91AF9198
:101880009F918F913F912F910F900FBE0F901F90BE
:10189000189529E8230F0396A11DB11DD2CF1F92E1
:1018A0000F920FB60F9211242F933F934F935F9394
:1018B0006F937F938F939F93AF93BF93EF93FF9318
:1018C000E0910501F09106010995FF91EF91BF911B
:1018D000AF919F918F917F916F915F914F913F91C8
:1018E0002F910F900FBE0F901F9018951F920F927F
:1018F0000FB60F9211242F933F934F935F936F93E3
:101900007F938F939F93AF93BF93EF93FF93E09158
:101910000301F09104010995FF91EF91BF91AF91FF
:101920009F918F917F916F915F914F913F912F91F7
:101930000F900FBE0F901F9018951F920F920FB629
:101940000F9211242F933F934F935F936F937F9345
:101950008F939F93AF93BF93EF93FF938DE892E0A4
:101960000E944A06FF91EF91BF91AF919F918F9195
:101970007F916F915F914F913F912F910F900FBE8B
:101980000F901F9018951F920F920FB60F9211246F
:101990002F938F939F93EF93FF93E0919D02F0918C
:1019A0009E028081E091A302F091A40282FD1BC0FF
:1019B00090818091A6028F5F8F732091A70282177A
:1019C00041F0E091A602F0E0E357FD4F958F809340
:1019D000A602FF91EF919F918F912F910F900FBED3
:1019E0000F901F9018958081F4CF1F920F920FB621
:1019F0000F9211242F933F934F935F936F937F9395
:101A00008F939F93AF93BF93EF93FF938091B90010
:101A1000887F803609F44AC0F0F5883209F4A7C0FF
:101A200018F5803109F49BC0B8F4882309F4F9C093
:101A3000883009F494C0FF91EF91BF91AF919F91CD
:101A40008F917F916F915F914F913F912F910F9067
:101A50000FBE0F901F901895883109F488C080320E
:101A600051F78093C80114C0803409F49DC040F43C
:101A70008033B9F38833F9F68093C80185ECB0C0A0
:101A8000803509F485C0883509F496C0883499F604
:101A90000E94AE0BD0CF883909F48CC038F5883756
:101AA00029F050F4883611F0803729F683E08093CE
:101AB000C9011092C70157C0883809F47BC080392A
:101AC00019F0803809F0B7CF8091C701803208F053
:101AD00071C0E091C70181E08E0F8093C7018091B2
:101AE000BB00F0E0E955FE4F80833DC0803B39F0FC
:101AF000E0F4803A09F479C0883A09F09CCF84E098
:101B00008093C9011092A6011092A501E091F10104
:101B1000F091F20109958091A50181110FC081E03A
:101B20008093A5011092850109C0803C09F4A6CFDD
:101B3000883C09F4A3CF883B09F07DCFE091A60152
:101B400081E08E0F8093A601F0E0EB57FE4F80817D
:101B50008093BB009091A6018091A50129C080913E
:101B6000EE018093BB0085EC8093BC0064CF909124
:101B7000ED018091EC01981758F5E091ED0181E0BD
:101B80008E0F8093ED01F0E0E453FE4F8081E9CFAA
:101B9000E091ED0181E08E0F8093ED018091BB001B
:101BA000F0E0E453FE4F80839091ED018091EC01D1
:101BB0009817C8F285E8D8CFE091ED0181E08E0F4B
:101BC0008093ED018091BB00F0E0E453FE4F8083F1
:101BD0008091CB0181115CCF81E08093CA0184EABE
:101BE0008093BC001092C90126CF85EC8093BC0085
:101BF0001092C9018091C701803230F4E091C70191
:101C0000F0E0E955FE4F10826091C70170E0E0916D
:101C1000EF01F091F00187EA91E009951092C70178
:101C20000ACF1092C80134CFEDE8F2E0138212829D
:101C300088EE93E0A0E0B0E084839583A683B78329
:101C400028E331E03183208325EC30E03587248799
:101C500024EC30E03787268720EC30E0318B208B76
:101C600021EC30E0338B228B22EC30E0358B248B5F
:101C700026EC30E0378B268B118E128E138E148E4D
:101C8000EAE2F3E01382128284839583A683B7830A
:101C90008AE491E0918380830895CF93DF93CDB759
:101CA000DEB760970FB6F894DEBF0FBECDBF789455
:101CB00084B5826084BD84B5816084BD85B5826051
:101CC00085BD85B5816085BD80916E008160809302
:101CD0006E0010928100809181008260809381006B
:101CE000809181008160809381008091800081607B
:101CF000809380008091B10084608093B1008091D6
:101D0000B00081608093B00080917A0084608093FD
:101D10007A0080917A00826080937A0080917A00C4
:101D20008E7F80937A0080917A00806880937A0019
:101D30001092C100F4B614BE61E089E00E947A04FA
:101D400060E089E00E944C04E0919D02F0919E02C7
:101D500082E08083E0919902F0919A021082E091F2
:101D60009B02F0919C0288E080831092A502E09192
:101D7000A102F091A20286E08083E0919F02F0919F
:101D8000A002808180618083E0919F02F091A00297
:101D9000808188608083E0919F02F091A002808121
:101DA00080688083E0919F02F091A00280818F7D06
:101DB000808387EF91E00E94B9066F2D70E090E07C
:101DC00080E040E10E94060880EF91E00E94B906A1
:101DD0008F2D817090E00E942D0988EE91E00E9485
:101DE000B906F1FA882780F990E00E942D0981EE6A
:101DF00091E00E94B906F2FA882780F990E00E94EB
:101E00002D098AED91E00E94B906F3FA882780F93E
:101E100090E00E945D0960E08EE00E947A0460E03C
:101E20008FE00E947A0460E080E10E947A0460E022
:101E300081E10E947A0460E084E10E947A0461E01A
:101E400088E00E947A0461E086E00E947A0461E002
:101E500085E00E947A0460E082E00E947A0460E0FB
:101E600083E00E947A0460E085E10E947A0483E0C6
:101E70000E94230421E0892B09F420E02093110221
:101E8000209310020E94F307605E7C4F8F4F9F4F9C
:101E900060937F027093800280938102909382020C
:101EA00085B5887F816085BD61E086E00E944C0435
:101EB00061E085E00E944C0460E088E00E944C04F0
:101EC00060E089E00E944C041092F6011092F50146
:101ED0001092F4011092F3010E941B0786E995E02D
:101EE0009093F2018093F10182EA95E09093F001E2
:101EF0008093EF0184E58093BA008BEE99E0909394
:101F0000F8018093F70188E698E09093FA018093B6
:101F1000F90184E10E94080585E10E9408058C0111
:101F20007C016C0177E0A72EB12C85E10E940805A9
:101F300085E10E940805080F191F8C159D050CF4FA
:101F40006C01E816F9060CF47C0121E0A21AB10834
:101F500061F717FF02C0095F1F4F63E015950795F2
:101F60006A95E1F7EC18FD0839E7E316F104CCF1C6
:101F700088EC91E00E945C0844244A9433E0532E9C
:101F8000612C712C4AE0242E312CEE24E394F12CA8
:101F900080918302811153C00E94F30700917F0258
:101FA00010918002209181023091820260177107A6
:101FB0008207930708F043C00E94820790937E0235
:101FC00080937D0290937C0280937B0280E090E07E
:101FD000892BF1F20E9436068823D1F20E9400007C
:101FE000D7CF8FE0E7E0F1E0DE01119601900D928E
:101FF0008A95E1F7E8E1F1E090E080E07C012FEFE5
:10200000E21AF20A219131910217130714F07C01B0
:1020100004C0C7018E30910589F782EC91E00E94DF
:10202000B906E1E0F0E0EC0FFD1FEE0DFF1D608151
:102030008DE892E00E946C060E9454089DCF80912A
:102040007A02882301F110927A02009178021091AD
:102050007902A090770227E5C22E22E0D22EB12C81
:1020600002551240AB1451F0C8018C0D9D1D0E9409
:102070000418F60181936F01B394F4CFA092560235
:1020800081E08093550280915402882389F1109257
:102090005402C0905202D0905302F0915102F88B3A
:1020A00091E3A92E92E0B92E86010B5F1F4F912C70
:1020B0002889291581F0F50181905F01C8010E94EE
:1020C0000418881621F0682DC8010E940C189394FA
:1020D0000F5F1F4FEDCFF889F13051F4CD2841F457
:1020E00080913102811104C08CE197E00E945C086C
:1020F000809130028823C1F180912E0290912F02AD
:1021000010923002892B41F4F0922F02E0922E02BD
:102110008BEF96E00E945C0881E080932D0286E0C0
:1021200090E090932F0280932E0210922C02109236
:102130002B020E94820790937E0280937D029093EF
:102140007C0280937B028FEC96E00E94B90686E0C9
:1021500090E00E942D0981EC96E00E94B9068091E2
:102160002D0290E00E945D09C0902E02D0902F02B7
:10217000C114D10409F40BC40E9482078C0190930E
:102180007E0280937D0221E0C216D10409F074C161
:10219000C0907B02D0907C028C159D0509F416CF6F
:1021A00085ED94E00E94B906C6010E942D0980EDDC
:1021B00094E00E94B90680917D0290917E020E9477
:1021C0005D0980917D0290917E0290937C028093C4
:1021D0007B0284309105A1F180F4039709F0F6CEDB
:1021E00010922F0210922E0289E290E090932C021E
:1021F00080932B0286E894E039C18630910509F47A
:1022000037C0079709F0E2CE81E994E00E94B90651
:10221000809121020E94DA09E0912102EA3008F05F
:1022200028C1F0E0EA5EFE4E0C9491184B115B1150
:1022300071117D1189119511A111AD113912B611CC
:102240008091210290E00996B1010E947D18182F1B
:10225000809321028AE290E090932C0280932B02DB
:102260008BEB94E00E94B906812F0E94DA09AECE72
:102270008091210290E00196B1010E947D18182FF3
:10228000809321028BE290E090932C0280932B02AA
:1022900086EA94E0E7CF82E090E090932F0280936B
:1022A0002E0281E0809383028EE090E090932C02D6
:1022B00080932B028BCE83E090E090932F0280934B
:1022C0002E0281E0809308020E94F30760930402CB
:1022D00070930502809306029093070283E190E0D9
:1022E000E5CF84E090E090932F0280932E0281E06E
:1022F000809303028EE190E0D9CF85E090E0909347
:102300002F0280932E0281E08093020282E390E00C
:10231000CDCF86E090E090932F0280932E0281E053
:1023200080932D0283E290E0C1CF87E090E090930C
:102330002F0280932E0281E0809301028DE290E0D3
:10234000B5CF88E090E090932F0280932E0281E039
:102350008093000286E190E0A9CF89E090E090931D
:102360002F0280932E0288E190E0A0CF10922F02DE
:1023700010922E028DE390E090932C0280932B021A
:1023800081E892E00E945C086FEF70E086E00E94B6
:10239000AB0470E060E085E00E94AB040E94F307AC
:1023A0004B015C0182E00E942304182F0E94F30776
:1023B000681979098A099B09683B7B408105910569
:1023C00008F00AC682E00E942304113071F78111DF
:1023D000ECCF0FEF10E0D02EB80186E00E94AB04E6
:1023E00060E07BE480E090E00E943F050E94F307FC
:1023F0004B015C0182E00E942304C82E0E94F30777
:10240000681979098A099B09683E7340810591051D
:1024100008F0EAC582E00E94230421E0C212EDCF59
:102420008111EBCF025011090D311105A1F68EE19A
:10243000D82E0E9407090D2D10E0015F1F4F0F3F9E
:10244000110519F010F00FEF10E00093020181E286
:1024500092E00E94B906802F0E94DA098CE390E096
:1024600090932C0280932B0285E092E00E945C08FE
:10247000ADCD8CE290E01ACF80918302882309F4DD
:1024800057C080917B0290917C020817190709F4CC
:102490009DCD10937C0200937B0205301105C9F19C
:1024A00080F403301105E9F00430110509F08ECDF8
:1024B0008FE090E090932C0280932B0284E694E0CE
:1024C000D5CF06301105E1F00730110509F07ECDBA
:1024D00081E190E090932C0280932B0287E494E0BA
:1024E000C5CFF0922F02E0922E021092830282E179
:1024F00090E090932C0280932B0281E794E0B6CF7A
:1025000080E190E090932C0280932B0287E594E089
:10251000ADCF10922F0210922E021092830282E110
:1025200090E090932C0280932B0285E394E09ECF61
:1025300080910802882309F45BC08FE00E9408059F
:102540008FE00E9408058F3D93401CF40530110573
:10255000D1F48AE194E00E945C08F0922F02E092AC
:102560002E021092080281E08093FF010E94F3077F
:102570006093FB017093FC018093FD019093FE0139
:1025800085E190E093CE0330110579F4F0922F02AB
:10259000E0922E021092080285E190E090932C02C6
:1025A00080932B0284E094E061CF0E94F3070091B6
:1025B0000402109105022091060230910702601B6F
:1025C000710B820B930B613D7B4F8140910508F4A9
:1025D000FDCCF0922F02E0922E021092080285E1CB
:1025E00090E090932C0280932B0283EE93E03ECFF9
:1025F00080910302882309F445C080917B02909169
:102600007C020817190709F4E1CC10937C020093AF
:102610007B020530110539F150F40330110589F0C2
:102620008FE190E00430110509F440CECFCC0630A4
:102630001105B1F081E290E00730110509F436CEC2
:10264000C5CCF0922F02E0922E021092030282E299
:1026500090E090932C0280932B0281ED93E006CFC3
:1026600080E290E023CE10922F0210922E02109260
:10267000030282E290E090932C0280932B0282EC82
:1026800093E0F4CE80910202882309F445C0809142
:102690007B0290917C020817190709F497CC1093DC
:1026A0007C0200937B020530110539F150F40330B0
:1026B000110589F083E390E00430110509F4F6CDAB
:1026C00085CC06301105B1F085E390E007301105A7
:1026D00009F4ECCD7BCCF0922F02E0922E02109206
:1026E000020286E390E090932C0280932B028CEA06
:1026F00093E0BCCE84E390E0D9CD10922F021092EB
:102700002E021092020286E390E090932C028093B6
:102710002B0289E993E0AACE80912D02882309F447
:1027200057C080917B0290917C020817190709F429
:102730004DCC10937C0200937B0205301105C9F14A
:1027400080F403301105E9F00430110509F03ECCA6
:1027500084E290E090932C0280932B0287E793E031
:1027600085CE06301105E1F00730110509F02ECCB9
:1027700086E290E090932C0280932B028AE593E00E
:1027800075CEF0922F02E0922E0210922D0287E277
:1027900090E090932C0280932B0284E893E066CE25
:1027A00085E290E090932C0280932B028AE693E0DE
:1027B0005DCE10922F0210922E0210922D0287E20F
:1027C00090E090932C0280932B0288E493E04ECE0D
:1027D00080910102882309F457C080917B02909177
:1027E0007C020817190709F4F1CB10937C020093BF
:1027F0007B0205301105C9F180F403301105E9F0C1
:102800000430110509F0E2CB8EE290E090932C02A7
:1028100080932B028AE293E029CE06301105E1F085
:102820000730110509F0D2CB80E390E090932C02A1
:1028300080932B0281E193E019CEF0922F02E09277
:102840002E021092010281E390E090932C0280937B
:102850002B0285E393E00ACE8FE290E090932C0266
:1028600080932B028FE193E001CE10922F02109201
:102870002E021092010281E390E090932C0280934B
:102880002B0281E093E0F2CD80910002882339F1A0
:102890000E94820790937E0280937D0220917B02AA
:1028A00030917C028217930709F490CB90937C02BD
:1028B00080937B028330910519F0059709F086CB50
:1028C000F0922F02E0922E021092000287E190E037
:1028D00090932C0280932B028EEE92E0C7CDF9E00C
:1028E000CF16D10409F072CB80917B0290917C02CB
:1028F0000817190709F46ACB10937C0200937B0236
:1029000005301105B9F180F40330110531F10430BF
:10291000110509F05BCB89E190E090932C02809344
:102920002B0281EE92E0A2CD0630110569F007304E
:10293000110509F04BCB8BE190E090932C02809332
:102940002B0284EC92E092CD2AE130E030932C020D
:1029500020932B0284ED92E089CDF0922F02E09239
:102960002E02ECE1F0E0F0932C02E0932B028FEAD0
:1029700092E07CCD10922F0210922E022CE130E0DA
:1029800030932C0220932B028DE992E06FCD809141
:102990002A0281110BC08091280290912902892B73
:1029A00029F480912702882309F4BFC010922602DF
:1029B0000E94820790937E0280937D0280912A027A
:1029C0008823E1F1809120028823C1F180912B02BC
:1029D00090912C02099791F18091270281112EC0CC
:1029E0001092200283E00E942304892B09F011C178
:1029F00080911F02811112C080911E028F5F80930F
:102A00001E028330C8F089E180931F028DE296E0B8
:102A10000E945C0880911F02882371F0815080938E
:102A20001F02811109C08CEF95E00E945C080E9492
:102A3000C4098FE080931D020E94920B80911D02B9
:102A4000882361F090912702911108C081508093F2
:102A50001D02882309F4E0C00E94920B81E10E94CC
:102A6000080580900201912CB12CA12C81E10E94DB
:102A700008053FEF831A9108A108B108DC01A50100
:102A800094010E944418A30192010E941A18215037
:102A90003F4F4F4F5F4F20931C0280E10E9408057B
:102AA00080E10E940805DC01A50194010E94441800
:102AB000A30192010E941A1849015A018FEF880E52
:102AC000911CA11CB11C80921B02E0917D02F0912F
:102AD0007E0280912A0220917B0230917C02E217D3
:102AE000F30709F4BCC1F0937C02E0937B028823D6
:102AF00009F497C0359749F4909126029111A5C029
:102B0000882309F49FC00E94C409009128021091F3
:102B100029020130110509F071C260911C0270E0B8
:102B2000809112020E94AB0451CA8FE00E940805F6
:102B30008FE00E940805209126028F3D93400CF4FF
:102B400041C0211112C081E0809326020E94F30748
:102B500060932202709323028093240290932502B3
:102B60008CE996E00E945C0823CF0E94F307009155
:102B70002202109123022091240230912502601B31
:102B8000710B820B930B603D77408105910508F432
:102B90000FCFF0922F02E0922E021092210210929B
:102BA000260210927C0210927B0210927E021092FA
:102BB0007D0228E230E030932C0220932B028EE736
:102BC00096E054CC222309F4F3CE0E94F30700913F
:102BD00022021091230220912402309125024B0100
:102BE0005C01801A910AA20AB30A83E696E00E9469
:102BF000B9064AE0C501B4010E94060883E596E0E3
:102C00000E945C081092260210927C0210927B02B5
:102C1000CFCE10921E02FECE88EE95E00E945C0898
:102C20001DCF3197E830F10508F06FCFE65EF94E21
:102C30000C9491182A1643164E1689167C15B71651
:102C4000CE1618170E94070960CF85EC95E00E9408
:102C50005C085BCF8091190290911A028230910535
:102C600079F0992701960E94690980911902909143
:102C70001A029927029690932C0280932B0245CF3B
:102C800090E080E0F0CF9091180281E089270E94C7
:102C900099098091180290E00696EDCF8091280264
:102CA00090912902019711F40E942109EFEFFFEFA3
:102CB000F0932902E093280281EB95E00E94B90687
:102CC00080911C020E94DA090E94F10385E0809342
:102CD000120270E060E086E00E94AB04C0901C022B
:102CE0000091020110E0D12C0C151D056CF4B80107
:102CF00085E00E94AB0460E471E080E090E00E9417
:102D00003F050D5F1F4FF0CFB60185E00E94AB0479
:102D1000FCCE8091280290912902892B29F580917F
:102D20002702811121C085EA95E00E94B906882D0D
:102D30000E94DA0981E0809327028CBB22E735E00C
:102D40003093040120930301809169008C7F82609D
:102D500080936900E89A70E060E086E00E94AB042E
:102D600060911B0270E0D1CF82E995E070CF809135
:102D7000280290912902892B71F4809127028111F8
:102D80000AC086E895E00E94B906882D0E94DA09FB
:102D90000E94920BBACE83E795E059CF809128022A
:102DA00090912902019611F40E942109F0922902C2
:102DB000E092280283E00E942304019791F50E948B
:102DC000F307609314027093150280931602909398
:102DD00017028FE595E00E94B90680911C020E94BF
:102DE000DA090E94F10386E08093120270E060E04D
:102DF00085E00E94AB04C0901C020091020110E02B
:102E0000D12C0C151D058CF4B80186E00E94AB0492
:102E100060E471E080E090E00E943F050D5F1F4F8D
:102E2000F0CF60E070E0CB01CCCFB60186E06ECF92
:102E3000809118028093130281E080932A021092FD
:102E40001F0210921E0210921D0288E090E09093E3
:102E50002C0280932B0281E00E94990956CE8111A9
:102E600054CE84E10E94080584E10E94080584E1B3
:102E70000E9408058C018091000190910101801B46
:102E8000910B97FF03C09195819591090897ACF03C
:102E900010930A02009309021093010100930001AC
:102EA00080EF94E00E94B906C8010E945D09EAE043
:102EB000F0E0F0932C02E0932B02D0901102D0921C
:102EC000100283E00E94230421E0009709F420E02F
:102ED000209311020091280210912902892B09F0F8
:102EE00057C0DD2069F00E94F30760930B027093D6
:102EF0000C0280930D0290930E0281E080930F02EA
:102F000080910F02882309F400CE0E94F30780907D
:102F10000B0290900C02A0900D02B0900E02681966
:102F200079098A099B09643F71408105910508F47C
:102F3000ECCD83E395E00F3F1007E9F00130110578
:102F4000F1F48090140290901502A0901602B090B7
:102F5000170281149104A104B10489F00E94F307BF
:102F6000681979098A099B096033754781059105BC
:102F700030F087E095E00E945C080E9407098BE032
:102F800090E090932C0280932B0210920F02BDCD03
:102F900010920F020130110579F580911402909181
:102FA0001502A0911602B0911702892B8A2B8B2B48
:102FB00051F40E94F30760931402709315028093FA
:102FC000160290931702D110A8CDECE0F0E0F09338
:102FD0002C02E0932B0299CD84E592E00E945C08DC
:102FE0000E9407090C94E60F8CE392E00E94B90658
:102FF0008D2D0E94DA091DCADD2039F30F3F1F4FC6
:1030000011F00C94E60F89CDF999FECF92BD81BDE8
:10301000F89A992780B50895262FF999FECF1FBAFF
:1030200092BD81BD20BD0FB6F894FA9AF99A0FBEF1
:1030300001960895052E97FB1EF400940E94311806
:1030400057FD07D00E944C1807FC03D04EF40C9497
:10305000311850954095309521953F4F4F4F5F4F18
:10306000089590958095709561957F4F8F4F9F4FF4
:1030700008950E946E18A59F900DB49F900DA49F77
:10308000800D911D11240895B7FF0C9439180E94EA
:103090003918821B930B0895A1E21A2EAA1BBB1BA1
:1030A000FD010DC0AA1FBB1FEE1FFF1FA217B30714
:1030B000E407F50720F0A21BB30BE40BF50B661F2A
:1030C000771F881F991F1A9469F7609570958095EE
:1030D00090959B01AC01BD01CF010895A29FB00165
:1030E000B39FC001A39F700D811D1124911DB29F3C
:1030F000700D811D1124911D089597FB072E16F464
:10310000009407D077FD09D00E94971807FC05D0DE
:103110003EF4909581959F4F0895709561957F4FEE
:103120000895EE0FFF1F0590F491E02D0994AA1B5E
:10313000BB1B51E107C0AA1FBB1FA617B70710F0A2
:10314000A61BB70B881F991F5A95A9F780959095D4
:10315000BC01CD010895F894FFCF9CFF64F903F9F9
:103160000345464748494A4B4C4D4E4F50515253E8
:10317000CA03890348030703C60285024402030207
:10318000C20181014001FF00BE007D003C00000043
:1031900000006C06CC05F905D4062A0608061C06B4
:1031A000000000006E0763077F0739075C074907C7
:0631B0003A070D0A0000C1
:107800000C94343C0C94513C0C94513C0C94513CE1
:107810000C94513C0C94513C0C94513C0C94513CB4
:107820000C94513C0C94513C0C94513C0C94513CA4
:107830000C94513C0C94513C0C94513C0C94513C94
:107840000C94513C0C94513C0C94513C0C94513C84
:107850000C94513C0C94513C0C94513C0C94513C74
:107860000C94513C0C94513C11241FBECFEFD8E036
:10787000DEBFCDBF11E0A0E0B1E0EAE8FFE702C063
:1078800005900D92A230B107D9F712E0A2E0B1E065
:1078900001C01D92AD30B107E1F70E942D3D0C945F
:1078A000C33F0C94003C982F95959595959595958B
:1078B000905D8F708A307CF0282F295A8091C0000B
:1078C00085FFFCCF9093C6008091C00085FFFCCF60
:1078D0002093C6000895282F205DF0CF982F809127
:1078E000C00085FFFCCF9093C6000895EF92FF92F1
:1078F0000F931F93EE24FF2487018091C00087FD22
:1079000017C00894E11CF11C011D111D81E2E8164D
:1079100081EAF80687E0080780E0180770F3E09135
:107920000401F091050109958091C00087FFE9CF1E
:107930008091C6001F910F91FF90EF9008950E94D3
:10794000763C982F8091C00085FFFCCF9093C600B5
:1079500091362CF490330CF09053892F089597555D
:10796000892F08951F930E949F3C182F0E949F3CCF
:107970001295107F810F1F9108951F93182F882350
:1079800021F00E94763C1150E1F71F9108951F935A
:10799000182F0E94763C803249F0809103018F5F5E
:1079A000809303018530C1F01F9108958091C0003C
:1079B00085FFFCCF84E18093C6008091C00085FFE5
:1079C000FCCF1093C6008091C00085FFFCCF80E102
:1079D0008093C6001F910895E0910401F091050184
:1079E00009951F9108950E94763C803241F0809164
:1079F00003018F5F80930301853081F008958091AA
:107A0000C00085FFFCCF84E18093C6008091C00058
:107A100085FFFCCF80E18093C6000895E0910401CA
:107A2000F09105010995089548EC50E08823A1F0F4
:107A30002D9A28EE33E0FA013197F1F721503040CA
:107A4000D1F72D9828EE33E0FA013197F1F7215064
:107A50003040D1F7815061F708953F924F925F9285
:107A60006F927F928F929F92AF92BF92CF92DF924E
:107A7000EF92FF920F931F93CF93DF93000082E06A
:107A80008093C00080E18093C4001092C50088E11B
:107A90008093C10086E08093C2005098589A259A3E
:107AA00081E00E94143D24E1F22E9EE1E92E85E959
:107AB000D82E0FE0C02E10E1B12EAA24A394B1E479
:107AC0009B2EA6E58A2EF2E57F2EE0E26E2E79E46B
:107AD000572E63E5462E50E5352E0E94763C8033C6
:107AE000B1F18133B9F1803409F46FC0813409F404
:107AF00076C0823409F485C0853409F488C08035A5
:107B000031F1823521F1813511F1853509F485C0D6
:107B1000863509F48DC0843609F496C0843709F49B
:107B200003C1853709F472C1863709F466C08091B4
:107B300003018F5F80930301853079F6E0910401A2
:107B4000F091050109950E94763C803351F60E9420
:107B5000F33CC3CF0E94763C803249F78091C0004D
:107B600085FFFCCFF092C6008091C00085FFFCCF5E
:107B70009092C6008091C00085FFFCCF8092C60025
:107B80008091C00085FFFCCF7092C6008091C0003C
:107B900085FFFCCF6092C6008091C00085FFFCCFBE
:107BA0005092C6008091C00085FFFCCF4092C60075
:107BB0008091C00085FFFCCF3092C6008091C0004C
:107BC00085FFFCCFB092C60088CF0E94763C8638F5
:107BD00008F4BDCF0E94763C0E94F33C7ECF0E9409
:107BE000763C803809F49CC0813809F40BC1823896
:107BF00009F430C1883909F48FC080E00E94C73C85
:107C00006CCF84E10E94BD3C0E94F33C66CF85E0CE
:107C10000E94BD3C0E94F33C60CF0E94763C809362
:107C200006010E94763C809307010E94F33C55CFE9
:107C30000E94763C803309F411C183E00E94BD3C70
:107C400080E00E94C73C49CF0E94763C80930902A5
:107C50000E94763C8093080280910C028E7F809374
:107C60000C020E94763C853409F409C18091080217
:107C700090910902892B89F000E010E00E94763C87
:107C8000F801E85FFE4F80830F5F1F4F809108026D
:107C9000909109020817190788F30E94763C8032F8
:107CA00009F045CF80910C0280FFF5C0609106017C
:107CB00070910701660F771F7093070160930601AB
:107CC000A0910802B09109021097C9F0E8E0F1E034
:107CD0009B01AD014E0F5F1FF999FECF32BD21BD53
:107CE000819180BDFA9AF99A2F5F3F4FE417F5070B
:107CF00099F76A0F7B1F70930701609306018091CB
:107D0000C00085FFFCCFF092C6008091C00085FFC7
:107D1000FCCFB092C600E1CE83E00E94C73CDDCE2E
:107D200082E00E94C73CD9CE0E94763C8093090233
:107D30000E94763C80930802809106019091070191
:107D4000880F991F90930701809306010E94763C4B
:107D5000853409F49AC080910C028E7F80930C02C6
:107D60000E94763C803209F0B8CE8091C00085FF39
:107D7000FCCFF092C600A0910802B09109021097C2
:107D8000C1F180910C02082F0170182F1695117007
:107D9000E0910601F0910701AF014F5F5F4FBA011B
:107DA00020E030E00023B1F4112339F49491809164
:107DB000C00085FFFCCF9093C6002F5F3F4FCB01E3
:107DC0000196FA012A173B0780F4BC014F5F5F4F11
:107DD000002351F3F999FECFF2BDE1BDF89A90B5B9
:107DE0008091C00085FFFCCFE6CF709307016093C0
:107DF00006018091C00085FDE5CE8091C00085FF21
:107E0000F8CFE0CE81E00E94C73C67CE0E94763C6E
:107E1000803209F08CCE8091C00085FFFCCFF092BB
:107E2000C6008091C00085FFFCCFE092C600809123
:107E3000C00085FFFCCFD092C6008091C00085FFB6
:107E4000FCCFC092C6008091C00085FFFCCFB092ED
:107E5000C60043CE80E10E94C73C3FCE0E94763CE4
:107E60000E94763C182F0E94763C112309F483C0AF
:107E7000113009F484C08FE00E94C73C2ECE80915F
:107E80000C02816080930C02F1CE80910C02816023
:107E900080930C0265CF809107018823880F880B9F
:107EA0008A2180930B028091060190910701880F2F
:107EB000991F90930701809306018091080280FF2B
:107EC00009C08091080290910902019690930902DD
:107ED00080930802F894F999FECF1127E0910601EA
:107EE000F0910701C8E0D1E0809108029091090269
:107EF000103091F40091570001700130D9F303E084
:107F000000935700E8950091570001700130D9F3B4
:107F100001E100935700E8950990199000915700EE
:107F200001700130D9F301E000935700E8951395F3
:107F3000103498F011270091570001700130D9F3E7
:107F400005E000935700E89500915700017001305B
:107F5000D9F301E100935700E8953296029709F0B2
:107F6000C7CF103011F00296E5CF11248091C000E8
:107F700085FFC5CEC8CE8EE10E94C73CAECD85E957
:0C7F80000E94C73CAACDF894FFCF8000FF
:00000001FF
