:100000000C94C6030C94440C0C941D0C0C94EE033D
:100010000C94EE030C94EE030C94EE030C94EE039C
:100020000C94EE030C94EE030C94EE030C94EE038C
:100030000C94EE030C94EE030C94EE030C94EE037C
:100040000C94D30B0C94EE030C94910C0C946B0C4D
:100050000C94EE030C94EE030C94EE030C94EE035C
:100060000C94C30C0C94EE034D6F746F723A2053D2
:10007000746F70002842726965666C792E2E2E2985
:10008000004C616D70206D6F64653A2000696E00F0
:100090006F7574002E2054656C6C696E6720526118
:1000A00073706920746F207A6F6F6D20005A6F6FC4
:1000B0006D206D6F64653A200043757272656E74D1
:1000C000204578706F737572652053657474696E1E
:1000D000673A200043757272656E742046696C6DD4
:1000E000206C6F61642073746174653A20005363FF
:1000F000616E2072656A6563746564206279205060
:1001000069004D656E753A206578697420286672BD
:100110006F6D20506929004D656E753A20626163EC
:100120006B20746F206D61696E202866726F6D2080
:100130005069290057694669206D656E753A2065DA
:1001400078697400546172676574206D656E753AE4
:100150002065786974004C6174656E6379206D6503
:100160006E753A206578697400415742206D656E5E
:10017000753A206578697400454550524F4D2062AC
:1001800061636B75703A2077697065640053656EC2
:1001900064696E67206E6577204578706F7375723D
:1001A000652054696D652076616C75652E00526519
:1001B000762E20005265762E20442028666C6F61D2
:1001C00074696E67290020574452463D0020424F13
:1001D00052463D002045585452463D0020504F5253
:1001E000463D00424F4F54204D435553523D3078C9
:1001F00000454550524F4D3A206E6F2063616C6947
:100200006220646174612C207573696E6720646577
:100210006661756C74206D6F746F724D696E447594
:1002200074793D31303000454550524F4D206D6F4F
:10023000746F724D696E44757479203D200043617E
:100240006C69623A20736176656420746F2045455D
:1002500050524F4D0043616C69623A206E657720C1
:100260006D6F746F724D696E44757479203D200016
:1002700043616C69623A207374616C6C65642061DF
:10028000742064757479200043616C69623A206E51
:100290006F204559452070756C7365202D20616273
:1002A0006F72746564202866696C6D206C6F616480
:1002B00065643F290043616C69623A20737461721E
:1002C00074696E67206D6F746F72207377656570E7
:1002D00000556E706169723A2065786974206D65A9
:1002E0006E7500556E706169723A206261636B20B1
:1002F000746F206D656E7500556E706169723A207D
:10030000636F6E6669726D00556E706169723A2036
:100310006E65787400556E706169723A207072650E
:1003200076004C6F67733A206261636B20746F20B4
:100330006D656E7500576946693A20657869742065
:100340006D656E7500576946693A20636F6E666920
:10035000726D00576946693A206E65787400576976
:1003600046693A207072657600576946693A20629C
:1003700061636B20746F206D656E750054617267E8
:1003800065743A2065786974206D656E75005461F6
:10039000726765743A20636F6E6669726D005461AE
:1003A000726765743A206E6578740054617267658F
:1003B000743A2070726576005461726765743A20F1
:1003C0006261636B20746F206D656E75004C6174A3
:1003D000656E63793A2065786974206D656E750085
:1003E0004C6174656E63793A206261636B20746F4F
:1003F000206D656E75004157423A2065786974201A
:100400006D656E75004157423A206261636B2074DE
:100410006F206D656E750050616972696E673A2074
:100420006261636B20746F206D656E750050616949
:1004300072696E67206D6F64653A2073746F702007
:1004400070726573736564005570646174653A20F9
:1004500065786974206D656E7500557064617465AA
:100460003A20636F6E6669726D00557064617465E1
:100470003A206E657874005570646174653A207036
:10048000726576005570646174653A206261636BD1
:1004900020746F206D656E75004D656E753A206530
:1004A000786974004D656E753A20656E7465726981
:1004B0006E67206974656D20004D656E753A207316
:1004C000656C6563746564206974656D20004D65B5
:1004D0006E753A2073656C65637465642069746534
:1004E0006D200020746F20004D656E753A20627596
:1004F00074746F6E206368616E6765642066726FE6
:100500006D20004E6577204578706F737572652099
:1005100053657474696E673A200046696C6D206596
:100520006E64656420647572696E6720636F6E74B3
:10053000696E756F75732072756E202D2073746FE0
:100540007070696E670046696C6D20656E646564E5
:1005500020647572696E6720636F6E74696E756F63
:1005600075732072756E202D2073746F7070696EB4
:1005700067004D6F746F723A203E3E2061742053C5
:100580007065656420004D6F746F72206E6F74200B
:1005900073746F707065642E003E20617420537018
:1005A00065656420004D6F746F72206E6F742073E8
:1005B000746F707065642E003C2061742053706508
:1005C000656420004D6F746F723A203C3C2061746A
:1005D000205370656564200053544F503A2069677A
:1005E0006E6F72696E6720286C6F6E672D70726512
:1005F00073732074696D696E67290046696C6D209C
:10060000656A65637420636F6D706C657465004521
:1006100078747261206672616D657320646F6E65B7
:10062000202D2073746F7070696E67207363616E24
:100630002C20656A656374696E672066696C6D005D
:1006400046696C6D20656E646564202D207363615E
:100650006E6E696E6720323520657874726120662F
:1006600072616D657300206D732028746F6F207345
:10067000686F727429004D656E753A2053544F505F
:100680002072656C656173656420616674657220B3
:10069000004D656E753A20656E74657220286C6F2A
:1006A0006E672070726573732053544F5029004D4C
:1006B000656E753A2053544F5020627574746F6E96
:1006C00020707265737365642C2074696D696E6740
:1006D0002E2E2E002C207461726765744D6F646538
:1006E0003D00546172676574206D656E753A2072C5
:1006F000652D656E746572202866726F6D20506975
:10070000292C206D656E7553746174653D005461CC
:10071000726765743A20656E746572696E67206DE4
:10072000656E75206D6F6465206669727374000074
:10073000000000240027002A0000000000250028F7
:10074000002B000000000023002600290004040400
:10075000040404040402020202020203030303036A
:100760000301020408102040800102040810200147
:100770000204081020000000080002010000030429
:1007800007000000000000000000E20D11241FBE61
:10079000CFEFD8E0DEBFCDBF11E0A0E0B1E0EAECE2
:1007A000F0E302C005900D92AC35B107D9F723E014
:1007B000ACE5B1E001C01D92A131B207E1F713E051
:1007C000C6ECD3E004C02197FE010E944918C53C45
:1007D000D107C9F70E941B0E0C9463180C940000FB
:1007E000E89888EF93E090930401809303010895C3
:1007F0000895833081F028F4813099F08230A9F097
:1008000008958730A9F08830C9F08430B1F4809120
:1008100080008F7D03C0809180008F77809380005F
:10082000089584B58F7784BD089584B58F7DFBCFFF
:100830008091B0008F778093B00008958091B000D0
:100840008F7DF9CFCF93DF93282F30E0F901EB585C
:10085000F84F8491F901EF59F84FD491F901E35B16
:10086000F84FC491CC23A1F081110E94F903EC2F21
:10087000F0E0EE0FFF1FED5BF84FA591B491EC9106
:10088000ED2381E090E009F480E0DF91CF910895BD
:1008900080E090E0FACF1F93CF93DF93282F30E0D2
:1008A000F901EB58F84F8491F901EF59F84FD491C1
:1008B000F901E35BF84FC491CC23A9F0162F811105
:1008C0000E94F903EC2FF0E0EE0FFF1FE75CF84FFA
:1008D000A591B4918FB7F894EC91111108C0D095FF
:1008E000DE23DC938FBFDF91CF911F910895DE2B24
:1008F000F8CFCF93DF9390E0FC01EF59F84F2491AC
:10090000835B984FFC0184918823D1F090E0880F9D
:10091000991FFC01E15DF84FA591B491FC01E75CE2
:10092000F84FC591D49161110EC09FB7F8948C9186
:10093000E22FE0958E238C932881E223E8839FBFEA
:10094000DF91CF9108958FB7F894EC91E22BEC935F
:100950008FBFF6CF1F93CF93DF93182FEB0161E08A
:100960000E947904209739F460E0812FDF91CF91C4
:100970001F910C944B04CF3FD10511F461E0F5CFEA
:10098000E12FF0E0EB58F84FE491E33031F140F41F
:10099000E130B1F0E230E1F0C038D1057CF7E4CFCE
:1009A000E73029F1E83059F1E430B1F78091800067
:1009B000806280938000D0938B00C0938A0004C033
:1009C00084B5806884BDC7BDDF91CF911F91089524
:1009D00084B5806284BDC8BDF7CF809180008068F7
:1009E00080938000D0938900C0938800EDCF8091E0
:1009F000B00080688093B000C093B300E5CF8091D1
:100A0000B00080628093B000C093B400DDCF8E5000
:100A1000806480937C0080917A00806480937A0067
:100A200080917A0086FDFCCF8091780090917900CA
:100A300008953FB7F8948091640290916502A09167
:100A40006602B091670226B5A89B05C02F3F19F03A
:100A50000196A11DB11D3FBFBA2FA92F982F88273E
:100A6000BC01CD01620F711D811D911D43E0660F18
:100A7000771F881F991F4A95D1F708958F929F92EB
:100A8000AF92BF92CF92DF92EF92FF926B017C0107
:100A90000E9419054B015C01C114D104E104F10469
:100AA000B9F00E941905681979098A099B09683EFD
:100AB00073408105910580F321E0C21AD108E10855
:100AC000F10888EE880E83E0981EA11CB11CE4CFCB
:100AD000FF90EF90DF90CF90BF90AF909F908F905E
:100AE0000895E091F801F091F901309729F0109202
:100AF000F3011092F20109940895CF93DF93AC01B2
:100B0000E091F601F091F7013097F1F09091F50145
:100B10008091F4019817C0F090E0292F30E026175B
:100B2000370754F4D901A25ABE4F240F351FE901EB
:100B300028812C939F5FF1CF1092F5016093F4010F
:100B4000CB01DF91CF910994DF91CF910895AF92BE
:100B5000BF92CF92DF92EF92FF920F931F93CF93AA
:100B6000DF936C017B018B01040F151FEB015E010C
:100B7000AE18BF08C017D10759F06991D601ED91A1
:100B8000FC910190F081E02DC6010995892B79F740
:100B9000C501DF91CF911F910F91FF90EF90DF90F2
:100BA000CF90BF90AF900895FC01538D448D252FB9
:100BB00030E0842F90E0821B930B541710F0CF96F7
:100BC000089501970895FC01918D828D981761F029
:100BD000A28DAE0FBF2FB11D5D968C91928D9F5F40
:100BE0009F73928F90E008958FEF9FEF0895FC011F
:100BF000918D828D981731F0828DE80FF11D858DD2
:100C000090E008958FEF9FEF0895FC01918D228D64
:100C1000892F90E0805C9F4F821B91098F739927E9
:100C2000089588E692E00E94050621E0892B09F4E8
:100C300020E0822F089580E090E0892B29F00E9427
:100C4000110681110C9400000895FC01A48DA80FD9
:100C5000B92FB11DA35ABF4F2C91848D90E00196FE
:100C60008F739927848FA689B7892C93A089B1891E
:100C70008C91837080648C93938D848D981306C0BF
:100C80000288F389E02D80818F7D80830895EF9223
:100C9000FF920F931F93CF93DF93EC0181E0888F36
:100CA0009B8D8C8D98131AC0E889F989808185FF06
:100CB00015C09FB7F894EE89FF896083E889F989A8
:100CC00080818370806480839FBF81E090E0DF91AA
:100CD000CF911F910F91FF90EF900895F62E0B8DFD
:100CE00010E00F5F1F4F0F731127E02E8C8D8E11B8
:100CF0000CC00FB607FCFACFE889F989808185FF1F
:100D0000F5CFCE010E942506F1CFEB8DEC0FFD2F24
:100D1000F11DE35AFF4FF0829FB7F8940B8FEA89D9
:100D2000FB8980818062CFCF0F931F93CF93DF9396
:100D30008C01D0E0C0E0F801EC0FFD1F6491662348
:100D400041F088E692E00E944706892B11F0219637
:100D5000F2CFCE01DF91CF911F910F910895CF93E4
:100D6000DF93EC01888D8823B9F0AA89BB89E889D3
:100D7000F9898C9185FD03C0808186FD0DC00FB679
:100D800007FCF7CF8C9185FFF2CF808185FFEDCFF7
:100D9000CE010E942506E9CFDF91CF9108952091E1
:100DA000A401260F3327331F21323105ECF42091A3
:100DB000C801FC0190E080E0243069F082E00895F1
:100DC000A091A4012191AC014C575E4FA40FB52F07
:100DD000B11D2C930196861798F38091A401680F9A
:100DE0006093A40180E0089581E008951092C80105
:100DF00081E08093CA011092C90161E082E10E9402
:100E00004B0461E083E10E944B04E9EBF0E0808158
:100E10008E7F808380818D7F808380E28093B80085
:100E200085E48093BC0008950895E091F5018091D8
:100E3000F401E81730F4F0E0E25AFE4F808190E0D0
:100E400008958FEF9FEF08959091F5018091F4013F
:100E50002FEF3FEF981748F4E92FF0E0E25AFE4FEA
:100E6000208130E09F5F9093F501C9010895809142
:100E7000F4019091F501891B990B0895CF93DF93AD
:100E8000CB01EA01642F0E94CF06CE01DF91CF9102
:100E90000895CF93DF931F92CDB7DEB7698361E0EA
:100EA000CE0101960E94CF0681E090E00F90DF9185
:100EB000CF91089590E080E008950F931F93CF9312
:100EC000DF938EE00E9407058EE00E9407058C01EB
:100ED0008FE00E9407058FE00E940705EC0160E8A3
:100EE00072E080E090E00E943E0520915C012223A8
:100EF00069F1023011052CF490E080E0C230D10598
:100F000074F1C8014F978732910508F444C08A559F
:100F100091098732910550F18A5A9109879748F1D2
:100F20000F3D83E0180744F5CE014F9787329105B6
:100F300030F18A5591098732910520F18A5A910939
:100F4000879718F1CF3D83E0D80714F590E080E053
:100F5000023011051CF421E022970CF020E02093D0
:100F60005C01DF91CF911F910F91089583E090E094
:100F7000EFCF81E090E0ECCF82E090E0E9CF88E035
:100F800090E0E6CF87E090E0E3CF86E090E0E0CF2E
:100F900085E090E0DDCF84E090E0E0CF1092280281
:100FA000109227021092130210921402109215024E
:100FB000109216021092260261E086E00E944B0415
:100FC00061E085E00E944B040E94F00378948091D8
:100FD0002902882331F085E090E090932B028093E2
:100FE0002A0208952FB7F89460916002709161020F
:100FF00080916202909163022FBF26E096958795BB
:10100000779567952A95D1F708958F929F92AF9221
:10101000BF920F931F93CF93DF93CDB7DEB7A19706
:101020000FB6F894DEBF0FBECDBF19A2423008F450
:101030004AE08E010F5D1F4F842E912CB12CA12C04
:10104000A50194010E940418E62FB901CA01EA30F3
:1010500044F5E05DD801EE938D01232B242B252B45
:1010600079F790E080E0109769F0FD010190002091
:10107000E9F73197AF014A1B5B0BBD0188E692E0AF
:101080000E94A705A1960FB6F894DEBF0FBECDBF94
:10109000DF91CF911F910F91BF90AF909F908F9054
:1010A0000895E95CD7CF42E050E068E571E088E65A
:1010B00092E00C94A705CF93DF930E949406EC0175
:1010C0000E9453088C0F9D1FDF91CF9108950F93BD
:1010D0001F93CF93DF9380913002882381F040915A
:1010E000310250E062E372E085E093E00E943E0747
:1010F00010923002DF91CF911F910F910895C0910E
:101100002A02D0912B026C2F85E093E00E944907C0
:101110008091FE018823A9F00E94F2070091FA0154
:101120001091FB012091FC013091FD01601B710BBE
:10113000820B930B693873418105910510F0109271
:10114000FE01CA30D105C1F48DE891E00E945B0830
:1011500042E050E068E072E085E093E00E943E07E4
:101160008091FE018823D1F0C531D105B9F4D09327
:101170002B02C0932A02BECFCD30D10589F742E0C1
:1011800050E068E072E085E093E00E943E076091E5
:101190005D0185E093E00E944907E2CF629769F420
:1011A00080912D0290912E02892B39F489E290E0F2
:1011B00090932B0280932A029DCF10922B021092C3
:1011C0002A0298CF1092280210922702109213023E
:1011D000109214021092150210921602109226021A
:1011E00088E690E00E945B0861E086E00E944B0484
:1011F00061E085E00C944B040E94E20884E790E0F3
:101200000E945B0860E87EE380E090E00C943E057D
:10121000CF92DF92EF92FF92CF93DF936C01990F01
:10122000EE08FF08F7FE19C06DE288E692E00E9422
:101230004706EC0166277727CB016C197D098E09DB
:101240009F094AE00E9405088C0F9D1FDF91CF91F6
:10125000FF90EF90DF90CF9008954AE0C701B6016C
:10126000DF91CF91FF90EF90DF90CF900C94050825
:10127000CF93DF930E940809EC010E9453088C0F62
:101280009D1FDF91CF910895CF93DF932091180296
:10129000309119022817390721F1EC01892B19F037
:1012A00081E00E947409D0931902C09318028DEA5C
:1012B00090E00E949406CE010E94080984E990E023
:1012C0000E9494068091180290911902892B31F0A6
:1012D0008DE890E0DF91CF910C945B0880E990E07D
:1012E000F9CFDF91CF910895CF939091170298177E
:1012F00021F1C82F811104C090E080E00E944409D0
:10130000C093170281E890E00E9494068C2F90E031
:101310000E94380980911702882349F061E088E033
:101320000E944B0461E089E0CF910C944B0460E093
:1013300088E00E944B0460E0F6CFCF9108951092B0
:10134000290210921F020E94F0030E94E20880E02E
:101350000E947409109219021092180289E090E01C
:1013600090932B0280932A020895CF93DF93682FE6
:1013700070E090E080E04AE00E940508EC010E94E5
:1013800053088C0F9D1FDF91CF91089581E08093CA
:1013900026028CBB8EEC97E09093040180930301AE
:1013A000E9E6F0E080818C7F82608083E89A60913A
:1013B0001A0270E086E00E94AA0470E060E085E016
:1013C0000C94AA04CF93DF9385ED8093BC008091A9
:1013D000800190918101A0918201B09183010796D3
:1013E000A11DB11D23E0B695A795979587952A95E0
:1013F000D1F72091BC0024FD03C01092C80136C073
:10140000409180015091810160918201709183012E
:10141000452B462B472B69F30097A105B10541F0F9
:1014200025E12A95F1F700000197A109B109E1CF63
:1014300080917F0191E090937E018823B9F0C09163
:10144000B800D091BA008091BC008A7B8093BC0028
:1014500060E082E10E944B0460E083E10E944B0463
:101460000E94F606D093BA00C093B800DF91CF91E6
:101470000895FF920F931F93CF93DF93EC01F62E05
:1014800008811981C8010E94BC17F81621F06F2D40
:10149000C8010E94C417CE01DF91CF911F910F9117
:1014A000FF900895AF92BF92CF92DF92EF92FF929A
:1014B0000F931F93CF93DF93CDB7DEB7A2970FB6ED
:1014C000F894DEBF0FBECDBF181619060CF062C02F
:1014D00085E093E00E942407182FCE0101965C015D
:1014E0006C01F12C0091F4018091F5010817B1F025
:1014F00090E2F91649F085E093E00E942407F39406
:10150000F60181936F01EECF8091F501081709F480
:1015100033C185E093E00E942407F6CF173311F51D
:10152000F1E0FF15B8F509811A811027012710276E
:101530006E0183E0C80ED11C82E0E82E0A191B0957
:101540000E5F1F4FEF1431F1F60161916F01C80179
:101550008E0F9F1F9AA389A3CE0181960E94390AFC
:10156000E394F0CF183309F00DC1F2E0FF1590F4C9
:1015700029813A813227232732278B81813208F053
:1015800080E230935402209353028093520281E010
:1015900080935502A2960FB6F894DEBF0FBECDBF62
:1015A000DF91CF911F910F91FF90EF90DF90CF903F
:1015B000BF90AF9008951092070281E090E0909361
:1015C0002E0280932D0210922B0210922A0210926A
:1015D000FE01E0CF1092FF0181E090E090932E0297
:1015E00080932D0210922B0210922A02D3CF18382A
:1015F00079F41092010281E090E090932E028093A2
:101600002D0210922B0210922A0286E591E0C8C0AA
:10161000143879F410922C0281E090E090932E021D
:1016200080932D0210922B0210922A0284E491E002
:10163000B7C0163879F41092000281E090E09093E0
:101640002E0280932D0210922B0210922A0284E324
:1016500091E0A6C0153821F481E080932F029ACF43
:10166000193251F580912D0290912E020297C8F007
:1016700081E090E090932E0280932D0210925E0202
:1016800010920702109202021092010210922C0294
:101690001092FF0110922B0210922A0287E191E032
:1016A0007FC010922E0210922D0210922B021092E7
:1016B0002A0282E091E074C0173881F480912902F7
:1016C000882309F467CF1092290210921F0280919B
:1016D00012020E9474098EEE90E062C0103809F583
:1016E00080912902882309F455CF81E080931F025D
:1016F00051CF143109F45FCF173109F46BCF133890
:1017000009F075CF1092020281E090E090932E02D2
:1017100080932D0210922B0210922A0289E691E00A
:101720003FC0113809F036CF83E00E942204182F01
:1017300080935D0184E10E94070584E10E94070512
:10174000909309028093080284ED90E00E94940631
:10175000812F0E94B50989EB90E00E949406809148
:101760000802909109020E9438098DE090E0909360
:101770002B0280932A020ECF173309F4D4CE1833EC
:1017800009F4F6CE193309F0B4CF85E090E09AA3BE
:1017900089A360E0CE0181960E94390A88E791E032
:1017A0000E945B08F7CE1F920F920FB60F92112482
:1017B0002F933F938F939F93AF93BF93809160023A
:1017C00090916102A0916202B091630230915F0238
:1017D00026E0230F2D3758F50296A11DB11D209349
:1017E0005F028093600290936102A0936202B093C3
:1017F00063028091640290916502A0916602B091AB
:1018000067020196A11DB11D809364029093650249
:10181000A0936602B0936702BF91AF919F918F91A1
:101820003F912F910F900FBE0F901F90189529E8B0
:10183000230F0396A11DB11DD2CF1F920F920FB699
:101840000F9211242F933F934F935F936F937F9346
:101850008F939F93AF93BF93EF93FF93E091050115
:10186000F09106010995FF91EF91BF91AF919F9182
:101870008F917F916F915F914F913F912F910F9039
:101880000FBE0F901F9018951F920F920FB60F92D8
:1018900011242F933F934F935F936F937F938F9375
:1018A0009F93AF93BF93EF93FF93E0910301F09168
:1018B00004010995FF91EF91BF91AF919F918F9195
:1018C0007F916F915F914F913F912F910F900FBE3C
:1018D0000F901F9018951F920F920FB60F92112420
:1018E0002F933F934F935F936F937F938F939F9328
:1018F000AF93BF93EF93FF9388E692E00E94250693
:10190000FF91EF91BF91AF919F918F917F916F91D7
:101910005F914F913F912F910F900FBE0F901F90AD
:1019200018951F920F920FB60F9211242F938F9339
:101930009F93EF93FF93E0917802F0917902808179
:10194000E0917E02F0917F0282FD1BC09081809128
:1019500081028F5F8F7320918202821741F0E091A4
:101960008102F0E0E859FD4F958F80938102FF914D
:10197000EF919F918F912F910F900FBE0F901F901D
:1019800018958081F4CF1F920F920FB60F921124F9
:101990002F933F934F935F936F937F938F939F9377
:1019A000AF93BF93EF93FF938091B900887F803608
:1019B00009F44AC0F0F5883209F4A7C018F580315F
:1019C00009F49BC0B8F4882309F4F9C0883009F4FD
:1019D00094C0FF91EF91BF91AF919F918F917F91B3
:1019E0006F915F914F913F912F910F900FBE0F908C
:1019F0001F901895883109F488C0803251F7809380
:101A0000C70114C0803409F49DC040F48033B9F399
:101A10008833F9F68093C70185ECB0C0803509F4AE
:101A200085C0883509F496C0883499F60E94E20989
:101A3000D0CF883909F48CC038F5883729F050F4B4
:101A4000883611F0803729F683E08093C801109220
:101A5000C60157C0883809F47BC0803919F0803836
:101A600009F0B7CF8091C601803208F071C0E091D3
:101A7000C60181E08E0F8093C6018091BB00F0E02B
:101A8000EA55FE4F80833DC0803B39F0E0F4803A58
:101A900009F479C0883A09F09CCF84E08093C801AA
:101AA0001092A5011092A401E091F001F091F101D2
:101AB00009958091A40181110FC081E08093A40158
:101AC0001092840109C0803C09F4A6CF883C09F437
:101AD000A3CF883B09F07DCFE091A50181E08E0F77
:101AE0008093A501F0E0EC57FE4F80818093BB000E
:101AF0009091A5018091A40129C08091ED0180936E
:101B0000BB0085EC8093BC0064CF9091EC01809188
:101B1000EB01981758F5E091EC0181E08E0F80936E
:101B2000EC01F0E0E553FE4F8081E9CFE091EC015C
:101B300081E08E0F8093EC018091BB00F0E0E553D3
:101B4000FE4F80839091EC018091EB019817C8F2D1
:101B500085E8D8CFE091EC0181E08E0F8093EC0115
:101B60008091BB00F0E0E553FE4F80838091CA0175
:101B700081115CCF81E08093C90184EA8093BC002D
:101B80001092C80126CF85EC8093BC001092C8014A
:101B90008091C601803230F4E091C601F0E0EA5550
:101BA000FE4F10826091C60170E0E091EE01F0916D
:101BB000EF0186EA91E009951092C6010ACF1092D2
:101BC000C70134CFE8E6F2E01382128288EE93E098
:101BD000A0E0B0E084839583A683B78328E331E057
:101BE0003183208325EC30E03587248724EC30E0F6
:101BF0003787268720EC30E0318B208B21EC30E0DA
:101C0000338B228B22EC30E0358B248B26EC30E0BA
:101C1000378B268B118E128E138E148EE5E0F3E037
:101C20001382128284839583A683B7838AE491E02A
:101C3000918380830895CF93DF93CDB7DEB72F973D
:101C40000FB6F894DEBF0FBECDBF789484B5826026
:101C500084BD84B5816084BD85B5826085BD85B550
:101C6000816085BD80916E00816080936E001092CE
:101C70008100809181008260809381008091810049
:101C800081608093810080918000816080938000DA
:101C90008091B10084608093B1008091B000816038
:101CA0008093B00080917A00846080937A00809164
:101CB0007A00826080937A0080917A008E7F809390
:101CC0007A0080917A00806880937A001092C10037
:101CD000F4B614BE61E089E00E94790460E089E016
:101CE0000E944B04E0917802F091790282E08083B7
:101CF000E0917402F09175021082E0917602F09109
:101D0000770288E0808310928002E0917C02F0915B
:101D10007D0286E08083E0917A02F0917B028081EF
:101D200080618083E0917A02F0917B0280818860FB
:101D30008083E0917A02F0917B02808180688083C9
:101D4000E0917A02F0917B0280818F7D808381E037
:101D500090E00E94BC17853A09F027C190E080E02E
:101D60000E94BC17182F8093020187E292E00E9424
:101D70009406812F0E94B50983EE91E00E9494069B
:101D80006F2D70E090E080E040E10E9405088CED4E
:101D900091E00E9494068F2D817090E00E940809C6
:101DA00084ED91E00E949406F1FA882780F990E092
:101DB0000E9408098DEC91E00E949406F2FA8827AF
:101DC00080F990E00E94080986EC91E00E94940658
:101DD000F3FA882780F990E00E94380960E08EE0ED
:101DE0000E94790460E08FE00E94790460E080E165
:101DF0000E94790460E081E10E94790460E084E15E
:101E00000E94790461E088E00E94790461E086E044
:101E10000E94790461E085E00E94790460E082E03C
:101E20000E94790460E083E00E94790460E085E12B
:101E30000E94790483E00E94220421E0892B09F4A6
:101E400020E02093100220930F020E94F207605EB0
:101E50007C4F8F4F9F4F60935A0270935B02809329
:101E60005C0290935D0285B5887F816085BD61E0ED
:101E700086E00E944B0461E085E00E944B0460E034
:101E800088E00E944B0460E089E00E944B041092BD
:101E9000F5011092F4011092F3011092F2010E94E8
:101EA000F60681E795E09093F1018093F0018DE7CC
:101EB00095E09093EF018093EE0184E58093BA0062
:101EC00082E59AE09093F7018093F60187E698E027
:101ED0009093F9018093F80184E10E94070585E160
:101EE0000E9407058C017C016C0167E0A62EB12CD5
:101EF00085E10E94070585E10E940705080F191F6B
:101F00008C159D050CF46C01E816F9060CF47C01A7
:101F100021E0A21AB10861F717FF02C0095F1F4F45
:101F200053E0159507955A95E1F7EC18FD0839E748
:101F3000E316F1040CF43EC084EB91E00E945B08D0
:101F400088248A9433E0932EA12CB12C48E0242ECF
:101F5000312CEE24E394F12C80915E02811158C063
:101F60000E94F20700915A0210915B0220915C02DC
:101F700030915D02601771078207930708F048C02F
:101F80000E945D07909359028093580290935702E4
:101F90008093560280E090E0892BF1F20E941106B6
:101FA0008823B9F20E940000D4CF81EF91E00E9413
:101FB0005B08E2CE8FE0E7E0F1E0DE0111960190F0
:101FC0000D928A95E1F7E8E1F1E090E080E07C0194
:101FD0002FEFE21AF20A219131910217130714F040
:101FE0007C0104C0C7018E30910589F78EEA91E02B
:101FF0000E949406E1E0F0E0EC0FFD1FEE0DFF1DE6
:10200000608188E692E00E9447060E94530898CFBC
:1020100080915502882301F11092550200915302DC
:10202000109154026090520292E3C92E92E0D92E90
:10203000712C0D521240671451F0C8018C0D9D1D7A
:102040000E94BC17F60181936F017394F4CF6092E4
:10205000310281E08093300280912F028823C1F108
:1020600080912D0290912E0210922F02892B41F423
:10207000F0922E02E0922D028EE097E00E945B0823
:1020800081E080932C0286E090E090932E02809372
:102090002D0210922B0210922A020E945D0790934B
:1020A000590280935802909357028093560282EE11
:1020B00096E00E94940686E090E00E94080984ED74
:1020C00096E00E94940680912C0290E00E943809CC
:1020D000C0902D02D0902E02C114D10409F410C476
:1020E0000E945D078C019093590280935802F1E0A1
:1020F000CF16D10409F07DC1C0905602D09057028E
:102100008C159D0509F446CF88EE94E00E94940654
:10211000C6010E94080983EE94E00E949406809113
:102120005802909159020E9438098091580290916A
:102130005902909357028093560284309105A1F181
:1021400080F4039709F026CF10922E0210922D02F0
:1021500089E290E090932B0280932A0289E994E02F
:1021600042C18630910509F438C0079709F012CFB3
:1021700084EA94E00E949406809120020E94B509AE
:10218000E0912002EA3008F031C1F0E0E653FF4E62
:102190000C94491801111111271133113F114B11E2
:1021A00057116111F6116A118091200290E0099691
:1021B0006AE070E00E943518182F809320028AE2AE
:1021C00090E090932B0280932A028EEC94E00E9480
:1021D0009406812F0E94B509DDCE8091200290E007
:1021E00001966AE070E00E943518182F8093200253
:1021F0008BE290E090932B0280932A0289EB94E08B
:10220000E6CF82E090E090932E0280932D0281E051
:1022100080935E028EE090E090932B0280932A02DE
:10222000B9CE83E090E090932E0280932D0281E05E
:10223000809307020E94F2076093030270930402E6
:10224000809305029093060283E190E0E5CF84E05D
:1022500090E090932E0280932D0281E08093020201
:102260008EE190E0D9CF85E090E090932E028093AC
:102270002D0281E08093010282E390E0CDCF86E0E1
:1022800090E090932E0280932D0281E080932C02A7
:1022900083E290E0C1CF87E090E090932E0280939C
:1022A0002D0281E0809300028DE290E0B5CF309264
:1022B0002E0220922D0281E08093FF0186E190E0C2
:1022C000ABCF89E090E090932E0280932D0288E1BD
:1022D00090E0A2CF10922E0210922D0289E290E09F
:1022E00090932B0280932A0285EB92E00E945B0878
:1022F0006FEF70E086E00E94AA0470E060E085E085
:102300000E94AA040E94F2072B013C0182E00E9475
:102310002204182F0E94F20764197509860997098B
:10232000683B7B408105910508F00FC682E00E9462
:102330002204113071F78111ECCF0FEF10E0D02E95
:10234000B80186E00E94AA0460E07BE480E090E0AF
:102350000E943E050E94F2072B013C0182E00E9490
:102360002204C82E0E94F20764197509860997098C
:10237000683E73408105910508F0EEC582E00E9439
:10238000220491E0C912EDCF8111EBCF0250110967
:102390000D311105A1F68EE1D82E0E94E2080D2D17
:1023A00010E0015F1F4F0F3F110519F010F00FEF04
:1023B00010E00093020185E592E00E949406802FD0
:1023C0000E94B509609102011A821982CE0101961C
:1023D0000E94390AFA82E98265EACE0101960E94DA
:1023E000390A8EE392E00E945B08D4CD8CE290E043
:1023F00013CF80915E02882309F457C08091560262
:10240000909157020817190709F4C4CD1093570289
:102410000093560205301105C9F180F4033011050F
:10242000E9F00430110509F0B5CD8FE090E090930C
:102430002B0280932A0287E794E0D5CF063011055E
:10244000E1F00730110509F0A5CD81E190E090930E
:102450002B0280932A028AE594E0C5CFF0922E02E7
:10246000E0922D0210925E0282E190E090932B02A6
:1024700080932A0284E894E0B6CF80E190E09093C4
:102480002B0280932A028AE694E0ADCF10922E02AE
:1024900010922D0210925E0282E190E090932B0246
:1024A00080932A0288E494E09ECF809107028823DB
:1024B00009F457C08FE00E9407058FE00E940705CE
:1024C0008F3D93401CF405301105D1F48DE294E06A
:1024D0000E945B08F0922E02E0922D0210920702F9
:1024E00081E08093FE010E94F2076093FA017093ED
:1024F000FB018093FC019093FD0185E190E08CCE7F
:102500000330110579F4F0922E02E0922D02109220
:10251000070285E190E090932B0280932A0287E1E5
:1025200094E061CF0E94F20700910302109104022F
:102530002091050230910602601B710B820B930BF8
:10254000613D7B4F8140910508F424CDF0922E022D
:10255000E0922D021092070210922B0210922A0292
:1025600019CD80910202882309F445C0809156025A
:10257000909157020817190709F40CCD10935702D0
:10258000009356020530110539F150F4033011055E
:1025900089F08FE190E00430110509F43DCEFACCCA
:1025A00006301105B1F081E290E00730110509F421
:1025B00033CEF0CCF0922E02E0922D021092020265
:1025C00082E290E090932B0280932A0285E094E0CF
:1025D0000ACF80E290E020CE10922E0210922D02BF
:1025E0001092020282E290E090932B0280932A02E2
:1025F00086EF93E0F8CE80910102882309F445C06C
:1026000080915602909157020817190709F4C2CC1D
:1026100010935702009356020530110539F150F41A
:102620000330110589F083E390E00430110509F4CB
:10263000F3CDB0CC06301105B1F085E390E0073062
:10264000110509F4E9CDA6CCF0922E02E0922D02FC
:102650001092010286E390E090932B0280932A026D
:1026600080EE93E0C0CE84E390E0D6CD10922E02AF
:1026700010922D021092010286E390E090932B02BB
:1026800080932A028DEC93E0AECE80912C028823B9
:1026900009F457C080915602909157020817190704
:1026A00009F478CC109357020093560205301105B7
:1026B000C9F180F403301105E9F00430110509F087
:1026C00069CC84E290E090932B0280932A028BEAFB
:1026D00093E089CE06301105E1F00730110509F0CD
:1026E00059CC86E290E090932B0280932A028EE8E8
:1026F00093E079CEF0922E02E0922D0210922C02FD
:1027000087E290E090932B0280932A0288EB93E07B
:102710006ACE85E290E090932B0280932A028EE9A4
:1027200093E061CE10922E0210922D0210922C0294
:1027300087E290E090932B0280932A028CE793E04B
:1027400052CE80910002882309F457C0809156022E
:10275000909157020817190709F41CCC10935702DF
:102760000093560205301105C9F180F403301105BC
:10277000E9F00430110509F00DCC8EE290E0909361
:102780002B0280932A028EE593E02DCE06301105B0
:10279000E1F00730110509F0FDCB80E390E0909364
:1027A0002B0280932A0285E493E01DCEF0922E0244
:1027B000E0922D021092000281E390E090932B02B0
:1027C00080932A0289E693E00ECE8FE290E0909308
:1027D0002B0280932A0283E593E005CE10922E020D
:1027E00010922D021092000281E390E090932B0250
:1027F00080932A0285E393E0F6CD8091FF01882340
:1028000039F10E945D0790935902809358022091FC
:102810005602309157028217930709F4BBCB90936D
:102820005702809356028330910519F0059709F0FD
:10283000B1CBF0922E02E0922D021092FF0187E1BF
:1028400090E090932B0280932A0282E293E0CBCD1A
:1028500029E0C216D10409F09DCB809156029091D7
:1028600057020817190709F495CB109357020093E4
:10287000560205301105B9F180F40330110531F12C
:102880000430110509F086CB89E190E090932B028A
:1028900080932A0285E193E0A6CD0630110569F008
:1028A0000730110509F076CB8BE190E090932B0275
:1028B00080932A0288EF92E096CD8AE190E090938F
:1028C0002B0280932A0288E093E08DCDF0922E02B5
:1028D000E0922D02ECE1F0E0F0932B02E0932A026B
:1028E00083EE92E080CD10922E0210922D022CE108
:1028F00030E030932B0220932A0281ED92E073CDD9
:102900008091290281110BC08091270290912802A9
:10291000892B29F480912602882309F4BFC01092E4
:1029200025020E945D07909359028093580280917E
:1029300029028823E1F180911F028823C1F180914F
:102940002A0290912B02099791F180912602811120
:102950002EC010921F0283E00E942204892B09F0EE
:1029600011C180911E02811112C080911D028F5FE2
:1029700080931D028330C8F089E180931E0280E4B9
:1029800096E00E945B0880911E02882371F08150BE
:1029900080931E02811109C08FE096E00E945B08BF
:1029A0000E949F098FE080931C020E94C6098091BB
:1029B0001C02882361F090912602911108C0815079
:1029C00080931C02882309F4E0C00E94C60981E1BB
:1029D0000E94070540900201512C712C612C81E16D
:1029E0000E9407053FEF431A510861087108DC0196
:1029F000A30192010E94FC17A50194010E94D21725
:102A000021503F4F4F4F5F4F20931B0280E10E94A8
:102A1000070580E10E940705DC01A30192010E94E5
:102A2000FC17A50194010E94D21729013A018FEFEA
:102A3000480E511C611C711C40921A02E091580210
:102A4000F09159028091290220915602309157024B
:102A5000E217F30709F4B9C1F0935702E093560265
:102A6000882309F497C0359749F490912502911174
:102A7000A5C0882309F49FC00E949F0900912702E6
:102A8000109128020130110509F070C260911B02FB
:102A900070E0809111020E94AA047CCA8FE00E941B
:102AA00007058FE00E940705209125028F3D934086
:102AB0000CF441C0211112C081E0809325020E94D4
:102AC000F207609321027093220280932302909375
:102AD00024028FEA96E00E945B0823CF0E94F2074F
:102AE00000912102109122022091230230912402B0
:102AF000601B710B820B930B683B7B40810591053A
:102B000008F40FCFF0922E02E0922D0210922002D4
:102B100010922502109257021092560210925902FA
:102B20001092580228E230E030932B0220932A02C0
:102B300081E996E058CC222309F4F3CE0E94F207F3
:102B4000009121021091220220912302309124024F
:102B50002B013C01401A510A620A730A86E796E08B
:102B60000E9494064AE0C301B2010E94050886E66D
:102B700096E00E945B081092250210925702109274
:102B80005602CFCE10921D02FECE8BEF95E00E9432
:102B90005B081DCF3197E830F10508F06FCFED529B
:102BA000FA4E0C944918E315FC1507164216351514
:102BB00070168716D1160E94E20860CF88ED95E066
:102BC0000E945B085BCF80911802909119028230BD
:102BD000910579F0992701960E9444098091180285
:102BE000909119029927029690932B0280932A02C2
:102BF00045CF90E080E0F0CF9091170281E08927E7
:102C00000E9474098091170290E00696EDCF8091A2
:102C1000270290912802019711F40E94FC08EFEF1F
:102C2000FFEFF0932802E093270284EC95E00E94E6
:102C3000940680911B020E94B5090E94F00385E072
:102C40008093110270E060E086E00E94AA04C090C8
:102C50001B020091020110E0D12C0C151D056CF433
:102C6000B80185E00E94AA0460E471E080E090E091
:102C70000E943E050D5F1F4FF0CFB60185E00E9418
:102C8000AA04FCCE8091270290912802892B29F575
:102C900080912602811121C088EB95E00E94940664
:102CA000842D0E94B50981E0809326028CBB2EEC16
:102CB00037E03093040120930301809169008C7FF9
:102CC000826080936900E89A70E060E086E00E948C
:102CD000AA0460911A0270E0D1CF85EA95E070CF26
:102CE0008091270290912802892B71F4809126020D
:102CF00081110AC089E995E00E949406842D0E9402
:102D0000B5090E94C609BACE86E895E059CF8091F0
:102D1000270290912802019611F40E94FC08F0927B
:102D20002802E092270283E00E942204019791F595
:102D30000E94F207609313027093140280931502AD
:102D40009093160282E795E00E94940680911B0200
:102D50000E94B5090E94F00386E08093110270E0A2
:102D600060E085E00E94AA04C0901B02009102016D
:102D700010E0D12C0C151D058CF4B80186E00E94E2
:102D8000AA0460E471E080E090E00E943E050D5FDF
:102D90001F4FF0CF60E070E0CB01CCCFB60186E0F2
:102DA0006ECF809117028093120281E080932902F6
:102DB00010921E0210921D0210921C0230922B02E1
:102DC00020922A020E94740959CE811157CE84E1C3
:102DD0000E94070584E10E94070584E10E9407051F
:102DE0002091000130910101281B390B37FF03C0EE
:102DF00031952195310928303105C4F090930902AD
:102E000080930802909301018093000183E095E094
:102E10000E94940680910802909109020E9438094C
:102E20008AE090E090932B0280932A02D0901002C7
:102E3000D0920F0283E00E94220421E0009709F45F
:102E400020E0209310020091270210912802892B84
:102E500009F057C0DD2069F00E94F20760930A0272
:102E600070930B0280930C0290930D0281E080938B
:102E70000E0280910E02882309F400CE0E94F20710
:102E800040900A0250900B0260900C0270900D026C
:102E90006419750986099709643F71408105910598
:102EA00008F4ECCD86E495E00F3F1007E9F001301F
:102EB0001105F1F440901302509014026090150235
:102EC00070901602411451046104710489F00E944B
:102ED000F2076419750986099709603375478105FA
:102EE000910530F08AE195E00E945B080E94E208BB
:102EF0008BE090E090932B0280932A0210920E02B6
:102F0000BDCD10920E020130110571F580911302B2
:102F100090911402A0911502B0911602892B8A2B70
:102F20008B2B51F40E94F2076093130270931402EA
:102F30008093150290931602D110A8CDECE0F0E03A
:102F4000F0932B02E0932A0299CD88E892E00E9448
:102F50005B080E94E2081EC880E792E00E94940687
:102F60008D2D0E94B50919CADD2041F30F3F1F4F77
:102F700011F00C94CA0F8ACDF999FECF92BD81BD94
:102F8000F89A992780B50895262FF999FECF1FBA90
:102F900092BD81BD20BD0FB6F894FA9AF99A0FBE82
:102FA00001960895052E97FB1EF400940E94E917E0
:102FB00057FD07D00E94041807FC03D04EF40C9470
:102FC000E91750954095309521953F4F4F4F5F4FF2
:102FD000089590958095709561957F4F8F4F9F4F85
:102FE00008950E942618A59F900DB49F900DA49F50
:102FF000800D911D11240895B7FF0C94F1170E94C4
:10300000F117821B930B0895A1E21A2EAA1BBB1B7A
:10301000FD010DC0AA1FBB1FEE1FFF1FA217B307A4
:10302000E407F50720F0A21BB30BE40BF50B661FBA
:10303000771F881F991F1A9469F76095709580957E
:1030400090959B01AC01BD01CF010895A29FB001F5
:10305000B39FC001A39F700D811D1124911DB29FCC
:10306000700D811D1124911D089597FB072E16F4F4
:10307000009407D077FD09D00E944F1807FC05D0B7
:103080003EF4909581959F4F0895709561957F4F7F
:103090000895EE0FFF1F0590F491E02D0994AA1BEF
:1030A000BB1B51E107C0AA1FBB1FA617B70710F033
:1030B000A61BB70B881F991F5A95A9F78095909565
:0A30C000BC01CD010895F894FFCF84
:1030CA009CFF64F803F80345464748494A4B4C4D70
:1030DA004E4F50515253CA03890348030703C6028D
:1030EA00850244020302C20181014001FF00BE00C1
:1030FA007D003C00000000004706A705D405AF0686
:10310A000506E305F7050000000049073E075A07D0
:0C311A0014073707240715070D0A0000F2
:00000001FF
