:020000040000FA
:100000000C94C6030C94A70C0C94800C0C94EE0377
:100010000C94EE030C94EE030C94EE030C94EE039C
:100020000C94EE030C94EE030C94EE030C94EE038C
:100030000C94EE030C94EE030C94EE030C94EE037C
:100040000C94360C0C94EE030C94F40C0C94CE0C23
:100050000C94EE030C94EE030C94EE030C94EE035C
:100060000C94260D0C94EE034D6F746F723A20536E
:10007000746F70002842726965666C792E2E2E2985
:10008000004C616D70206D6F64653A2000696E00F0
:100090006F7574002E2054656C6C696E6720526118
:1000A00073706920746F207A6F6F6D20005A6F6FC4
:1000B0006D206D6F64653A200043757272656E74D1
:1000C000204578706F737572652053657474696E1E
:1000D000673A200043757272656E742046696C6DD4
:1000E000206C6F61642073746174653A20005363FF
:1000F000616E2072656A6563746564206279205060
:1001000069004D656E753A206578697420286672BD
:100110006F6D20506929004D656E753A20626163EC
:100120006B20746F206D61696E202866726F6D2080
:100130005069290057694669206D656E753A2065DA
:1001400078697400546172676574206D656E753AE4
:100150002065786974004C6174656E6379206D6503
:100160006E753A206578697400415742206D656E5E
:10017000753A206578697400454550524F4D2062AC
:1001800061636B75703A2077697065640053656EC2
:1001900064696E67206E6577204578706F7375723D
:1001A000652054696D652076616C75652E00526519
:1001B000762E20005265762E20442028666C6F61D2
:1001C00074696E67290020574452463D0020424F13
:1001D00052463D002045585452463D0020504F5253
:1001E000463D00424F4F54204D435553523D3078C9
:1001F00000454550524F4D3A206E6F2063616C6947
:100200006220646174612C207573696E6720646577
:100210006661756C74206D6F746F724D696E447594
:1002200074793D31303000454550524F4D206D6F4F
:10023000746F724D696E44757479203D200043617E
:100240006C69623A20736176656420746F2045455D
:1002500050524F4D0043616C69623A206E657720C1
:100260006D6F746F724D696E44757479203D200016
:1002700043616C69623A207374616C6C65642061DF
:10028000742064757479200043616C69623A206E51
:100290006F204559452070756C7365202D20616273
:1002A0006F72746564202866696C6D206C6F616480
:1002B00065643F290043616C69623A20737461721E
:1002C00074696E67206D6F746F72207377656570E7
:1002D00000556E706169723A2065786974206D65A9
:1002E0006E7500556E706169723A206261636B20B1
:1002F000746F206D656E7500556E706169723A207D
:10030000636F6E6669726D00556E706169723A2036
:100310006E65787400556E706169723A207072650E
:1003200076004C6F67733A206261636B20746F20B4
:100330006D656E7500576946693A20657869742065
:100340006D656E7500576946693A20636F6E666920
:10035000726D00576946693A206E65787400576976
:1003600046693A207072657600576946693A20629C
:1003700061636B20746F206D656E750054617267E8
:1003800065743A2065786974206D656E75005461F6
:10039000726765743A20636F6E6669726D005461AE
:1003A000726765743A206E6578740054617267658F
:1003B000743A2070726576005461726765743A20F1
:1003C0006261636B20746F206D656E75004C6174A3
:1003D000656E63793A2065786974206D656E750085
:1003E0004C6174656E63793A206261636B20746F4F
:1003F000206D656E75004157423A2065786974201A
:100400006D656E75004157423A206261636B2074DE
:100410006F206D656E750050616972696E673A2074
:100420006261636B20746F206D656E750050616949
:1004300072696E67206D6F64653A2073746F702007
:1004400070726573736564005570646174653A20F9
:1004500065786974206D656E7500557064617465AA
:100460003A20636F6E6669726D00557064617465E1
:100470003A206E657874005570646174653A207036
:10048000726576005570646174653A206261636BD1
:1004900020746F206D656E75004D656E753A206530
:1004A000786974004D656E753A20656E7465726981
:1004B0006E67206974656D20004D656E753A207316
:1004C000656C6563746564206974656D20004D65B5
:1004D0006E753A2073656C65637465642069746534
:1004E0006D200020746F20004D656E753A20627596
:1004F00074746F6E206368616E6765642066726FE6
:100500006D20004E6577204578706F737572652099
:1005100053657474696E673A200046696C6D206596
:100520006E64656420647572696E6720636F6E74B3
:10053000696E756F75732072756E202D2073746FE0
:100540007070696E670046696C6D20656E646564E5
:1005500020647572696E6720636F6E74696E756F63
:1005600075732072756E202D2073746F7070696EB4
:1005700067004D6F746F723A203E3E2061742053C5
:100580007065656420004D6F746F72206E6F74200B
:1005900073746F707065642E003E20617420537018
:1005A00065656420004D6F746F72206E6F742073E8
:1005B000746F707065642E003C2061742053706508
:1005C000656420004D6F746F723A203C3C2061746A
:1005D000205370656564200053544F503A2069677A
:1005E0006E6F72696E6720286C6F6E672D70726512
:1005F00073732074696D696E67290046696C6D209C
:10060000656A65637420636F6D706C657465004521
:1006100078747261206672616D657320646F6E65B7
:10062000202D2073746F7070696E67207363616E24
:100630002C20656A656374696E672066696C6D005D
:1006400046696C6D20656E646564202D207363615E
:100650006E6E696E6720323520657874726120662F
:1006600072616D657300206D732028746F6F207345
:10067000686F727429004D656E753A2053544F505F
:100680002072656C656173656420616674657220B3
:10069000004D656E753A20656E74657220286C6F2A
:1006A0006E672070726573732053544F5029004D4C
:1006B000656E753A2053544F5020627574746F6E96
:1006C00020707265737365642C2074696D696E6740
:1006D0002E2E2E002C207461726765744D6F646538
:1006E0003D00546172676574206D656E753A2072C5
:1006F000652D656E746572202866726F6D20506975
:10070000292C206D656E7553746174653D005461CC
:10071000726765743A20656E746572696E67206DE4
:10072000656E75206D6F6465206669727374000074
:10073000000000240027002A0000000000250028F7
:10074000002B000000000023002600290004040400
:10075000040404040402020202020203030303036A
:100760000301020408102040800102040810200147
:100770000204081020000000080002010000030429
:1007800007000000000000000000450E11241FBEFD
:10079000CFEFD8E0DEBFCDBF11E0A0E0B1E0E8E7E9
:1007A000F2E302C005900D92AC35B107D9F723E012
:1007B000ACE5B1E001C01D92A331B207E1F713E04F
:1007C000C6ECD3E004C02197FE010E942019C53C6D
:1007D000D107C9F70E947E0E0C943A190C940000C0
:1007E000E89888EF93E090930401809303010895C3
:1007F0000895833081F028F4813099F08230A9F097
:1008000008958730A9F08830C9F08430B1F4809120
:1008100080008F7D03C0809180008F77809380005F
:10082000089584B58F7784BD089584B58F7DFBCFFF
:100830008091B0008F778093B00008958091B000D0
:100840008F7DF9CFCF93DF93282F30E0F901EB585C
:10085000F84F8491F901EF59F84FD491F901E35B16
:10086000F84FC491CC23A1F081110E94F903EC2F21
:10087000F0E0EE0FFF1FED5BF84FA591B491EC9106
:10088000ED2381E090E009F480E0DF91CF910895BD
:1008900080E090E0FACF1F93CF93DF93282F30E0D2
:1008A000F901EB58F84F8491F901EF59F84FD491C1
:1008B000F901E35BF84FC491CC23A9F0162F811105
:1008C0000E94F903EC2FF0E0EE0FFF1FE75CF84FFA
:1008D000A591B4918FB7F894EC91111108C0D095FF
:1008E000DE23DC938FBFDF91CF911F910895DE2B24
:1008F000F8CFCF93DF9390E0FC01EF59F84F2491AC
:10090000835B984FFC0184918823D1F090E0880F9D
:10091000991FFC01E15DF84FA591B491FC01E75CE2
:10092000F84FC591D49161110EC09FB7F8948C9186
:10093000E22FE0958E238C932881E223E8839FBFEA
:10094000DF91CF9108958FB7F894EC91E22BEC935F
:100950008FBFF6CF1F93CF93DF93182FEB0161E08A
:100960000E947904209739F460E0812FDF91CF91C4
:100970001F910C944B04CF3FD10511F461E0F5CFEA
:10098000E12FF0E0EB58F84FE491E33031F140F41F
:10099000E130B1F0E230E1F0C038D1057CF7E4CFCE
:1009A000E73029F1E83059F1E430B1F78091800067
:1009B000806280938000D0938B00C0938A0004C033
:1009C00084B5806884BDC7BDDF91CF911F91089524
:1009D00084B5806284BDC8BDF7CF809180008068F7
:1009E00080938000D0938900C0938800EDCF8091E0
:1009F000B00080688093B000C093B300E5CF8091D1
:100A0000B00080628093B000C093B400DDCF8E5000
:100A1000806480937C0080917A00806480937A0067
:100A200080917A0086FDFCCF8091780090917900CA
:100A300008953FB7F8948091660290916702A09163
:100A40006802B091690226B5A89B05C02F3F19F036
:100A50000196A11DB11D3FBFBA2FA92F982F88273E
:100A6000BC01CD01620F711D811D911D43E0660F18
:100A7000771F881F991F4A95D1F708958F929F92EB
:100A8000AF92BF92CF92DF92EF92FF926B017C0107
:100A90000E9419054B015C01C114D104E104F10469
:100AA000B9F00E941905681979098A099B09683EFD
:100AB00073408105910580F321E0C21AD108E10855
:100AC000F10888EE880E83E0981EA11CB11CE4CFCB
:100AD000FF90EF90DF90CF90BF90AF909F908F905E
:100AE0000895E091F901F091FA01309729F0109200
:100AF000F4011092F30109940895CF93DF93AC01B0
:100B0000E091F701F091F8013097F1F09091F60142
:100B10008091F5019817C0F090E0292F30E026175A
:100B2000370754F4D901A15ABE4F240F351FE901EC
:100B300028812C939F5FF1CF1092F6016093F5010D
:100B4000CB01DF91CF910994DF91CF910895AF92BE
:100B5000BF92CF92DF92EF92FF920F931F93CF93AA
:100B6000DF936C017B018B01040F151FEB015E010C
:100B7000AE18BF08C017D10759F06991D601ED91A1
:100B8000FC910190F081E02DC6010995892B79F740
:100B9000C501DF91CF911F910F91FF90EF90DF90F2
:100BA000CF90BF90AF900895FC01538D448D252FB9
:100BB00030E0842F90E0821B930B541710F0CF96F7
:100BC000089501970895FC01918D828D981761F029
:100BD000A28DAE0FBF2FB11D5D968C91928D9F5F40
:100BE0009F73928F90E008958FEF9FEF0895FC011F
:100BF000918D828D981731F0828DE80FF11D858DD2
:100C000090E008958FEF9FEF0895FC01918D228D64
:100C1000892F90E0805C9F4F821B91098F739927E9
:100C200008958AE692E00E94050621E0892B09F4E6
:100C300020E0822F089580E090E0892B29F00E9427
:100C4000110681110C9400000895FC01A48DA80FD9
:100C5000B92FB11DA35ABF4F2C91848D90E00196FE
:100C60008F739927848FA689B7892C93A089B1891E
:100C70008C91837080648C93938D848D981306C0BF
:100C80000288F389E02D80818F7D80830895EF9223
:100C9000FF920F931F93CF93DF93EC0181E0888F36
:100CA0009B8D8C8D98131AC0E889F989808185FF06
:100CB00015C09FB7F894EE89FF896083E889F989A8
:100CC00080818370806480839FBF81E090E0DF91AA
:100CD000CF911F910F91FF90EF900895F62E0B8DFD
:100CE00010E00F5F1F4F0F731127E02E8C8D8E11B8
:100CF0000CC00FB607FCFACFE889F989808185FF1F
:100D0000F5CFCE010E942506F1CFEB8DEC0FFD2F24
:100D1000F11DE35AFF4FF0829FB7F8940B8FEA89D9
:100D2000FB8980818062CFCF0F931F93CF93DF9396
:100D30008C01D0E0C0E0F801EC0FFD1F6491662348
:100D400041F08AE692E00E944706892B11F0219635
:100D5000F2CFCE01DF91CF911F910F910895CF93E4
:100D6000DF93EC01888D8823B9F0AA89BB89E889D3
:100D7000F9898C9185FD03C0808186FD0DC00FB679
:100D800007FCF7CF8C9185FFF2CF808185FFEDCFF7
:100D9000CE010E942506E9CFDF91CF9108952091E1
:100DA000A501260F3327331F21323105ECF42091A2
:100DB000C901FC0190E080E0243069F082E00895F0
:100DC000A091A5012191AC014B575E4FA40FB52F07
:100DD000B11D2C930196861798F38091A501680F99
:100DE0006093A50180E0089581E008951092C90103
:100DF00081E08093CB011092CA0161E082E10E9400
:100E00004B0461E083E10E944B04E9EBF0E0808158
:100E10008E7F808380818D7F808380E28093B80085
:100E200085E48093BC0008950895E091F6018091D7
:100E3000F501E81730F4F0E0E15AFE4F808190E0D0
:100E400008958FEF9FEF08959091F6018091F5013D
:100E50002FEF3FEF981748F4E92FF0E0E15AFE4FEB
:100E6000208130E09F5F9093F601C9010895809141
:100E7000F5019091F601891B990B0895CF93DF93AB
:100E8000CB01EA01642F0E94CF06CE01DF91CF9102
:100E90000895CF93DF931F92CDB7DEB7698361E0EA
:100EA000CE0101960E94CF0681E090E00F90DF9185
:100EB000CF91089590E080E008950F931F93CF9312
:100EC000DF938EE00E9407058EE00E9407058C01EB
:100ED0008FE00E9407058FE00E940705EC0160E8A3
:100EE00072E080E090E00E943E0520915C012223A8
:100EF00069F1023011052CF490E080E0C230D10598
:100F000074F1C8014F978732910508F444C08A559F
:100F100091098732910550F18A5A9109879748F1D2
:100F20000F3D83E0180744F5CE014F9787329105B6
:100F300030F18A5591098732910520F18A5A910939
:100F4000879718F1CF3D83E0D80714F590E080E053
:100F5000023011051CF421E022970CF020E02093D0
:100F60005C01DF91CF911F910F91089583E090E094
:100F7000EFCF81E090E0ECCF82E090E0E9CF88E035
:100F800090E0E6CF87E090E0E3CF86E090E0E0CF2E
:100F900085E090E0DDCF84E090E0E0CF1092290280
:100FA000109228021092140210921502109216024A
:100FB000109217021092270261E086E00E944B0413
:100FC00061E085E00E944B040E94F00378948091D8
:100FD0002A02882349F085E090E090932D028093C7
:100FE0002C0283E080932B0208952FB7F894609130
:100FF00062027091630280916402909165022FBF3A
:1010000026E096958795779567952A95D1F7089567
:101010008F929F92AF92BF920F931F93CF93DF93C4
:10102000CDB7DEB7A1970FB6F894DEBF0FBECDBF28
:1010300019A2423008F44AE08E010F5D1F4F842E42
:10104000912CB12CA12CA50194010E94DB18E62F54
:10105000B901CA01EA3044F5E05DD801EE938D0193
:10106000232B242B252B79F790E080E0109769F053
:10107000FD0101900020E9F73197AF014A1B5B0B9E
:10108000BD018AE692E00E94A705A1960FB6F894EA
:10109000DEBF0FBECDBFDF91CF911F910F91BF90EB
:1010A000AF909F908F900895E95CD7CF42E050E0D9
:1010B00068E571E08AE692E00C94A705CF93DF9390
:1010C0000E949406EC010E9456088C0F9D1FDF9130
:1010D000CF910895CF92DF92EF92FF920F931F93DB
:1010E000CF93DF9300D000D01F92CDB7DEB78091B1
:1010F0005E018823F9F0809132028823D9F0409173
:10110000330250E064E372E087E093E00E943E0720
:1011100010925E01109232020F900F900F900F907C
:101120000F90DF91CF911F910F91FF90EF90DF9083
:10113000CF90089500912C0210912D0209831A82FC
:101140001B821C82802F80958D838091FF018823D4
:10115000A9F00E94F507C090FB01D090FC01E0903F
:10116000FD01F090FE016C197D098E099F09693817
:1011700073418105910510F01092FF010A301105AD
:1011800011F58DE891E00E945E089091090280912E
:101190000A029A838B8345E050E0BE016F5F7F4F68
:1011A00087E093E00E943E078091FF018823C1F011
:1011B00005311105A9F410932D0200932C0283E050
:1011C00080932B02A9CF0D30110529F790910902C8
:1011D00080910A029A838B8380915D018C83DBCF9F
:1011E0000231110569F480912F0290913002892B10
:1011F000B9F489E290E090932D0280932C02DFCF26
:101200000C31110569F480912F0290913002019701
:1012100039F410922D0210922C0210922B027CCFE6
:1012200080912B028823A9F380912B028150C8CF93
:1012300010922902109228021092140210921502A4
:1012400010921602109217021092270288E690E080
:101250000E945E0861E086E00E944B0461E085E048
:101260000C944B040E94180984E790E00E945E08E9
:1012700060E87EE380E090E00C943E05CF92DF9240
:10128000EF92FF92CF93DF936C01990FEE08FF0866
:10129000F7FE19C06DE28AE692E00E944706EC0173
:1012A00066277727CB016C197D098E099F094AE0D3
:1012B0000E9408088C0F9D1FDF91CF91FF90EF9047
:1012C000DF90CF9008954AE0C701B601DF91CF913A
:1012D000FF90EF90DF90CF900C940808CF93DF93AE
:1012E0000E943E09EC010E9456088C0F9D1FDF9161
:1012F000CF910895CF93DF932091190230911A0274
:101300002817390721F1EC01892B19F081E00E949F
:10131000AA09D0931A02C09319028DEA90E00E94A4
:101320009406CE010E943E0984E990E00E94940652
:101330008091190290911A02892B31F08DE890E08A
:10134000DF91CF910C945E0880E990E0F9CFDF91B6
:10135000CF910895CF9390911802981721F1C82F3B
:10136000811104C090E080E00E947A09C0931802C5
:1013700081E890E00E9494068C2F90E00E946E0914
:1013800080911802882349F061E088E00E944B04B4
:1013900061E089E0CF910C944B0460E088E00E940A
:1013A0004B0460E0F6CFCF91089510922A0210927C
:1013B00020020E94F0030E94180980E00E94AA09FE
:1013C00010921A021092190289E090E090932D0277
:1013D00080932C0283E080932B020895CF93DF93B8
:1013E000682F70E090E080E04AE00E940808EC017D
:1013F0000E9456088C0F9D1FDF91CF91089581E0C8
:10140000809327028CBB8EEC97E09093040180932D
:101410000301E9E6F0E080818C7F82608083E89AB6
:1014200060911B0270E086E00E94AA0470E060E018
:1014300085E00C94AA04CF93DF9385ED8093BC00E4
:101440008091810190918201A0918301B0918401EA
:101450000796A11DB11D23E0B695A7959795879591
:101460002A95D1F72091BC0024FD03C01092C90138
:1014700036C0409181015091820160918301709149
:101480008401452B462B472B69F30097A105B10535
:1014900041F025E12A95F1F700000197A109B10972
:1014A000E1CF8091800191E090937F018823B9F092
:1014B000C091B800D091BA008091BC008A7B809323
:1014C000BC0060E082E10E944B0460E083E10E9486
:1014D0004B040E94F606D093BA00C093B800DF9187
:1014E000CF910895FF920F931F93CF93DF93EC0159
:1014F000F62E08811981C8010E949318F81621F070
:101500006F2DC8010E949B18CE01DF91CF911F91D2
:101510000F91FF9008959F92AF92BF92CF92DF926A
:10152000EF92FF920F931F93CF93DF93CDB7DEB768
:10153000A2970FB6F894DEBF0FBECDBF18161906DE
:101540000CF062C087E093E00E942407182FCE01C0
:1015500001965C016C0100E0F090F5018091F601CC
:10156000F816A9F0003249F087E093E00E942407C2
:101570000F5FF60181936F01EFCF8091F601F816AE
:1015800009F43BC187E093E00E942407F6CF1733AC
:1015900021F5023008F446C1E980FA80FE24EF24E8
:1015A000FE246E01F3E0CF0ED11C82E0982EEA18E3
:1015B000FB0882E0E80EF11C901609F433C1F60135
:1015C00061916F01C7018E0F9F1F9AA389A3CE015E
:1015D00081960E94720A9394EFCF183309F013C1D9
:1015E000033090F029813A813227232732278B81DB
:1015F000813208F080E230935602209355028093A6
:10160000540281E080935702A2960FB6F894DEBF91
:101610000FBECDBFDF91CF911F910F91FF90EF9043
:10162000DF90CF90BF90AF909F900895173179F4DD
:101630001092000281E090E09093300280932F029C
:1016400010922D0210922C0210922B02DDCF133833
:1016500099F41092030281E090E09093300280931D
:101660002F0210922D0210922C0210922B0289E66A
:1016700091E00E945E08C8CF183889F410920202E7
:1016800081E090E09093300280932F0210922D021F
:1016900010922C0210922B0286E591E0EACF1438CA
:1016A00089F410922E0281E090E0909330028093B2
:1016B0002F0210922D0210922C0210922B0284E421
:1016C00091E0D7CF163889F41092010281E090E0C2
:1016D0009093300280932F0210922D0210922C02D0
:1016E00010922B0284E391E0C4CF153821F481E0FD
:1016F0008093310289CF193271F580912F02909138
:1017000030020297D8F081E090E09093300280930D
:101710002F0210926002109208021092030210929F
:10172000020210922E021092000210922D021092CC
:101730002C0210922B0287E191E09BCF1092300295
:1017400010922F0210922D0210922C0210922B0256
:1017500082E091E08ECF173881F480912A028823AD
:1017600009F452CF10922A021092200280911302A3
:101770000E94AA098EEE90E07CCF103881F480910F
:101780002A02882309F440CF81E0809320023CCFD5
:101790001A3309F047C081E080935E0143C01138DD
:1017A00009F032CF83E00E942204182F80935D015C
:1017B00084E10E94070584E10E94070590930A02D4
:1017C0008093090284ED90E00E949406812F0E948C
:1017D000EE0989EB90E00E949406809109029091B5
:1017E0000A020E946E098DE090E090932D02809392
:1017F0002C0283E080932B0207CF173309F4CCCE61
:10180000183309F4EFCE193319F685E090E09AA366
:1018100089A360E0CE0181960E94720A88E791E078
:101820000E945E0889EC810F843020F010925E01E6
:101830001092320217FF06C010922D0210922C0255
:1018400010922B02143109F0F1CE1092080281E0BF
:1018500090E09093300280932F0210922D0210920C
:101860002C0210922B021092FF01CECE1F920F92EB
:101870000FB60F9211242F933F938F939F93AF93A3
:10188000BF938091620290916302A0916402B09133
:1018900065023091610226E0230F2D3758F502963C
:1018A000A11DB11D20936102809362029093630297
:1018B000A0936402B09365028091660290916702E2
:1018C000A0916802B09169020196A11DB11D80939B
:1018D000660290936702A0936802B0936902BF9179
:1018E000AF919F918F913F912F910F900FBE0F90CD
:1018F0001F90189529E8230F0396A11DB11DD2CF83
:101900001F920F920FB60F9211242F933F934F9374
:101910005F936F937F938F939F93AF93BF93EF9357
:10192000FF93E0910501F09106010995FF91EF9178
:10193000BF91AF919F918F917F916F915F914F91E7
:101940003F912F910F900FBE0F901F9018951F92EF
:101950000F920FB60F9211242F933F934F935F93E3
:101960006F937F938F939F93AF93BF93EF93FF9367
:10197000E0910301F09104010995FF91EF91BF916E
:10198000AF919F918F917F916F915F914F913F9117
:101990002F910F900FBE0F901F9018951F920F92CE
:1019A0000FB60F9211242F933F934F935F936F9332
:1019B0007F938F939F93AF93BF93EF93FF938AE6A9
:1019C00092E00E942506FF91EF91BF91AF919F9108
:1019D0008F917F916F915F914F913F912F910F90D8
:1019E0000FBE0F901F9018951F920F920FB60F9277
:1019F00011242F938F939F93EF93FF93E0917A029B
:101A0000F0917B028081E0918002F091810282FD61
:101A10001BC09081809183028F5F8F73209184021D
:101A2000821741F0E0918302F0E0E659FD4F958F77
:101A300080938302FF91EF919F918F912F910F904F
:101A40000FBE0F901F9018958081F4CF1F920F92B8
:101A50000FB60F9211242F933F934F935F936F9381
:101A60007F938F939F93AF93BF93EF93FF93809157
:101A7000B900887F803609F44AC0F0F5883209F44D
:101A8000A7C018F5803109F49BC0B8F4882309F485
:101A9000F9C0883009F494C0FF91EF91BF91AF91E4
:101AA0009F918F917F916F915F914F913F912F9176
:101AB0000F900FBE0F901F901895883109F488C0C1
:101AC000803251F78093C80114C0803409F49DC05E
:101AD00040F48033B9F38833F9F68093C80185EC7C
:101AE000B0C0803509F485C0883509F496C08834C3
:101AF00099F60E941B0AD0CF883909F48CC038F5BA
:101B0000883729F050F4883611F0803729F683E0C1
:101B10008093C9011092C70157C0883809F47BC06F
:101B2000803919F0803809F0B7CF8091C701803231
:101B300008F071C0E091C70181E08E0F8093C7016A
:101B40008091BB00F0E0E955FE4F80833DC0803BB3
:101B500039F0E0F4803A09F479C0883A09F09CCF72
:101B600084E08093C9011092A6011092A501E09132
:101B7000F101F091F20109958091A50181110FC049
:101B800081E08093A5011092850109C0803C09F491
:101B9000A6CF883C09F4A3CF883B09F07DCFE09124
:101BA000A60181E08E0F8093A601F0E0EB57FE4F77
:101BB00080818093BB009091A6018091A50129C0EE
:101BC0008091EE018093BB0085EC8093BC0064CFD4
:101BD0009091ED018091EC01981758F5E091ED019D
:101BE00081E08E0F8093ED01F0E0E453FE4F8081A1
:101BF000E9CFE091ED0181E08E0F8093ED018091BE
:101C0000BB00F0E0E453FE4F80839091ED018091A2
:101C1000EC019817C8F285E8D8CFE091ED0181E09A
:101C20008E0F8093ED018091BB00F0E0E453FE4FF6
:101C300080838091CB0181115CCF81E08093CA01C8
:101C400084EA8093BC001092C90126CF85EC809372
:101C5000BC001092C9018091C701803230F4E0913C
:101C6000C701F0E0E955FE4F10826091C70170E0B6
:101C7000E091EF01F091F00187EA91E0099510926F
:101C8000C7010ACF1092C80134CFEAE6F2E013820E
:101C9000128288EE93E0A0E0B0E084839583A6836F
:101CA000B78328E331E03183208325EC30E03587AA
:101CB000248724EC30E03787268720EC30E0318B16
:101CC000208B21EC30E0338B228B22EC30E0358B03
:101CD000248B26EC30E0378B268B118E128E138EE0
:101CE000148EE7E0F3E01382128284839583A68347
:101CF000B7838AE491E0918380830895CF93DF9343
:101D0000CDB7DEB72F970FB6F894DEBF0FBECDBFAD
:101D1000789484B5826084BD84B5816084BD85B5C6
:101D2000826085BD85B5816085BD80916E008160D2
:101D300080936E0010928100809181008260809378
:101D4000810080918100816080938100809180007A
:101D50008160809380008091B10084608093B100A5
:101D60008091B00081608093B00080917A0084609F
:101D700080937A0080917A00826080937A008091CB
:101D80007A008E7F80937A0080917A0080688093B9
:101D90007A001092C100F4B614BE61E089E00E949E
:101DA000790460E089E00E944B04E0917A02F091AE
:101DB0007B0282E08083E0917602F09177021082CC
:101DC000E0917802F091790288E08083109282029B
:101DD000E0917E02F0917F0286E08083E0917C02B8
:101DE000F0917D02808180618083E0917C02F0919E
:101DF0007D02808188608083E0917C02F0917D0289
:101E0000808180688083E0917C02F0917D028081F6
:101E10008F7D808381E090E00E949318853A09F0DD
:101E200027C190E080E00E949318182F8093020150
:101E300087E292E00E949406812F0E94EE0983EED1
:101E400091E00E9494066F2D70E090E080E040E108
:101E50000E9408088CED91E00E9494068F2D8170FD
:101E600090E00E943E0984ED91E00E949406F1FA10
:101E7000882780F990E00E943E098DEC91E00E9455
:101E80009406F2FA882780F990E00E943E0986ECD9
:101E900091E00E949406F3FA882780F990E00E946E
:101EA0006E0960E08EE00E94790460E08FE00E949D
:101EB000790460E080E10E94790460E081E10E94A1
:101EC000790460E084E10E94790461E088E00E9486
:101ED000790461E086E00E94790461E085E00E9477
:101EE000790460E082E00E94790460E083E00E946F
:101EF000790460E085E10E94790483E00E94220475
:101F000021E0892B09F420E0209311022093100294
:101F10000E94F507605E7C4F8F4F9F4F60935C027D
:101F200070935D0280935E0290935F0285B5887F17
:101F3000816085BD61E086E00E944B0461E085E040
:101F40000E944B0460E088E00E944B0460E089E05E
:101F50000E944B041092F6011092F5011092F401C8
:101F60001092F3010E94F60681E795E09093F2014A
:101F70008093F1018DE795E09093F0018093EF015C
:101F800084E58093BA008BE89AE09093F8018093FF
:101F9000F7018AE698E09093FA018093F90184E1D1
:101FA0000E94070585E10E9407058C017C016C01F8
:101FB00067E0A62EB12C85E10E94070585E10E940D
:101FC0000705080F191F8C159D050CF46C01E81608
:101FD000F9060CF47C0121E0A21AB10861F717FFA1
:101FE00002C0095F1F4F53E0159507955A95E1F719
:101FF000EC18FD0839E7E316F1040CF43EC084EB5D
:1020000091E00E945E0888248A9433E0932EA12CEC
:10201000B12C48E0242E312CEE24E394F12C809155
:102020006002811158C00E94F50700915C02109176
:102030005D0220915E0230915F0260177107820796
:10204000930708F048C00E945D0790935B0280935D
:102050005A02909359028093580280E090E0892BB5
:10206000F1F20E9411068823B9F20E940000D4CF39
:1020700081EF91E00E945E08E2CE8FE0E7E0F1E0C0
:10208000DE01119601900D928A95E1F7E8E1F1E009
:1020900090E080E07C012FEFE21AF20A2191319169
:1020A0000217130714F07C0104C0C7018E3091059C
:1020B00089F78EEA91E00E949406E1E0F0E0EC0FEF
:1020C000FD1FEE0DFF1D60818AE692E00E9447062B
:1020D0000E94560898CF80915702882301F11092F0
:1020E000570200915502109156026090540294E3F9
:1020F000C92E92E0D92E712C0F521240671451F064
:10210000C8018C0D9D1D0E949318F60181936F01EB
:102110007394F4CF6092330281E080933202809115
:1021200031028823D1F180912F02909130021092D8
:102130003102892B41F4F0923002E0922F028EE0BE
:1021400097E00E945E0881E080932E0286E090E096
:102150009093300280932F0210922D0210922C0245
:1021600010922B020E945D0790935B0280935A02AB
:10217000909359028093580282EE96E00E94940652
:1021800086E090E00E943E0984ED96E00E9494066D
:1021900080912E0290E00E946E09C0902F02D09094
:1021A0003002C114D10409F474C40E945D078C018B
:1021B00090935B0280935A02F1E0CF16D10409F0AC
:1021C0008DC1C0905802D09059028C159D0509F41C
:1021D00044CF88EE94E00E949406C6010E943E0916
:1021E00083EE94E00E94940680915A0290915B02E3
:1021F0000E946E0980915A0290915B02909359025D
:10220000809358028430910509F437C098F40397FD
:1022100009F023CF1092300210922F0289E290E051
:1022200090932D0280932C0283E080932B0289E906
:1022300094E04EC18630910509F43BC0079709F040
:102240000CCF84EA94E00E949406809121020E94BF
:10225000EE09E0912102EA3008F03DC1F0E0ED5CCA
:10226000FE4E0C942019701183119911A511B11112
:10227000BD11C911D3116B12DC118091210290E0C4
:1022800009966AE070E00E940C19182F80932102D1
:102290008AE290E090932D0280932C0283E0809359
:1022A0002B028EEC94E00E949406812F0E94EE098E
:1022B000D4CE8091210290E001966AE070E00E9405
:1022C0000C19182F809321028BE290E090932D023D
:1022D00080932C0283E080932B0289EB94E0E3CF80
:1022E00082E090E09093300280932F0281E080930F
:1022F00060028EE090E090932D0280932C0283E0A8
:1023000080932B02AACE83E090E0909330028093DA
:102310002F0281E0809308020E94F5076093040277
:1023200070930502809306029093070283E190E088
:10233000E2CF84E090E09093300280932F0281E01E
:10234000809303028EE190E0D6CF85E090E09093F9
:10235000300280932F0281E08093020282E390E0BA
:10236000CACF86E090E09093300280932F0281E004
:1023700080932E0283E290E0BECF87E090E09093BE
:10238000300280932F0281E0809301028DE290E081
:10239000B2CF3092300220922F0281E0809300026F
:1023A00086E190E0A8CF89E090E09093300280939E
:1023B0002F0288E190E09FCF1092300210922F02FE
:1023C00089E290E090932D0280932C0283E0809329
:1023D0002B0285EB92E00E945E086FEF70E086E0D2
:1023E0000E94AA0470E060E085E00E94AA040E94B6
:1023F000F5072B013C0182E00E942204182F0E9465
:10240000F5076419750986099709683B7B408105C2
:10241000910508F070C682E00E942204113071F725
:102420008111ECCF0FEF10E0D02EB80186E00E94B2
:10243000AA0460E07BE480E090E00E943E050E94F8
:10244000F5072B013C0182E00E942204C82E0E9465
:10245000F5076419750986099709683E7340810577
:10246000910508F050C682E00E94220491E0C91252
:10247000EDCF8111EBCF025011090D311105A1F6FD
:102480008EE1D82E0E9418090D2D10E0015F1F4F1C
:102490000F3F110519F010F00FEF10E0009302014B
:1024A00085E592E00E949406802F0E94EE096091DB
:1024B00002011A821982CE0101960E94720AFA82E2
:1024C000E98265EACE0101960E94720A8EE392E0EB
:1024D0000E945E08C2CD8CE290E00DCF8091600238
:1024E000882309F467C08091580290915902081717
:1024F000190709F4B2CD1093590200935802053020
:10250000110509F445C098F40330110519F10430A0
:10251000110509F0A2CD8FE090E090932D028093F9
:102520002C0283E080932B0287E794E0D1CF063022
:10253000110511F10730110509F08FCD81E190E00F
:1025400090932D0280932C0283E080932B028AE5E6
:1025500094E0BECFF0923002E0922F02109260021F
:1025600082E190E090932D0280932C0283E080938F
:102570002B0284E894E0ACCF80E190E090932D02B0
:1025800080932C0283E080932B028AE694E0A0CF14
:102590001092300210922F021092600282E190E0BD
:1025A00090932D0280932C0283E080932B0288E489
:1025B00094E08ECF80910802882309F45CC08FE0FC
:1025C0000E9407058FE00E9407058F3D93401CF491
:1025D00005301105D1F48DE294E00E945E08F0927E
:1025E0003002E0922F021092080281E08093FF01F6
:1025F0000E94F5076093FB017093FC018093FD013D
:102600009093FE0185E190E076CE0330110591F4C0
:10261000F0923002E0922F021092080285E190E0E1
:1026200090932D0280932C0283E080932B0287E10C
:1026300094E04ECF0E94F50700910402109105022C
:102640002091060230910702601B710B820B930BE5
:10265000613D7B4F8140910508F4FFCCF092300240
:10266000E0922F021092080210922D0210922C027A
:1026700010922B02F2CC80910302882309F44BC004
:1026800080915802909159020817190709F4E5CC76
:1026900010935902009358020530110551F150F47E
:1026A0000330110589F08FE190E00430110509F441
:1026B00022CED3CC06301105C9F081E290E007307C
:1026C000110509F418CEC9CCF0923002E0922F0225
:1026D0001092030282E290E090932D0280932C02EC
:1026E00083E080932B0285E094E0F2CE80E290E0DC
:1026F00002CE1092300210922F021092030282E258
:1027000090E090932D0280932C0283E080932B0223
:1027100086EF93E0DDCE80910202882309F44BC05E
:1027200080915802909159020817190709F495CC25
:1027300010935902009358020530110551F150F4DD
:102740000330110589F083E390E00430110509F4AA
:10275000D2CD83CC06301105C9F085E390E0073077
:10276000110509F4C8CD79CCF0923002E0922F0225
:102770001092020286E390E090932D0280932C0247
:1027800083E080932B0280EE93E0A2CE84E390E07E
:10279000B2CD1092300210922F021092020286E304
:1027A00090E090932D0280932C0283E080932B0283
:1027B0008DEC93E08DCE80912E02882309F467C0C2
:1027C00080915802909159020817190709F445CCD5
:1027D00010935902009358020530110509F445C0C1
:1027E00098F40330110519F10430110509F035CCC6
:1027F00084E290E090932D0280932C0283E08093FA
:102800002B028BEA93E064CE0630110511F10730FC
:10281000110509F022CC86E290E090932D0280937E
:102820002C0283E080932B028EE893E051CEF0924D
:102830003002E0922F0210922E0287E290E09093F5
:102840002D0280932C0283E080932B0288EB93E08F
:102850003FCE85E290E090932D0280932C0283E09E
:1028600080932B028EE993E033CE109230021092C7
:102870002F0210922E0287E290E090932D02809317
:102880002C0283E080932B028CE793E021CE809191
:102890000102882309F467C080915802909159027F
:1028A0000817190709F4D9CB10935902009358025D
:1028B0000530110509F445C098F40330110519F1EC
:1028C0000430110509F0C9CB8EE290E090932D02FF
:1028D00080932C0283E080932B028EE593E0F8CD69
:1028E0000630110511F10730110509F0B6CB80E370
:1028F00090E090932D0280932C0283E080932B0232
:1029000085E493E0E5CDF0923002E0922F02109240
:10291000010281E390E090932D0280932C0283E0EA
:1029200080932B0289E693E0D3CD8FE290E09093E1
:102930002D0280932C0283E080932B0283E593E0A9
:10294000C7CD1092300210922F021092010281E343
:1029500090E090932D0280932C0283E080932B02D1
:1029600085E393E0B5CD80910002882351F10E9468
:102970005D0790935B0280935A0220915802309138
:1029800059028217930709F468CB909359028093F8
:1029900058028330910519F0059709F05ECBF0924B
:1029A0003002E0922F021092000287E190E09093B3
:1029B0002D0280932C0283E080932B0282E293E02D
:1029C00087CD29E0C216D10409F047CB8091580287
:1029D000909159020817190709F43FCB1093590237
:1029E000009358020530110509F443C098F40330F0
:1029F000110579F10430110509F02FCB89E190E040
:102A000090932D0280932C0283E080932B0285E12A
:102A100093E05ECD0630110581F00730110509F015
:102A20001CCB8BE190E090932D0280932C0283E0ED
:102A300080932B0288EF92E04BCD8AE190E0909357
:102A40002D0280932C0283E080932B0288E093E098
:102A50003FCDF0923002E0922F02ECE1F0E0F093F3
:102A60002D02E0932C0283E080932B0283EE92E010
:102A70002FCD1092300210922F022CE130E03093D3
:102A80002D0220932C0283E080932B0281ED92E0B3
:102A90001FCD80912A0281110BC080912802909154
:102AA0002902892B29F480912702882309F4BFC0C9
:102AB000109226020E945D0790935B0280935A0257
:102AC00080912A028823E1F1809120028823C1F1BC
:102AD00080912C0290912D02099791F1809127020B
:102AE00081112EC01092200283E00E942204892BC3
:102AF00009F014C180911F02811112C080911E0241
:102B00008F5F80931E028330C8F089E180931F029B
:102B100080E496E00E945E0880911F02882371F095
:102B2000815080931F02811109C08FE096E00E94BE
:102B30005E080E94D5098FE080931D020E94FF0964
:102B400080911D02882361F090912702911108C0A5
:102B5000815080931D02882309F4E3C00E94FF097D
:102B600081E10E94070540900201512C712C612CDB
:102B700081E10E9407053FEF431A5108610871087F
:102B8000DC01A30192010E94D318A50194010E94C7
:102B9000A91821503F4F4F4F5F4F20931C0280E1F7
:102BA0000E94070580E10E940705DC01A301920154
:102BB0000E94D318A50194010E94A91829013A0185
:102BC0008FEF480E511C611C711C40921B02E0915A
:102BD0005A02F0915B0280912A02209158023091B2
:102BE0005902E217F30709F4C3C1F0935902E093C5
:102BF0005802882309F49AC0359749F49091260227
:102C00009111A8C0882309F4A2C00E94D50900919F
:102C10002802109129020130110509F07EC260914D
:102C20001C0270E0809112020E94AA0416CA8FE072
:102C30000E9407058FE00E940705209126028F3D24
:102C400093400CF444C0211112C081E0809326020D
:102C50000E94F5076093220270932302809324025E
:102C6000909325028FEA96E00E945E0823CF0E948F
:102C7000F507009122021091230220912402309145
:102C80002502601B710B820B930B683B7B40810517
:102C9000910508F40FCFF0923002E0922F021092CB
:102CA000210210922602109259021092580210929C
:102CB0005B0210925A0228E230E030932D022093FA
:102CC0002C0283E080932B0281E996E001CC222341
:102CD00009F4F0CE0E94F507009122021091230220
:102CE00020912402309125022B013C01401A510A07
:102CF000620A730A86E796E00E9494064AE0C301DE
:102D0000B2010E94080886E696E00E945E081092D2
:102D100026021092590210925802CCCE10921E0236
:102D2000FBCE8BEF95E00E945E081ACF3197E8301A
:102D3000F10508F06CCFE156F94E0C942019AF164E
:102D4000CB16D6161117FE153F175617A0170E945F
:102D500018095DCF88ED95E00E945E0858CF8091FC
:102D6000190290911A028230910591F099270196EB
:102D70000E947A098091190290911A02992702966D
:102D800090932D0280932C0283E080932B023FCFFF
:102D900090E080E0EDCF9091180281E089270E94B9
:102DA000AA098091180290E00696EACF8091280245
:102DB00090912902019711F40E943209EFEFFFEF81
:102DC000F0932902E093280284EC95E00E94940697
:102DD00080911C020E94EE090E94F00385E080931E
:102DE000120270E060E086E00E94AA04C0901C021B
:102DF0000091020110E0D12C0C151D056CF4B801F6
:102E000085E00E94AA0460E471E080E090E00E9406
:102E10003E050D5F1F4FF0CFB60185E00E94AA046A
:102E2000F6CE8091280290912902892B29F5809174
:102E30002702811121C088EB95E00E949406842D21
:102E40000E94EE0981E0809327028CBB2EEC37E0D4
:102E50003093040120930301809169008C7F82608C
:102E600080936900E89A70E060E086E00E94AA041E
:102E700060911B0270E0D1CF85EA95E06DCF809123
:102E8000280290912902892B71F4809127028111E7
:102E90000AC089E995E00E949406842D0E94EE09FB
:102EA0000E94FF09B4CE86E895E056CF80912802B3
:102EB00090912902019611F40E943209F0922902A0
:102EC000E092280283E00E942204019791F50E947B
:102ED000F507609314027093150280931602909385
:102EE000170282E795E00E94940680911C020E94DE
:102EF000EE090E94F00386E08093120270E060E029
:102F000085E00E94AA04C0901C020091020110E01A
:102F1000D12C0C151D058CF4B80186E00E94AA0482
:102F200060E471E080E090E00E943E050D5F1F4F7D
:102F3000F0CF60E070E0CB01CCCFB60186E06ECF81
:102F4000809118028093130281E080932A021092EC
:102F50001F0210921E0210921D0230922D0220922A
:102F60002C0283E080932B0281E00E94AA094FCEBD
:102F700081114DCE84E10E94070584E10E9407057E
:102F800084E10E9407058C0180910001909101016C
:102F9000801B910B97FF03C091958195910908972C
:102FA000C4F010930A0200930902109301010093E8
:102FB000000183E095E00E949406C8010E946E091A
:102FC0008AE090E090932D0280932C0283E080931E
:102FD0002B02D0901102D092100283E00E942204B2
:102FE00021E0009709F420E02093110200912802CB
:102FF00010912902892B09F05AC0DD2069F00E9446
:10300000F50760930B0270930C0280930D0290936E
:103010000E0281E080930F0280910F02882309F451
:10302000F6CD0E94F50740900B0250900C02609084
:103030000D0270900E026419750986099709643FA4
:1030400071408105910508F4E2CD86E495E00F3FDB
:103050001007E9F001301105F1F44090140250908E
:103060001502609016027090170241145104610419
:10307000710489F00E94F50764197509860997099A
:10308000603375478105910530F08AE195E00E9433
:103090005E080E9418098BE090E090932D028093C7
:1030A0002C0283E080932B0210920F02B0CD10927D
:1030B0000F020130110579F58091140290911502EB
:1030C000A0911602B0911702892B8A2B8B2B51F4F9
:1030D0000E94F50760931402709315028093160204
:1030E00090931702D1109BCDECE0F0E0F0932D020D
:1030F000E0932C0249CE88E892E00E945E080E948C
:1031000018090C942D1080E792E00E9494068D2DF2
:103110000E94EE09B7C9DD2039F30F3F1F4F11F0B0
:103120000C942D107CCDF999FECF92BD81BDF89AFB
:10313000992780B50895262FF999FECF1FBA92BD21
:1031400081BD20BD0FB6F894FA9AF99A0FBE019688
:103150000895052E97FB1EF400940E94C01857FD99
:1031600007D00E94DB1807FC03D04EF40C94C01863
:1031700050954095309521953F4F4F4F5F4F0895A3
:1031800090958095709561957F4F8F4F9F4F0895D3
:103190000E94FD18A59F900DB49F900DA49F800DD7
:1031A000911D11240895B7FF0C94C8180E94C818E7
:1031B000821B930B0895A1E21A2EAA1BBB1BFD01D3
:1031C0000DC0AA1FBB1FEE1FFF1FA217B307E40706
:1031D000F50720F0A21BB30BE40BF50B661F771F5E
:1031E000881F991F1A9469F760957095809590953E
:1031F0009B01AC01BD01CF010895A29FB001B39F17
:10320000C001A39F700D811D1124911DB29F700DEF
:10321000811D1124911D089597FB072E16F400942B
:1032200007D077FD09D00E94261907FC05D03EF48F
:10323000909581959F4F0895709561957F4F089562
:10324000EE0FFF1F0590F491E02D0994AA1BBB1B04
:1032500051E107C0AA1FBB1FA617B70710F0A61B96
:10326000B70B881F991F5A95A9F780959095BC01B7
:10327000CD010895F894FFCF9CFF64F803F803454F
:10328000464748494A4B4C4D4E4F50515253CA0342
:10329000890348030703C602850244020302C201F0
:1032A00081014001FF00BE007D003C0000000000E5
:1032B0004706A705D405AF060506E305F705000098
:1032C000000049073E075A07140737072407150768
:0432D0000D0A0000E3
:107800000C94343C0C94513C0C94513C0C94513CE1
:107810000C94513C0C94513C0C94513C0C94513CB4
:107820000C94513C0C94513C0C94513C0C94513CA4
:107830000C94513C0C94513C0C94513C0C94513C94
:107840000C94513C0C94513C0C94513C0C94513C84
:107850000C94513C0C94513C0C94513C0C94513C74
:107860000C94513C0C94513C11241FBECFEFD8E036
:10787000DEBFCDBF11E0A0E0B1E0EAE8FFE702C063
:1078800005900D92A230B107D9F712E0A2E0B1E065
:1078900001C01D92AD30B107E1F70E942D3D0C945F
:1078A000C33F0C94003C982F95959595959595958B
:1078B000905D8F708A307CF0282F295A8091C0000B
:1078C00085FFFCCF9093C6008091C00085FFFCCF60
:1078D0002093C6000895282F205DF0CF982F809127
:1078E000C00085FFFCCF9093C6000895EF92FF92F1
:1078F0000F931F93EE24FF2487018091C00087FD22
:1079000017C00894E11CF11C011D111D81E2E8164D
:1079100081EAF80687E0080780E0180770F3E09135
:107920000401F091050109958091C00087FFE9CF1E
:107930008091C6001F910F91FF90EF9008950E94D3
:10794000763C982F8091C00085FFFCCF9093C600B5
:1079500091362CF490330CF09053892F089597555D
:10796000892F08951F930E949F3C182F0E949F3CCF
:107970001295107F810F1F9108951F93182F882350
:1079800021F00E94763C1150E1F71F9108951F935A
:10799000182F0E94763C803249F0809103018F5F5E
:1079A000809303018530C1F01F9108958091C0003C
:1079B00085FFFCCF84E18093C6008091C00085FFE5
:1079C000FCCF1093C6008091C00085FFFCCF80E102
:1079D0008093C6001F910895E0910401F091050184
:1079E00009951F9108950E94763C803241F0809164
:1079F00003018F5F80930301853081F008958091AA
:107A0000C00085FFFCCF84E18093C6008091C00058
:107A100085FFFCCF80E18093C6000895E0910401CA
:107A2000F09105010995089548EC50E08823A1F0F4
:107A30002D9A28EE33E0FA013197F1F721503040CA
:107A4000D1F72D9828EE33E0FA013197F1F7215064
:107A50003040D1F7815061F708953F924F925F9285
:107A60006F927F928F929F92AF92BF92CF92DF924E
:107A7000EF92FF920F931F93CF93DF93000082E06A
:107A80008093C00080E18093C4001092C50088E11B
:107A90008093C10086E08093C2005098589A259A3E
:107AA00081E00E94143D24E1F22E9EE1E92E85E959
:107AB000D82E0FE0C02E10E1B12EAA24A394B1E479
:107AC0009B2EA6E58A2EF2E57F2EE0E26E2E79E46B
:107AD000572E63E5462E50E5352E0E94763C8033C6
:107AE000B1F18133B9F1803409F46FC0813409F404
:107AF00076C0823409F485C0853409F488C08035A5
:107B000031F1823521F1813511F1853509F485C0D6
:107B1000863509F48DC0843609F496C0843709F49B
:107B200003C1853709F472C1863709F466C08091B4
:107B300003018F5F80930301853079F6E0910401A2
:107B4000F091050109950E94763C803351F60E9420
:107B5000F33CC3CF0E94763C803249F78091C0004D
:107B600085FFFCCFF092C6008091C00085FFFCCF5E
:107B70009092C6008091C00085FFFCCF8092C60025
:107B80008091C00085FFFCCF7092C6008091C0003C
:107B900085FFFCCF6092C6008091C00085FFFCCFBE
:107BA0005092C6008091C00085FFFCCF4092C60075
:107BB0008091C00085FFFCCF3092C6008091C0004C
:107BC00085FFFCCFB092C60088CF0E94763C8638F5
:107BD00008F4BDCF0E94763C0E94F33C7ECF0E9409
:107BE000763C803809F49CC0813809F40BC1823896
:107BF00009F430C1883909F48FC080E00E94C73C85
:107C00006CCF84E10E94BD3C0E94F33C66CF85E0CE
:107C10000E94BD3C0E94F33C60CF0E94763C809362
:107C200006010E94763C809307010E94F33C55CFE9
:107C30000E94763C803309F411C183E00E94BD3C70
:107C400080E00E94C73C49CF0E94763C80930902A5
:107C50000E94763C8093080280910C028E7F809374
:107C60000C020E94763C853409F409C18091080217
:107C700090910902892B89F000E010E00E94763C87
:107C8000F801E85FFE4F80830F5F1F4F809108026D
:107C9000909109020817190788F30E94763C8032F8
:107CA00009F045CF80910C0280FFF5C0609106017C
:107CB00070910701660F771F7093070160930601AB
:107CC000A0910802B09109021097C9F0E8E0F1E034
:107CD0009B01AD014E0F5F1FF999FECF32BD21BD53
:107CE000819180BDFA9AF99A2F5F3F4FE417F5070B
:107CF00099F76A0F7B1F70930701609306018091CB
:107D0000C00085FFFCCFF092C6008091C00085FFC7
:107D1000FCCFB092C600E1CE83E00E94C73CDDCE2E
:107D200082E00E94C73CD9CE0E94763C8093090233
:107D30000E94763C80930802809106019091070191
:107D4000880F991F90930701809306010E94763C4B
:107D5000853409F49AC080910C028E7F80930C02C6
:107D60000E94763C803209F0B8CE8091C00085FF39
:107D7000FCCFF092C600A0910802B09109021097C2
:107D8000C1F180910C02082F0170182F1695117007
:107D9000E0910601F0910701AF014F5F5F4FBA011B
:107DA00020E030E00023B1F4112339F49491809164
:107DB000C00085FFFCCF9093C6002F5F3F4FCB01E3
:107DC0000196FA012A173B0780F4BC014F5F5F4F11
:107DD000002351F3F999FECFF2BDE1BDF89A90B5B9
:107DE0008091C00085FFFCCFE6CF709307016093C0
:107DF00006018091C00085FDE5CE8091C00085FF21
:107E0000F8CFE0CE81E00E94C73C67CE0E94763C6E
:107E1000803209F08CCE8091C00085FFFCCFF092BB
:107E2000C6008091C00085FFFCCFE092C600809123
:107E3000C00085FFFCCFD092C6008091C00085FFB6
:107E4000FCCFC092C6008091C00085FFFCCFB092ED
:107E5000C60043CE80E10E94C73C3FCE0E94763CE4
:107E60000E94763C182F0E94763C112309F483C0AF
:107E7000113009F484C08FE00E94C73C2ECE80915F
:107E80000C02816080930C02F1CE80910C02816023
:107E900080930C0265CF809107018823880F880B9F
:107EA0008A2180930B028091060190910701880F2F
:107EB000991F90930701809306018091080280FF2B
:107EC00009C08091080290910902019690930902DD
:107ED00080930802F894F999FECF1127E0910601EA
:107EE000F0910701C8E0D1E0809108029091090269
:107EF000103091F40091570001700130D9F303E084
:107F000000935700E8950091570001700130D9F3B4
:107F100001E100935700E8950990199000915700EE
:107F200001700130D9F301E000935700E8951395F3
:107F3000103498F011270091570001700130D9F3E7
:107F400005E000935700E89500915700017001305B
:107F5000D9F301E100935700E8953296029709F0B2
:107F6000C7CF103011F00296E5CF11248091C000E8
:107F700085FFC5CEC8CE8EE10E94C73CAECD85E957
:0C7F80000E94C73CAACDF894FFCF8000FF
:00000001FF
