:100000000C943B030C94DD0A0C94B60A0C94630325
:100010000C9463030C9463030C9463030C946303C8
:100020000C9463030C9463030C9463030C946303B8
:100030000C9463030C9463030C9463030C946303A8
:100040000C946C0A0C9463030C942A0B0C94040B10
:100050000C9463030C9463030C9463030C94630388
:100060000C945C0B0C9463034D6F746F723A2053C5
:10007000746F70002842726965666C792E2E2E2985
:10008000004C616D70206D6F64653A2000696E00F0
:100090006F7574002E2054656C6C696E6720526118
:1000A00073706920746F207A6F6F6D20005A6F6FC4
:1000B0006D206D6F64653A200043757272656E74D1
:1000C000204578706F737572652053657474696E1E
:1000D000673A200043757272656E742046696C6DD4
:1000E000206C6F61642073746174653A20005363FF
:1000F000616E2072656A6563746564206279205060
:1001000069004D656E753A206578697420286672BD
:100110006F6D20506929004D656E753A20626163EC
:100120006B20746F206D61696E202866726F6D2080
:10013000506929002C207461726765744D6F646585
:100140003D00546172676574206D656E753A20726A
:10015000652D656E746572202866726F6D2050691A
:10016000292C206D656E7553746174653D00546172
:10017000726765743A20656E746572696E67206D8A
:10018000656E75206D6F64652066697273740057C3
:10019000694669206D656E753A206578697400540A
:1001A0006172676574206D656E753A206578697453
:1001B00000415742206D656E753A2065786974007C
:1001C00053656E64696E67206E6577204578706F41
:1001D000737572652054696D652076616C75652E46
:1001E000005265762E20005265762E204420286627
:1001F0006C6F6174696E67290020574452463D0058
:1002000020424F52463D002045585452463D002062
:10021000504F52463D00424F4F54204D435553528C
:100220003D307800556E706169723A206578697466
:10023000206D656E7500556E706169723A2062615D
:10024000636B20746F206D656E7500556E7061690B
:10025000723A20636F6E6669726D00556E706169E7
:10026000723A206E65787400556E706169723A203A
:1002700070726576004C6F67733A206261636B2021
:10028000746F206D656E7500576946693A20657810
:100290006974206D656E7500576946693A20636F11
:1002A0006E6669726D00576946693A206E657874AA
:1002B00000576946693A2070726576005769466949
:1002C0003A206261636B20746F206D656E75005417
:1002D00061726765743A2065786974206D656E7522
:1002E000005461726765743A20636F6E6669726D5F
:1002F000005461726765743A206E657874005461C9
:10030000726765743A207072657600546172676531
:10031000743A206261636B20746F206D656E7500A6
:100320004157423A2065786974206D656E750041C9
:1003300057423A206261636B20746F206D656E7561
:100340000050616972696E673A206261636B207464
:100350006F206D656E750050616972696E67206D02
:100360006F64653A2073746F702070726573736583
:1003700064005570646174653A2065786974206D15
:10038000656E75005570646174653A20636F6E66C2
:1003900069726D005570646174653A206E65787499
:1003A000005570646174653A20707265760055700E
:1003B000646174653A206261636B20746F206D65BF
:1003C0006E75004D656E753A2065786974004D65EF
:1003D0006E753A20656E746572696E672069746522
:1003E0006D20004D656E753A2073656C65637465AC
:1003F00064206974656D20004D656E753A207365E3
:100400006C6563746564206974656D200020746F89
:1004100020004D656E753A20627574746F6E2063AE
:1004200068616E6765642066726F6D200046696C56
:100430006D20656E64656420647572696E67206303
:100440006F6E74696E756F75732072756E202D20D6
:1004500073746F7070696E670046696C6D20656EAD
:1004600064656420647572696E6720636F6E746979
:100470006E756F75732072756E202D2073746F709A
:1004800070696E67004E6577204578706F7375727E
:10049000652053657474696E673A20004D6F746F00
:1004A000723A203E3E2061742053706565642000DE
:1004B0004D6F746F72206E6F742073746F707065FF
:1004C000642E003E20617420537065656420004DE9
:1004D0006F746F72206E6F742073746F70706564C8
:1004E0002E003C20617420537065656420004D6FC0
:1004F000746F723A203C3C206174205370656564CF
:10050000200053544F503A2069676E6F72696E67CE
:1005100020286C6F6E672D70726573732074696D1F
:10052000696E67290046696C6D20656A6563742091
:10053000636F6D706C6574650045787472612066D8
:1005400072616D657320646F6E65202D2073746F0A
:100550007070696E67207363616E2C20656A6563D5
:1005600074696E672066696C6D0046696C6D206504
:100570006E646564202D207363616E6E696E672002
:100580003235206578747261206672616D65730022
:1005900050616972696E67206D6F64653A2073748B
:1005A0006F70207072657373656400206D7320280E
:1005B000746F6F2073686F727429004D656E753AA1
:1005C0002053544F502072656C65617365642061DF
:1005D0006674657220004D656E753A20656E7465AF
:1005E0007220286C6F6E672070726573732053548D
:1005F0004F5029004D656E753A2053544F5020627C
:100600007574746F6E20707265737365642C2074DA
:10061000696D696E672E2E2E0000000000240027F1
:10062000002A0000000000250028002B0000000028
:100630000023002600290004040404040404040226
:10064000020202020203030303030301020408106F
:10065000204080010204081020010204081020003C
:100660000000080002010000030407000000000071
:1006700000000000A50C11241FBECFEFD8E0DEBFA4
:10068000CDBF11E0A0E0B1E0E6EEFCE202C00590D3
:100690000D92AA35B107D9F722E0AAE5B1E001C071
:1006A0001D92AD3EB207E1F713E0CBE3D3E004C007
:1006B0002197FE010E944816CA33D107C9F70E944C
:1006C000DE0C0C9471160C940000833081F028F439
:1006D000813099F08230A9F008958730A9F08830F0
:1006E000C9F08430B1F4809180008F7D03C0809187
:1006F00080008F7780938000089584B58F7784BDC4
:10070000089584B58F7DFBCF8091B0008F77809363
:10071000B00008958091B0008F7DF9CFCF93DF9323
:10072000E2E6F6E08491EEE4F6E0D491EAE3F6E066
:10073000C491CC23A1F081110E946503EC2FF0E05D
:10074000EE0FFF1FE35DF94FA591B491EC91ED23FE
:1007500081E090E009F480E0DF91CF91089580E09E
:1007600090E0FACF1F93CF93DF93282F30E0F90169
:10077000E15AF94F8491F901E55BF94FD491F90100
:10078000E95CF94FC491CC23A9F0162F81110E9486
:100790006503EC2FF0E0EE0FFF1FED5DF94FA59123
:1007A000B4918FB7F894EC91111108C0D095DE2365
:1007B000DC938FBFDF91CF911F910895DE2BF8CF8F
:1007C000CF93DF9390E0FC01E55BF94F2491895CC6
:1007D000994FFC0184918823D1F090E0880F991FF4
:1007E000FC01E75EF94FA591B491FC01ED5DF94F75
:1007F000C591D49161110EC09FB7F8948C91E22FEE
:10080000E0958E238C932881E223E8839FBFDF91BC
:10081000CF9108958FB7F894EC91E22BEC938FBFB2
:10082000F6CF1F93CF93DF93182FEB0161E00E9467
:10083000E003209739F460E0812FDF91CF911F9181
:100840000C94B203CF3FD10511F461E0F5CFE12F55
:10085000F0E0E15AF94FE491E33031F140F4E13056
:10086000B1F0E230E1F0C038D1057CF7E4CFE730F9
:1008700029F1E83059F1E430B1F7809180008062CD
:1008800080938000D0938B00C0938A0004C084B50D
:10089000806884BDC7BDDF91CF911F91089584B555
:1008A000806284BDC8BDF7CF80918000806880934E
:1008B0008000D0938900C0938800EDCF8091B00074
:1008C00080688093B000C093B300E5CF8091B00002
:1008D00080628093B000C093B400DDCF8E508064FE
:1008E00080937C0080917A00806480937A0080916C
:1008F0007A0086FDFCCF8091780090917900089570
:100900003FB7F8948091400290914102A091420239
:10091000B091430226B5A89B05C02F3F19F0019660
:10092000A11DB11D3FBFBA2FA92F982F8827BC0149
:10093000CD01620F711D811D911D43E0660F771F70
:10094000881F991F4A95D1F708958F929F92AF9271
:10095000BF92CF92DF92EF92FF924B015C010E9417
:1009600080046B017C010E9480046C197D098E0952
:100970009F09683E734081059105A8F321E0821A22
:100980009108A108B10888EEC80E83E0D81EE11CCA
:10099000F11C81149104A104B10429F7FF90EF9098
:1009A000DF90CF90BF90AF909F908F9008952FB71A
:1009B000F89460913C0270913D0280913E029091CA
:1009C0003F022FBF0895089510922E0210922D021B
:1009D000109205021092060210920702109208026D
:1009E00010922C0261E086E00E94B20361E085E093
:1009F0000C94B203E091F601F091F701309729F0E1
:100A00001092F1011092F00109940895CF93DF93B1
:100A1000AC01E091F401F091F5013097F1F0909183
:100A2000F3018091F2019817C0F090E0292F30E097
:100A30002617370754F4D901A45ABE4F240F351F87
:100A4000E90128812C939F5FF1CF1092F30160930D
:100A5000F201CB01DF91CF910994DF91CF910895FD
:100A6000AF92BF92CF92DF92EF92FF920F931F93BC
:100A7000CF93DF936C017B018B01040F151FEB01FA
:100A80005E01AE18BF08C017D10759F06991D601B1
:100A9000ED91FC910190F081E02DC6010995892B23
:100AA00079F7C501DF91CF911F910F91FF90EF90E2
:100AB000DF90CF90BF90AF900895FC01538D448D8F
:100AC000252F30E0842F90E0821B930B541710F0F9
:100AD000CF96089501970895FC01918D828D981706
:100AE00061F0A28DAE0FBF2FB11D5D968C91928DDE
:100AF0009F5F9F73928F90E008958FEF9FEF08950F
:100B0000FC01918D828D981731F0828DE80FF11DD7
:100B1000858D90E008958FEF9FEF0895FC01918DF2
:100B2000228D892F90E0805C9F4F821B91098F73EB
:100B30009927089584E492E00E948E0521E0892B94
:100B400009F420E0822F089580E090E0892B29F0BD
:100B50000E949A0581110C9400000895FC01A48D57
:100B6000A80FB92FB11DA35ABF4F2C91848D90E0CF
:100B700001968F739927848FA689B7892C93A089B2
:100B8000B1898C91837080648C93938D848D98133C
:100B900006C00288F389E02D80818F7D80830895CF
:100BA000EF92FF920F931F93CF93DF93EC0181E0BD
:100BB000888F9B8D8C8D98131AC0E889F989808164
:100BC00085FF15C09FB7F894EE89FF896083E88997
:100BD000F98980818370806480839FBF81E090E089
:100BE000DF91CF911F910F91FF90EF900895F62E16
:100BF0000B8D10E00F5F1F4F0F731127E02E8C8DB0
:100C00008E110CC00FB607FCFACFE889F9898081F4
:100C100085FFF5CFCE010E94AE05F1CFEB8DEC0F35
:100C2000FD2FF11DE35AFF4FF0829FB7F8940B8F11
:100C3000EA89FB8980818062CFCF0F931F93CF9386
:100C4000DF938C01D0E0C0E0F801EC0FFD1F649150
:100C5000662341F084E492E00E94D005892B11F0D4
:100C60002196F2CFCE01DF91CF911F910F91089580
:100C7000CF93DF93EC01888D8823B9F0AA89BB89D3
:100C8000E889F9898C9185FD03C0808186FD0DC0BE
:100C90000FB607FCF7CF8C9185FFF2CF808185FFDF
:100CA000EDCFCE010E94AE05E9CFDF91CF9108953F
:100CB0002091A201260F3327331F21323105ECF496
:100CC0002091C601FC0190E080E0243069F082E0D0
:100CD0000895A091A2012191AC014E575E4FA40F3F
:100CE000B52FB11D2C930196861798F38091A20120
:100CF000680F6093A20180E0089581E0089510924A
:100D0000C60181E08093C8011092C70161E082E1D1
:100D10000E94B20361E083E10E94B203E9EBF0E0DC
:100D200080818E7F808380818D7F808380E280932D
:100D3000B80085E48093BC0008950895E091F30124
:100D40008091F201E81730F4F0E0E45AFE4F808120
:100D500090E008958FEF9FEF08959091F3018091B7
:100D6000F2012FEF3FEF981748F4E92FF0E0E45A33
:100D7000FE4F208130E09F5F9093F301C9010895F9
:100D80008091F2019091F301891B990B0895CF9303
:100D9000DF93CB01EA01642F0E945806CE01DF9158
:100DA000CF910895CF93DF931F92CDB7DEB76983BC
:100DB00061E0CE0101960E94580681E090E00F901C
:100DC000DF91CF91089590E080E008950F931F93F5
:100DD000CF93DF938EE00E946E048EE00E946E043B
:100DE0008C018FE00E946E048FE00E946E04EC0183
:100DF0006AE070E080E090E00E94A50420915A0132
:100E0000222369F1023011052CF490E080E0C23019
:100E1000D10574F1C8014F978732910508F444C099
:100E20008A5591098732910550F18A5A910987971D
:100E300048F10F3D83E0180744F5CE014F97873204
:100E4000910530F18A5591098732910520F18A5A2E
:100E50009109879718F1CF3D83E0D80714F590E00A
:100E600080E0023011051CF421E022970CF020E014
:100E700020935A01DF91CF911F910F91089583E044
:100E800090E0EFCF81E090E0ECCF82E090E0E9CF1E
:100E900088E090E0E6CF87E090E0E3CF86E090E066
:100EA000E0CF85E090E0DDCF84E090E0E0CF8F926E
:100EB0009F92AF92BF920F931F93CF93DF93CDB7C3
:100EC000DEB7A1970FB6F894DEBF0FBECDBF19A253
:100ED000423008F44AE08E010F5D1F4F842E912CA2
:100EE000B12CA12CA50194010E940316E62FB90193
:100EF000CA01EA3044F5E05DD801EE938D01232B61
:100F0000242B252B79F790E080E0109769F0FD0104
:100F100001900020E9F73197AF014A1B5B0BBD013F
:100F200084E492E00E943005A1960FB6F894DEBFEB
:100F30000FBECDBFDF91CF911F910F91BF90AF90AA
:100F40009F908F900895E95CD7CF42E050E067E52D
:100F500071E084E492E00C943005CF93DF930E941B
:100F60001D06EC010E94A5078C0F9D1FDF91CF91FC
:100F700008950F931F93CF93DF93C0912402D091D4
:100F800025026C2F81EE92E00E94D2068091200211
:100F90008823A9F00E94D70400911C0210911D0221
:100FA00020911E0230911F02601B710B820B930B6C
:100FB000693873418105910510F010922002CB3001
:100FC000D105E1F480EC91E00E94AD0742E050E0F1
:100FD00061E072E081EE92E00E94C70680912002FB
:100FE0008823F1F0C631D105D9F4D0932502C093FE
:100FF0002402DF91CF911F910F910895CE30D1053A
:1010000069F742E050E061E072E081EE92E00E9418
:10101000C70660915B0181EE92E00E94D206DECFAE
:10102000639769F48091300290913102892B39F4F1
:1010300089E290E09093250280932402DACF109207
:10104000250210922402D5CF10922E0210922D026A
:1010500010920502109206021092070210920802E6
:1010600010922C0288E690E00E94AD0761E086E0D5
:101070000E94B20361E085E00C94B203CF92DF924C
:10108000EF92FF92CF93DF936C01990FEE08FF0868
:10109000F7FE19C06DE284E492E00E94D005EC01F5
:1010A00066277727CB016C197D098E099F094AE0D5
:1010B0000E9457078C0F9D1FDF91CF91FF90EF90FB
:1010C000DF90CF9008954AE0C701B601DF91CF913C
:1010D000FF90EF90DF90CF900C945707CF93DF9362
:1010E0000E943E08EC010E94A5078C0F9D1FDF9116
:1010F000CF910895CF93DF9320910A0230910B0294
:101100002817390721F1EC01892B19F081E00E94A1
:10111000AA08D0930B02C0930A028DEA90E00E94C5
:101120001D06CE010E943E0884E990E00E941D0643
:1011300080910A0290910B02892B31F08DE890E0AA
:10114000DF91CF910C94AD0780E990E0F9CFDF916A
:10115000CF910895CF9390910902981721F1C82F4C
:10116000811104C090E080E00E947A08C0930902D7
:1011700081E890E00E941D068C2F90E00E946E088E
:1011800080910902882349F061E088E00E94B2035F
:1011900061E089E0CF910C94B20360E088E00E94A6
:1011A000B20360E0F6CFCF910895CF93DF93682F1D
:1011B00070E090E080E04AE00E945707EC010E9456
:1011C000A5078C0F9D1FDF91CF910895CF93892B99
:1011D000E1F09091F2018091F301981731F081EEE6
:1011E00092E00E94AD06282FF4CF253181F41092B1
:1011F000230281E090E090933102809330021092BC
:1012000025021092240210922002CF9108952831D5
:1012100069F41092220281E090E090933102809371
:1012200030021092250210922402EFCF233889F465
:101230001092210281E090E090933102809330027D
:10124000109225021092240281EB91E00E94AD07DA
:10125000DCCF243879F41092F90181E090E090938A
:1012600031028093300210922502109224028FE9FD
:1012700091E0ECCF263879F41092F80181E090E00B
:101280009093310280933002109225021092240232
:101290008FE891E0DBCF2538C9F58091300290913D
:1012A0003102892B51F481E090E0909331028093D8
:1012B00030028EE691E00E94AD0781E08093F90153
:1012C00085E090E0909331028093300210922502E5
:1012D000109224020E94E606909335028093340215
:1012E000909333028093320282E491E00E941D06C3
:1012F00085E090E00E943E0884E391E00E941D0694
:101300008091F90190E0CF910C946E08293251F54B
:1013100080913002909131020297C8F081E090E014
:10132000909331028093300210923A02109223027D
:10133000109221021092F9011092220210922502BD
:101340001092240287E191E0CF910C94AD071092A6
:10135000310210923002109225021092240282E093
:1013600091E0F2CF273881F480912F02882309F48D
:101370004CCF10922F0210921202809104020E9410
:10138000AA088EEE90E0E0CF203849F480912F0239
:10139000882309F43ACF81E08093120236CF2138B6
:1013A00009F033CF0E948E03C82F80935B0184E144
:1013B0000E946E0484E10E946E0490930202809366
:1013C000010284ED90E00E941D068C2F0E94D5083A
:1013D00089EB90E00E941D0680910102909102022B
:1013E0000E946E088EE090E0909325028093240284
:1013F0000CCF81E080932C028CBB84EE94E0909320
:10140000030180930201E9E6F0E080818C7F826035
:101410008083E89A60910C0270E086E00E941104DB
:1014200070E060E085E00C941104CF93DF9385EDCC
:101430008093BC0080917E0190917F01A0918001FA
:10144000B09181010796A11DB11D23E0B695A79526
:10145000979587952A95D1F72091BC0024FD03C06C
:101460001092C60136C040917E0150917F0160917B
:10147000800170918101452B462B472B69F3009722
:10148000A105B10541F025E12A95F1F7000001978A
:10149000A109B109E1CF80917D0191E090937C0198
:1014A0008823B9F0C091B800D091BA008091BC00F7
:1014B0008A7B8093BC0060E082E10E94B20360E01E
:1014C00083E10E94B2030E947F06D093BA00C093CA
:1014D000B800DF91CF9108951F920F920FB60F922F
:1014E00011242F933F938F939F93AF93BF9380913A
:1014F0003C0290913D02A0913E02B0913F0230919A
:101500003B0226E0230F2D3758F50296A11DB11D91
:1015100020933B0280933C0290933D02A0933E02B5
:10152000B0933F028091400290914102A09142020B
:10153000B09143020196A11DB11D8093400290938A
:101540004102A0934202B0934302BF91AF919F9199
:101550008F913F912F910F900FBE0F901F90189574
:1015600029E8230F0396A11DB11DD2CF1F920F9220
:101570000FB60F9211242F933F934F935F936F9366
:101580007F938F939F93AF93BF93EF93FF93E091DC
:101590000401F09105010995FF91EF91BF91AF9181
:1015A0009F918F917F916F915F914F913F912F917B
:1015B0000F900FBE0F901F9018951F920F920FB6AD
:1015C0000F9211242F933F934F935F936F937F93C9
:1015D0008F939F93AF93BF93EF93FF93E09102019B
:1015E000F09103010995FF91EF91BF91AF919F9108
:1015F0008F917F916F915F914F913F912F910F90BC
:101600000FBE0F901F9018951F920F920FB60F925A
:1016100011242F933F934F935F936F937F938F93F7
:101620009F93AF93BF93EF93FF9384E492E00E9464
:10163000AE05FF91EF91BF91AF919F918F917F91F7
:101640006F915F914F913F912F910F900FBE0F902F
:101650001F9018951F920F920FB60F9211242F937F
:101660008F939F93EF93FF93E0915402F091550273
:101670008081E0915A02F0915B0282FD1BC0908153
:1016800080915D028F5F8F7320915E02821741F01F
:10169000E0915D02F0E0EC5BFD4F958F80935D0281
:1016A000FF91EF919F918F912F910F900FBE0F900F
:1016B0001F9018958081F4CF1F920F920FB60F9252
:1016C00011242F933F934F935F936F937F938F9347
:1016D0009F93AF93BF93EF93FF938091B900887F5F
:1016E000803609F44AC0F0F5883209F4A7C018F52D
:1016F000803109F49BC0B8F4882309F4F9C088301C
:1017000009F494C0FF91EF91BF91AF919F918F9198
:101710007F916F915F914F913F912F910F900FBEED
:101720000F901F901895883109F488C0803251F7C6
:101730008093C50114C0803409F49DC040F4803307
:10174000B9F38833F9F68093C50185ECB0C08035D4
:1017500009F485C0883509F496C0883499F60E944A
:10176000150AD0CF883909F48CC038F5883729F0AC
:1017700050F4883611F0803729F683E08093C60153
:101780001092C40157C0883809F47BC0803919F021
:10179000803809F0B7CF8091C401803208F071C061
:1017A000E091C40181E08E0F8093C4018091BB0061
:1017B000F0E0EC55FE4F80833DC0803B39F0E0F413
:1017C000803A09F479C0883A09F09CCF84E080938C
:1017D000C6011092A3011092A201E091EE01F091D6
:1017E000EF0109958091A20181110FC081E08093E2
:1017F000A2011092820109C0803C09F4A6CF883C66
:1018000009F4A3CF883B09F07DCFE091A30181E0EB
:101810008E0F8093A301F0E0EE57FE4F80818093FE
:10182000BB009091A3018091A20129C08091EB019E
:101830008093BB0085EC8093BC0064CF9091EA015B
:101840008091E901981758F5E091EA0181E08E0F47
:101850008093EA01F0E0E753FE4F8081E9CFE09109
:10186000EA0181E08E0F8093EA018091BB00F0E0F5
:10187000E753FE4F80839091EA018091E901981728
:10188000C8F285E8D8CFE091EA0181E08E0F80931D
:10189000EA018091BB00F0E0E753FE4F8083809126
:1018A000C80181115CCF81E08093C70184EA8093F5
:1018B000BC001092C60126CF85EC8093BC0010922C
:1018C000C6018091C401803230F4E091C401F0E09F
:1018D000EC55FE4F10826091C40170E0E091EC0184
:1018E000F091ED0184EA91E009951092C4010ACFCC
:1018F0001092C50134CF0E94240884E790E00E9432
:10190000AD076AEF70E080E090E00C94A5041092BF
:101910002F021092120210921702109213021092CC
:10192000140210921502109216021092110280E019
:101930000E94AA0810920B0210920A028AE090E01C
:1019400090932502809324020895E4E4F2E0138248
:10195000128288EE93E0A0E0B0E084839583A683B2
:10196000B78327E331E03183208325EC30E03587EE
:10197000248724EC30E03787268720EC30E0318B59
:10198000208B21EC30E0338B228B22EC30E0358B46
:10199000248B26EC30E0378B268B118E128E138E23
:1019A000148EE1EEF2E01382128284839583A68383
:1019B000B78389E491E0918380830895CF93DF9387
:1019C000CDB7DEB72F970FB6F894DEBF0FBECDBFF1
:1019D000789484B5826084BD84B5816084BD85B50A
:1019E000826085BD85B5816085BD80916E00816016
:1019F00080936E00109281008091810082608093BC
:101A000081008091810081608093810080918000BD
:101A10008160809380008091B10084608093B100E8
:101A20008091B00081608093B00080917A008460E2
:101A300080937A0080917A00826080937A0080910E
:101A40007A008E7F80937A0080917A0080688093FC
:101A50007A001092C100F4B614BE61E089E00E94E1
:101A6000E00360E089E00E94B203E0915402F0914B
:101A7000550282E08083E0915002F0915102108281
:101A8000E0915202F091530288E0808310925C0250
:101A9000E0915802F091590286E08083E09156026D
:101AA000F0915702808180618083E0915602F0912D
:101AB0005702808188608083E0915602F09157023E
:101AC000808180688083E0915602F0915702808186
:101AD0008F7D808386E192E00E941D066F2D70E06D
:101AE00090E080E040E10E9457078FE092E00E9482
:101AF0001D068F2D817090E00E943E0887E092E0E5
:101B00000E941D06F1FA882780F990E00E943E08A5
:101B100080E092E00E941D06F2FA882780F990E0AA
:101B20000E943E0889EF91E00E941D06F3FA882783
:101B300080F990E00E946E0860E08EE00E94E00371
:101B400060E08FE00E94E00360E080E10E94E0033B
:101B500060E081E10E94E00360E084E10E94E00334
:101B600061E088E00E94E00361E086E00E94E0031B
:101B700061E085E00E94E00360E082E00E94E00313
:101B800060E083E00E94E00360E085E10E94E00302
:101B90000E948E0321E0892B09F420E020930002AB
:101BA0002093FF010E94D704605E7C4F8F4F9F4FB0
:101BB0006093360270933702809338029093390213
:101BC00070E060E086E00E94110470E060E085E073
:101BD0000E94110460E088E00E94B20360E089E0A6
:101BE0000E94B2031092F3011092F2011092F101DF
:101BF0001092F0010E947F068AEF94E09093EF012B
:101C00008093EE0186E095E09093ED018093EC01E6
:101C100084E58093BA0086EE98E09093F501809376
:101C2000F40189EB97E09093F7018093F60184E14A
:101C30000E946E0485E10E946E048C017C016C019F
:101C400047E0A42EB12C85E10E946E0485E10E943C
:101C50006E04080F191F8C159D050CF46C01E81615
:101C6000F9060CF47C0121E0A21AB10861F717FF14
:101C700002C0095F1F4F33E0159507953A95E1F7CC
:101C8000EC18FD0839E7E316F104CCF187EE91E09A
:101C90000E94AD0788248A9493E0992EA12CB12C40
:101CA00023E1622E712CEE24E394F12C50903A0241
:101CB000511053C00E94D704009136021091370290
:101CC000209138023091390260177107820793071B
:101CD00008F043C00E94E6069093350280933402D8
:101CE000909333028093320280E090E0892BF1F2EE
:101CF0000E949A058823B9F20E940000D4CF8FE099
:101D0000E6E0F1E0DE01119601900D928A95E1F78F
:101D1000E7E1F1E090E080E07C012FEFE21AF20AC7
:101D2000219131910217130714F07C0104C0C701FF
:101D30008E30910589F781EE91E00E941D06E1E069
:101D4000F0E0EC0FFD1FEE0DFF1D608184E492E0DA
:101D50000E94D0050E94A5079DCFC0903002D09070
:101D60003102C114D10409F427C30E94E6068C0194
:101D7000909335028093340231E0C316D10409F008
:101D8000E4C0C0903202D09033028C159D0509F456
:101D9000ABCF82E194E00E941D06C6010E943E087E
:101DA0008DE094E00E941D068091340290913502EE
:101DB0000E946E0880913402909135029093330214
:101DC0008093320284309105A1F190F4039709F0D9
:101DD0008BCF109231021092300289E290E0909302
:101DE00025028093240283EC93E00E94AD077CCF10
:101DF00086309105B9F1079709F076CF8EEC93E024
:101E00000E941D06809126020E94D508E0912602BC
:101E10008CE290E0E73008F044C0F0E0EE5EF04F76
:101E20000C944816460F560F6C0F780F840F900FC6
:101E30009C0F8091260290E0069667E070E00E9479
:101E40003416182F809326028AE290E090932502A0
:101E50008093240288EF93E00E941D06812F0E9448
:101E6000D50842CF8091260290E0019667E070E0AD
:101E70000E943416182F809326028BE290E09093F4
:101E800025028093240283EE93E0E6CF82E090E087
:101E9000909331028093300281E080933A028FE088
:101EA00090E090932502809324021ECF83E090E07F
:101EB000909331028093300281E0809323020E944C
:101EC000D704609318027093190280931A029093BA
:101ED0001B0284E190E0E5CF84E090E09093310232
:101EE0008093300281E0809321028EE190E0D9CF8F
:101EF00085E090E0909331028093300281E08093FE
:101F0000F90183E290E0CDCF86E090E0909331023A
:101F10008093300281E08093F8018DE290E0C1CFA0
:101F200087E090E0909331028093300281E08093CB
:101F3000220287E190E0B5CF88E090E090933102F3
:101F40008093300289E190E0ACCF552009F453C072
:101F500080913202909133020817190709F4C4CE18
:101F6000109333020093320205301105B9F180F469
:101F700003301105E9F00430110509F0B5CE80E118
:101F800090E0909325028093240281EA93E02DCF84
:101F900006301105D1F00730110509F0A5CE82E118
:101FA00090E0909325028093240284E893E01DCF73
:101FB000F0923102E092300210923A0270922502C1
:101FC000609224028EEA93E010CF21E130E030935A
:101FD00025022093240284E993E007CF1092310276
:101FE0001092300210923A027092250260922402FE
:101FF00082E793E0FACE80912302882309F457C048
:102000008FE00E946E048FE00E946E048F3D93402B
:102010001CF405301105D1F487E593E00E94AD076B
:10202000F0923102E09230021092230281E080931C
:1020300020020E94D70460931C0270931D028093BB
:102040001E0290931F0286E190E02BCF0330110512
:1020500079F4F0923102E09230021092230226E1EC
:1020600030E0309325022093240281E493E0BDCE3A
:102070000E94D704009118021091190220911A02AF
:1020800030911B02601B710B820B930B613D7B4FE8
:102090008140910508F428CEF0923102E09230029E
:1020A0001092230210922502109224021DCE8091DC
:1020B0002102882309F445C08091320290913302B5
:1020C0000817190709F410CE109333020093320257
:1020D0000530110539F150F40330110589F0043051
:1020E000110509F001CE8FE190E0DBCE063011053D
:1020F000B1F00730110509F0F7CD81E290E0D1CEC3
:10210000F0923102E09230021092210282E290E0DD
:1021100090932502809324028FE293E066CE80E2C2
:1021200090E0BFCE10923102109230021092210244
:1021300022E230E0309325022093240280E293E0F3
:1021400054CE8091F901882309F457C0809132025E
:10215000909133020817190709F4C6CD1093330282
:102160000093320205301105C9F180F403301105E6
:10217000E9F00430110509F0B7CD84E290E09093C6
:102180002502809324028EEF92E02FCE06301105B7
:10219000E1F00730110509F0A7CD86E290E09093B9
:1021A00025028093240281EE92E01FCEF09231024C
:1021B000E09230021092F90187E290E090932502BC
:1021C000809324028BE093E010CE85E290E0909320
:1021D00025028093240281EF92E007CE1092310213
:1021E000109230021092F90187E290E0909325025C
:1021F000809324028FEC92E0F8CD8091F80188233F
:1022000009F457C0809132029091330208171907E0
:1022100009F46ACD109333020093320205301105A0
:10222000C9F180F403301105E9F00430110509F01B
:102230005BCD8EE290E0909325028093240281EBA7
:1022400092E0D3CD06301105E1F00730110509F019
:102250004BCD80E390E0909325028093240288E99F
:1022600092E0C3CDF0923102E09230021092F80178
:1022700081E390E090932502809324028CEB92E01E
:10228000B4CD8FE290E0909325028093240286EAF9
:1022900092E0ABCD10923102109230021092F80110
:1022A00081E390E0909325028093240288E892E0F5
:1022B0009CCD80912202882339F10E94E6069093FA
:1022C000350280933402209132023091330282171A
:1022D000930709F409CD909333028093320283303F
:1022E000910519F0059709F0FFCCF0923102E092C8
:1022F00030021092220288E190E0909325028093B0
:10230000240285E792E071CD38E0C316D10409F0CC
:10231000EBCC80913202909133020817190709F42F
:10232000E3CC109333020093320205301105B9F16A
:1023300080F40330110531F10430110509F0D4CCDB
:102340008AE190E0909325028093240288E692E04F
:102350004CCD0630110569F00730110509F0C4CCE9
:102360008CE190E090932502809324028BE492E02C
:102370003CCD8BE190E090932502809324028BE585
:1023800092E033CDF0923102E09230028DE190E0A4
:10239000909325028093240286E392E026CD10924A
:1023A0003102109230028DE190E0909325028093EB
:1023B000240284E292E019CD80912F0281110BC09A
:1023C00080912D0290912E02892B29F480912C026C
:1023D000882309F4EFC010922B0280912302909180
:1023E0003A029111B2C3811159C180912202811127
:1023F000C8C3809121028111C4C380912002811140
:1024000073CC0E94E606909335028093340280914B
:1024100017028823E9F180912C02811139C0809143
:10242000130290911402A0911502B0911602892B0B
:102430008A2B8B2B51F40E94D70460931302709364
:10244000140280931502909316020E94D704009103
:102450001302109114022091150230911602601B94
:10246000710B820B930B6E3171058105910580F024
:102470001092170210921302109214021092150279
:102480001092160285E090E090932502809324023A
:1024900080912F02882309F1809112028823E9F0AC
:1024A00080912C02811119C080911702811115C0F1
:1024B0008091240290912502892B79F410921202C6
:1024C00080911102882309F440C11092110285E025
:1024D00090E0909325028093240280910E0288233D
:1024E00061F090912C02911108C0815080930E02EE
:1024F000882309F45EC10E94F90981E10E946E04FB
:1025000081E10E946E049C01A5E6BFEF0E944E1679
:10251000A50194010E94E41521503F4F4F4F5F4F9A
:1025200020930D0280E10E946E0480E10E946E04FF
:102530009C01A5E6BFEF0E944E16A50194010E94E2
:10254000E41519012A018FEF280E311C411C511C82
:1025500020920C02E0913402F091350280912F021A
:102560002091320230913302E217F30709F426C2B8
:10257000F0933302E0933202882309F41FC13597A8
:1025800049F490912B0291112DC1882309F427C1A0
:102590000E94870C00912D0210912E02013011052E
:1025A00009F0CEC260910D0270E0809103020E949A
:1025B00011049ACB8FE00E946E048FE00E946E049B
:1025C00020912B028F3D93400CF441C0211112C089
:1025D00081E080932B020E94D704609327027093BE
:1025E00028028093290290932A0284EF95E00E94AA
:1025F000AD07F3CE0E94D704009127021091280264
:102600002091290230912A02601B710B820B930BDF
:10261000683B7B408105910508F4DFCEF0923102E2
:10262000E09230021092260210922B021092330296
:1026300010923202109235021092340288E290E039
:10264000909325028093240286ED95E0CECB222341
:1026500009F4C3CE0E94D7040091270210912802EA
:102660002091290230912A021B012C01201A310AE3
:10267000420A530A8BEB95E00E941D064AE0C20114
:10268000B1010E9457078BEA95E00E94AD071092B6
:102690002B0210923302109232029FCE8FE00E94E2
:1026A0006E048FE00E946E048C010E94E6069093F7
:1026B0003502809334020F3D134014F4059729F43A
:1026C00080E995E00E94AD07AFCC0E94D70400914D
:1026D00018021091190220911A0230911B02601BFE
:1026E000710B820B930B613D7B4F8140910508F488
:1026F000FBCAD6CC8730910569F0089709F041C232
:1027000082E190E002C080E190E090932502809306
:10271000240237C221E130E03093250220932402C5
:1027200030C270922502609224022BC2873091053C
:1027300009F4F5CC089709F4E0CCD6CA22E230E0DF
:102740003093250220932402CFCA0E948E03209149
:102750001002892B29F5211135C280910F028F5F5C
:1027600080930F028330F8F089E1809310028AE6AB
:1027700095E00E94AD07809110028823A1F081505E
:102780008093100281110FC089E395E00E94AD078C
:102790000E94870C8FE080930E020E94F9099DCE63
:1027A00010920F02E8CF0E94F90981E0809317028E
:1027B00094CE85E295E00E94AD079FCE3197E83038
:1027C000F10508F0E7CEE951FC4E0C944816F713DA
:1027D00010141B144714C11274148B14C3140E94D8
:1027E0002408D8CE82E095E00E94AD07D3CE809138
:1027F0000A0290910B028230910579F09927019697
:102800000E947A0880910A0290910B029927029601
:102810009093250280932402BDCE90E080E0F0CF1B
:102820009091090281E089270E94AA0880910902FB
:1028300090E00696EDCF80912D0290912E020197A7
:1028400011F40E947B0C8FEF9FEF90932E028093E8
:102850002D028EEE94E00E941D0680910D020E94D2
:10286000D508E89883EE94E09093030180930201E9
:1028700085E08093030270E060E086E00E9411042E
:1028800060910D0270E085E00E94110483CE80917A
:102890002D0290912E02892B21F580912C0281111D
:1028A00020C082EE94E00E941D06822D0E94D50871
:1028B00081E080932C028CBB84EE94E09093030122
:1028C00080930201809169008C7F8260809369000F
:1028D000E89A70E060E086E00E94110460910C02CA
:1028E000D1CF8FEC94E080CF80912D0290912E0279
:1028F000892B71F480912C0281110AC083EC94E041
:102900000E941D06822D0E94D5080E94F90942CE20
:1029100080EB94E069CF80912D0290912E02019678
:1029200011F40E947B0CF0922E02E0922D020E9484
:102930008E03019721F50E94D704609305027093DE
:10294000060280930702909308028CE994E00E94AB
:102950001D0680910D020E94D508E89883EE94E050
:10296000909303018093020186E0809303026091BB
:102970000D0270E00E94110470E060E084CF60E01E
:1029800070E0CB01DACF809109028093040281E0EC
:1029900080932F028093110210921702109210025E
:1029A00010920F0210920E0289E090E0909325029F
:1029B0008093240281E00E94AA08ECCD8111EACD27
:1029C00084E10E946E0484E10E946E0484E10E940E
:1029D0006E042091000130910101281B390B37FF53
:1029E00003C031952195310928303105C4F0909309
:1029F000020280930102909301018093000185E817
:102A000094E00E941D0680910102909102020E94B2
:102A10006E082BE030E03093250220932402D09002
:102A20000002D092FF010E948E0321E0009709F47A
:102A300020E02093000200912D0210912E02892B9C
:102A400009F058C0DD2069F00E94D7046093FA01B4
:102A50007093FB018093FC019093FD0181E08093D2
:102A6000FE018091FE01882309F494CD0E94D704D1
:102A70002091FA013091FB014091FC015091FD0140
:102A8000621B730B840B950B643F714081059105AC
:102A900008F480CD0F3F100779F489E594E00E9497
:102AA000AD070E9424088CE090E09093250280936B
:102AB00024021092FE016ECD01301105A1F7209085
:102AC000050230900602409007025090080221143F
:102AD00031044104510439F30E94D7046219730987
:102AE000840995096033754781059105E0F28DE20F
:102AF00094E0D5CF1092FE0101301105F9F48091D8
:102B0000050290910602A0910702B0910802892B5C
:102B10008A2B8B2B51F40E94D7046093050270938B
:102B200006028093070290930802D1103BCD2DE05E
:102B300030E030932502209324022CCDDD20B9F320
:102B40000F3F1F4F09F0D0C82DCD8111A7CD0E9496
:102B5000E606909335028093340220913202309140
:102B600033028217930769F0909333028093320205
:102B70008530910509F4D5CD08F0BCCD039709F453
:102B8000C2CD80912102882309F4AEC80E94E606D6
:102B900090933502809334022091320230913302B7
:102BA0008217930709F4A0C89093330280933202EE
:102BB0008530910509F4C2CD08F0B8CD039709F42A
:102BC00092CA92C8822FDBCD052E97FB1EF400948B
:102BD0000E94FB1557FD07D00E94031607FC03D087
:102BE0004EF40C94FB1550954095309521953F4F30
:102BF0004F4F5F4F089590958095709561957F4FE9
:102C00008F4F9F4F0895A1E21A2EAA1BBB1BFD01F7
:102C10000DC0AA1FBB1FEE1FFF1FA217B307E407BB
:102C2000F50720F0A21BB30BE40BF50B661F771F13
:102C3000881F991F1A9469F76095709580959095F3
:102C40009B01AC01BD01CF010895A29FB001B39FCC
:102C5000C001A39F700D811D1124911DB29F700DA5
:102C6000811D1124911D089597FB072E16F40094E1
:102C700007D077FD09D00E945D1607FC05D03EF411
:102C8000909581959F4F0895709561957F4F089518
:102C9000EE0FFF1F0590F491E02D09940E94251678
:102CA000332312F48A1B9B0B0C9458160E94251692
:102CB000B7FF0895821B930B0895AA1BBB1B51E11C
:102CC00007C0AA1FBB1FA617B70710F0A61BB70B9C
:102CD000881F991F5A95A9F780959095BC01CD0141
:062CE0000895F894FFCFF7
:102CE6009CFFE304E30445464748494A4B4C4D4E96
:102CF6004F50515253CA03890348030703C602853E
:102D06000244020302C20181014001FF00BE007DB0
:102D1600003C0000000000D00530055D0538068E39
:102D2600056C05800500000000D206C706E3069D77
:0A2D360006C006AD069E060D0A0059
:00000001FF
