:100000000C94C6030C946A0C0C94430C0C94EE03F1
:100010000C94EE030C94EE030C94EE030C94EE039C
:100020000C94EE030C94EE030C94EE030C94EE038C
:100030000C94EE030C94EE030C94EE030C94EE037C
:100040000C94F90B0C94EE030C94B70C0C94910CDB
:100050000C94EE030C94EE030C94EE030C94EE035C
:100060000C94E90C0C94EE034D6F746F723A2053AC
:10007000746F70002842726965666C792E2E2E2985
:10008000004C616D70206D6F64653A2000696E00F0
:100090006F7574002E2054656C6C696E6720526118
:1000A00073706920746F207A6F6F6D20005A6F6FC4
:1000B0006D206D6F64653A200043757272656E74D1
:1000C000204578706F737572652053657474696E1E
:1000D000673A200043757272656E742046696C6DD4
:1000E000206C6F61642073746174653A20005363FF
:1000F000616E2072656A6563746564206279205060
:1001000069004D656E753A206578697420286672BD
:100110006F6D20506929004D656E753A20626163EC
:100120006B20746F206D61696E202866726F6D2080
:100130005069290057694669206D656E753A2065DA
:1001400078697400546172676574206D656E753AE4
:100150002065786974004C6174656E6379206D6503
:100160006E753A206578697400415742206D656E5E
:10017000753A20657869740053656E64696E67200E
:100180006E6577204578706F737572652054696D60
:10019000652076616C75652E005265762E200052C2
:1001A00065762E20442028666C6F6174696E67291D
:1001B0000020574452463D0020424F52463D002009
:1001C00045585452463D0020504F52463D00424F44
:1001D0004F54204D435553523D30780045455052C1
:1001E0004F4D3A206E6F2063616C696220646174C8
:1001F000612C207573696E672064656661756C7427
:10020000206D6F746F724D696E447574793D313035
:100210003000454550524F4D206D6F746F724D69DF
:100220006E44757479203D200043616C69623A2008
:10023000736176656420746F20454550524F4D00C0
:1002400043616C69623A206E6577206D6F746F72DE
:100250004D696E44757479203D200043616C69627C
:100260003A207374616C6C656420617420647574E9
:1002700079200043616C69623A206E6F20455945D0
:100280002070756C7365202D2061626F72746564D7
:10029000202866696C6D206C6F616465643F29007D
:1002A00043616C69623A207374617274696E67208D
:1002B0006D6F746F7220737765657000556E706135
:1002C00069723A2065786974206D656E7500556EA7
:1002D000706169723A206261636B20746F206D6592
:1002E0006E7500556E706169723A20636F6E666953
:1002F000726D00556E706169723A206E6578740097
:10030000556E706169723A2070726576004C6F6745
:10031000733A206261636B20746F206D656E7500A7
:10032000576946693A2065786974206D656E750075
:10033000576946693A20636F6E6669726D00576946
:1003400046693A206E65787400576946693A2070AC
:1003500072657600576946693A206261636B207462
:100360006F206D656E75005461726765743A206523
:10037000786974206D656E75005461726765743AB2
:1003800020636F6E6669726D005461726765743ABE
:10039000206E657874005461726765743A207072DB
:1003A0006576005461726765743A206261636B2000
:1003B000746F206D656E75004C6174656E63793A7B
:1003C0002065786974206D656E75004C6174656E8A
:1003D00063793A206261636B20746F206D656E757E
:1003E000004157423A2065786974206D656E75004A
:1003F0004157423A206261636B20746F206D656ED5
:10040000750050616972696E673A206261636B20A2
:10041000746F206D656E750050616972696E67203A
:100420006D6F64653A2073746F70207072657373BA
:100430006564005570646174653A2065786974205C
:100440006D656E75005570646174653A20636F6EFA
:100450006669726D005570646174653A206E6578E6
:1004600074005570646174653A2070726576005549
:1004700070646174653A206261636B20746F206DF3
:10048000656E75004D656E753A2065786974004D2E
:10049000656E753A20656E746572696E6720697461
:1004A000656D20004D656E753A2073656C656374EB
:1004B0006564206974656D20004D656E753A207322
:1004C000656C6563746564206974656D20002074D3
:1004D0006F20004D656E753A20627574746F6E20E2
:1004E0006368616E6765642066726F6D20004E659B
:1004F00077204578706F73757265205365747469E1
:100500006E673A200046696C6D20656E64656420F4
:10051000647572696E6720636F6E74696E756F754E
:10052000732072756E202D2073746F7070696E6702
:100530000046696C6D20656E64656420647572693F
:100540006E6720636F6E74696E756F757320727558
:100550006E202D2073746F7070696E67004D6F741C
:100560006F723A203E3E20617420537065656420AE
:10057000004D6F746F72206E6F742073746F7070A3
:1005800065642E003E206174205370656564200010
:100590004D6F746F72206E6F742073746F7070651E
:1005A000642E003C20617420537065656420004D0A
:1005B0006F746F723A203C3C206174205370656503
:1005C00064200053544F503A2069676E6F72696E11
:1005D0006720286C6F6E672D707265737320746965
:1005E0006D696E67290046696C6D20656A65637484
:1005F00020636F6D706C657465004578747261205E
:100600006672616D657320646F6E65202D20737452
:100610006F7070696E67207363616E2C20656A6508
:100620006374696E672066696C6D0046696C6D2045
:10063000656E646564202D207363616E6E696E67FC
:10064000203235206578747261206672616D657341
:1006500000206D732028746F6F2073686F72742987
:10066000004D656E753A2053544F502072656C658D
:100670006173656420616674657220004D656E75F6
:100680003A20656E74657220286C6F6E67207072F8
:100690006573732053544F5029004D656E753A2091
:1006A00053544F5020627574746F6E20707265736E
:1006B0007365642C2074696D696E672E2E2E002C74
:1006C000207461726765744D6F64653D005461729A
:1006D000676574206D656E753A2072652D656E7460
:1006E0006572202866726F6D205069292C206D6517
:1006F0006E7553746174653D005461726765743A38
:1007000020656E746572696E67206D656E75206D0B
:100710006F646520666972737400454550524F4D91
:10072000206261636B75703A2077697065640000C0
:10073000000000240027002A0000000000250028F7
:10074000002B000000000023002600290004040400
:10075000040404040402020202020203030303036A
:100760000301020408102040800102040810200147
:100770000204081020000000080002010000030429
:1007800007000000000000000000080E11241FBE3A
:10079000CFEFD8E0DEBFCDBF11E0A0E0B1E0E2E7EF
:1007A000F1E302C005900D92AC35B107D9F723E013
:1007B000ACE5B1E001C01D92A633B207E1F713E04A
:1007C000C6ECD3E004C02197FE010E949D18C53CF1
:1007D000D107C9F70E94410E0C94B7180C94000081
:1007E000E89888EF93E090930401809303010895C3
:1007F0000895833081F028F4813099F08230A9F097
:1008000008958730A9F08830C9F08430B1F4809120
:1008100080008F7D03C0809180008F77809380005F
:10082000089584B58F7784BD089584B58F7DFBCFFF
:100830008091B0008F778093B00008958091B000D0
:100840008F7DF9CFCF93DF93282F30E0F901EB585C
:10085000F84F8491F901EF59F84FD491F901E35B16
:10086000F84FC491CC23A1F081110E94F903EC2F21
:10087000F0E0EE0FFF1FED5BF84FA591B491EC9106
:10088000ED2381E090E009F480E0DF91CF910895BD
:1008900080E090E0FACF1F93CF93DF93282F30E0D2
:1008A000F901EB58F84F8491F901EF59F84FD491C1
:1008B000F901E35BF84FC491CC23A9F0162F811105
:1008C0000E94F903EC2FF0E0EE0FFF1FE75CF84FFA
:1008D000A591B4918FB7F894EC91111108C0D095FF
:1008E000DE23DC938FBFDF91CF911F910895DE2B24
:1008F000F8CFCF93DF9390E0FC01EF59F84F2491AC
:10090000835B984FFC0184918823D1F090E0880F9D
:10091000991FFC01E15DF84FA591B491FC01E75CE2
:10092000F84FC591D49161110EC09FB7F8948C9186
:10093000E22FE0958E238C932881E223E8839FBFEA
:10094000DF91CF9108958FB7F894EC91E22BEC935F
:100950008FBFF6CF1F93CF93DF93182FEB0161E08A
:100960000E947904209739F460E0812FDF91CF91C4
:100970001F910C944B04CF3FD10511F461E0F5CFEA
:10098000E12FF0E0EB58F84FE491E33031F140F41F
:10099000E130B1F0E230E1F0C038D1057CF7E4CFCE
:1009A000E73029F1E83059F1E430B1F78091800067
:1009B000806280938000D0938B00C0938A0004C033
:1009C00084B5806884BDC7BDDF91CF911F91089524
:1009D00084B5806284BDC8BDF7CF809180008068F7
:1009E00080938000D0938900C0938800EDCF8091E0
:1009F000B00080688093B000C093B300E5CF8091D1
:100A0000B00080628093B000C093B400DDCF8E5000
:100A1000806480937C0080917A00806480937A0067
:100A200080917A0086FDFCCF8091780090917900CA
:100A300008953FB7F8948091890290918A02A0911D
:100A40008B02B0918C0226B5A89B05C02F3F19F0F0
:100A50000196A11DB11D3FBFBA2FA92F982F88273E
:100A6000BC01CD01620F711D811D911D43E0660F18
:100A7000771F881F991F4A95D1F708958F929F92EB
:100A8000AF92BF92CF92DF92EF92FF926B017C0107
:100A90000E9419054B015C01C114D104E104F10469
:100AA000B9F00E941905681979098A099B09683EFD
:100AB00073408105910580F321E0C21AD108E10855
:100AC000F10888EE880E83E0981EA11CB11CE4CFCB
:100AD000FF90EF90DF90CF90BF90AF909F908F905E
:100AE0000895E091F901F091FA01309729F0109200
:100AF000F4011092F30109940895CF93DF93AC01B0
:100B0000E091F701F091F8013097F1F09091F60142
:100B10008091F5019817C0F090E0292F30E026175A
:100B2000370754F4D901A15ABE4F240F351FE901EC
:100B300028812C939F5FF1CF1092F6016093F5010D
:100B4000CB01DF91CF910994DF91CF910895AF92BE
:100B5000BF92CF92DF92EF92FF920F931F93CF93AA
:100B6000DF936C017B018B01040F151FEB015E010C
:100B7000AE18BF08C017D10759F06991D601ED91A1
:100B8000FC910190F081E02DC6010995892B79F740
:100B9000C501DF91CF911F910F91FF90EF90DF90F2
:100BA000CF90BF90AF900895FC01538D448D252FB9
:100BB00030E0842F90E0821B930B541710F0CF96F7
:100BC000089501970895FC01918D828D981761F029
:100BD000A28DAE0FBF2FB11D5D968C91928D9F5F40
:100BE0009F73928F90E008958FEF9FEF0895FC011F
:100BF000918D828D981731F0828DE80FF11D858DD2
:100C000090E008958FEF9FEF0895FC01918D228D64
:100C1000892F90E0805C9F4F821B91098F739927E9
:100C200008958DE892E00E94050621E0892B09F4E1
:100C300020E0822F089580E090E0892B29F00E9427
:100C4000110681110C9400000895FC01A48DA80FD9
:100C5000B92FB11DA35ABF4F2C91848D90E00196FE
:100C60008F739927848FA689B7892C93A089B1891E
:100C70008C91837080648C93938D848D981306C0BF
:100C80000288F389E02D80818F7D80830895EF9223
:100C9000FF920F931F93CF93DF93EC0181E0888F36
:100CA0009B8D8C8D98131AC0E889F989808185FF06
:100CB00015C09FB7F894EE89FF896083E889F989A8
:100CC00080818370806480839FBF81E090E0DF91AA
:100CD000CF911F910F91FF90EF900895F62E0B8DFD
:100CE00010E00F5F1F4F0F731127E02E8C8D8E11B8
:100CF0000CC00FB607FCFACFE889F989808185FF1F
:100D0000F5CFCE010E942506F1CFEB8DEC0FFD2F24
:100D1000F11DE35AFF4FF0829FB7F8940B8FEA89D9
:100D2000FB8980818062CFCF0F931F93CF93DF9396
:100D30008C01D0E0C0E0F801EC0FFD1F6491662348
:100D400041F08DE892E00E944706892B11F0219630
:100D5000F2CFCE01DF91CF911F910F910895CF93E4
:100D6000DF93EC01888D8823B9F0AA89BB89E889D3
:100D7000F9898C9185FD03C0808186FD0DC00FB679
:100D800007FCF7CF8C9185FFF2CF808185FFEDCFF7
:100D9000CE010E942506E9CFDF91CF9108952091E1
:100DA000A501260F3327331F21323105ECF42091A2
:100DB000C901FC0190E080E0243069F082E00895F0
:100DC000A091A5012191AC014B575E4FA40FB52F07
:100DD000B11D2C930196861798F38091A501680F99
:100DE0006093A50180E0089581E008951092C90103
:100DF00081E08093CB011092CA0161E082E10E9400
:100E00004B0461E083E10E944B04E9EBF0E0808158
:100E10008E7F808380818D7F808380E28093B80085
:100E200085E48093BC0008950895E091F6018091D7
:100E3000F501E81730F4F0E0E15AFE4F808190E0D0
:100E400008958FEF9FEF08959091F6018091F5013D
:100E50002FEF3FEF981748F4E92FF0E0E15AFE4FEB
:100E6000208130E09F5F9093F601C9010895809141
:100E7000F5019091F601891B990B0895CF93DF93AB
:100E8000CB01EA01642F0E94CF06CE01DF91CF9102
:100E90000895CF93DF931F92CDB7DEB7698361E0EA
:100EA000CE0101960E94CF0681E090E00F90DF9185
:100EB000CF91089590E080E008950F931F93CF9312
:100EC000DF938EE00E9407058EE00E9407058C01EB
:100ED0008FE00E9407058FE00E940705EC0160E8A3
:100EE00072E080E090E00E943E0520915C012223A8
:100EF00069F1023011052CF490E080E0C230D10598
:100F000074F1C8014F978732910508F444C08A559F
:100F100091098732910550F18A5A9109879748F1D2
:100F20000F3D83E0180744F5CE014F9787329105B6
:100F300030F18A5591098732910520F18A5A910939
:100F4000879718F1CF3D83E0D80714F590E080E053
:100F5000023011051CF421E022970CF020E02093D0
:100F60005C01DF91CF911F910F91089583E090E094
:100F7000EFCF81E090E0ECCF82E090E0E9CF88E035
:100F800090E0E6CF87E090E0E3CF86E090E0E0CF2E
:100F900085E090E0DDCF84E090E0E0CF1092290280
:100FA000109228021092140210921502109216024A
:100FB000109217021092270261E086E00E944B0413
:100FC00061E085E00E944B040E94F00378948091D8
:100FD0002A02882331F085E090E090932C028093E0
:100FE0002B0208952FB7F8946091850270918602C4
:100FF00080918702909188022FBF26E09695879571
:10100000779567952A95D1F708958F929F92AF9221
:10101000BF920F931F93CF93DF93CDB7DEB7A19706
:101020000FB6F894DEBF0FBECDBF19A2423008F450
:101030004AE08E010F5D1F4F842E912CB12CA12C04
:10104000A50194010E945818E62FB901CA01EA309F
:1010500044F5E05DD801EE938D01232B242B252B45
:1010600079F790E080E0109769F0FD010190002091
:10107000E9F73197AF014A1B5B0BBD018DE892E0A8
:101080000E94A705A1960FB6F894DEBF0FBECDBF94
:10109000DF91CF911F910F91BF90AF909F908F9054
:1010A0000895E95CD7CF42E050E068E571E08DE853
:1010B00092E00C94A705CF93DF930E949406EC0175
:1010C0000E9453088C0F9D1FDF91CF910895CF92FE
:1010D000DF92EF92FF920F931F93CF93DF9300D095
:1010E00000D01F92CDB7DEB780915E018823F9F062
:1010F000809155028823D9F04091560250E067E56F
:1011000072E08AE293E00E943E0710925E01109224
:1011100055020F900F900F900F900F90DF91CF918D
:101120001F910F91FF90EF90DF90CF900895009165
:101130002B0210912C0209831A821B821C82802FA1
:1011400080958D838091FF018823A9F00E94F2078A
:10115000C090FB01D090FC01E090FD01F090FE01F9
:101160006C197D098E099F096938734181059105C4
:1011700010F01092FF010A301105F9F488E791E0B0
:101180000E945B089091090280910A029A838B83E6
:1011900045E050E0BE016F5F7F4F8AE293E00E941E
:1011A0003E078091FF018823A9F00531110591F4D4
:1011B00010932C0200932B02ACCF0D30110541F798
:1011C0009091090280910A029A838B8380915D013C
:1011D0008C83DECF0231110569F480912E0290914B
:1011E0002F02892B39F489E290E090932C028093AE
:1011F0002B028FCF10922C0210922B028ACF1092CA
:1012000029021092280210921402109215021092D4
:101210001602109217021092270288E690E00E94B0
:101220005B0861E086E00E944B0461E085E00C947D
:101230004B040E94FF0884E790E00E945B0860E88E
:101240007EE380E090E00C943E05CF92DF92EF9237
:10125000FF92CF93DF936C01990FEE08FF08F7FE22
:1012600019C06DE28DE892E00E944706EC01662706
:101270007727CB016C197D098E099F094AE00E94EE
:1012800005088C0F9D1FDF91CF91FF90EF90DF90AD
:10129000CF9008954AE0C701B601DF91CF91FF904A
:1012A000EF90DF90CF900C940508CF93DF930E94CE
:1012B0002509EC010E9453088C0F9D1FDF91CF91EF
:1012C0000895CF93DF932091190230911A022817C5
:1012D000390721F1EC01892B19F081E00E94910975
:1012E000D0931A02C09319028DEA90E00E949406EE
:1012F000CE010E94250984E990E00E949406809125
:10130000190290911A02892B31F08DE890E0DF915B
:10131000CF910C945B0880E990E0F9CFDF91CF91F9
:101320000895CF9390911802981721F1C82F811139
:1013300004C090E080E00E946109C093180281E837
:1013400090E00E9494068C2F90E00E9455098091B5
:101350001802882349F061E088E00E944B0461E0B4
:1013600089E0CF910C944B0460E088E00E944B042C
:1013700060E0F6CFCF91089510922A0210922002D9
:101380000E94F0030E94FF0880E00E9491091092E1
:101390001A021092190289E090E090932C02809337
:1013A0002B020895CF93DF93682F70E090E080E0E8
:1013B0004AE00E940508EC010E9453088C0F9D1F13
:1013C000DF91CF910895CF92DF92FF920F931F93F9
:1013D000CF93DF93CDB7DEB7A0970FB6F894DEBFFB
:1013E0000FBECDBF181619060CF073C08AE293E049
:1013F0000E942407182FCE0101966C0100E0F090A6
:10140000F5018091F601F816A9F0003249F08AE260
:1014100093E00E9424070F5FF60181936F01EFCFE5
:101420008091F601F81609F446C18AE293E00E9421
:101430002407F6CF1733B1F50230D0F089819A81B5
:101440009827892798270250DE011396E1E3F2E0FE
:1014500020E0201720F43D9131932F5FFACF909335
:101460005302809352020093510281E08093540210
:1014700089EC810F843008F449C010925E0110920B
:1014800055021431A1F51092080281E090E090938A
:101490002F0280932E0210922C0210922B02109297
:1014A000FF0117C0183309F00CC1033090F02981F7
:1014B0003A813227232732278B81813208F080E25C
:1014C00030937902209378028093770281E08093B1
:1014D0007A02A0960FB6F894DEBF0FBECDBFDF91A3
:1014E000CF911F910F91FF90DF90CF90089517310A
:1014F00069F41092000281E090E090932F028093B3
:101500002E0210922C0210922B02E3CF133889F492
:101510001092030281E090E090932F0280932E02BC
:1015200010922C0210922B0289E691E00E945B0837
:10153000D0CF183879F41092020281E090E09093B5
:101540002F0280932E0210922C0210922B0286E51D
:1015500091E0ECCF143879F410922D0281E090E004
:1015600090932F0280932E0210922C0210922B0245
:1015700084E491E0DBCF163879F41092010281E027
:1015800090E090932F0280932E0210922C021092E2
:101590002B0284E391E0CACF153821F481E08093D7
:1015A000300297CF1932C1F580912E0290912F020F
:1015B000029738F181E090E090932F0280932E0201
:1015C00010928302109208021092030210920202FB
:1015D00010922D021092000210922C0210922B02F7
:1015E00087E191E0A0960FB6F894DEBF0FBECDBFA5
:1015F000DF91CF911F910F91FF90DF90CF900C94CE
:101600005B0810922F0210922E0210922C02109260
:101610002B0282E091E0E6CF173881F480912A0214
:10162000882309F456CF10922A021092200280914A
:1016300013020E9491098EEE90E0D4CF103881F40D
:1016400080912A02882309F444CF81E0809320020C
:1016500040CF1A3309F00CCF81E080935E0108CFB0
:10166000113809F036CF83E00E942204182F8093AE
:101670005D0184E10E94070584E10E9407059093C3
:101680000A028093090284ED90E00E949406812F63
:101690000E94D20989EB90E00E9494068091090291
:1016A00090910A020E9455098DE090E090932C02DF
:1016B00080932B020ECF173309F4C0CE183309F4F0
:1016C000F6CE193331F61092310210925302109275
:1016D000520281E080935102C9CE81E080932702BB
:1016E0008CBB8EEC97E09093040180930301E9E6B4
:1016F000F0E080818C7F82608083E89A60911B0299
:1017000070E086E00E94AA0470E060E085E00C943E
:10171000AA04CF93DF9385ED8093BC008091810173
:1017200090918201A0918301B09184010796A11D3F
:10173000B11D23E0B695A795979587952A95D1F782
:101740002091BC0024FD03C01092C90136C0409115
:101750008101509182016091830170918401452B38
:10176000462B472B69F30097A105B10541F025E110
:101770002A95F1F700000197A109B109E1CF809105
:10178000800191E090937F018823B9F0C091B80067
:10179000D091BA008091BC008A7B8093BC0060E04D
:1017A00082E10E944B0460E083E10E944B040E94AE
:1017B000F606D093BA00C093B800DF91CF91089598
:1017C000FF920F931F93CF93DF93EC01F62E0881C6
:1017D0001981C8010E941018F81621F06F2DC80158
:1017E0000E941818CE01DF91CF911F910F91FF90A9
:1017F00008951F920F920FB60F9211242F933F93CB
:101800008F939F93AF93BF938091850290918602AF
:10181000A0918702B09188023091840226E0230FC4
:101820002D3758F50296A11DB11D20938402809397
:10183000850290938602A0938702B09388028091DC
:10184000890290918A02A0918B02B0918C0201963C
:10185000A11DB11D8093890290938A02A0938B02EF
:10186000B0938C02BF91AF919F918F913F912F9137
:101870000F900FBE0F901F90189529E8230F039625
:10188000A11DB11DD2CF1F920F920FB60F9211243E
:101890002F933F934F935F936F937F938F939F9378
:1018A000AF93BF93EF93FF93E0910501F091060191
:1018B0000995FF91EF91BF91AF919F918F917F918A
:1018C0006F915F914F913F912F910F900FBE0F90AD
:1018D0001F9018951F920F920FB60F9211242F93FD
:1018E0003F934F935F936F937F938F939F93AF93A8
:1018F000BF93EF93FF93E0910301F09104010995E9
:10190000FF91EF91BF91AF919F918F917F916F91D7
:101910005F914F913F912F910F900FBE0F901F90AD
:1019200018951F920F920FB60F9211242F933F9389
:101930004F935F936F937F938F939F93AF93BF93D7
:10194000EF93FF938DE892E00E942506FF91EF91BF
:10195000BF91AF919F918F917F916F915F914F91C7
:101960003F912F910F900FBE0F901F9018951F92CF
:101970000F920FB60F9211242F938F939F93EF9393
:10198000FF93E0919D02F0919E028081E091A3027D
:10199000F091A40282FD1BC090818091A6028F5F0E
:1019A0008F732091A702821741F0E091A602F0E028
:1019B000E357FD4F958F8093A602FF91EF919F9182
:1019C0008F912F910F900FBE0F901F9018958081CF
:1019D000F4CF1F920F920FB60F9211242F933F93C3
:1019E0004F935F936F937F938F939F93AF93BF9327
:1019F000EF93FF938091B900887F803609F44AC045
:101A0000F0F5883209F4A7C018F5803109F49BC0BD
:101A1000B8F4882309F4F9C0883009F494C0FF9120
:101A2000EF91BF91AF919F918F917F916F915F9156
:101A30004F913F912F910F900FBE0F901F901895CF
:101A4000883109F488C0803251F78093C80114C0EE
:101A5000803409F49DC040F48033B9F38833F9F63B
:101A60008093C80185ECB0C0803509F485C0883505
:101A700009F496C0883499F60E94890BD0CF883932
:101A800009F48CC038F5883729F050F4883611F005
:101A9000803729F683E08093C9011092C70157C0AF
:101AA000883809F47BC0803919F0803809F0B7CF45
:101AB0008091C701803208F071C0E091C70181E0D8
:101AC0008E0F8093C7018091BB00F0E0E955FE4F77
:101AD00080833DC0803B39F0E0F4803A09F479C05E
:101AE000883A09F09CCF84E08093C9011092A60146
:101AF0001092A501E091F101F091F2010995809118
:101B0000A50181110FC081E08093A501109285018C
:101B100009C0803C09F4A6CF883C09F4A3CF883BD8
:101B200009F07DCFE091A60181E08E0F8093A601A0
:101B3000F0E0EB57FE4F80818093BB009091A601AF
:101B40008091A50129C08091EE018093BB0085ECB6
:101B50008093BC0064CF9091ED018091EC019817C7
:101B600058F5E091ED0181E08E0F8093ED01F0E0FA
:101B7000E453FE4F8081E9CFE091ED0181E08E0FCB
:101B80008093ED018091BB00F0E0E453FE4F808331
:101B90009091ED018091EC019817C8F285E8D8CFBB
:101BA000E091ED0181E08E0F8093ED018091BB000B
:101BB000F0E0E453FE4F80838091CB0181115CCF34
:101BC00081E08093CA0184EA8093BC001092C9012D
:101BD00026CF85EC8093BC001092C9018091C7018B
:101BE000803230F4E091C701F0E0E955FE4F1082F9
:101BF0006091C70170E0E091EF01F091F00187EA98
:101C000091E009951092C7010ACF1092C80134CF14
:101C1000EDE8F2E01382128288EE93E0A0E0B0E0FB
:101C200084839583A683B78328E331E031832083BF
:101C300025EC30E03587248724EC30E03787268791
:101C400020EC30E0318B208B21EC30E0338B228B89
:101C500022EC30E0358B248B26EC30E0378B268B62
:101C6000118E128E138E148EEAE2F3E0138212822A
:101C700084839583A683B7838AE491E091838083EC
:101C80000895CF93DF93CDB7DEB72F970FB6F894B3
:101C9000DEBF0FBECDBF789484B5826084BD84B5AD
:101CA000816084BD85B5826085BD85B5816085BD57
:101CB00080916E00816080936E001092810080910F
:101CC0008100826080938100809181008160809397
:101CD0008100809180008160809380008091B100BC
:101CE00084608093B1008091B00081608093B000E7
:101CF00080917A00846080937A0080917A0082607B
:101D000080937A0080917A008E7F80937A00809110
:101D10007A00806880937A001092C100F4B614BEF5
:101D200061E089E00E94790460E089E00E944B0450
:101D3000E0919D02F0919E0282E08083E091990201
:101D4000F0919A021082E0919B02F0919C0288E04F
:101D500080831092A502E091A102F091A20286E098
:101D60008083E0919F02F091A00280818061808356
:101D7000E0919F02F091A002808188608083E091D1
:101D80009F02F091A002808180688083E0919F0291
:101D9000F091A00280818F7D808381E090E00E949D
:101DA0001018853A09F027C190E080E00E941018D1
:101DB000182F8093020182E192E00E949406812F05
:101DC0000E94D2098EEC91E00E9494066F2D70E083
:101DD00090E080E040E10E94050887EC91E00E94DD
:101DE00094068F2D817090E00E9425098FEB91E081
:101DF0000E949406F1FA882780F990E00E94250954
:101E000088EB91E00E949406F2FA882780F990E02E
:101E10000E94250981EB91E00E949406F3FA88273D
:101E200080F990E00E94550960E08EE00E947904FC
:101E300060E08FE00E94790460E080E10E94790414
:101E400060E081E10E94790460E084E10E9479040D
:101E500061E088E00E94790461E086E00E947904F4
:101E600061E085E00E94790460E082E00E947904EC
:101E700060E083E00E94790460E085E10E947904DB
:101E800083E00E94220421E0892B09F420E02093C2
:101E90001102209310020E94F207605E7C4F8F4F68
:101EA0009F4F60937F027093800280938102909392
:101EB000820285B5887F816085BD61E086E00E94F1
:101EC0004B0461E085E00E944B0460E088E00E94E2
:101ED0004B0460E089E00E944B041092F6011092DE
:101EE000F5011092F4011092F3010E94F60681E7C9
:101EF00095E09093F2018093F1018DE795E0909346
:101F0000F0018093EF0184E58093BA0083EE99E0BD
:101F10009093F8018093F70187E698E09093FA0197
:101F20008093F90184E10E94070585E10E9407057D
:101F30008C017C016C0167E0A62EB12C85E10E942A
:101F4000070585E10E940705080F191F8C159D05DF
:101F50000CF46C01E816F9060CF47C0121E0A21ADD
:101F6000B10861F717FF02C0095F1F4F53E01595D5
:101F700007955A95E1F7EC18FD0839E7E316F104E7
:101F80000CF43EC08FE991E00E945B0844244A941F
:101F900033E0532E612C712C48E0242E312CEE249A
:101FA000E394F12C80918302811158C00E94F207C2
:101FB00000917F0210918002209181023091820273
:101FC000601771078207930708F048C00E945D07F9
:101FD00090937E0280937D0290937C0280937B029B
:101FE00080E090E0892BF1F20E9411068823B9F27B
:101FF0000E940000D4CF8CED91E00E945B08E2CEFD
:102000008FE0E7E0F1E0DE01119601900D928A95F4
:10201000E1F7E8E1F1E090E080E07C012FEFE21AE7
:10202000F20A219131910217130714F07C0104C0C8
:10203000C7018E30910589F789E991E00E949406E5
:10204000E1E0F0E0EC0FFD1FEE0DFF1D60818DE87B
:1020500092E00E9447060E94530898CF80917A022E
:10206000882301F110927A0200917802109179028E
:10207000A090770297E5C92E92E0D92EB12C025597
:102080001240AB1451F0C8018C0D9D1D0E94101818
:10209000F60181936F01B394F4CFA092560281E0D0
:1020A0008093550280915402882361F1109254026A
:1020B000C0905202D09053028090510201E312E08E
:1020C000912C96012D5232405901891471F0F8017A
:1020D00061918F01C5018E0F9F1F9A838983CE0165
:1020E00001960E94E00B9394F0CFF1E08F120AC0AA
:1020F000CD2841F480913102811104C08AE197E03A
:102100000E945B08809130028823C1F180912E02E9
:1021100090912F0210923002892B41F4F0922F02FD
:10212000E0922E0289EF96E00E945B0881E08093A6
:102130002D0286E090E090932F0280932E02109261
:102140002C0210922B020E945D0790937E028093D6
:102150007D0290937C0280937B028DEC96E00E943E
:10216000940686E090E00E9425098FEB96E00E949D
:10217000940680912D0290E00E945509C0902E0295
:10218000D0902F02C114D10409F410C40E945D073D
:102190008C0190937E0280937D0221E0C216D104CF
:1021A00009F07DC1C0907B02D0907C028C159D050A
:1021B00009F416CF83ED94E00E949406C6010E94B4
:1021C00025098EEC94E00E94940680917D02909106
:1021D0007E020E94550980917D0290917E0290932B
:1021E0007C0280937B0284309105A1F180F40397F7
:1021F00009F0F6CE10922F0210922E0289E290E0A2
:1022000090932C0280932B0284E894E042C18630A4
:10221000910509F438C0079709F0E2CE8FE894E001
:102220000E949406809121020E94D209E09121022D
:10223000EA3008F031C1F0E0E05EFE4E0C949D18EB
:10224000571167117D1189119511A111AD11B711A8
:102250004C12C0118091210290E009966AE070E072
:102260000E948918182F809321028AE290E09093AF
:102270002C0280932B0289EB94E00E949406812F1C
:102280000E94D209ADCE8091210290E001966AE0D1
:1022900070E00E948918182F809321028BE290E051
:1022A00090932C0280932B0284EA94E0E6CF82E0A4
:1022B00090E090932F0280932E0281E0809383021E
:1022C0008EE090E090932C0280932B0289CE83E0E5
:1022D00090E090932F0280932E0281E08093080279
:1022E0000E94F20760930402709305028093060235
:1022F0009093070283E190E0E5CF84E090E0909333
:102300002F0280932E0281E0809303028EE190E001
:10231000D9CF85E090E090932F0280932E0281E048
:102320008093020282E390E0CDCF86E090E090932C
:102330002F0280932E0281E080932D0283E290E0B1
:10234000C1CF87E090E090932F0280932E0281E02E
:10235000809301028DE290E0B5CF30922F0220925F
:102360002E0281E08093000286E190E0ABCF89E00D
:1023700090E090932F0280932E0288E190E0A2CF0C
:1023800010922F0210922E0289E290E090932C027C
:1023900080932B0280EA92E00E945B086FEF70E06E
:1023A00086E00E94AA0470E060E085E00E94AA0432
:1023B0000E94F2074B015C0182E00E942204182F68
:1023C0000E94F207681979098A099B09683B7B40DA
:1023D0008105910508F00CC682E00E9422041130AC
:1023E00071F78111ECCF0FEF10E0D02EB80186E02D
:1023F0000E94AA0460E07BE480E090E00E943E0539
:102400000E94F2074B015C0182E00E942204C82E68
:102410000E94F207681979098A099B09683E73408E
:102420008105910508F0ECC582E00E942204F1E0EC
:10243000CF12EDCF8111EBCF025011090D311105F3
:10244000A1F68EE1D82E0E94FF080D2D10E0015F4D
:102450001F4F0F3F110519F010F00FEF10E0009320
:10246000020180E492E00E949406802F0E94D2092B
:10247000609102011A821982CE0101960E94E00B3E
:10248000FA82E98265EACE0101960E94E00B89E2B8
:1024900092E00E945B08A4CD8CE290E013CF809183
:1024A0008302882309F457C080917B0290917C02BB
:1024B0000817190709F494CD10937C0200937B024E
:1024C00005301105C9F180F403301105E9F004303D
:1024D000110509F085CD8FE090E090932C02809358
:1024E0002B0282E694E0D5CF06301105E1F00730EB
:1024F000110509F075CD81E190E090932C02809355
:102500002B0285E494E0C5CFF0922F02E0922E02D8
:102510001092830282E190E090932C0280932B0230
:102520008FE694E0B6CF80E190E090932C02809308
:102530002B0285E594E0ADCF10922F0210922E026F
:102540001092830282E190E090932C0280932B0200
:1025500083E394E09ECF80910802882309F457C05A
:102560008FE00E9407058FE00E9407058F3D934092
:102570001CF405301105D1F488E194E00E945B0859
:10258000F0922F02E0922E021092080281E08093D6
:10259000FF010E94F2076093FB017093FC0180939E
:1025A000FD019093FE0185E190E08CCE0330110592
:1025B00079F4F0922F02E0922E021092080285E147
:1025C00090E090932C0280932B0282E094E061CF04
:1025D0000E94F20700910402109105022091060268
:1025E00030910702601B710B820B930B613D7B4F97
:1025F0008140910508F4F4CCF0922F02E0922E0273
:102600001092080210922C0210922B02E9CC8091B9
:102610000302882309F445C080917B0290917C02DB
:102620000817190709F4DCCC10937C0200937B0295
:102630000530110539F150F40330110589F08FE1AF
:1026400090E00430110509F43DCECACC06301105E6
:10265000B1F081E290E00730110509F433CEC0CC2F
:10266000F0922F02E0922E021092030282E290E09A
:1026700090932C0280932B0280EF93E00ACF80E2AC
:1026800090E020CE10922F0210922E0210920302A0
:1026900082E290E090932C0280932B0281EE93E0F3
:1026A000F8CE80910202882309F445C080917B0214
:1026B00090917C020817190709F492CC10937C02C0
:1026C00000937B020530110539F150F403301105F8
:1026D00089F083E390E00430110509F4F3CD80CC58
:1026E00006301105B1F085E390E00730110509F4DB
:1026F000E9CD76CCF0922F02E0922E0210920202E7
:1027000086E390E090932C0280932B028BEC93E075
:10271000C0CE84E390E0D6CD10922F0210922E020C
:102720001092020286E390E090932C0280932B0299
:1027300088EB93E0AECE80912D02882309F457C038
:1027400080917B0290917C020817190709F448CC0C
:1027500010937C0200937B0205301105C9F180F4CF
:1027600003301105E9F00430110509F039CC84E299
:1027700090E090932C0280932B0286E993E089CE1F
:1027800006301105E1F00730110509F029CC86E289
:1027900090E090932C0280932B0289E793E079CE0E
:1027A000F0922F02E0922E0210922D0287E290E02A
:1027B00090932C0280932B0283EA93E06ACE85E209
:1027C00090E090932C0280932B0289E893E061CEF5
:1027D00010922F0210922E0210922D0287E290E0AA
:1027E00090932C0280932B0287E693E052CE809147
:1027F0000102882309F457C080917B0290917C02EA
:102800000817190709F4ECCB10937C0200937B02A4
:1028100005301105C9F180F403301105E9F00430E9
:10282000110509F0DDCB8EE290E090932C028093AD
:102830002B0289E493E02DCE06301105E1F007303C
:10284000110509F0CDCB80E390E090932C028093AA
:102850002B0280E393E01DCEF0922F02E0922E0235
:102860001092010281E390E090932C0280932B025E
:1028700084E593E00ECE8FE290E090932C0280935B
:102880002B028EE393E005CE10922F0210922E02BF
:102890001092010281E390E090932C0280932B022E
:1028A00080E293E0F6CD80910002882339F10E9406
:1028B0005D0790937E0280937D0220917B02309190
:1028C0007C028217930709F48BCB90937C02809350
:1028D0007B028330910519F0059709F081CBF092C6
:1028E0002F02E0922E021092000287E190E0909376
:1028F0002C0280932B028DE093E0CBCD89E0C816AB
:10290000D10409F06DCB80917B0290917C02081775
:10291000190709F465CB10937C0200937B02053004
:102920001105B9F180F40330110531F104301105BE
:1029300009F056CB89E190E090932C0280932B0212
:1029400080E093E0A6CD0630110569F0073011054F
:1029500009F046CB8BE190E090932C0280932B0200
:1029600083EE92E096CDEAE1F0E0F0932C02E09362
:102970002B0283EF92E08DCDF0922F02E0922E0297
:102980002CE130E030932C0220932B028EEC92E06D
:1029900080CD10922F0210922E028CE190E0909345
:1029A0002C0280932B028CEB92E073CD80912A0253
:1029B00081110BC08091280290912902892B29F462
:1029C00080912702882309F4BFC0109226020E943A
:1029D0005D0790937E0280937D0280912A02882376
:1029E000E1F1809120028823C1F180912B02909126
:1029F0002C02099791F18091270281112EC010922B
:102A0000200283E00E942204892B09F011C18091E9
:102A10001F02811112C080911E028F5F80931E02DF
:102A20008330C8F089E180931F028BE296E00E9418
:102A30005B0880911F02882371F0815080931F02F0
:102A4000811109C08AEF95E00E945B080E94BC09D1
:102A50008FE080931D020E946D0B80911D028823E0
:102A600061F090912702911108C0815080931D025E
:102A7000882309F4E0C00E946D0B81E10E940705E4
:102A800080900201912CB12CA12C81E10E940705BC
:102A90003FEF831A9108A108B108DC01A501940158
:102AA0000E945018A30192010E94261821503F4F06
:102AB0004F4F5F4F20931C0280E10E94070580E189
:102AC0000E940705DC01A50194010E945018A30192
:102AD00092010E94261849015A018FEF880E911C1D
:102AE000A11CB11C80921B02E0917D02F0917E023C
:102AF00080912A0220917B0230917C02E217F30739
:102B000009F4B9C1F0937C02E0937B02882309F4B5
:102B100097C0359749F4909126029111A5C088235A
:102B200009F49FC00E94BC0900912802109129025B
:102B30000130110509F06EC260911C0270E08091B5
:102B400012020E94AA044CCA8FE00E9407058FE07F
:102B50000E940705209126028F3D93400CF441C04E
:102B6000211112C081E0809326020E94F207609337
:102B700022027093230280932402909325028AE913
:102B800096E00E945B0823CF0E94F2070091220288
:102B9000109123022091240230912502601B710BB9
:102BA000820B930B683B7B408105910508F40FCFA6
:102BB000F0922F02E0922E02109221021092260231
:102BC00010927C0210927B0210927E0210927D0283
:102BD00028E230E030932C0220932B028CE796E021
:102BE00058CC222309F4F3CE0E94F207009122026E
:102BF0001091230220912402309125024B015C01A7
:102C0000801A910AA20AB30A81E696E00E9494060D
:102C10004AE0C501B4010E94050881E596E00E94E2
:102C20005B081092260210927C0210927B02CFCE9B
:102C300010921E02FECE86EE95E00E945B081DCF2C
:102C40003197E830F10508F06FCFE75DF94E0C944D
:102C50009D18391652165D1698168B15C616DD1678
:102C600027170E94FF0860CF83EC95E00E945B0865
:102C70005BCF8091190290911A028230910579F010
:102C8000992701960E9461098091190290911A0278
:102C90009927029690932C0280932B0245CF90E0C7
:102CA00080E0F0CF9091180281E089270E9491097D
:102CB0008091180290E00696EDCF809128029091C5
:102CC0002902019711F40E941909EFEFFFEFF09329
:102CD0002902E09328028FEA95E00E9494068091F1
:102CE0001C020E94D2090E94F00385E08093120228
:102CF00070E060E086E00E94AA04C0901C0200918F
:102D0000020110E0D12C0C151D056CF4B80185E012
:102D10000E94AA0460E471E080E090E00E943E0519
:102D20000D5F1F4FF0CFB60185E00E94AA04FCCED4
:102D30008091280290912902892B29F58091270200
:102D4000811121C083EA95E00E949406882D0E949B
:102D5000D20981E0809327028CBB2EEC37E03093C0
:102D6000040120930301809169008C7F826080932D
:102D70006900E89A70E060E086E00E94AA04609131
:102D80001B0270E0D1CF80E995E070CF80912802DE
:102D900090912902892B71F48091270281110AC038
:102DA00084E895E00E949406882D0E94D2090E9432
:102DB0006D0BBACE81E795E059CF809128029091B2
:102DC0002902019611F40E941909F0922902E09259
:102DD000280283E00E942204019791F50E94F207E5
:102DE0006093140270931502809316029093170259
:102DF0008DE595E00E94940680911C020E94D20904
:102E00000E94F00386E08093120270E060E085E0AB
:102E10000E94AA04C0901C020091020110E0D12C73
:102E20000C151D058CF4B80186E00E94AA0460E42C
:102E300071E080E090E00E943E050D5F1F4FF0CFF3
:102E400060E070E0CB01CCCFB60186E06ECF809120
:102E500018028093130281E080932A0210921F02CD
:102E600010921E0210921D0230922C0220922B0210
:102E70000E94910959CE811157CE84E10E94070525
:102E800084E10E94070584E10E9407058C0180917E
:102E9000000190910101801B910B97FF03C0919558
:102EA000819591090897ACF010930A0200930902EA
:102EB00010930101009300018EEE94E00E949406AD
:102EC000C8010E9455098AE090E090932C028093FB
:102ED0002B02D0901102D092100283E00E942204B3
:102EE00021E0009709F420E02093110200912802CC
:102EF00010912902892B09F057C0DD2069F00E944A
:102F0000F20760930B0270930C0280930D02909372
:102F10000E0281E080930F0280910F02882309F452
:102F200003CE0E94F20780900B0290900C02A090BA
:102F30000D02B0900E02681979098A099B09643F55
:102F400071408105910508F4EFCD81E395E00F3FD5
:102F50001007E9F001301105F1F48090140290900F
:102F60001502A0901602B090170281149104A104DA
:102F7000B10489F00E94F207681979098A099B094E
:102F8000603375478105910530F085E095E00E943A
:102F90005B080E94FF088BE090E090932C028093E6
:102FA0002B0210920F02C0CD10920F0201301105BA
:102FB00079F58091140290911502A0911602B091BA
:102FC0001702892B8A2B8B2B51F40E94F2076093F6
:102FD0001402709315028093160290931702D11079
:102FE000ABCDECE0F0E0F0932C02E0932B029CCD13
:102FF00083E792E00E945B080E94FF080C94F00FA8
:103000008BE592E00E9494068D2D0E94D2091BCA86
:10301000DD2039F30F3F1F4F11F00C94F00F8CCDD2
:10302000F999FECF92BD81BDF89A992780B5089590
:10303000262FF999FECF1FBA92BD81BD20BD0FB6D4
:10304000F894FA9AF99A0FBE01960895052E97FB07
:103050001EF400940E943D1857FD07D00E94581896
:1030600007FC03D04EF40C943D18509540953095D4
:1030700021953F4F4F4F5F4F0895909580957095E4
:1030800061957F4F8F4F9F4F08950E947A18A59F9B
:10309000900DB49F900DA49F800D911D1124089553
:1030A000B7FF0C9445180E944518821B930B089596
:1030B000A1E21A2EAA1BBB1BFD010DC0AA1FBB1F3C
:1030C000EE1FFF1FA217B307E407F50720F0A21BAE
:1030D000B30BE40BF50B661F771F881F991F1A941B
:1030E00069F760957095809590959B01AC01BD0145
:1030F000CF010895A29FB001B39FC001A39F700D9F
:10310000811D1124911DB29F700D811D1124911DEF
:10311000089597FB072E16F4009407D077FD09D089
:103120000E94A31807FC05D03EF4909581959F4F0F
:103130000895709561957F4F0895EE0FFF1F0590DC
:10314000F491E02D0994AA1BBB1B51E107C0AA1FF3
:10315000BB1FA617B70710F0A61BB70B881F991F38
:103160005A95A9F780959095BC01CD010895F894E2
:02317000FFCF8F
:103172009CFF64F803F80345464748494A4B4C4DC7
:103182004E4F50515253CA03890348030703C602E4
:10319200850244020302C20181014001FF00BE0018
:1031A2007D003C00000000004706A705D405AF06DD
:1031B2000506E305F7050000000049073E075A0728
:0C31C20014073707240715070D0A00004A
:00000001FF
